{
  "contractName": "InterweaveGraph",
  "abi": [
    {
      "anonymous": false,
      "inputs": [
        {
          "indexed": false,
          "name": "nodeAddr",
          "type": "address"
        },
        {
          "indexed": true,
          "name": "ownerAddr",
          "type": "address"
        }
      ],
      "name": "NodeCreated",
      "type": "event"
    },
    {
      "anonymous": false,
      "inputs": [
        {
          "indexed": false,
          "name": "nodeAddr",
          "type": "address"
        },
        {
          "indexed": true,
          "name": "ownerAddr",
          "type": "address"
        }
      ],
      "name": "NodeDeleted",
      "type": "event"
    },
    {
      "anonymous": false,
      "inputs": [
        {
          "indexed": false,
          "name": "halfEdgeAddr",
          "type": "address"
        },
        {
          "indexed": true,
          "name": "ownerAddr",
          "type": "address"
        }
      ],
      "name": "HalfEdgeCreated",
      "type": "event"
    },
    {
      "anonymous": false,
      "inputs": [
        {
          "indexed": false,
          "name": "halfEdgeAddr",
          "type": "address"
        },
        {
          "indexed": true,
          "name": "ownerAddr",
          "type": "address"
        }
      ],
      "name": "HalfEdgeDeleted",
      "type": "event"
    },
    {
      "constant": true,
      "inputs": [
        {
          "name": "_ipfs",
          "type": "bytes32[2]"
        }
      ],
      "name": "addressFromIpfs",
      "outputs": [
        {
          "name": "",
          "type": "address"
        }
      ],
      "payable": false,
      "stateMutability": "pure",
      "type": "function"
    },
    {
      "constant": false,
      "inputs": [
        {
          "name": "_ipfs",
          "type": "bytes32[2]"
        },
        {
          "name": "_format",
          "type": "uint64"
        }
      ],
      "name": "createNode",
      "outputs": [
        {
          "name": "",
          "type": "address"
        }
      ],
      "payable": false,
      "stateMutability": "nonpayable",
      "type": "function"
    },
    {
      "constant": false,
      "inputs": [
        {
          "name": "_nodeAddr",
          "type": "address"
        }
      ],
      "name": "deleteNode",
      "outputs": [],
      "payable": false,
      "stateMutability": "nonpayable",
      "type": "function"
    },
    {
      "constant": true,
      "inputs": [],
      "name": "getSenderNodeCount",
      "outputs": [
        {
          "name": "",
          "type": "uint256"
        }
      ],
      "payable": false,
      "stateMutability": "view",
      "type": "function"
    },
    {
      "constant": true,
      "inputs": [
        {
          "name": "_index",
          "type": "uint256"
        }
      ],
      "name": "getSenderNodeAddrByIndex",
      "outputs": [
        {
          "name": "",
          "type": "address"
        }
      ],
      "payable": false,
      "stateMutability": "view",
      "type": "function"
    },
    {
      "constant": true,
      "inputs": [
        {
          "name": "_nodeAddr",
          "type": "address"
        }
      ],
      "name": "getNode",
      "outputs": [
        {
          "name": "owner",
          "type": "address"
        },
        {
          "name": "ipfs",
          "type": "bytes32[2]"
        },
        {
          "name": "format",
          "type": "uint64"
        },
        {
          "name": "halfEdgeAddrs",
          "type": "address[6]"
        }
      ],
      "payable": false,
      "stateMutability": "view",
      "type": "function"
    },
    {
      "constant": false,
      "inputs": [
        {
          "name": "_nodeAddr",
          "type": "address"
        },
        {
          "name": "_ipfs",
          "type": "bytes32[2]"
        }
      ],
      "name": "createHalfEdge",
      "outputs": [
        {
          "name": "",
          "type": "address"
        }
      ],
      "payable": false,
      "stateMutability": "nonpayable",
      "type": "function"
    },
    {
      "constant": false,
      "inputs": [
        {
          "name": "_halfEdgeAddr",
          "type": "address"
        }
      ],
      "name": "deleteHalfEdge",
      "outputs": [],
      "payable": false,
      "stateMutability": "nonpayable",
      "type": "function"
    },
    {
      "constant": true,
      "inputs": [
        {
          "name": "_halfEdgeAddr",
          "type": "address"
        }
      ],
      "name": "getEdge",
      "outputs": [
        {
          "name": "nodeAddr",
          "type": "address"
        },
        {
          "name": "ipfs",
          "type": "bytes32[2]"
        },
        {
          "name": "format",
          "type": "uint64"
        },
        {
          "name": "connected",
          "type": "bool"
        },
        {
          "name": "otherNodeAddr",
          "type": "address"
        },
        {
          "name": "otherIpfs",
          "type": "bytes32[2]"
        },
        {
          "name": "otherFormat",
          "type": "uint64"
        }
      ],
      "payable": false,
      "stateMutability": "view",
      "type": "function"
    }
  ],
  "bytecode": "0x608060405234801561001057600080fd5b50612e6d806100206000396000f300608060405260043610610099576000357c0100000000000000000000000000000000000000000000000000000000900463ffffffff1680632d4ede931461009e5780633a6b686b146100e1578063520097ca146101625780636b6e0558146101cf57806380aaf005146102125780639d209048146103675780639d40d9c514610463578063b9876378146104f5578063fbbe0bad14610582575b600080fd5b3480156100aa57600080fd5b506100df600480360381019080803573ffffffffffffffffffffffffffffffffffffffff1690602001909291905050506105ad565b005b3480156100ed57600080fd5b5061012060048036038101908080604001909192919290803567ffffffffffffffff169060200190929190505050610e1a565b604051808273ffffffffffffffffffffffffffffffffffffffff1673ffffffffffffffffffffffffffffffffffffffff16815260200191505060405180910390f35b34801561016e57600080fd5b5061018d60048036038101908080359060200190929190505050611304565b604051808273ffffffffffffffffffffffffffffffffffffffff1673ffffffffffffffffffffffffffffffffffffffff16815260200191505060405180910390f35b3480156101db57600080fd5b50610210600480360381019080803573ffffffffffffffffffffffffffffffffffffffff16906020019092919050505061148f565b005b34801561021e57600080fd5b50610253600480360381019080803573ffffffffffffffffffffffffffffffffffffffff169060200190929190505050611b83565b604051808873ffffffffffffffffffffffffffffffffffffffff1673ffffffffffffffffffffffffffffffffffffffff16815260200187600260200280838360005b838110156102b0578082015181840152602081019050610295565b505050509050018667ffffffffffffffff1667ffffffffffffffff168152602001851515151581526020018473ffffffffffffffffffffffffffffffffffffffff1673ffffffffffffffffffffffffffffffffffffffff16815260200183600260200280838360005b83811015610334578082015181840152602081019050610319565b505050509050018267ffffffffffffffff1667ffffffffffffffff16815260200197505050505050505060405180910390f35b34801561037357600080fd5b506103a8600480360381019080803573ffffffffffffffffffffffffffffffffffffffff169060200190929190505050611ff8565b604051808573ffffffffffffffffffffffffffffffffffffffff1673ffffffffffffffffffffffffffffffffffffffff16815260200184600260200280838360005b838110156104055780820151818401526020810190506103ea565b505050509050018367ffffffffffffffff1667ffffffffffffffff16815260200182600660200280838360005b8381101561044d578082015181840152602081019050610432565b5050505090500194505050505060405180910390f35b34801561046f57600080fd5b506104b36004803603810190808060400190600280602002604051908101604052809291908260026020028082843782019150505050509192919290505050612335565b604051808273ffffffffffffffffffffffffffffffffffffffff1673ffffffffffffffffffffffffffffffffffffffff16815260200191505060405180910390f35b34801561050157600080fd5b50610540600480360381019080803573ffffffffffffffffffffffffffffffffffffffff16906020019092919080604001909192919290505050612402565b604051808273ffffffffffffffffffffffffffffffffffffffff1673ffffffffffffffffffffffffffffffffffffffff16815260200191505060405180910390f35b34801561058e57600080fd5b50610597612b21565b6040518082815260200191505060405180910390f35b6105b5612b6e565b6000806000806000808773ffffffffffffffffffffffffffffffffffffffff1673ffffffffffffffffffffffffffffffffffffffff16815260200190815260200160002060a060405190810160405290816000820160009054906101000a900473ffffffffffffffffffffffffffffffffffffffff1673ffffffffffffffffffffffffffffffffffffffff1673ffffffffffffffffffffffffffffffffffffffff1681526020016001820160028060200260405190810160405280929190826002801561069b576020028201915b81546000191681526020019060010190808311610683575b505050505081526020016003820160009054906101000a900467ffffffffffffffff1667ffffffffffffffff1667ffffffffffffffff1681526020016003820160089054906101000a900467ffffffffffffffff1667ffffffffffffffff1667ffffffffffffffff1681526020016004820180548060200260200160405190810160405280929190818152602001828054801561078d57602002820191906000526020600020905b8160009054906101000a900473ffffffffffffffffffffffffffffffffffffffff1673ffffffffffffffffffffffffffffffffffffffff1681526020019060010190808311610743575b5050505050815250509450846000015173ffffffffffffffffffffffffffffffffffffffff163373ffffffffffffffffffffffffffffffffffffffff16141515610865576040517f08c379a000000000000000000000000000000000000000000000000000000000815260040180806020018281038252602f8152602001807f596f75206d757374206f776e2074686973204e6f646520746f2062652061626c81526020017f6520746f2064656c6574652069742e000000000000000000000000000000000081525060400191505060405180910390fd5b600093505b8460800151518460ff1610156109e15760006001600087608001518760ff1681518110151561089557fe5b9060200190602002015173ffffffffffffffffffffffffffffffffffffffff1673ffffffffffffffffffffffffffffffffffffffff16815260200190815260200160002060010160009054906101000a900473ffffffffffffffffffffffffffffffffffffffff1673ffffffffffffffffffffffffffffffffffffffff161415156109d4576040517f08c379a00000000000000000000000000000000000000000000000000000000081526004018080602001828103825260468152602001807f596f75206d75737420646973636f6e6e6563742074686973204e6f646520667281526020017f6f6d20616c6c206f74686572204e6f646573206265666f72652064656c65746981526020017f6e672069742e000000000000000000000000000000000000000000000000000081525060600191505060405180910390fd5b838060010194505061086a565b600093505b8460800151518460ff161015610ac1576001600086608001518660ff16815181101515610a0f57fe5b9060200190602002015173ffffffffffffffffffffffffffffffffffffffff1673ffffffffffffffffffffffffffffffffffffffff168152602001908152602001600020600080820160006101000a81549073ffffffffffffffffffffffffffffffffffffffff02191690556001820160006101000a81549073ffffffffffffffffffffffffffffffffffffffff0219169055600282016000610ab29190612bce565b505083806001019450506109e6565b600260003373ffffffffffffffffffffffffffffffffffffffff1673ffffffffffffffffffffffffffffffffffffffff168152602001908152602001600020600001925084606001519150600183805490500390508067ffffffffffffffff168267ffffffffffffffff161015610c8057828167ffffffffffffffff16815481101515610b4a57fe5b9060005260206000200160009054906101000a900473ffffffffffffffffffffffffffffffffffffffff16838367ffffffffffffffff16815481101515610b8d57fe5b9060005260206000200160006101000a81548173ffffffffffffffffffffffffffffffffffffffff021916908373ffffffffffffffffffffffffffffffffffffffff16021790555081600080858567ffffffffffffffff16815481101515610bf157fe5b9060005260206000200160009054906101000a900473ffffffffffffffffffffffffffffffffffffffff1673ffffffffffffffffffffffffffffffffffffffff1673ffffffffffffffffffffffffffffffffffffffff16815260200190815260200160002060030160086101000a81548167ffffffffffffffff021916908367ffffffffffffffff1602179055505b828167ffffffffffffffff16815481101515610c9857fe5b9060005260206000200160006101000a81549073ffffffffffffffffffffffffffffffffffffffff021916905582805480919060019003610cd99190612bdc565b506000808773ffffffffffffffffffffffffffffffffffffffff1673ffffffffffffffffffffffffffffffffffffffff168152602001908152602001600020600080820160006101000a81549073ffffffffffffffffffffffffffffffffffffffff0219169055600182016000610d509190612bce565b6003820160006101000a81549067ffffffffffffffff02191690556003820160086101000a81549067ffffffffffffffff0219169055600482016000610d969190612c08565b50503373ffffffffffffffffffffffffffffffffffffffff167ff5cb8d0b3620fe2e4999eb1a206651c4dc3d802e8e8629cb9f91d7a983cdbf2d87604051808273ffffffffffffffffffffffffffffffffffffffff1673ffffffffffffffffffffffffffffffffffffffff16815260200191505060405180910390a2505050505050565b6000806000846000600281101515610e2e57fe5b6020020135600019166001900414151515610eb1576040517f08c379a00000000000000000000000000000000000000000000000000000000081526004018080602001828103825260138152602001807f5f697066735b305d2077617320656d707479210000000000000000000000000081525060200191505060405180910390fd5b610edf8460028060200260405190810160405280929190826002602002808284378201915050505050612335565b905060008060008373ffffffffffffffffffffffffffffffffffffffff1673ffffffffffffffffffffffffffffffffffffffff1681526020019081526020016000206001016000600281101515610f3257fe5b015460019004141515610fd3576040517f08c379a00000000000000000000000000000000000000000000000000000000081526004018080602001828103825260218152602001807f41204e6f64652077697468205f6970667320616c72656164792065786973747381526020017f210000000000000000000000000000000000000000000000000000000000000081525060400191505060405180910390fd5b60a0604051908101604052803373ffffffffffffffffffffffffffffffffffffffff168152602001856002806020026040519081016040528092919082600260200280828437820191505050505081526020018467ffffffffffffffff168152602001600260003373ffffffffffffffffffffffffffffffffffffffff1673ffffffffffffffffffffffffffffffffffffffff1681526020019081526020016000206000018054905067ffffffffffffffff16815260200160006040519080825280602002602001820160405280156110bb5781602001602082028038833980820191505090505b508152506000808373ffffffffffffffffffffffffffffffffffffffff1673ffffffffffffffffffffffffffffffffffffffff16815260200190815260200160002060008201518160000160006101000a81548173ffffffffffffffffffffffffffffffffffffffff021916908373ffffffffffffffffffffffffffffffffffffffff16021790555060208201518160010190600261115b929190612c29565b5060408201518160030160006101000a81548167ffffffffffffffff021916908367ffffffffffffffff16021790555060608201518160030160086101000a81548167ffffffffffffffff021916908367ffffffffffffffff16021790555060808201518160040190805190602001906111d6929190612c6f565b50905050600260003373ffffffffffffffffffffffffffffffffffffffff1673ffffffffffffffffffffffffffffffffffffffff1681526020019081526020016000206000018190806001815401808255809150509060018203906000526020600020016000909192909190916101000a81548173ffffffffffffffffffffffffffffffffffffffff021916908373ffffffffffffffffffffffffffffffffffffffff160217905550503373ffffffffffffffffffffffffffffffffffffffff167fc503d6de4e943f746e1f7700e3c6faf7d93c049ded69b4b4796fed306f044cbc82604051808273ffffffffffffffffffffffffffffffffffffffff1673ffffffffffffffffffffffffffffffffffffffff16815260200191505060405180910390a28091505092915050565b6000600260003373ffffffffffffffffffffffffffffffffffffffff1673ffffffffffffffffffffffffffffffffffffffff168152602001908152602001600020600001805490508210151561140e576040517f08c379a00000000000000000000000000000000000000000000000000000000081526004018080602001828103825260498152602001807f54686520696e64657820737570706c69656420776173203e3d20746865206e7581526020017f6d626572206f6620746865204e6f6465732062656c6f6e67696e6720746f207481526020017f6865204f776e65722e000000000000000000000000000000000000000000000081525060600191505060405180910390fd5b600260003373ffffffffffffffffffffffffffffffffffffffff1673ffffffffffffffffffffffffffffffffffffffff1681526020019081526020016000206000018281548110151561145d57fe5b9060005260206000200160009054906101000a900473ffffffffffffffffffffffffffffffffffffffff169050919050565b611497612cf9565b6000806000806000600160008873ffffffffffffffffffffffffffffffffffffffff1673ffffffffffffffffffffffffffffffffffffffff168152602001908152602001600020606060405190810160405290816000820160009054906101000a900473ffffffffffffffffffffffffffffffffffffffff1673ffffffffffffffffffffffffffffffffffffffff1673ffffffffffffffffffffffffffffffffffffffff1681526020016001820160009054906101000a900473ffffffffffffffffffffffffffffffffffffffff1673ffffffffffffffffffffffffffffffffffffffff1673ffffffffffffffffffffffffffffffffffffffff168152602001600282016002806020026040519081016040528092919082600280156115d6576020028201915b815460001916815260200190600101908083116115be575b50505050508152505095506000866000015173ffffffffffffffffffffffffffffffffffffffff161415151561169a576040517f08c379a000000000000000000000000000000000000000000000000000000000815260040180806020018281038252602f8152602001807f5468652048616c6645646765206d75737420657869737420696e206f7264657281526020017f20746f2062652064656c657465642e000000000000000000000000000000000081525060400191505060405180910390fd5b6000866020015173ffffffffffffffffffffffffffffffffffffffff16141515611778576040517f08c379a00000000000000000000000000000000000000000000000000000000081526004018080602001828103825260498152602001807f596f75206d75737420646973636f6e6e65637420746869732048616c6645646781526020017f652066726f6d20697473206f746865722068616c66206265666f72652064656c81526020017f6574696e672069742e000000000000000000000000000000000000000000000081525060600191505060405180910390fd5b600080876000015173ffffffffffffffffffffffffffffffffffffffff1673ffffffffffffffffffffffffffffffffffffffff16815260200190815260200160002094508460000160009054906101000a900473ffffffffffffffffffffffffffffffffffffffff1673ffffffffffffffffffffffffffffffffffffffff163373ffffffffffffffffffffffffffffffffffffffff161415156118a9576040517f08c379a00000000000000000000000000000000000000000000000000000000081526004018080602001828103825260338152602001807f596f75206d757374206f776e20746869732048616c664564676520746f20626581526020017f2061626c6520746f2064656c6574652069742e0000000000000000000000000081525060400191505060405180910390fd5b84600401935060068480549050111515156118c057fe5b60009250600091505b83805490508260ff16101561195f578673ffffffffffffffffffffffffffffffffffffffff16848360ff1681548110151561190057fe5b9060005260206000200160009054906101000a900473ffffffffffffffffffffffffffffffffffffffff1673ffffffffffffffffffffffffffffffffffffffff16141561195257819250838054905091505b81806001019250506118c9565b600184805490500390508060ff168360ff161015611a0d57838160ff1681548110151561198857fe5b9060005260206000200160009054906101000a900473ffffffffffffffffffffffffffffffffffffffff16848460ff168154811015156119c457fe5b9060005260206000200160006101000a81548173ffffffffffffffffffffffffffffffffffffffff021916908373ffffffffffffffffffffffffffffffffffffffff1602179055505b838160ff16815481101515611a1e57fe5b9060005260206000200160006101000a81549073ffffffffffffffffffffffffffffffffffffffff021916905583805480919060019003611a5f9190612bdc565b50600160008873ffffffffffffffffffffffffffffffffffffffff1673ffffffffffffffffffffffffffffffffffffffff168152602001908152602001600020600080820160006101000a81549073ffffffffffffffffffffffffffffffffffffffff02191690556001820160006101000a81549073ffffffffffffffffffffffffffffffffffffffff0219169055600282016000611afe9190612bce565b50503373ffffffffffffffffffffffffffffffffffffffff167fc58194320671290e1e21766c436ef5a4d8d9a922b1ec5b962127431eee37334488604051808273ffffffffffffffffffffffffffffffffffffffff1673ffffffffffffffffffffffffffffffffffffffff16815260200191505060405180910390a250505050505050565b6000611b8d612d4d565b6000806000611b9a612d4d565b6000611ba4612cf9565b611bac612cf9565b600160008b73ffffffffffffffffffffffffffffffffffffffff1673ffffffffffffffffffffffffffffffffffffffff168152602001908152602001600020606060405190810160405290816000820160009054906101000a900473ffffffffffffffffffffffffffffffffffffffff1673ffffffffffffffffffffffffffffffffffffffff1673ffffffffffffffffffffffffffffffffffffffff1681526020016001820160009054906101000a900473ffffffffffffffffffffffffffffffffffffffff1673ffffffffffffffffffffffffffffffffffffffff1673ffffffffffffffffffffffffffffffffffffffff16815260200160028201600280602002604051908101604052809291908260028015611ce3576020028201915b81546000191681526020019060010190808311611ccb575b50505050508152505091506000826000015173ffffffffffffffffffffffffffffffffffffffff1614151515611d81576040517f08c379a00000000000000000000000000000000000000000000000000000000081526004018080602001828103825260188152602001807f48616c664564676520646f6573206e6f742065786973742e000000000000000081525060200191505060405180910390fd5b8160000151985081604001519750600080836000015173ffffffffffffffffffffffffffffffffffffffff1673ffffffffffffffffffffffffffffffffffffffff16815260200190815260200160002060030160009054906101000a900467ffffffffffffffff1696506000826020015173ffffffffffffffffffffffffffffffffffffffff16141515611feb5760016000836020015173ffffffffffffffffffffffffffffffffffffffff1673ffffffffffffffffffffffffffffffffffffffff168152602001908152602001600020606060405190810160405290816000820160009054906101000a900473ffffffffffffffffffffffffffffffffffffffff1673ffffffffffffffffffffffffffffffffffffffff1673ffffffffffffffffffffffffffffffffffffffff1681526020016001820160009054906101000a900473ffffffffffffffffffffffffffffffffffffffff1673ffffffffffffffffffffffffffffffffffffffff1673ffffffffffffffffffffffffffffffffffffffff16815260200160028201600280602002604051908101604052809291908260028015611f4a576020028201915b81546000191681526020019060010190808311611f32575b50505050508152505090506000816000015173ffffffffffffffffffffffffffffffffffffffff1614151515611f7c57fe5b600195508060000151945080604001519350600080826000015173ffffffffffffffffffffffffffffffffffffffff1673ffffffffffffffffffffffffffffffffffffffff16815260200190815260200160002060030160009054906101000a900467ffffffffffffffff1692505b5050919395979092949650565b6000612002612d4d565b600061200c612d6f565b612014612b6e565b6000806000808973ffffffffffffffffffffffffffffffffffffffff1673ffffffffffffffffffffffffffffffffffffffff16815260200190815260200160002060a060405190810160405290816000820160009054906101000a900473ffffffffffffffffffffffffffffffffffffffff1673ffffffffffffffffffffffffffffffffffffffff1673ffffffffffffffffffffffffffffffffffffffff168152602001600182016002806020026040519081016040528092919082600280156120f7576020028201915b815460001916815260200190600101908083116120df575b505050505081526020016003820160009054906101000a900467ffffffffffffffff1667ffffffffffffffff1667ffffffffffffffff1681526020016003820160089054906101000a900467ffffffffffffffff1667ffffffffffffffff1667ffffffffffffffff168152602001600482018054806020026020016040519081016040528092919081815260200182805480156121e957602002820191906000526020600020905b8160009054906101000a900473ffffffffffffffffffffffffffffffffffffffff1673ffffffffffffffffffffffffffffffffffffffff168152602001906001019080831161219f575b50505050508152505092506000836000015173ffffffffffffffffffffffffffffffffffffffff1614151515612287576040517f08c379a00000000000000000000000000000000000000000000000000000000081526004018080602001828103825260148152602001807f4e6f646520646f6573206e6f742065786973742e00000000000000000000000081525060200191505060405180910390fd5b8260000151965082602001519550826040015194508260800151519150600090505b8160ff168160ff16101561232b5782608001518160ff168151811015156122cc57fe5b90602001906020020151848260ff166006811015156122e757fe5b602002019073ffffffffffffffffffffffffffffffffffffffff16908173ffffffffffffffffffffffffffffffffffffffff168152505080806001019150506122a9565b5050509193509193565b600081600060028110151561234657fe5b602002015182600160028110151561235a57fe5b60200201516040516020018083600019166000191681526020018260001916600019168152602001925050506040516020818303038152906040526040518082805190602001908083835b6020831015156123ca57805182526020820191506020810190506020830392506123a5565b6001836020036101000a0380198251168184511680821785525050505050509050019150506040518091039020600190049050919050565b600061240c612b6e565b60008060008673ffffffffffffffffffffffffffffffffffffffff1673ffffffffffffffffffffffffffffffffffffffff16815260200190815260200160002060a060405190810160405290816000820160009054906101000a900473ffffffffffffffffffffffffffffffffffffffff1673ffffffffffffffffffffffffffffffffffffffff1673ffffffffffffffffffffffffffffffffffffffff168152602001600182016002806020026040519081016040528092919082600280156124ee576020028201915b815460001916815260200190600101908083116124d6575b505050505081526020016003820160009054906101000a900467ffffffffffffffff1667ffffffffffffffff1667ffffffffffffffff1681526020016003820160089054906101000a900467ffffffffffffffff1667ffffffffffffffff1667ffffffffffffffff168152602001600482018054806020026020016040519081016040528092919081815260200182805480156125e057602002820191906000526020600020905b8160009054906101000a900473ffffffffffffffffffffffffffffffffffffffff1673ffffffffffffffffffffffffffffffffffffffff1681526020019060010190808311612596575b5050505050815250509150816000015173ffffffffffffffffffffffffffffffffffffffff163373ffffffffffffffffffffffffffffffffffffffff161415156126b8576040517f08c379a000000000000000000000000000000000000000000000000000000000815260040180806020018281038252603a8152602001807f596f75206d757374206f776e2074686973204e6f646520746f2062652061626c81526020017f6520746f2061646420612048616c664564676520746f2069742e00000000000081525060400191505060405180910390fd5b600682608001515110151561275b576040517f08c379a00000000000000000000000000000000000000000000000000000000081526004018080602001828103825260328152602001807f596f752063616e6e6f742068617665206d6f7265207468616e20362048616c6681526020017f4564676573206f6e206f6e65204e6f64652e000000000000000000000000000081525060400191505060405180910390fd5b6127898460028060200260405190810160405280929190826002602002808284378201915050505050612335565b90506000600160008373ffffffffffffffffffffffffffffffffffffffff1673ffffffffffffffffffffffffffffffffffffffff16815260200190815260200160002060000160009054906101000a900473ffffffffffffffffffffffffffffffffffffffff1673ffffffffffffffffffffffffffffffffffffffff161415156128a1576040517f08c379a00000000000000000000000000000000000000000000000000000000081526004018080602001828103825260258152602001807f412048616c66456467652077697468205f6970667320616c726561647920657881526020017f697374732100000000000000000000000000000000000000000000000000000081525060400191505060405180910390fd5b6060604051908101604052808673ffffffffffffffffffffffffffffffffffffffff168152602001600073ffffffffffffffffffffffffffffffffffffffff1681526020018560028060200260405190810160405280929190826002602002808284378201915050505050815250600160008373ffffffffffffffffffffffffffffffffffffffff1673ffffffffffffffffffffffffffffffffffffffff16815260200190815260200160002060008201518160000160006101000a81548173ffffffffffffffffffffffffffffffffffffffff021916908373ffffffffffffffffffffffffffffffffffffffff16021790555060208201518160010160006101000a81548173ffffffffffffffffffffffffffffffffffffffff021916908373ffffffffffffffffffffffffffffffffffffffff1602179055506040820151816002019060026129f3929190612c29565b509050506000808673ffffffffffffffffffffffffffffffffffffffff1673ffffffffffffffffffffffffffffffffffffffff1681526020019081526020016000206004018190806001815401808255809150509060018203906000526020600020016000909192909190916101000a81548173ffffffffffffffffffffffffffffffffffffffff021916908373ffffffffffffffffffffffffffffffffffffffff160217905550503373ffffffffffffffffffffffffffffffffffffffff167f5b1f84e5ff3f2a0bceff6bbb239cfc79426615d3e69bbf5f3dac8be12ba92bb982604051808273ffffffffffffffffffffffffffffffffffffffff1673ffffffffffffffffffffffffffffffffffffffff16815260200191505060405180910390a2809250505092915050565b6000600260003373ffffffffffffffffffffffffffffffffffffffff1673ffffffffffffffffffffffffffffffffffffffff16815260200190815260200160002060000180549050905090565b60c060405190810160405280600073ffffffffffffffffffffffffffffffffffffffff168152602001612b9f612d92565b8152602001600067ffffffffffffffff168152602001600067ffffffffffffffff168152602001606081525090565b506000815560010160009055565b815481835581811115612c0357818360005260206000209182019101612c029190612db4565b5b505050565b5080546000825590600052602060002090810190612c269190612db4565b50565b8260028101928215612c5e579160200282015b82811115612c5d578251829060001916905591602001919060010190612c3c565b5b509050612c6b9190612dd9565b5090565b828054828255906000526020600020908101928215612ce8579160200282015b82811115612ce75782518260006101000a81548173ffffffffffffffffffffffffffffffffffffffff021916908373ffffffffffffffffffffffffffffffffffffffff16021790555091602001919060010190612c8f565b5b509050612cf59190612dfe565b5090565b608060405190810160405280600073ffffffffffffffffffffffffffffffffffffffff168152602001600073ffffffffffffffffffffffffffffffffffffffff168152602001612d47612d92565b81525090565b6040805190810160405280600290602082028038833980820191505090505090565b60c060405190810160405280600690602082028038833980820191505090505090565b6040805190810160405280600290602082028038833980820191505090505090565b612dd691905b80821115612dd2576000816000905550600101612dba565b5090565b90565b612dfb91905b80821115612df7576000816000905550600101612ddf565b5090565b90565b612e3e91905b80821115612e3a57600081816101000a81549073ffffffffffffffffffffffffffffffffffffffff021916905550600101612e04565b5090565b905600a165627a7a723058200827777b1496007f87301d27632aff7a1be084bb07782e7f7a77a0a609a47af00029",
  "source": "pragma solidity ^0.4.24;\n\n/// @title The Interweave Network graph contract.\n/// @author interweaver\n/// @notice This is still a development version, but for now, is intended to represent a full graph.\ncontract InterweaveGraph {\n    \n  /// @notice Node struct represents a node in the graph (a place), with owner, representation with format, and connections to other Nodes.\n  struct Node {\n    address owner;\n    bytes32[2] ipfs;\n    uint64 format;\n    uint64 ownerNodesIndex; // Supports efficient deleting of nodes.\n    address[] halfEdgeAddrs;\n  }\n  \n  /// @notice HalfEdge struct represents half of an edge in the graph, with the Node it belongs to, representation with implicit format, and connection to another HalfEdge.\n  struct HalfEdge {\n    address nodeAddr;\n    address otherHalfEdgeAddr;\n    bytes32[2] ipfs; // format = format of node\n  }\n  \n  /// @notice Owner struct represents the set of Nodes and EdgeProposals belonging to a particular Ethereum address.\n  struct Owner {\n    address[] nodeAddrs;\n    address[] edgeProposalAddrs;\n  }\n  \n  /// @notice A new Node was created on the graph.\n  /// @param nodeAddr The address of the created Node.\n  /// @param ownerAddr The address of the new Node's Owner.\n  event NodeCreated(address nodeAddr, address indexed ownerAddr);\n  \n  /// @notice A Node was deleted from the graph.\n  /// @param nodeAddr The address of the deleted Node.\n  /// @param ownerAddr The address of the old Node's Owner.\n  event NodeDeleted(address nodeAddr, address indexed ownerAddr);\n  \n  /// @notice A HalfEdge was created on the graph.\n  /// @param halfEdgeAddr The address of the created HalfEdge.\n  /// @param ownerAddr The address of the new HalfEdge's Owner.\n  event HalfEdgeCreated(address halfEdgeAddr, address indexed ownerAddr);\n  \n  /// @notice A HalfEdge was deleted from the graph.\n  /// @param halfEdgeAddr The address of the deleted HalfEdge.\n  /// @param ownerAddr The address of the deleted HalfEdge's Owner.\n  event HalfEdgeDeleted(address halfEdgeAddr, address indexed ownerAddr);\n  \n  /// @notice A Mapping allowing lookup of Nodes by their addresses.\n  /// @dev Node addresses = kekkac(owner, ipfs)\n  mapping (address => Node) internal nodeLookup;\n  \n  /// @notice A mapping allowing lookup of HalfEdges by their addresses.\n  /// @dev HalfEdge addresses = kekkac(owner, ipfs)\n  mapping (address => HalfEdge) internal halfEdgeLookup;\n  \n  /// @notice A mapping allowing lookup of Owners by their (Ethereum) addresses.\n  mapping (address => Owner) internal ownerLookup;\n  \n  /// @notice A function to generate a unique address (for a Node or HalfEdge) from a given IPFS hash.\n  /// @param _ipfs A bytes32[2] to use to generate the new address.\n  function addressFromIpfs(bytes32[2] _ipfs) public pure returns (address) {\n    return address(\n      keccak256(\n        abi.encodePacked(\n          _ipfs[0],\n          _ipfs[1]\n        )\n      )\n    );\n  }\n  \n  /// @notice Create a new Node on the graph.\n  /// @param _ipfs The IPFS hash string of the Node's content file, in two bytes32. Must be unique for this address's Nodes in the graph.\n  /// @param _format The format identifier of the Node's content. Must match with the file at the given IPFS hash, or viewers won't be able to interpret the content.\n  /// @return The Address of the new Node.\n  function createNode(bytes32[2] _ipfs, uint64 _format) external returns (address) {\n    \n    // Make sure there's something other than 0 in the first chunk of the ipfs hash.\n    require(\n      uint(_ipfs[0]) != 0,\n      \"_ipfs[0] was empty!\"\n    );\n    \n    // Generate Node's address.\n    address newNodeAddress = addressFromIpfs(_ipfs);\n    \n    // There must not already be a node at that address.\n    // The maze of twisty little passages must *not* be all alike.\n    require(\n      uint(nodeLookup[newNodeAddress].ipfs[0]) == 0,\n      \"A Node with _ipfs already exists!\"\n    );\n    \n    // Instantiate and save the new Node at its address.\n    nodeLookup[newNodeAddress] = Node({\n      owner: msg.sender,\n      ipfs: _ipfs,\n      format: _format,\n      ownerNodesIndex: uint64(ownerLookup[msg.sender].nodeAddrs.length), // We're gonna push it onto the end.\n      halfEdgeAddrs: new address[](0)\n    });\n    \n    // Also save the new Node's address in its Owner's list of nodes (don't need to create the Owner).\n    ownerLookup[msg.sender].nodeAddrs.push(newNodeAddress);\n    \n    // Log the Node creation.\n    emit NodeCreated(newNodeAddress, msg.sender);\n    \n    // Finally, hand back the new Node's address to the caller.\n    return newNodeAddress;\n  }\n  \n  /// @notice Delete a Node from the graph.\n  /// @param _nodeAddr The address of the Node to delete from the graph.\n  function deleteNode(address _nodeAddr) external {\n    \n    // Get the Node being deleted.\n    Node memory node = nodeLookup[_nodeAddr];\n    \n    // Make sure the Node exists and belongs to msg.sender (can do both checks at once, since if node doesn't exist, node.owner = 0x0).\n    require(\n      msg.sender == node.owner,\n      \"You must own this Node to be able to delete it.\"\n    );\n    \n    // Make sure the Node is not connected to any others.\n    for (uint8 i = 0; i < node.halfEdgeAddrs.length; i++) {\n      require(\n        uint(halfEdgeLookup[node.halfEdgeAddrs[i]].otherHalfEdgeAddr) == 0,\n        \"You must disconnect this Node from all other Nodes before deleting it.\"\n      );\n    }\n    \n    // Delete the Node's up-to-6 HalfEdges (which we just confirmed were not connected to anything) from the halfEdgeLookup mapping.\n    // The only other references to them should be in the about-to-be-deleted Node and any about-to-be-invalidated EdgeProposals.\n    for (i = 0; i < node.halfEdgeAddrs.length; i++) {\n      delete halfEdgeLookup[node.halfEdgeAddrs[i]];\n    }\n    \n    // Delete the Node from its Owner's nodeAddrs array:\n    // ...Get that array as storage because we'll be using it several times, modifying it, and want the changes to stick.\n    address[] storage nodeAddrs = ownerLookup[msg.sender].nodeAddrs;\n    \n    // ...If the Node is not the last element in the array, swap the last element over top of it.\n    uint64 index = node.ownerNodesIndex;\n    uint64 lastIndex = uint64(nodeAddrs.length - 1);\n    if (index < lastIndex) {\n      nodeAddrs[index] = nodeAddrs[lastIndex];\n      nodeLookup[nodeAddrs[index]].ownerNodesIndex = index; // Need to update that formerly-last Node's ownerNodesIndex too.\n    }\n    \n    // ...Either way, then delete the last element and shrink the array.\n    delete nodeAddrs[lastIndex];\n    nodeAddrs.length--;\n    \n    // Delete the Node from the nodeLookup mapping.\n    delete nodeLookup[_nodeAddr];\n    \n    // Log the Node deletion.\n    emit NodeDeleted(_nodeAddr, msg.sender);\n  }\n  \n  /// @notice Get how many Nodes are owned by the sender.\n  /// @return How many Nodes they own.\n  function getSenderNodeCount() public view returns (uint) {\n    return ownerLookup[msg.sender].nodeAddrs.length;\n  }\n  \n  /// @notice Get the address of the Node belonging to the sender at the given index in the sender's array of Nodes.\n  /// @param _index A uint containing the index of the Node to get (must be less than the number returned by getOwnerNodeCount).\n  /// @return The address of the sender's Node at the index.\n  function getSenderNodeAddrByIndex(uint _index) public view returns (address) {\n    \n    // Avoid index out of bounds exceptions.\n    require(\n      _index < ownerLookup[msg.sender].nodeAddrs.length,\n      \"The index supplied was >= the number of the Nodes belonging to the Owner.\"\n    );\n    \n    // Do the lookup and return.\n    return ownerLookup[msg.sender].nodeAddrs[_index];\n  }\n  \n  /// @notice Get all the relevant data for the Node with the given address: owner, ipfs, format, whether msg.sender owns the Node, and list of HalfEdge addresses, with 0x0 for empty HalfEdge slots.\n  /// @param _nodeAddr The address of the Node to get the HalfEdge addresses for.\n  /// @return owner The address of the Node's owner.\n  /// @return ipfs A bytes32[2] containing the IPFS hash for the Node.\n  /// @return format A uint64 containing the Node's format.\n  /// @return senderIsOwner A bool indicating if the sender owns this Node.\n  /// @return halfEdgeAddrs The addresses of each of the HalfEdges, or 0x0 if that slot is currently empty.\n  /// @dev Callers are responsible for noticing empty HalfEdge addresses. Someday when dynamic return lengths are possible, this will just return the set of HalfEdge addresses without empty slots.\n  function getNode(address _nodeAddr) external view returns (\n    address owner,\n    bytes32[2] ipfs,\n    uint64 format,\n    address[6] halfEdgeAddrs\n  ) {\n    \n    // Look up the Node in question.\n    Node memory node = nodeLookup[_nodeAddr];\n    \n    // Make sure it exists.\n    require(\n      uint(node.owner) != 0,\n      \"Node does not exist.\"\n    );\n    \n    owner = node.owner;\n    ipfs = node.ipfs;\n    format = node.format;\n    \n    // Count how many halfEdgeAddrs it has.\n    uint8 len = uint8(node.halfEdgeAddrs.length);\n    \n    // Set our return values: the addresss of each of the up-to-six HalfEdges, leaving it at 0x0 if beyond the current number of HalfEdges.\n    for (uint8 i = 0; i < len; i++) {\n      halfEdgeAddrs[i] = node.halfEdgeAddrs[i];\n    }\n  }\n  \n  /// @notice Create a new HalfEdge on the graph.\n  /// @param _nodeAddr The address of the Node to which this HalfEdge will belong.\n  /// @param _ipfs A bytes32[2] containing the HalfEdge's IPFS hash. Must be unique for the Owner's HalfEdges in the graph. Content must have the same format as the Node.\n  /// @return The address of the new HalfEdge.\n  function createHalfEdge(address _nodeAddr, bytes32[2] _ipfs) external returns (address) {\n    \n    Node memory node = nodeLookup[_nodeAddr];\n    \n    // Make sure msg.sender owns the Node.\n    require(\n      msg.sender == node.owner,\n      \"You must own this Node to be able to add a HalfEdge to it.\"\n    );\n    \n    // Make sure the Node doesn't already have 6 HalfEdges.\n    require(\n      node.halfEdgeAddrs.length < 6,\n      \"You cannot have more than 6 HalfEdges on one Node.\"\n    );\n    \n    // Make sure _ipfs isn't already used for a HalfEdge\n    // The paths connecting the maze of twisty little passages must *not* be all alike.\n    address newHalfEdgeAddr = addressFromIpfs(_ipfs);\n    require(\n      uint(halfEdgeLookup[newHalfEdgeAddr].nodeAddr) == 0,\n      \"A HalfEdge with _ipfs already exists!\"\n    );\n    \n    // Instantiate and save the new HalfEdge at its address.\n    halfEdgeLookup[newHalfEdgeAddr] = HalfEdge({\n      nodeAddr: _nodeAddr,\n      ipfs: _ipfs,\n      otherHalfEdgeAddr: address(0)\n    });\n    \n    // Add newHalfEdgeAddr to its Node's halfEdgeAddrs. // Note: make sure this 'sticks'... used to be 'node.halfEdgeAddrs...' with 'node' as 'storage' above.\n    nodeLookup[_nodeAddr].halfEdgeAddrs.push(newHalfEdgeAddr);\n    \n    // Log the creation.\n    emit HalfEdgeCreated(newHalfEdgeAddr, msg.sender);\n    \n    // Finally, hand back the new HalfEdge's address to the caller.\n    return newHalfEdgeAddr;\n  }\n  \n  /// @notice Delete a HalfEdge from the graph.\n  /// @param _halfEdgeAddr The address of the HalfEdge to delete from the graph.\n  function deleteHalfEdge(address _halfEdgeAddr) external {\n    \n    // Get the HalfEdge being deleted. Aren't changing it, but need it a couple of times, so memory.\n    HalfEdge memory halfEdge = halfEdgeLookup[_halfEdgeAddr];\n    \n    // Make sure the HalfEdge exists.\n    require(\n      uint(halfEdge.nodeAddr) != 0,\n      \"The HalfEdge must exist in order to be deleted.\"\n    );\n    \n    // Make sure the HalfEdge isn't connected to another.\n    require (\n      uint(halfEdge.otherHalfEdgeAddr) == 0,\n      \"You must disconnect this HalfEdge from its other half before deleting it.\"\n    );\n    \n    // Get the Node of the HalfEdge being deleted. Will be changing its halfEdgeAddrs array, so storage. (unless halfEdgeAddrs storage later makes this unneeded???)\n    Node storage node = nodeLookup[halfEdge.nodeAddr];\n    \n    // Make sure the HalfEdge belongs to msg.sender.\n    require (\n      msg.sender == node.owner,\n      \"You must own this HalfEdge to be able to delete it.\"\n    );\n    \n    // Delete the HalfEdge from its Node's halfEdgeAddrs array:\n    // ...Get that array as storage because we'll be using it several times, modifying it, and want the changes to stick.\n    address[] storage halfEdgeAddrs = node.halfEdgeAddrs;\n    \n    // ...Check invariant: Nodes always have <= 6 HalfEdges.\n    assert(halfEdgeAddrs.length <= 6);\n    \n    // ...Iterate (up to 6 times) to find index of _halfEdgeAddr in halfEdgeAddrs.\n    uint8 index = 0;\n    for (uint8 i = 0; i < halfEdgeAddrs.length; i++) {\n      if (halfEdgeAddrs[i] == _halfEdgeAddr) {\n        index = i;\n        i = uint8(halfEdgeAddrs.length); // cut out early\n      }\n    }\n    \n    // ...If the HalfEdge is not the last element in the array, swap the last element over top of it.\n    uint8 lastIndex = uint8(halfEdgeAddrs.length - 1);\n    if (index < lastIndex) {\n      halfEdgeAddrs[index] = halfEdgeAddrs[lastIndex];\n    }\n    \n    // ...Either way, then delete the last element and shrink the array.\n    delete halfEdgeAddrs[lastIndex];\n    halfEdgeAddrs.length--;\n    \n    // Delete the HalfEdge from the halfEdgeLookup mapping.\n    delete halfEdgeLookup[_halfEdgeAddr];\n    \n    // Log the deletion.\n    emit HalfEdgeDeleted(_halfEdgeAddr, msg.sender);\n  }\n  \n  /// @notice Get the ipfs hash, format, and node address for the HalfEdge with this address, and for its otherHalfEdge if it exists, too.\n  /// @return nodeAddr The address of the HalfEdge's Node.\n  /// @return ipfs A bytes32[2] containing the HalfEdge's IPFS hash.\n  /// @return format A uint64 containing the HalfEdge's format (from its Node)\n  /// @return connected A bool indicating if the HalfEdge is connected to another one.\n  /// @return otherNodeAddr The address of the other HalfEdge's Node, if connected (or 0x0 if not).\n  /// @return otherIpfs A bytes32[2] containing the IPFS hash of the other HalfEdge, if connected (or an array of 0s if not).\n  /// @return otherFormat A uint64 containing the format of the other HalfEdge (from its Node), if connected (or 0 if not).\n  function getEdge(address _halfEdgeAddr) external view returns (\n    address nodeAddr,\n    bytes32[2] ipfs,\n    uint64 format,\n    bool connected,\n    address otherNodeAddr,\n    bytes32[2] otherIpfs,\n    uint64 otherFormat\n  ) {\n    \n    // Grab the HalfEdge.\n    HalfEdge memory halfEdge = halfEdgeLookup[_halfEdgeAddr];\n    \n    // Make sure it exists.\n    require(\n      uint(halfEdge.nodeAddr) != 0,\n      \"HalfEdge does not exist.\"\n    );\n    \n    // Get this HalfEdge's data.\n    nodeAddr = halfEdge.nodeAddr;\n    ipfs = halfEdge.ipfs;\n    format = nodeLookup[halfEdge.nodeAddr].format;\n    \n    // Check for and, if it exists, get, the otherHalfEdge's data.\n    if (uint(halfEdge.otherHalfEdgeAddr) != 0) {\n      HalfEdge memory otherHalfEdge = halfEdgeLookup[halfEdge.otherHalfEdgeAddr];\n      \n      // If otherHalfEdge doesn't exist, despite otherHalfEdgeAddr not being 0, we have an invariant failure which we may as well check for here.\n      assert(uint(otherHalfEdge.nodeAddr) != 0);\n      \n      connected = true;\n      otherNodeAddr = otherHalfEdge.nodeAddr;\n      otherIpfs = otherHalfEdge.ipfs;\n      otherFormat = nodeLookup[otherHalfEdge.nodeAddr].format;\n    }\n    // Else, just return the 0-initialized values.\n  }\n}\n",
  "sourcePath": "/home/noah/Programs/Javascript/web3/interweave.network/solidity/contracts/interweave-free/InterweaveGraph.sol",
  "compiler": {
    "name": "solc",
    "version": "0.4.24+commit.e67f0147.Emscripten.clang"
  },
  "schemaVersion": "2.0.1",
  "updatedAt": "2018-10-21T22:48:03.921Z"
}