{
  "contractName": "InterweaveProposals",
  "abi": [
    {
      "constant": true,
      "inputs": [
        {
          "name": "_index",
          "type": "uint256"
        }
      ],
      "name": "getSenderNodeKeyByIndex",
      "outputs": [
        {
          "name": "",
          "type": "uint256"
        }
      ],
      "payable": false,
      "stateMutability": "view",
      "type": "function"
    },
    {
      "constant": false,
      "inputs": [
        {
          "name": "_ipfs",
          "type": "bytes32[2]"
        },
        {
          "name": "_format",
          "type": "uint64"
        }
      ],
      "name": "createNode",
      "outputs": [],
      "payable": false,
      "stateMutability": "nonpayable",
      "type": "function"
    },
    {
      "constant": false,
      "inputs": [
        {
          "name": "_nodeKey",
          "type": "uint256"
        }
      ],
      "name": "deleteNode",
      "outputs": [],
      "payable": false,
      "stateMutability": "nonpayable",
      "type": "function"
    },
    {
      "constant": true,
      "inputs": [
        {
          "name": "_nodeKey",
          "type": "uint256"
        }
      ],
      "name": "getNode",
      "outputs": [
        {
          "name": "ownerAddr",
          "type": "address"
        },
        {
          "name": "ipfs",
          "type": "bytes32[2]"
        },
        {
          "name": "format",
          "type": "uint64"
        },
        {
          "name": "edgeNodeCount",
          "type": "uint8"
        },
        {
          "name": "edgeNodeKeys",
          "type": "uint256[6]"
        }
      ],
      "payable": false,
      "stateMutability": "view",
      "type": "function"
    },
    {
      "constant": true,
      "inputs": [
        {
          "name": "_ipfs",
          "type": "bytes32[2]"
        }
      ],
      "name": "nodeKeyFromIpfs",
      "outputs": [
        {
          "name": "",
          "type": "uint256"
        }
      ],
      "payable": false,
      "stateMutability": "pure",
      "type": "function"
    },
    {
      "constant": true,
      "inputs": [],
      "name": "getSenderNodeCount",
      "outputs": [
        {
          "name": "",
          "type": "uint256"
        }
      ],
      "payable": false,
      "stateMutability": "view",
      "type": "function"
    },
    {
      "anonymous": false,
      "inputs": [
        {
          "indexed": false,
          "name": "edgeProposalKey",
          "type": "uint256"
        },
        {
          "indexed": false,
          "name": "proposerAddr",
          "type": "address"
        },
        {
          "indexed": true,
          "name": "proposedToAddr",
          "type": "address"
        }
      ],
      "name": "EdgeProposalCreated",
      "type": "event"
    },
    {
      "anonymous": false,
      "inputs": [
        {
          "indexed": false,
          "name": "edgeProposalKey",
          "type": "uint256"
        },
        {
          "indexed": false,
          "name": "accepterAddr",
          "type": "address"
        },
        {
          "indexed": true,
          "name": "acceptedAddr",
          "type": "address"
        }
      ],
      "name": "EdgeProposalAccepted",
      "type": "event"
    },
    {
      "anonymous": false,
      "inputs": [
        {
          "indexed": false,
          "name": "edgeProposalKey",
          "type": "uint256"
        },
        {
          "indexed": false,
          "name": "rejecterAddr",
          "type": "address"
        },
        {
          "indexed": true,
          "name": "rejectedAddr",
          "type": "address"
        }
      ],
      "name": "EdgeProposalRejected",
      "type": "event"
    },
    {
      "anonymous": false,
      "inputs": [
        {
          "indexed": false,
          "name": "nodeKey0",
          "type": "uint256"
        },
        {
          "indexed": false,
          "name": "slot0",
          "type": "uint8"
        },
        {
          "indexed": false,
          "name": "slot1",
          "type": "uint8"
        },
        {
          "indexed": false,
          "name": "nodeKey1",
          "type": "uint256"
        },
        {
          "indexed": true,
          "name": "ownerAddr0",
          "type": "address"
        },
        {
          "indexed": true,
          "name": "ownerAddr1",
          "type": "address"
        }
      ],
      "name": "EdgeCreated",
      "type": "event"
    },
    {
      "anonymous": false,
      "inputs": [
        {
          "indexed": false,
          "name": "nodeKey0",
          "type": "uint256"
        },
        {
          "indexed": false,
          "name": "slot0",
          "type": "uint8"
        },
        {
          "indexed": false,
          "name": "slot1",
          "type": "uint8"
        },
        {
          "indexed": false,
          "name": "nodeKey1",
          "type": "uint256"
        },
        {
          "indexed": true,
          "name": "ownerAddr0",
          "type": "address"
        },
        {
          "indexed": true,
          "name": "ownerAddr1",
          "type": "address"
        }
      ],
      "name": "EdgeDeleted",
      "type": "event"
    },
    {
      "anonymous": false,
      "inputs": [
        {
          "indexed": false,
          "name": "nodeKey",
          "type": "uint256"
        },
        {
          "indexed": true,
          "name": "ownerAddr",
          "type": "address"
        }
      ],
      "name": "NodeCreated",
      "type": "event"
    },
    {
      "anonymous": false,
      "inputs": [
        {
          "indexed": false,
          "name": "nodeKey",
          "type": "uint256"
        },
        {
          "indexed": true,
          "name": "ownerAddr",
          "type": "address"
        }
      ],
      "name": "NodeDeleted",
      "type": "event"
    },
    {
      "constant": true,
      "inputs": [
        {
          "name": "_nodeKey0",
          "type": "uint256"
        },
        {
          "name": "_slot0",
          "type": "uint8"
        },
        {
          "name": "_slot1",
          "type": "uint8"
        },
        {
          "name": "_nodeKey1",
          "type": "uint256"
        }
      ],
      "name": "edgeProposalKeyFromNodesAndSlots",
      "outputs": [
        {
          "name": "",
          "type": "uint256"
        }
      ],
      "payable": false,
      "stateMutability": "pure",
      "type": "function"
    },
    {
      "constant": false,
      "inputs": [
        {
          "name": "_nodeKey0",
          "type": "uint256"
        },
        {
          "name": "_slot0",
          "type": "uint8"
        },
        {
          "name": "_slot1",
          "type": "uint8"
        },
        {
          "name": "_nodeKey1",
          "type": "uint256"
        }
      ],
      "name": "createEdgeProposal",
      "outputs": [],
      "payable": false,
      "stateMutability": "nonpayable",
      "type": "function"
    },
    {
      "constant": false,
      "inputs": [
        {
          "name": "_edgeProposalKey",
          "type": "uint256"
        }
      ],
      "name": "acceptEdgeProposal",
      "outputs": [],
      "payable": false,
      "stateMutability": "nonpayable",
      "type": "function"
    },
    {
      "constant": false,
      "inputs": [
        {
          "name": "_edgeProposalKey",
          "type": "uint256"
        }
      ],
      "name": "rejectEdgeProposal",
      "outputs": [],
      "payable": false,
      "stateMutability": "nonpayable",
      "type": "function"
    },
    {
      "constant": true,
      "inputs": [
        {
          "name": "_ownerAddr",
          "type": "address"
        }
      ],
      "name": "getOwnerEdgeProposalCount",
      "outputs": [
        {
          "name": "",
          "type": "uint256"
        }
      ],
      "payable": false,
      "stateMutability": "view",
      "type": "function"
    },
    {
      "constant": true,
      "inputs": [
        {
          "name": "_ownerAddr",
          "type": "address"
        },
        {
          "name": "_index",
          "type": "uint256"
        }
      ],
      "name": "getOwnerEdgeProposalKeyByIndex",
      "outputs": [
        {
          "name": "",
          "type": "uint256"
        }
      ],
      "payable": false,
      "stateMutability": "view",
      "type": "function"
    }
  ],
  "bytecode": "0x608060405234801561001057600080fd5b50612cec806100206000396000f3006080604052600436106100ba576000357c0100000000000000000000000000000000000000000000000000000000900463ffffffff1680630db93f26146100bf57806314724977146101105780633a6b686b1461015157806341d2a2561461019257806348a01dfb146101bf5780634f0f4aa9146102205780637240e8be146103135780638265cb261461034057806391ee35d6146103a65780639ce772291461040b5780639dfb9c4f14610462578063fbbe0bad1461048f575b600080fd5b3480156100cb57600080fd5b5061010e60048036038101908080359060200190929190803560ff169060200190929190803560ff169060200190929190803590602001909291905050506104ba565b005b34801561011c57600080fd5b5061013b60048036038101908080359060200190929190505050610f55565b6040518082815260200191505060405180910390f35b34801561015d57600080fd5b5061019060048036038101908080604001909192919290803567ffffffffffffffff1690602001909291905050506110c0565b005b34801561019e57600080fd5b506101bd600480360381019080803590602001909291905050506114ea565b005b3480156101cb57600080fd5b5061020a600480360381019080803573ffffffffffffffffffffffffffffffffffffffff16906020019092919080359060200190929190505050611a64565b6040518082815260200191505060405180910390f35b34801561022c57600080fd5b5061024b60048036038101908080359060200190929190505050611bd0565b604051808673ffffffffffffffffffffffffffffffffffffffff1673ffffffffffffffffffffffffffffffffffffffff16815260200185600260200280838360005b838110156102a857808201518184015260208101905061028d565b505050509050018467ffffffffffffffff1667ffffffffffffffff1681526020018360ff1660ff16815260200182600660200280838360005b838110156102fc5780820151818401526020810190506102e1565b505050509050019550505050505060405180910390f35b34801561031f57600080fd5b5061033e60048036038101908080359060200190929190505050611e5b565b005b34801561034c57600080fd5b506103906004803603810190808060400190600280602002604051908101604052809291908260026020028082843782019150505050509192919290505050612007565b6040518082815260200191505060405180910390f35b3480156103b257600080fd5b506103f560048036038101908080359060200190929190803560ff169060200190929190803560ff169060200190929190803590602001909291905050506120d4565b6040518082815260200191505060405180910390f35b34801561041757600080fd5b5061044c600480360381019080803573ffffffffffffffffffffffffffffffffffffffff1690602001909291905050506121ce565b6040518082815260200191505060405180910390f35b34801561046e57600080fd5b5061048d6004803603810190808035906020019092919050505061221d565b005b34801561049b57600080fd5b506104a461295c565b6040518082815260200191505060405180910390f35b6000806000806000806104cb6129a9565b60068a60ff161080156104e1575060068960ff16105b151561057b576040517f08c379a00000000000000000000000000000000000000000000000000000000081526004018080602001828103825260248152602001807f426f746820736c6f7473206d75737420626520696e207468652072616e67652081526020017f302d352e0000000000000000000000000000000000000000000000000000000081525060400191505060405180910390fd5b6000808c815260200190815260200160002096503373ffffffffffffffffffffffffffffffffffffffff168760000160009054906101000a900473ffffffffffffffffffffffffffffffffffffffff1673ffffffffffffffffffffffffffffffffffffffff161415156106c8576040517f08c379a00000000000000000000000000000000000000000000000000000000081526004018080602001828103825260618152602001807f596f75206d757374206f776e20746865204e6f6465206174205f6e6f64654b6581526020017f793020696e206f7264657220746f206d616e616765206974732065646765204e81526020017f6f6465732c206f72206974206d69676874206e6f74206576656e20657869737481526020017f2e0000000000000000000000000000000000000000000000000000000000000081525060800191505060405180910390fd5b600080898152602001908152602001600020955060008660000160009054906101000a900473ffffffffffffffffffffffffffffffffffffffff1673ffffffffffffffffffffffffffffffffffffffff16141515156107b5576040517f08c379a00000000000000000000000000000000000000000000000000000000081526004018080602001828103825260218152602001807f546865204e6f6465206174205f6e6f64654b657931206d75737420657869737481526020017f2e0000000000000000000000000000000000000000000000000000000000000081525060400191505060405180910390fd5b87876004018b60ff166006811015156107ca57fe5b01541480156107ed57508a866004018a60ff166006811015156107e957fe5b0154145b8061082e57506000876004018b60ff1660068110151561080957fe5b015414801561082d57506000866004018a60ff1660068110151561082957fe5b0154145b5b1515610885576040517f08c379a0000000000000000000000000000000000000000000000000000000008152600401808060200182810382526088815260200180612c396088913960a00191505060405180910390fd5b3373ffffffffffffffffffffffffffffffffffffffff168660000160009054906101000a900473ffffffffffffffffffffffffffffffffffffffff1673ffffffffffffffffffffffffffffffffffffffff161415610a82576000876004018b60ff166006811015156108f357fe5b015414156109bd5787876004018b60ff1660068110151561091057fe5b01819055508a866004018a60ff1660068110151561092a57fe5b01819055503373ffffffffffffffffffffffffffffffffffffffff163373ffffffffffffffffffffffffffffffffffffffff167f4ef05c9305e1cc05b8515712010d4e69c251221d43373d1257440c83591b6f0f8d8d8d8d604051808581526020018460ff1660ff1681526020018360ff1660ff16815260200182815260200194505050505060405180910390a3610a7d565b6000876004018b60ff166006811015156109d357fe5b01819055506000866004018a60ff166006811015156109ee57fe5b01819055503373ffffffffffffffffffffffffffffffffffffffff163373ffffffffffffffffffffffffffffffffffffffff167f693a1a2278340cdfcc5b3611b0db903d8eeebad6c4082b770cc0d9ad662765ef8d8d8d8d604051808581526020018460ff1660ff1681526020018360ff1660ff16815260200182815260200194505050505060405180910390a35b610f48565b610a8e8b8b8b8b6120d4565b945060006002600087815260200190815260200160002060000154141515610b6a576040517f08c379a00000000000000000000000000000000000000000000000000000000081526004018080602001828103825260468152602001807f54686973206578616374204564676550726f706f73616c20616c72656164792081526020017f6578697374732e20596f752063616e2072656a65637420697420696620796f7581526020017f2077616e742e000000000000000000000000000000000000000000000000000081525060600191505060405180910390fd5b610b76888a8c8e6120d4565b935060006002600086815260200190815260200160002060000154141515610c52576040517f08c379a00000000000000000000000000000000000000000000000000000000081526004018080602001828103825260548152602001807f5468652072657665727365206f662074686973204564676550726f706f73616c81526020017f20616c7265616479206578697374732e20596f752063616e206569746865722081526020017f72656a656374206f72206163636570742069742e00000000000000000000000081525060600191505060405180910390fd5b600160003373ffffffffffffffffffffffffffffffffffffffff1673ffffffffffffffffffffffffffffffffffffffff1681526020019081526020016000206001019250600160008760000160009054906101000a900473ffffffffffffffffffffffffffffffffffffffff1673ffffffffffffffffffffffffffffffffffffffff1673ffffffffffffffffffffffffffffffffffffffff168152602001908152602001600020600101915060c0604051908101604052808c81526020018981526020018b60ff1667ffffffffffffffff1681526020018a60ff1667ffffffffffffffff168152602001848054905067ffffffffffffffff168152602001838054905067ffffffffffffffff1681525090508060026000878152602001908152602001600020600082015181600001556020820151816001015560408201518160020160006101000a81548167ffffffffffffffff021916908367ffffffffffffffff16021790555060608201518160020160086101000a81548167ffffffffffffffff021916908367ffffffffffffffff16021790555060808201518160020160106101000a81548167ffffffffffffffff021916908367ffffffffffffffff16021790555060a08201518160020160186101000a81548167ffffffffffffffff021916908367ffffffffffffffff16021790555090505082859080600181540180825580915050906001820390600052602060002001600090919290919091505550818590806001815401808255809150509060018203906000526020600020016000909192909190915055508560000160009054906101000a900473ffffffffffffffffffffffffffffffffffffffff1673ffffffffffffffffffffffffffffffffffffffff167f10d8d0812bf060fa8b8427a2b5c1874d62be37075619e34c1b7d0cf5d4a15b128633604051808381526020018273ffffffffffffffffffffffffffffffffffffffff1673ffffffffffffffffffffffffffffffffffffffff1681526020019250505060405180910390a25b5050505050505050505050565b6000600160003373ffffffffffffffffffffffffffffffffffffffff1673ffffffffffffffffffffffffffffffffffffffff168152602001908152602001600020600001805490508210151561105f576040517f08c379a00000000000000000000000000000000000000000000000000000000081526004018080602001828103825260498152602001807f54686520696e64657820737570706c69656420776173203e3d20746865206e7581526020017f6d626572206f6620746865204e6f6465732062656c6f6e67696e6720746f207481526020017f6865204f776e65722e000000000000000000000000000000000000000000000081525060600191505060405180910390fd5b600160003373ffffffffffffffffffffffffffffffffffffffff1673ffffffffffffffffffffffffffffffffffffffff168152602001908152602001600020600001828154811015156110ae57fe5b90600052602060002001549050919050565b60006110ca612a08565b60008460006002811015156110db57fe5b602002013560001916600190041415151561115e576040517f08c379a00000000000000000000000000000000000000000000000000000000081526004018080602001828103825260138152602001807f5f697066735b305d2077617320656d707479210000000000000000000000000081525060200191505060405180910390fd5b61118c8460028060200260405190810160405280929190826002602002808284378201915050505050612007565b9150600080600084815260200190815260200160002060010160006002811015156111b357fe5b015460019004141515611254576040517f08c379a00000000000000000000000000000000000000000000000000000000081526004018080602001828103825260218152602001807f41204e6f64652077697468205f6970667320616c72656164792065786973747381526020017f210000000000000000000000000000000000000000000000000000000000000081525060400191505060405180910390fd5b33816000019073ffffffffffffffffffffffffffffffffffffffff16908173ffffffffffffffffffffffffffffffffffffffff16815250508360028060200260405190810160405280929190826002602002808284378201915050505050816020018190525082816040019067ffffffffffffffff16908167ffffffffffffffff1681525050600160003373ffffffffffffffffffffffffffffffffffffffff1673ffffffffffffffffffffffffffffffffffffffff16815260200190815260200160002060000180549050816080019067ffffffffffffffff16908167ffffffffffffffff16815250508060008084815260200190815260200160002060008201518160000160006101000a81548173ffffffffffffffffffffffffffffffffffffffff021916908373ffffffffffffffffffffffffffffffffffffffff1602179055506020820151816001019060026113b0929190612a6f565b5060408201518160030160006101000a81548167ffffffffffffffff021916908367ffffffffffffffff1602179055506060820151816004019060066113f7929190612ab5565b50608082015181600a0160006101000a81548167ffffffffffffffff021916908367ffffffffffffffff160217905550905050600160003373ffffffffffffffffffffffffffffffffffffffff1673ffffffffffffffffffffffffffffffffffffffff1681526020019081526020016000206000018290806001815401808255809150509060018203906000526020600020016000909192909190915055503373ffffffffffffffffffffffffffffffffffffffff167fef9a38875abd2c44e371e4af5d2f965da6c9dc85ca1ff15a58dd8ddb70089d7e836040518082815260200191505060405180910390a250505050565b6114f2612a08565b60008060008060008087815260200190815260200160002060a060405190810160405290816000820160009054906101000a900473ffffffffffffffffffffffffffffffffffffffff1673ffffffffffffffffffffffffffffffffffffffff1673ffffffffffffffffffffffffffffffffffffffff168152602001600182016002806020026040519081016040528092919082600280156115ac576020028201915b81546000191681526020019060010190808311611594575b505050505081526020016003820160009054906101000a900467ffffffffffffffff1667ffffffffffffffff1667ffffffffffffffff16815260200160048201600680602002604051908101604052809291908260068015611623576020028201915b81548152602001906001019080831161160f575b50505050508152602001600a820160009054906101000a900467ffffffffffffffff1667ffffffffffffffff1667ffffffffffffffff16815250509450846000015173ffffffffffffffffffffffffffffffffffffffff163373ffffffffffffffffffffffffffffffffffffffff1614151561172d576040517f08c379a000000000000000000000000000000000000000000000000000000000815260040180806020018281038252602f8152602001807f596f75206d757374206f776e2074686973204e6f646520746f2062652061626c81526020017f6520746f2064656c6574652069742e000000000000000000000000000000000081525060400191505060405180910390fd5b600093505b60068460ff16101561182857600085606001518560ff1660068110151561175557fe5b602002015114151561181b576040517f08c379a00000000000000000000000000000000000000000000000000000000081526004018080602001828103825260468152602001807f596f75206d75737420646973636f6e6e6563742074686973204e6f646520667281526020017f6f6d20616c6c206f74686572204e6f646573206265666f72652064656c65746981526020017f6e672069742e000000000000000000000000000000000000000000000000000081525060600191505060405180910390fd5b8380600101945050611732565b600160003373ffffffffffffffffffffffffffffffffffffffff1673ffffffffffffffffffffffffffffffffffffffff168152602001908152602001600020600001925084608001519150600183805490500390508067ffffffffffffffff168267ffffffffffffffff16101561194157828167ffffffffffffffff168154811015156118b157fe5b9060005260206000200154838367ffffffffffffffff168154811015156118d457fe5b906000526020600020018190555081600080858567ffffffffffffffff168154811015156118fe57fe5b90600052602060002001548152602001908152602001600020600a0160006101000a81548167ffffffffffffffff021916908367ffffffffffffffff1602179055505b828167ffffffffffffffff1681548110151561195957fe5b90600052602060002001600090558280548091906001900361197b9190612af5565b50600080878152602001908152602001600020600080820160006101000a81549073ffffffffffffffffffffffffffffffffffffffff02191690556001820160006119c69190612b21565b6003820160006101000a81549067ffffffffffffffff02191690556004820160006119f19190612b2f565b600a820160006101000a81549067ffffffffffffffff021916905550503373ffffffffffffffffffffffffffffffffffffffff167fabb39a19e31157f336be7f5ea824d929074835335c7c8e16966dd0c035def988876040518082815260200191505060405180910390a2505050505050565b6000600160008473ffffffffffffffffffffffffffffffffffffffff1673ffffffffffffffffffffffffffffffffffffffff1681526020019081526020016000206001018054905082101515611b6e576040517f08c379a000000000000000000000000000000000000000000000000000000000815260040180806020018281038252604d8152602001807f54686520696e64657820737570706c69656420776173203e3d20746865206e7581526020017f6d626572206f66204564676550726f706f73616c732062656c6f6e67696e672081526020017f746f20746865204f776e65722e0000000000000000000000000000000000000081525060600191505060405180910390fd5b600160008473ffffffffffffffffffffffffffffffffffffffff1673ffffffffffffffffffffffffffffffffffffffff16815260200190815260200160002060010182815481101515611bbd57fe5b9060005260206000200154905092915050565b6000611bda612b42565b600080611be5612b64565b611bed612a08565b600080600089815260200190815260200160002060a060405190810160405290816000820160009054906101000a900473ffffffffffffffffffffffffffffffffffffffff1673ffffffffffffffffffffffffffffffffffffffff1673ffffffffffffffffffffffffffffffffffffffff16815260200160018201600280602002604051908101604052809291908260028015611ca3576020028201915b81546000191681526020019060010190808311611c8b575b505050505081526020016003820160009054906101000a900467ffffffffffffffff1667ffffffffffffffff1667ffffffffffffffff16815260200160048201600680602002604051908101604052809291908260068015611d1a576020028201915b815481526020019060010190808311611d06575b50505050508152602001600a820160009054906101000a900467ffffffffffffffff1667ffffffffffffffff1667ffffffffffffffff168152505091506000826000015173ffffffffffffffffffffffffffffffffffffffff1614151515611dea576040517f08c379a00000000000000000000000000000000000000000000000000000000081526004018080602001828103825260148152602001807f4e6f646520646f6573206e6f742065786973742e00000000000000000000000081525060200191505060405180910390fd5b8160000151965081602001519550816040015194508160600151925060009350600090505b60068160ff161015611e50576000838260ff16600681101515611e2e57fe5b6020020151141515611e435783806001019450505b8080600101915050611e0f565b505091939590929450565b611e636129a9565b6002600083815260200190815260200160002060c0604051908101604052908160008201548152602001600182015481526020016002820160009054906101000a900467ffffffffffffffff1667ffffffffffffffff1667ffffffffffffffff1681526020016002820160089054906101000a900467ffffffffffffffff1667ffffffffffffffff1667ffffffffffffffff1681526020016002820160109054906101000a900467ffffffffffffffff1667ffffffffffffffff1667ffffffffffffffff1681526020016002820160189054906101000a900467ffffffffffffffff1667ffffffffffffffff1667ffffffffffffffff168152505090506000816000015114151515612003576040517f08c379a00000000000000000000000000000000000000000000000000000000081526004018080602001828103825260308152602001807f546865204564676550726f706f73616c206174205f6564676550726f706f736181526020017f6c4b6579206d7573742065786973742e0000000000000000000000000000000081525060400191505060405180910390fd5b5050565b600081600060028110151561201857fe5b602002015182600160028110151561202c57fe5b60200201516040516020018083600019166000191681526020018260001916600019168152602001925050506040516020818303038152906040526040518082805190602001908083835b60208310151561209c5780518252602082019150602081019050602083039250612077565b6001836020036101000a0380198251168184511680821785525050505050509050019150506040518091039020600190049050919050565b600084848484604051602001808581526020018460ff1660ff167f01000000000000000000000000000000000000000000000000000000000000000281526001018360ff1660ff167f01000000000000000000000000000000000000000000000000000000000000000281526001018281526020019450505050506040516020818303038152906040526040518082805190602001908083835b602083101515612193578051825260208201915060208101905060208303925061216e565b6001836020036101000a0380198251168184511680821785525050505050509050019150506040518091039020600190049050949350505050565b6000600160008373ffffffffffffffffffffffffffffffffffffffff1673ffffffffffffffffffffffffffffffffffffffff168152602001908152602001600020600101805490509050919050565b6122256129a9565b61222d612b87565b60008060008060006002600089815260200190815260200160002060c0604051908101604052908160008201548152602001600182015481526020016002820160009054906101000a900467ffffffffffffffff1667ffffffffffffffff1667ffffffffffffffff1681526020016002820160089054906101000a900467ffffffffffffffff1667ffffffffffffffff1667ffffffffffffffff1681526020016002820160109054906101000a900467ffffffffffffffff1667ffffffffffffffff1667ffffffffffffffff1681526020016002820160189054906101000a900467ffffffffffffffff1667ffffffffffffffff1667ffffffffffffffff1681525050965060408051908101604052806000808a60000151815260200190815260200160002060000160009054906101000a900473ffffffffffffffffffffffffffffffffffffffff1673ffffffffffffffffffffffffffffffffffffffff1673ffffffffffffffffffffffffffffffffffffffff1681526020016000808a60200151815260200190815260200160002060000160009054906101000a900473ffffffffffffffffffffffffffffffffffffffff1673ffffffffffffffffffffffffffffffffffffffff1673ffffffffffffffffffffffffffffffffffffffff1681525095503373ffffffffffffffffffffffffffffffffffffffff1686600060028110151561243957fe5b602002015173ffffffffffffffffffffffffffffffffffffffff16148061249e57503373ffffffffffffffffffffffffffffffffffffffff1686600160028110151561248157fe5b602002015173ffffffffffffffffffffffffffffffffffffffff16145b1515612584576040517f08c379a00000000000000000000000000000000000000000000000000000000081526004018080602001828103825260688152602001807f596f75206d75737420626520656974686572207468652070726f706f7365722081526020017f6f72207468652070726f706f73656520746f2072656a6563742074686973204581526020017f64676550726f706f73616c2c206f72206974206d69676874206e6f742065766581526020017f6e2065786973742e00000000000000000000000000000000000000000000000081525060800191505060405180910390fd5b6002600089815260200190815260200160002060008082016000905560018201600090556002820160006101000a81549067ffffffffffffffff02191690556002820160086101000a81549067ffffffffffffffff02191690556002820160106101000a81549067ffffffffffffffff02191690556002820160186101000a81549067ffffffffffffffff02191690555050600094505b60028560ff16101561286c5760016000878760ff1660028110151561263c57fe5b602002015173ffffffffffffffffffffffffffffffffffffffff1673ffffffffffffffffffffffffffffffffffffffff168152602001908152602001600020600101935060008560ff1614612695578660a0015161269b565b86608001515b9250600184805490500391508167ffffffffffffffff168367ffffffffffffffff16101561282457838267ffffffffffffffff168154811015156126db57fe5b9060005260206000200154905080848467ffffffffffffffff1681548110151561270157fe5b90600052602060002001819055506000806002600084815260200190815260200160002060000154815260200190815260200160002060000160009054906101000a900473ffffffffffffffffffffffffffffffffffffffff1673ffffffffffffffffffffffffffffffffffffffff16868660ff1660028110151561278257fe5b602002015173ffffffffffffffffffffffffffffffffffffffff1614156127e557826002600083815260200190815260200160002060020160106101000a81548167ffffffffffffffff021916908367ffffffffffffffff160217905550612823565b826002600083815260200190815260200160002060020160186101000a81548167ffffffffffffffff021916908367ffffffffffffffff1602179055505b5b838267ffffffffffffffff1681548110151561283c57fe5b90600052602060002001600090558380548091906001900361285e9190612af5565b50848060010195505061261b565b853373ffffffffffffffffffffffffffffffffffffffff1687600060028110151561289357fe5b602002015173ffffffffffffffffffffffffffffffffffffffff16146128ba5760006128bd565b60015b60ff166002811015156128cc57fe5b602002015173ffffffffffffffffffffffffffffffffffffffff167ff9b73c038e1aee520744cbbb4c257f3ee450509e6eea8a41f8291670a642e5eb8933604051808381526020018273ffffffffffffffffffffffffffffffffffffffff1673ffffffffffffffffffffffffffffffffffffffff1681526020019250505060405180910390a25050505050505050565b6000600160003373ffffffffffffffffffffffffffffffffffffffff1673ffffffffffffffffffffffffffffffffffffffff16815260200190815260200160002060000180549050905090565b60c0604051908101604052806000815260200160008152602001600067ffffffffffffffff168152602001600067ffffffffffffffff168152602001600067ffffffffffffffff168152602001600067ffffffffffffffff1681525090565b61016060405190810160405280600073ffffffffffffffffffffffffffffffffffffffff168152602001612a3a612ba9565b8152602001600067ffffffffffffffff168152602001612a58612bcb565b8152602001600067ffffffffffffffff1681525090565b8260028101928215612aa4579160200282015b82811115612aa3578251829060001916905591602001919060010190612a82565b5b509050612ab19190612bee565b5090565b8260068101928215612ae4579160200282015b82811115612ae3578251825591602001919060010190612ac8565b5b509050612af19190612c13565b5090565b815481835581811115612b1c57818360005260206000209182019101612b1b9190612c13565b5b505050565b506000815560010160009055565b508060060190612b3f9190612c13565b50565b6040805190810160405280600290602082028038833980820191505090505090565b60c060405190810160405280600690602082028038833980820191505090505090565b6040805190810160405280600290602082028038833980820191505090505090565b6040805190810160405280600290602082028038833980820191505090505090565b60c060405190810160405280600690602082028038833980820191505090505090565b612c1091905b80821115612c0c576000816000905550600101612bf4565b5090565b90565b612c3591905b80821115612c31576000816000905550600101612c19565b5090565b905600546865204e6f64657320736c6f7473206174205f6e6f64654b657930205f736c6f743020616e64205f6e6f64654b657931205f736c6f7431206d7573742062652065697468657220626f746820636f6e6e656374656420746f2065616368206f74686572206f7220626f746820646973636f6e6e65637465642066726f6d20616e79204e6f64652ea165627a7a72305820576b9c4964a60f28cdf99809daceabf17804e212d3d8f743f8d0a0bd435de4c00029",
  "source": "pragma solidity ^0.4.24;\nimport \"./InterweaveGraph.sol\";\n\ncontract InterweaveProposals is InterweaveGraph {\n  \n  /// @notice EdgeProposal struct represents a proposal to connect or disconnect two Nodes via specific slots. The Node at nodeKey0 belongs to the proposer.\n  struct EdgeProposal {\n    uint256 nodeKey0;\n    uint256 nodeKey1;\n    uint64 slot0; // uint64 instead of uint8 so that these four values all fit into one uint256 storage slot.\n    uint64 slot1;\n    uint64 ownerEdgeProposalsIndex0; // These two indexes upport efficient deleting of EdgeProposals from their Owner lists.\n    uint64 ownerEdgeProposalsIndex1;\n  }\n  \n  /// @notice An EdgeProposal was created.\n  /// @param edgeProposalKey The uint256 key of the created EdgeProposal.\n  /// @param proposerAddr The Ethereum address of the Owner who created the EdgeProposal.\n  /// @param proposedToAddr The Ethereum address of the Owner who is the counterparty on the EdgeProposal.\n  event EdgeProposalCreated(uint256 edgeProposalKey, address proposerAddr, address indexed proposedToAddr);\n  \n  /// @notice An EdgeProposal was accepted, connecting or disconnecting two Nodes.\n  /// @param edgeProposalKey The uint256 key of the accepted EdgeProposal (which will have been deleted).\n  /// @param accepterAddr The Ethereum address of the Owner who accepted the EdgeProposal.\n  /// @param acceptedAddr The Ethereum address of the Owner whose EdgeProposal was accepted.\n  event EdgeProposalAccepted(uint256 edgeProposalKey, address accepterAddr, address indexed acceptedAddr);\n  \n  /// @notice An EdgeProposal was rejected.\n  /// @param edgeProposalKey The uint256 key of the rejected EdgeProposal (which will have been deleted).\n  /// @param rejecterAddr The Ethereum address of the Owner who rejected the EdgeProposal.\n  /// @param rejectedAddr The Ethereum address of the Owner who was the counterparty on the EdgeProposal.\n  event EdgeProposalRejected(uint256 edgeProposalKey, address rejecterAddr, address indexed rejectedAddr);\n  \n  /// @notice An edge between Nodes was created.\n  /// @param nodeKey0 The uint256 key of Node 0.\n  /// @param slot0 The uint8 slot belonging to Node 0 that was connected.\n  /// @param slot1 The uint8 slot belonging to Node 1 that was connected.\n  /// @param nodeKey1 The uint256 key of Node 1.\n  /// @param ownerAddr0 The address of the owner of Node 0.\n  /// @param ownerAddr1 The address of the owner of Node 1.\n  event EdgeCreated(uint256 nodeKey0, uint8 slot0, uint8 slot1, uint256 nodeKey1, address indexed ownerAddr0, address indexed ownerAddr1);\n  \n  /// @notice An edge between Nodes was deleted.\n  /// @param nodeKey0 The uint256 key of Node 0.\n  /// @param slot0 The uint8 slot belonging to Node 0 that was disconnected.\n  /// @param slot1 The uint8 slot belonging to Node 1 that was disconnected.\n  /// @param nodeKey1 The uint256 key of Node 1.\n  /// @param ownerAddr0 The address of the owner of Node 0.\n  /// @param ownerAddr1 The address of the owner of Node 1.\n  event EdgeDeleted(uint256 nodeKey0, uint8 slot0, uint8 slot1, uint256 nodeKey1, address indexed ownerAddr0, address indexed ownerAddr1);\n  \n  /// @notice A mapping allowing lookup of EdgeProposals by their keys.\n  /// @dev EdgeProposal keys = uint256(kekkac(halfEdgeKey0, halfEdgeKey1))\n  mapping (uint256 => EdgeProposal) internal edgeProposalLookup;\n  \n  /// @notice A function to generate a unique key for an EdgeProposal from given Nodes and their slots.\n  /// @param _nodeKey0 The uint256 key of the first Node.\n  /// @param _slot0 The uint8 slot of the first Node.\n  /// @param _slot1 The uint8 slot of the second Node.\n  /// @param _nodeKey1 The uint256 key of the second Node.\n  /// @return A uint256 key.\n  function edgeProposalKeyFromNodesAndSlots(uint256 _nodeKey0, uint8 _slot0, uint8 _slot1, uint256 _nodeKey1) public pure returns (uint256) {\n    return uint256(\n      keccak256(\n        abi.encodePacked(\n          _nodeKey0,\n          _slot0,\n          _slot1,\n          _nodeKey1\n        )\n      )\n    );\n  }\n  \n  /// @notice Create an EdgeProposal, between the Nodes with the given keys, via their given slots. Simply immediately toggle an edge if both are owned by msg.sender. Will error if they are neither connected nor disconnected.\n  /// @param _nodeKey0 The uint256 key of the first Node to connect to/disconnect from the second one.\n  /// @param _slot0 The uint8 slot of the first Node to connect/disconnect through.\n  /// @param _slot1 The uint8 slot of the second Node to connect/disconnect through.\n  /// @param _nodeKey1 The uint256 key of the second Node to connect to/disconnect from the first one.\n  function createEdgeProposal(uint256 _nodeKey0, uint8 _slot0, uint8 _slot1, uint256 _nodeKey1) external {\n    \n    // Make sure slots are in a valid range.\n    require(\n      _slot0 < 6 && _slot1 < 6,\n      \"Both slots must be in the range 0-5.\"\n    );\n    \n    Node storage node0 = nodeLookup[_nodeKey0]; // TODO check if storage is needed.\n    \n    // Make sure Node 0 exists and is owned by msg.sender.\n    require(\n      node0.ownerAddr == msg.sender,\n      \"You must own the Node at _nodeKey0 in order to manage its edge Nodes, or it might not even exist.\"\n    );\n    \n    Node storage node1 = nodeLookup[_nodeKey1]; // TODO check if storage is needed.\n    \n    // Make sure Node 1 exists.\n    require(\n      node1.ownerAddr != 0,\n      \"The Node at _nodeKey1 must exist.\"\n    );\n    \n    // Make sure Nodes and their slots are in valid connect or disconnect configuration.\n    require (\n      (node0.edgeNodeKeys[_slot0] == _nodeKey1 && node1.edgeNodeKeys[_slot1] == _nodeKey0)\n      || (node0.edgeNodeKeys[_slot0] == 0 && node1.edgeNodeKeys[_slot1] == 0),\n      \"The Nodes slots at _nodeKey0 _slot0 and _nodeKey1 _slot1 must be either both connected to each other or both disconnected from any Node.\"\n    );\n    \n    // If Node 1 is owned by msg.sender, don't create a proposal at all: just connect/disconnect the nodes!\n    if (node1.ownerAddr == msg.sender) {\n      // Since we already confirmed they are in valid configuration, a simple check if one slot is 0 or not is enough to let us know what to do.\n      if (node0.edgeNodeKeys[_slot0] == 0) {\n        // Connect 'em.\n        node0.edgeNodeKeys[_slot0] = _nodeKey1;\n        node1.edgeNodeKeys[_slot1] = _nodeKey0;\n        \n        emit EdgeCreated(_nodeKey0, _slot0, _slot1, _nodeKey1, msg.sender, msg.sender);\n      }\n      else {\n        // Disconnect 'em.\n        node0.edgeNodeKeys[_slot0] = 0;\n        node1.edgeNodeKeys[_slot1] = 0;\n        \n        emit EdgeDeleted(_nodeKey0, _slot0, _slot1, _nodeKey1, msg.sender, msg.sender);\n      }\n      return; // Done, in either case.\n    }\n    \n    // Node 1 is not owned by msg.sender, so continue with an actual EdgeProposal.\n    \n    uint256 newEdgeProposalKey = edgeProposalKeyFromNodesAndSlots(_nodeKey0, _slot0, _slot1, _nodeKey1);\n    \n    require(\n      edgeProposalLookup[newEdgeProposalKey].nodeKey0 == 0,\n      \"This exact EdgeProposal already exists. You can reject it if you want.\"\n    );\n    \n    uint256 reverseEdgeProposalKey = edgeProposalKeyFromNodesAndSlots(_nodeKey1, _slot1, _slot0, _nodeKey0);\n    \n    require(\n      edgeProposalLookup[reverseEdgeProposalKey].nodeKey0 == 0,\n      \"The reverse of this EdgeProposal already exists. You can either reject or accept it.\"\n    );\n    \n    // Okay, we're clear to actually create the EdgeProposal.\n    uint256[] storage edgeProposalKeys0 = ownerLookup[msg.sender].edgeProposalKeys;\n    uint256[] storage edgeProposalKeys1 = ownerLookup[node1.ownerAddr].edgeProposalKeys;\n    \n    EdgeProposal memory newEdgeProposal = EdgeProposal({\n      nodeKey0: _nodeKey0,\n      nodeKey1: _nodeKey1,\n      slot0: uint64(_slot0),\n      slot1: uint64(_slot1),\n      ownerEdgeProposalsIndex0: uint64(edgeProposalKeys0.length),\n      ownerEdgeProposalsIndex1: uint64(edgeProposalKeys1.length)\n    });\n    \n    edgeProposalLookup[newEdgeProposalKey] = newEdgeProposal;\n    \n    edgeProposalKeys0.push(newEdgeProposalKey);\n    edgeProposalKeys1.push(newEdgeProposalKey);\n    \n    // Log the EdgeProposal creation.\n    emit EdgeProposalCreated(newEdgeProposalKey, msg.sender, node1.ownerAddr);\n  }\n  \n  function acceptEdgeProposal(uint256 _edgeProposalKey) external {\n    \n    EdgeProposal memory edgeProposal = edgeProposalLookup[_edgeProposalKey];\n    \n    require(\n      edgeProposal.nodeKey0 != 0,\n      \"The EdgeProposal at _edgeProposalKey must exist.\"\n    );\n    \n    /*\n    - require proposalLookup[proposalKey] !== 0\n    - require NodeLookup[HalfEdgeLookup[proposal.halfEdgeKey0].node].owner !== msg.sender (you can't accept your own proposal)\n    - Delete the Proposal from proposalLookup\n    - Delete proposalKey from, and compactify, the two OwnerLookup[msg.sender or otherNodeOwner].proposals (proposal's time is up, whatever happens next)\n    - If neither halfEdge slot contains the other:\n      - Connect them\n    - Else if both HalfEdge slots contain the other:\n      - Disconnect them\n    - Else:\n      - Situation where either or both halfEdges have already connected to other ones. Proposal is worthless, so do nothing; it's already deleted.\n    */\n  }\n  \n  function rejectEdgeProposal(uint256 _edgeProposalKey) external {\n    \n    EdgeProposal memory edgeProposal = edgeProposalLookup[_edgeProposalKey];\n    \n    // Make sure the EdgeProposal exists and msg.sender is on either end of it.\n    address[2] memory nodeOwnerAddrs = [\n      nodeLookup[edgeProposal.nodeKey0].ownerAddr,\n      nodeLookup[edgeProposal.nodeKey1].ownerAddr\n    ];\n    require(\n      nodeOwnerAddrs[0] == msg.sender || nodeOwnerAddrs[1] == msg.sender,\n      \"You must be either the proposer or the proposee to reject this EdgeProposal, or it might not even exist.\"\n    );\n    \n    // Delete it from the lookup.\n    delete edgeProposalLookup[_edgeProposalKey]; // Free up storage\n    \n    // For each of the two Owners, remove _edgeProposalKey from their edgeProposalKeys arrays, and swap the last keys into the holes, if any.\n    for (uint8 i = 0; i < 2; i++) {\n      \n      // Delete the EdgeProposal from the two Owners' edgeProposalKeys arrays:\n      // ...Get that array as storage because we'll be using it several times, modifying it, and want the changes to stick.\n      uint256[] storage edgeProposalKeys = ownerLookup[nodeOwnerAddrs[i]].edgeProposalKeys;\n      \n      // ...If the EdgeProposal is not the last element in the array, swap the last element over top of it.\n      uint64 index = (i == 0 ? edgeProposal.ownerEdgeProposalsIndex0 : edgeProposal.ownerEdgeProposalsIndex1);\n      uint64 lastIndex = uint64(edgeProposalKeys.length - 1);\n      if (index < lastIndex) {\n        uint256 movedKey = edgeProposalKeys[lastIndex];\n        \n        edgeProposalKeys[index] = movedKey; // Storage update\n        \n        if (nodeOwnerAddrs[i] == nodeLookup[edgeProposalLookup[movedKey].nodeKey0].ownerAddr) {\n          edgeProposalLookup[movedKey].ownerEdgeProposalsIndex0 = index; // Storage update.\n        }\n        else {\n          edgeProposalLookup[movedKey].ownerEdgeProposalsIndex1 = index; // Storage update.\n        }\n      }\n      \n      // ...Either way, then delete the last element and shrink the array (free up storage))\n      delete edgeProposalKeys[lastIndex];\n      edgeProposalKeys.length--;\n    }\n    \n    // Log the EdgeProposal rejection.\n    emit EdgeProposalRejected(_edgeProposalKey, msg.sender, nodeOwnerAddrs[nodeOwnerAddrs[0] == msg.sender ? 1 : 0]);\n  }\n  \n  function getOwnerEdgeProposalCount(address _ownerAddr) public view returns (uint256) {\n    return ownerLookup[_ownerAddr].edgeProposalKeys.length;\n  }\n  \n  function getOwnerEdgeProposalKeyByIndex(address _ownerAddr, uint256 _index) public view returns (uint256) {\n    require(\n      _index < ownerLookup[_ownerAddr].edgeProposalKeys.length,\n      \"The index supplied was >= the number of EdgeProposals belonging to the Owner.\"\n    );\n    \n    return ownerLookup[_ownerAddr].edgeProposalKeys[_index];\n  }\n}\n",
  "sourcePath": "/home/noah/Programs/Javascript/web3/interweave.network/solidity/contracts/interweave-free/InterweaveProposals.sol",
  "compiler": {
    "name": "solc",
    "version": "0.4.24+commit.e67f0147.Emscripten.clang"
  },
  "schemaVersion": "2.0.1",
  "updatedAt": "2018-10-24T03:52:29.305Z"
}