{
  "contractName": "InterweaveGraph",
  "abi": [
    {
      "constant": true,
      "inputs": [
        {
          "name": "",
          "type": "address"
        }
      ],
      "name": "nodeLookup",
      "outputs": [
        {
          "name": "ownerAddr",
          "type": "address"
        },
        {
          "name": "format",
          "type": "uint32"
        },
        {
          "name": "ownerNodesIndex",
          "type": "uint32"
        }
      ],
      "payable": false,
      "stateMutability": "view",
      "type": "function"
    },
    {
      "constant": true,
      "inputs": [
        {
          "name": "",
          "type": "address"
        }
      ],
      "name": "halfEdgeLookup",
      "outputs": [
        {
          "name": "nodeAddr",
          "type": "address"
        },
        {
          "name": "otherHalfEdgeAddr",
          "type": "address"
        }
      ],
      "payable": false,
      "stateMutability": "view",
      "type": "function"
    },
    {
      "anonymous": false,
      "inputs": [
        {
          "indexed": false,
          "name": "nodeAddr",
          "type": "address"
        }
      ],
      "name": "NodeCreated",
      "type": "event"
    },
    {
      "anonymous": false,
      "inputs": [
        {
          "indexed": false,
          "name": "nodeAddr",
          "type": "address"
        }
      ],
      "name": "NodeDeleted",
      "type": "event"
    },
    {
      "anonymous": false,
      "inputs": [
        {
          "indexed": false,
          "name": "halfEdgeAddr",
          "type": "address"
        }
      ],
      "name": "HalfEdgeCreated",
      "type": "event"
    },
    {
      "anonymous": false,
      "inputs": [
        {
          "indexed": false,
          "name": "halfEdgeAddr",
          "type": "address"
        }
      ],
      "name": "HalfEdgeDeleted",
      "type": "event"
    },
    {
      "constant": false,
      "inputs": [
        {
          "name": "_ipfs",
          "type": "bytes32[2]"
        },
        {
          "name": "_format",
          "type": "uint32"
        }
      ],
      "name": "createNode",
      "outputs": [
        {
          "name": "",
          "type": "address"
        }
      ],
      "payable": false,
      "stateMutability": "nonpayable",
      "type": "function"
    },
    {
      "constant": false,
      "inputs": [
        {
          "name": "_nodeAddr",
          "type": "address"
        }
      ],
      "name": "deleteNode",
      "outputs": [],
      "payable": false,
      "stateMutability": "nonpayable",
      "type": "function"
    },
    {
      "constant": true,
      "inputs": [
        {
          "name": "_ownerAddr",
          "type": "address"
        }
      ],
      "name": "getOwnerNodeCount",
      "outputs": [
        {
          "name": "",
          "type": "uint256"
        }
      ],
      "payable": false,
      "stateMutability": "view",
      "type": "function"
    },
    {
      "constant": true,
      "inputs": [
        {
          "name": "_ownerAddr",
          "type": "address"
        },
        {
          "name": "_index",
          "type": "uint256"
        }
      ],
      "name": "getOwnerNodeAddrByIndex",
      "outputs": [
        {
          "name": "",
          "type": "address"
        }
      ],
      "payable": false,
      "stateMutability": "view",
      "type": "function"
    },
    {
      "constant": false,
      "inputs": [
        {
          "name": "_nodeAddr",
          "type": "address"
        },
        {
          "name": "_ipfs",
          "type": "bytes32[2]"
        }
      ],
      "name": "createHalfEdge",
      "outputs": [
        {
          "name": "",
          "type": "address"
        }
      ],
      "payable": false,
      "stateMutability": "nonpayable",
      "type": "function"
    },
    {
      "constant": false,
      "inputs": [
        {
          "name": "_halfEdgeAddr",
          "type": "address"
        }
      ],
      "name": "deleteHalfEdge",
      "outputs": [],
      "payable": false,
      "stateMutability": "nonpayable",
      "type": "function"
    },
    {
      "constant": true,
      "inputs": [
        {
          "name": "_nodeAddr",
          "type": "address"
        }
      ],
      "name": "getNodeHalfEdgeAddrs",
      "outputs": [
        {
          "name": "halfEdgeAddr0",
          "type": "address"
        },
        {
          "name": "halfEdgeAddr1",
          "type": "address"
        },
        {
          "name": "halfEdgeAddr2",
          "type": "address"
        },
        {
          "name": "halfEdgeAddr3",
          "type": "address"
        },
        {
          "name": "halfEdgeAddr4",
          "type": "address"
        },
        {
          "name": "halfEdgeAddr5",
          "type": "address"
        }
      ],
      "payable": false,
      "stateMutability": "view",
      "type": "function"
    }
  ],
  "bytecode": "0x608060405234801561001057600080fd5b50612887806100206000396000f300608060405260043610610099576000357c0100000000000000000000000000000000000000000000000000000000900463ffffffff16806307adb3d11461009e5780632be3fbe91461011b5780632d4ede93146101a85780636b6e0558146101eb5780637539561a1461022e57806383dc204b146102d757806387a5e7951461032e578063b9876378146103e4578063f6819b7714610471575b600080fd5b3480156100aa57600080fd5b506100d960048036038101908080604001909192919290803563ffffffff1690602001909291905050506105f3565b604051808273ffffffffffffffffffffffffffffffffffffffff1673ffffffffffffffffffffffffffffffffffffffff16815260200191505060405180910390f35b34801561012757600080fd5b50610166600480360381019080803573ffffffffffffffffffffffffffffffffffffffff16906020019092919080359060200190929190505050610b1e565b604051808273ffffffffffffffffffffffffffffffffffffffff1673ffffffffffffffffffffffffffffffffffffffff16815260200191505060405180910390f35b3480156101b457600080fd5b506101e9600480360381019080803573ffffffffffffffffffffffffffffffffffffffff169060200190929190505050610caa565b005b3480156101f757600080fd5b5061022c600480360381019080803573ffffffffffffffffffffffffffffffffffffffff1690602001909291905050506114c0565b005b34801561023a57600080fd5b5061026f600480360381019080803573ffffffffffffffffffffffffffffffffffffffff169060200190929190505050611ae4565b604051808473ffffffffffffffffffffffffffffffffffffffff1673ffffffffffffffffffffffffffffffffffffffff1681526020018363ffffffff1663ffffffff1681526020018263ffffffff1663ffffffff168152602001935050505060405180910390f35b3480156102e357600080fd5b50610318600480360381019080803573ffffffffffffffffffffffffffffffffffffffff169060200190929190505050611b4e565b6040518082815260200191505060405180910390f35b34801561033a57600080fd5b5061036f600480360381019080803573ffffffffffffffffffffffffffffffffffffffff169060200190929190505050611b9d565b604051808373ffffffffffffffffffffffffffffffffffffffff1673ffffffffffffffffffffffffffffffffffffffff1681526020018273ffffffffffffffffffffffffffffffffffffffff1673ffffffffffffffffffffffffffffffffffffffff1681526020019250505060405180910390f35b3480156103f057600080fd5b5061042f600480360381019080803573ffffffffffffffffffffffffffffffffffffffff16906020019092919080604001909192919290505050611c01565b604051808273ffffffffffffffffffffffffffffffffffffffff1673ffffffffffffffffffffffffffffffffffffffff16815260200191505060405180910390f35b34801561047d57600080fd5b506104b2600480360381019080803573ffffffffffffffffffffffffffffffffffffffff16906020019092919050505061222b565b604051808773ffffffffffffffffffffffffffffffffffffffff1673ffffffffffffffffffffffffffffffffffffffff1681526020018673ffffffffffffffffffffffffffffffffffffffff1673ffffffffffffffffffffffffffffffffffffffff1681526020018573ffffffffffffffffffffffffffffffffffffffff1673ffffffffffffffffffffffffffffffffffffffff1681526020018473ffffffffffffffffffffffffffffffffffffffff1673ffffffffffffffffffffffffffffffffffffffff1681526020018373ffffffffffffffffffffffffffffffffffffffff1673ffffffffffffffffffffffffffffffffffffffff1681526020018273ffffffffffffffffffffffffffffffffffffffff1673ffffffffffffffffffffffffffffffffffffffff168152602001965050505050505060405180910390f35b6000803384600060028110151561060657fe5b60200201356000191685600160028110151561061e57fe5b602002013560001916604051602001808473ffffffffffffffffffffffffffffffffffffffff1673ffffffffffffffffffffffffffffffffffffffff166c010000000000000000000000000281526014018360001916600019168152602001826000191660001916815260200193505050506040516020818303038152906040526040518082805190602001908083835b6020831015156106d457805182526020820191506020810190506020830392506106af565b6001836020036101000a038019825116818451168082178552505050505050905001915050604051809103902060019004905060008060008373ffffffffffffffffffffffffffffffffffffffff1673ffffffffffffffffffffffffffffffffffffffff16815260200190815260200160002060000160009054906101000a900473ffffffffffffffffffffffffffffffffffffffff1673ffffffffffffffffffffffffffffffffffffffff1614151561081c576040517f08c379a00000000000000000000000000000000000000000000000000000000081526004018080602001828103825260228152602001807f596f7520616c7265616479206f776e2061206e6f64652077697468205f69706681526020017f732100000000000000000000000000000000000000000000000000000000000081525060400191505060405180910390fd5b60a0604051908101604052803373ffffffffffffffffffffffffffffffffffffffff168152602001856002806020026040519081016040528092919082600260200280828437820191505050505081526020018463ffffffff168152602001600260003373ffffffffffffffffffffffffffffffffffffffff1673ffffffffffffffffffffffffffffffffffffffff1681526020019081526020016000206000018054905063ffffffff16815260200160006040519080825280602002602001820160405280156108fc5781602001602082028038833980820191505090505b508152506000808373ffffffffffffffffffffffffffffffffffffffff1673ffffffffffffffffffffffffffffffffffffffff16815260200190815260200160002060008201518160000160006101000a81548173ffffffffffffffffffffffffffffffffffffffff021916908373ffffffffffffffffffffffffffffffffffffffff16021790555060208201518160010190600261099c9291906125d5565b5060408201518160030160006101000a81548163ffffffff021916908363ffffffff16021790555060608201518160030160046101000a81548163ffffffff021916908363ffffffff1602179055506080820151816004019080519060200190610a0792919061261b565b50905050600260003373ffffffffffffffffffffffffffffffffffffffff1673ffffffffffffffffffffffffffffffffffffffff1681526020019081526020016000206000018190806001815401808255809150509060018203906000526020600020016000909192909190916101000a81548173ffffffffffffffffffffffffffffffffffffffff021916908373ffffffffffffffffffffffffffffffffffffffff160217905550507f55fdf3ae96916cdb0bf329ba2d19e0618b01d8f4d6cfe27ec8bbb79c62be779281604051808273ffffffffffffffffffffffffffffffffffffffff1673ffffffffffffffffffffffffffffffffffffffff16815260200191505060405180910390a18091505092915050565b6000600260008473ffffffffffffffffffffffffffffffffffffffff1673ffffffffffffffffffffffffffffffffffffffff1681526020019081526020016000206000018054905082101515610c28576040517f08c379a00000000000000000000000000000000000000000000000000000000081526004018080602001828103825260498152602001807f54686520696e64657820737570706c69656420776173203e3d20746865206e7581526020017f6d626572206f6620746865204e6f6465732062656c6f6e67696e6720746f207481526020017f6865204f776e65722e000000000000000000000000000000000000000000000081525060600191505060405180910390fd5b600260008473ffffffffffffffffffffffffffffffffffffffff1673ffffffffffffffffffffffffffffffffffffffff16815260200190815260200160002060000182815481101515610c7757fe5b9060005260206000200160009054906101000a900473ffffffffffffffffffffffffffffffffffffffff16905092915050565b610cb26126a5565b6000806000806000808773ffffffffffffffffffffffffffffffffffffffff1673ffffffffffffffffffffffffffffffffffffffff16815260200190815260200160002060a060405190810160405290816000820160009054906101000a900473ffffffffffffffffffffffffffffffffffffffff1673ffffffffffffffffffffffffffffffffffffffff1673ffffffffffffffffffffffffffffffffffffffff16815260200160018201600280602002604051908101604052809291908260028015610d98576020028201915b81546000191681526020019060010190808311610d80575b505050505081526020016003820160009054906101000a900463ffffffff1663ffffffff1663ffffffff1681526020016003820160049054906101000a900463ffffffff1663ffffffff1663ffffffff16815260200160048201805480602002602001604051908101604052809291908181526020018280548015610e7257602002820191906000526020600020905b8160009054906101000a900473ffffffffffffffffffffffffffffffffffffffff1673ffffffffffffffffffffffffffffffffffffffff1681526020019060010190808311610e28575b50505050508152505094503373ffffffffffffffffffffffffffffffffffffffff16856000015173ffffffffffffffffffffffffffffffffffffffff16141515610f4a576040517f08c379a000000000000000000000000000000000000000000000000000000000815260040180806020018281038252602f8152602001807f596f75206d757374206f776e2074686973204e6f646520746f2062652061626c81526020017f6520746f2064656c6574652069742e000000000000000000000000000000000081525060400191505060405180910390fd5b600093505b8460800151518460ff1610156110c65760006001600087608001518760ff16815181101515610f7a57fe5b9060200190602002015173ffffffffffffffffffffffffffffffffffffffff1673ffffffffffffffffffffffffffffffffffffffff16815260200190815260200160002060030160009054906101000a900473ffffffffffffffffffffffffffffffffffffffff1673ffffffffffffffffffffffffffffffffffffffff161415156110b9576040517f08c379a00000000000000000000000000000000000000000000000000000000081526004018080602001828103825260468152602001807f596f75206d75737420646973636f6e6e6563742074686973204e6f646520667281526020017f6f6d20616c6c206f74686572204e6f646573206265666f72652064656c65746981526020017f6e672069742e000000000000000000000000000000000000000000000000000081525060600191505060405180910390fd5b8380600101945050610f4f565b600093505b8460800151518460ff1610156111a6576001600086608001518660ff168151811015156110f457fe5b9060200190602002015173ffffffffffffffffffffffffffffffffffffffff1673ffffffffffffffffffffffffffffffffffffffff168152602001908152602001600020600080820160006101000a81549073ffffffffffffffffffffffffffffffffffffffff021916905560018201600061117091906126fd565b6003820160006101000a81549073ffffffffffffffffffffffffffffffffffffffff0219169055505083806001019450506110cb565b600260003373ffffffffffffffffffffffffffffffffffffffff1673ffffffffffffffffffffffffffffffffffffffff168152602001908152602001600020600001925084606001519150600183805490500390508063ffffffff168263ffffffff16101561134957828163ffffffff1681548110151561122357fe5b9060005260206000200160009054906101000a900473ffffffffffffffffffffffffffffffffffffffff16838363ffffffff1681548110151561126257fe5b9060005260206000200160006101000a81548173ffffffffffffffffffffffffffffffffffffffff021916908373ffffffffffffffffffffffffffffffffffffffff16021790555081600080858563ffffffff168154811015156112c257fe5b9060005260206000200160009054906101000a900473ffffffffffffffffffffffffffffffffffffffff1673ffffffffffffffffffffffffffffffffffffffff1673ffffffffffffffffffffffffffffffffffffffff16815260200190815260200160002060030160046101000a81548163ffffffff021916908363ffffffff1602179055505b828163ffffffff1681548110151561135d57fe5b9060005260206000200160006101000a81549073ffffffffffffffffffffffffffffffffffffffff02191690558280548091906001900361139e919061270b565b506000808773ffffffffffffffffffffffffffffffffffffffff1673ffffffffffffffffffffffffffffffffffffffff168152602001908152602001600020600080820160006101000a81549073ffffffffffffffffffffffffffffffffffffffff021916905560018201600061141591906126fd565b6003820160006101000a81549063ffffffff02191690556003820160046101000a81549063ffffffff02191690556004820160006114539190612737565b50507f1629bfc36423a1b4749d3fe1d6970b9d32d42bbee47dd5540670696ab6b9a4ad86604051808273ffffffffffffffffffffffffffffffffffffffff1673ffffffffffffffffffffffffffffffffffffffff16815260200191505060405180910390a1505050505050565b6114c8612758565b6000806000806000600160008873ffffffffffffffffffffffffffffffffffffffff1673ffffffffffffffffffffffffffffffffffffffff168152602001908152602001600020606060405190810160405290816000820160009054906101000a900473ffffffffffffffffffffffffffffffffffffffff1673ffffffffffffffffffffffffffffffffffffffff1673ffffffffffffffffffffffffffffffffffffffff168152602001600182016002806020026040519081016040528092919082600280156115b1576020028201915b81546000191681526020019060010190808311611599575b505050505081526020016003820160009054906101000a900473ffffffffffffffffffffffffffffffffffffffff1673ffffffffffffffffffffffffffffffffffffffff1673ffffffffffffffffffffffffffffffffffffffff16815250509550600080876000015173ffffffffffffffffffffffffffffffffffffffff1673ffffffffffffffffffffffffffffffffffffffff16815260200190815260200160002094503373ffffffffffffffffffffffffffffffffffffffff168560000160009054906101000a900473ffffffffffffffffffffffffffffffffffffffff1673ffffffffffffffffffffffffffffffffffffffff16141515611743576040517f08c379a00000000000000000000000000000000000000000000000000000000081526004018080602001828103825260338152602001807f596f75206d757374206f776e20746869732048616c664564676520746f20626581526020017f2061626c6520746f2064656c6574652069742e0000000000000000000000000081525060400191505060405180910390fd5b6000866040015173ffffffffffffffffffffffffffffffffffffffff16141515611821576040517f08c379a00000000000000000000000000000000000000000000000000000000081526004018080602001828103825260498152602001807f596f75206d75737420646973636f6e6e65637420746869732048616c6645646781526020017f652066726f6d20697473206f746865722068616c66206265666f72652064656c81526020017f6574696e672069742e000000000000000000000000000000000000000000000081525060600191505060405180910390fd5b846004019350600684805490501115151561183857fe5b60009250600091505b83805490508260ff1610156118d7578673ffffffffffffffffffffffffffffffffffffffff16848360ff1681548110151561187857fe5b9060005260206000200160009054906101000a900473ffffffffffffffffffffffffffffffffffffffff1673ffffffffffffffffffffffffffffffffffffffff1614156118ca57819250838054905091505b8180600101925050611841565b600184805490500390508060ff168360ff16101561198557838160ff1681548110151561190057fe5b9060005260206000200160009054906101000a900473ffffffffffffffffffffffffffffffffffffffff16848460ff1681548110151561193c57fe5b9060005260206000200160006101000a81548173ffffffffffffffffffffffffffffffffffffffff021916908373ffffffffffffffffffffffffffffffffffffffff1602179055505b838160ff1681548110151561199657fe5b9060005260206000200160006101000a81549073ffffffffffffffffffffffffffffffffffffffff0219169055838054809190600190036119d7919061270b565b50600160008873ffffffffffffffffffffffffffffffffffffffff1673ffffffffffffffffffffffffffffffffffffffff168152602001908152602001600020600080820160006101000a81549073ffffffffffffffffffffffffffffffffffffffff0219169055600182016000611a4f91906126fd565b6003820160006101000a81549073ffffffffffffffffffffffffffffffffffffffff021916905550507f304ab5bddfb23ed728b357fb04df5540d0a48c52020d0bd163203d20a8acafb287604051808273ffffffffffffffffffffffffffffffffffffffff1673ffffffffffffffffffffffffffffffffffffffff16815260200191505060405180910390a150505050505050565b60006020528060005260406000206000915090508060000160009054906101000a900473ffffffffffffffffffffffffffffffffffffffff16908060030160009054906101000a900463ffffffff16908060030160049054906101000a900463ffffffff16905083565b6000600260008373ffffffffffffffffffffffffffffffffffffffff1673ffffffffffffffffffffffffffffffffffffffff168152602001908152602001600020600001805490509050919050565b60016020528060005260406000206000915090508060000160009054906101000a900473ffffffffffffffffffffffffffffffffffffffff16908060030160009054906101000a900473ffffffffffffffffffffffffffffffffffffffff16905082565b60008060008060008673ffffffffffffffffffffffffffffffffffffffff1673ffffffffffffffffffffffffffffffffffffffff16815260200190815260200160002091508160000160009054906101000a900473ffffffffffffffffffffffffffffffffffffffff1673ffffffffffffffffffffffffffffffffffffffff163373ffffffffffffffffffffffffffffffffffffffff16141515611d33576040517f08c379a000000000000000000000000000000000000000000000000000000000815260040180806020018281038252603a8152602001807f596f75206d757374206f776e2074686973204e6f646520746f2062652061626c81526020017f6520746f2061646420612048616c664564676520746f2069742e00000000000081525060400191505060405180910390fd5b60068260040180549050101515611dd8576040517f08c379a00000000000000000000000000000000000000000000000000000000081526004018080602001828103825260328152602001807f596f752063616e6e6f742068617665206d6f7265207468616e20362048616c6681526020017f4564676573206f6e206f6e65204e6f64652e000000000000000000000000000081525060400191505060405180910390fd5b33846000600281101515611de857fe5b602002013560001916856001600281101515611e0057fe5b602002013560001916604051602001808473ffffffffffffffffffffffffffffffffffffffff1673ffffffffffffffffffffffffffffffffffffffff166c010000000000000000000000000281526014018360001916600019168152602001826000191660001916815260200193505050506040516020818303038152906040526040518082805190602001908083835b602083101515611eb65780518252602082019150602081019050602083039250611e91565b6001836020036101000a03801982511681845116808217855250505050505090500191505060405180910390206001900490506000600160008373ffffffffffffffffffffffffffffffffffffffff1673ffffffffffffffffffffffffffffffffffffffff16815260200190815260200160002060000160009054906101000a900473ffffffffffffffffffffffffffffffffffffffff1673ffffffffffffffffffffffffffffffffffffffff16141515611fff576040517f08c379a00000000000000000000000000000000000000000000000000000000081526004018080602001828103825260268152602001807f596f7520616c7265616479206f776e20612048616c664564676520776974682081526020017f5f6970667321000000000000000000000000000000000000000000000000000081525060400191505060405180910390fd5b6060604051908101604052808673ffffffffffffffffffffffffffffffffffffffff16815260200185600280602002604051908101604052809291908260026020028082843782019150505050508152602001600073ffffffffffffffffffffffffffffffffffffffff16815250600160008373ffffffffffffffffffffffffffffffffffffffff1673ffffffffffffffffffffffffffffffffffffffff16815260200190815260200160002060008201518160000160006101000a81548173ffffffffffffffffffffffffffffffffffffffff021916908373ffffffffffffffffffffffffffffffffffffffff16021790555060208201518160010190600261210a9291906125d5565b5060408201518160030160006101000a81548173ffffffffffffffffffffffffffffffffffffffff021916908373ffffffffffffffffffffffffffffffffffffffff160217905550905050816004018190806001815401808255809150509060018203906000526020600020016000909192909190916101000a81548173ffffffffffffffffffffffffffffffffffffffff021916908373ffffffffffffffffffffffffffffffffffffffff160217905550507f734a706414a59355e7a65f23672e3997c0b71f2e61fbed74b6eb3a5cf7f37b2581604051808273ffffffffffffffffffffffffffffffffffffffff1673ffffffffffffffffffffffffffffffffffffffff16815260200191505060405180910390a1809250505092915050565b60008060008060008061223c6126a5565b60008060008a73ffffffffffffffffffffffffffffffffffffffff1673ffffffffffffffffffffffffffffffffffffffff16815260200190815260200160002060a060405190810160405290816000820160009054906101000a900473ffffffffffffffffffffffffffffffffffffffff1673ffffffffffffffffffffffffffffffffffffffff1673ffffffffffffffffffffffffffffffffffffffff1681526020016001820160028060200260405190810160405280929190826002801561231e576020028201915b81546000191681526020019060010190808311612306575b505050505081526020016003820160009054906101000a900463ffffffff1663ffffffff1663ffffffff1681526020016003820160049054906101000a900463ffffffff1663ffffffff1663ffffffff168152602001600482018054806020026020016040519081016040528092919081815260200182805480156123f857602002820191906000526020600020905b8160009054906101000a900473ffffffffffffffffffffffffffffffffffffffff1673ffffffffffffffffffffffffffffffffffffffff16815260200190600101908083116123ae575b50505050508152505091506000826000015173ffffffffffffffffffffffffffffffffffffffff1614151515612496576040517f08c379a00000000000000000000000000000000000000000000000000000000081526004018080602001828103825260148152602001807f4e6f646520646f6573206e6f742065786973742e00000000000000000000000081525060200191505060405180910390fd5b816080015151905060008160ff16116124b05760006124ce565b816080015160008151811015156124c357fe5b906020019060200201515b975060018160ff16116124e2576000612500565b816080015160018151811015156124f557fe5b906020019060200201515b965060028160ff1611612514576000612532565b8160800151600281518110151561252757fe5b906020019060200201515b955060038160ff1611612546576000612564565b8160800151600381518110151561255957fe5b906020019060200201515b945060048160ff1611612578576000612596565b8160800151600481518110151561258b57fe5b906020019060200201515b935060058160ff16116125aa5760006125c8565b816080015160058151811015156125bd57fe5b906020019060200201515b9250505091939550919395565b826002810192821561260a579160200282015b828111156126095782518290600019169055916020019190600101906125e8565b5b50905061261791906127ac565b5090565b828054828255906000526020600020908101928215612694579160200282015b828111156126935782518260006101000a81548173ffffffffffffffffffffffffffffffffffffffff021916908373ffffffffffffffffffffffffffffffffffffffff1602179055509160200191906001019061263b565b5b5090506126a191906127d1565b5090565b60c060405190810160405280600073ffffffffffffffffffffffffffffffffffffffff1681526020016126d6612814565b8152602001600063ffffffff168152602001600063ffffffff168152602001606081525090565b506000815560010160009055565b815481835581811115612732578183600052602060002091820191016127319190612836565b5b505050565b50805460008255906000526020600020908101906127559190612836565b50565b608060405190810160405280600073ffffffffffffffffffffffffffffffffffffffff168152602001612789612814565b8152602001600073ffffffffffffffffffffffffffffffffffffffff1681525090565b6127ce91905b808211156127ca5760008160009055506001016127b2565b5090565b90565b61281191905b8082111561280d57600081816101000a81549073ffffffffffffffffffffffffffffffffffffffff0219169055506001016127d7565b5090565b90565b6040805190810160405280600290602082028038833980820191505090505090565b61285891905b8082111561285457600081600090555060010161283c565b5090565b905600a165627a7a7230582095e554b84149886f3575a35063a303364e567a2887f48fcc7a95aaa33b0ee2f80029",
  "source": "pragma solidity ^0.4.24;\n\n/// @title The Interweave Network graph contract.\n/// @author interweaver\n/// @notice This is still a development version, but for now, is intended to represent a full graph.\ncontract InterweaveGraph {\n    \n  /// @notice Node struct represents a node in the graph (a place), with owner, representation with format, and connections to other Nodes.\n  struct Node {\n    address ownerAddr;\n    bytes32[2] ipfs;\n    uint32 format;\n    uint32 ownerNodesIndex; // Supports efficient deleting of nodes. Don't create more than 4 billion nodes, yo.\n    address[] halfEdgeAddrs;\n  }\n  \n  /// @notice HalfEdge struct represents half of an edge in the graph, with the Node it belongs to, representation with implicit format, and connection to another HalfEdge.\n  struct HalfEdge {\n    address nodeAddr;\n    bytes32[2] ipfs; // format = format of node\n    address otherHalfEdgeAddr;\n  }\n  \n  /// @notice Owner struct represents the set of Nodes and EdgeProposals belonging to a particular Ethereum address.\n  struct Owner {\n    address[] nodeAddrs;\n    address[] edgeProposalAddrs;\n  }\n  \n  /// @notice A new Node was created on the graph.\n  /// @param nodeAddr The address of the created Node.\n  event NodeCreated(address nodeAddr);\n  \n  /// @notice A Node was deleted from the graph.\n  /// @param nodeAddr The address of the deleted Node.\n  event NodeDeleted(address nodeAddr);\n  \n  /// @notice A HalfEdge was created on the graph.\n  /// @param halfEdgeAddr The address of the created HalfEdge.\n  event HalfEdgeCreated(address halfEdgeAddr);\n  \n  /// @notice A HalfEdge was deleted from the graph.\n  /// @param halfEdgeAddr The address of the deleted HalfEdge.\n  event HalfEdgeDeleted(address halfEdgeAddr);\n  \n  /// @notice A Mapping allowing lookup of Nodes by their addresses.\n  /// @dev Node addresses = kekkac(owner, ipfs)\n  mapping (address => Node) public nodeLookup;\n  \n  /// @notice A mapping allowing lookup of HalfEdges by their addresses.\n  /// @dev HalfEdge addresses = kekkac(owner, ipfs)\n  mapping (address => HalfEdge) public halfEdgeLookup;\n  \n  /// @notice A mapping allowing lookup of Owners by their (Ethereum) addresses.\n  mapping (address => Owner) internal ownerLookup;\n  \n  /// @notice Create a new Node on the graph.\n  /// @param _ipfs The IPFS hash string of the Node's content file, in two bytes32. Must be unique for this address's Nodes in the graph.\n  /// @param _format The format identifier of the Node's content. Must match with the file at the given IPFS hash, or viewers won't be able to interpret the content.\n  /// @return The Address of the new Node.\n  function createNode(bytes32[2] _ipfs, uint32 _format) external returns (address) {\n    \n    // Generate Node's address from the msg.sender + the IPFS hash.\n    address newNodeAddress = address(keccak256(abi.encodePacked(\n      msg.sender,\n      _ipfs[0],\n      _ipfs[1]\n    )));\n    \n    // There must not already be a node at that address with the same owner.\n    // Your maze of twisty little passages must *not* be all alike.\n    require(\n        uint(nodeLookup[newNodeAddress].ownerAddr) == 0,\n        \"You already own a node with _ipfs!\"\n    );\n    \n    // Instantiate and save the new Node at its address.\n    nodeLookup[newNodeAddress] = Node({\n        ownerAddr: msg.sender,\n        ipfs: _ipfs,\n        format: _format,\n        ownerNodesIndex: uint32(ownerLookup[msg.sender].nodeAddrs.length), // We're gonna push it onto the end.\n        halfEdgeAddrs: new address[](0)\n    });\n    \n    // Also save the new Node's address in its Owner's list of nodes (don't need to create it)\n    ownerLookup[msg.sender].nodeAddrs.push(newNodeAddress);\n    \n    // Log the Node creation.\n    emit NodeCreated(newNodeAddress);\n    \n    // Finally, hand back the new Node's address to the caller.\n    return newNodeAddress;\n  }\n  \n  /// @notice Delete a Node from the graph.\n  /// @param _nodeAddr The address of the Node to delete from the graph.\n  function deleteNode(address _nodeAddr) external {\n    \n    // Get the Node being deleted.\n    Node memory node = nodeLookup[_nodeAddr];\n    \n    // Make sure the Node exists and belongs to msg.sender (can do both checks at once).\n    require(\n      node.ownerAddr == msg.sender,\n      \"You must own this Node to be able to delete it.\"\n    );\n    \n    // Make sure the Node is not connected to any others.\n    for (uint8 i = 0; i < node.halfEdgeAddrs.length; i++) {\n      require(\n        uint(halfEdgeLookup[node.halfEdgeAddrs[i]].otherHalfEdgeAddr) == 0,\n        \"You must disconnect this Node from all other Nodes before deleting it.\"\n      );\n    }\n    \n    // Delete the Node's up-to-6 HalfEdges (which we just confirmed were not connected to anything) from the halfEdgeLookup mapping.\n    // The only other references to them should be in the about-to-be-deleted Node and any about-to-be-invalidated EdgeProposals.\n    for (i = 0; i < node.halfEdgeAddrs.length; i++) {\n      delete halfEdgeLookup[node.halfEdgeAddrs[i]];\n    }\n    \n    // Delete the Node from its Owner's nodeAddrs array:\n    // ...Get that array as storage because we'll be using it several times, modifying it, and want the changes to stick.\n    address[] storage nodeAddrs = ownerLookup[msg.sender].nodeAddrs;\n    \n    // ...If the Node is not the last element in the array, swap the last element over top of it.\n    uint32 index = node.ownerNodesIndex;\n    uint32 lastIndex = uint32(nodeAddrs.length - 1);\n    if (index < lastIndex) {\n      nodeAddrs[index] = nodeAddrs[lastIndex];\n      nodeLookup[nodeAddrs[index]].ownerNodesIndex = index; // Need to update that formerly-last Node's ownerNodesIndex too.\n    }\n    \n    // ...Either way, then delete the last element and shrink the array.\n    delete nodeAddrs[lastIndex];\n    nodeAddrs.length--;\n    \n    // Delete the Node from the nodeLookup mapping.\n    delete nodeLookup[_nodeAddr];\n    \n    // Log the Node deletion.\n    emit NodeDeleted(_nodeAddr);\n  }\n  \n  /// @notice Get how many Nodes are owned by the Owner with the given address.\n  /// @param _ownerAddr The address of the Owner.\n  /// @return How many Nodes they own.\n  function getOwnerNodeCount(address _ownerAddr) public view returns (uint) {\n    return ownerLookup[_ownerAddr].nodeAddrs.length;\n  }\n  \n  /// @notice Get the address of the Node belonging to the Owner with the given address at the given index in the Owner's array of Nodes.\n  /// @param _ownerAddr The address of the Owner.\n  /// @param _index The index of the Node to get (must be less than the number returned by getOwnerNodeCount).\n  /// @return The address of the Owner's Node at the index.\n  function getOwnerNodeAddrByIndex(address _ownerAddr, uint _index) public view returns (address) {\n    \n    // Avoid index out of bounds exceptions.\n    require(\n      _index < ownerLookup[_ownerAddr].nodeAddrs.length,\n      \"The index supplied was >= the number of the Nodes belonging to the Owner.\"\n    );\n    \n    // Do the lookup and return.\n    return ownerLookup[_ownerAddr].nodeAddrs[_index];\n  }\n  \n  /// @notice Create a new HalfEdge on the graph.\n  /// @param _nodeAddr The address of the Node to which this HalfEdge will belong.\n  /// @param _ipfs The IPFS hash string of the HalfEdge's content file. Must be unique for HalfEdges in the graph. Content must have the same format as the Node.\n  /// @return The address of the new HalfEdge.\n  function createHalfEdge(address _nodeAddr, bytes32[2] _ipfs) external returns (address) {\n    \n    // Make sure msg.sender owns the Node.\n    Node storage node = nodeLookup[_nodeAddr];\n    require(\n      msg.sender == node.ownerAddr,\n      \"You must own this Node to be able to add a HalfEdge to it.\"\n    );\n    \n    // Make sure the Node doesn't already have 6 HalfEdges.\n    require(\n      node.halfEdgeAddrs.length < 6,\n      \"You cannot have more than 6 HalfEdges on one Node.\"\n    );\n    \n    // Make sure _ipfs isn't already used for a HalfEdge by this Owner.\n    // Your paths connecting the maze of twisty little passages must *not* be all alike.\n    address newHalfEdgeAddr = address(keccak256(abi.encodePacked(\n      msg.sender,\n      _ipfs[0],\n      _ipfs[1]\n    )));\n    require(\n      uint(halfEdgeLookup[newHalfEdgeAddr].nodeAddr) == 0,\n      \"You already own a HalfEdge with _ipfs!\"\n    );\n    \n    // Instantiate and save the new HalfEdge at its address.\n    halfEdgeLookup[newHalfEdgeAddr] = HalfEdge({\n      nodeAddr: _nodeAddr,\n      ipfs: _ipfs,\n      otherHalfEdgeAddr: address(0)\n    });\n    \n    // Add newHalfEdgeAddr to its Node's halfEdgeAddrs.\n    node.halfEdgeAddrs.push(newHalfEdgeAddr);\n    \n    // Log the creation.\n    emit HalfEdgeCreated(newHalfEdgeAddr);\n    \n    // Finally, hand back the new HalfEdge's address to the caller.\n    return newHalfEdgeAddr;\n  }\n  \n  /// @notice Delete a HalfEdge from the graph.\n  /// @param _halfEdgeAddr The address of the HalfEdge to delete from the graph.\n  function deleteHalfEdge(address _halfEdgeAddr) external {\n    \n    // Get the HalfEdge being deleted. Aren't changing it, but need it a couple of times, so memory.\n    HalfEdge memory halfEdge = halfEdgeLookup[_halfEdgeAddr];\n    \n    // Get the Node of the HalfEdge being deleted. Will be changing its halfEdgeAddrs array, so storage. (unless halfEdgeAddrs storage later makes this unneeded???)\n    Node storage node = nodeLookup[halfEdge.nodeAddr];\n    \n    // Make sure the HalfEdge exists and belongs to msg.sender (can do both checks at once).\n    // Side note: If the HalfEdge doesn't exist, nodeLookup[0x0] will only ever contain 0s unless someone discovers an IPFS hash that hashes to 0x0 :)\n    require (\n      node.ownerAddr == msg.sender,\n      \"You must own this HalfEdge to be able to delete it.\"\n    );\n    \n    // Make sure the HalfEdge isn't connected to another.\n    require (\n      uint(halfEdge.otherHalfEdgeAddr) == 0,\n      \"You must disconnect this HalfEdge from its other half before deleting it.\"\n    );\n    \n    // Delete the HalfEdge from its Node's halfEdgeAddrs array:\n    // ...Get that array as storage because we'll be using it several times, modifying it, and want the changes to stick.\n    address[] storage halfEdgeAddrs = node.halfEdgeAddrs;\n    \n    // ...Check invariant: Nodes always have <= 6 HalfEdges.\n    assert(halfEdgeAddrs.length <= 6);\n    \n    // ...Iterate (up to 6 times) to find index of _halfEdgeAddr in halfEdgeAddrs.\n    uint8 index = 0;\n    for (uint8 i = 0; i < halfEdgeAddrs.length; i++) {\n      if (halfEdgeAddrs[i] == _halfEdgeAddr) {\n        index = i;\n        i = uint8(halfEdgeAddrs.length); // cut out early\n      }\n    }\n    \n    // ...If the HalfEdge is not the last element in the array, swap the last element over top of it.\n    uint8 lastIndex = uint8(halfEdgeAddrs.length - 1);\n    if (index < lastIndex) {\n      halfEdgeAddrs[index] = halfEdgeAddrs[lastIndex];\n    }\n    \n    // ...Either way, then delete the last element and shrink the array.\n    delete halfEdgeAddrs[lastIndex];\n    halfEdgeAddrs.length--;\n    \n    // Delete the HalfEdge from the halfEdgeLookup mapping.\n    delete halfEdgeLookup[_halfEdgeAddr];\n    \n    // Log the deletion.\n    emit HalfEdgeDeleted(_halfEdgeAddr);\n  }\n  \n  /// @notice Get all the addresses of the HalfEdge belonging to the Node with the given address. Returns 0x0 for empty HalfEdge slots.\n  /// @param _nodeAddr The address of the Node to get the HalfEdge addresses for.\n  /// @return halfEdgeAddr0 The address of the 0th HalfEdge, or 0x0 if < 1 HalfEdges.\n  /// @return halfEdgeAddr1 The address of the 1st HalfEdge, or 0x0 if < 2 HalfEdges.\n  /// @return halfEdgeAddr2 The address of the 2nd HalfEdge, or 0x0 if < 3 HalfEdges.\n  /// @return halfEdgeAddr3 The address of the 3rd HalfEdge, or 0x0 if < 4 HalfEdges.\n  /// @return halfEdgeAddr4 The address of the 4th HalfEdge, or 0x0 if < 5 HalfEdges.\n  /// @return halfEdgeAddr5 The address of the 5th HalfEdge, or 0x0 if < 6 HalfEdges.\n  /// @dev Callers are responsible for noticing empty HalfEdge addresses. Someday when dynamic return lengths are possible, this will just return the set of HalfEdge addresses without empty slots...\n  function getNodeHalfEdgeAddrs(address _nodeAddr) external view returns (\n    address halfEdgeAddr0,\n    address halfEdgeAddr1,\n    address halfEdgeAddr2,\n    address halfEdgeAddr3,\n    address halfEdgeAddr4,\n    address halfEdgeAddr5\n  ) {\n    \n    // Look up the Node in question.\n    Node memory node = nodeLookup[_nodeAddr];\n    \n    // Make sure it exists.\n    require(\n        uint(node.ownerAddr) != 0,\n        \"Node does not exist.\"\n    );\n    \n    // Count how many halfEdgeAddrs it has.\n    uint8 len = uint8(node.halfEdgeAddrs.length);\n    \n    // Set our return values: the addresss of each of the up-to-six HalfEdges, or 0x0 if that slot is empty.\n    halfEdgeAddr0 = len > 0 ? node.halfEdgeAddrs[0] : address(0);\n    halfEdgeAddr1 = len > 1 ? node.halfEdgeAddrs[1] : address(0);\n    halfEdgeAddr2 = len > 2 ? node.halfEdgeAddrs[2] : address(0);\n    halfEdgeAddr3 = len > 3 ? node.halfEdgeAddrs[3] : address(0);\n    halfEdgeAddr4 = len > 4 ? node.halfEdgeAddrs[4] : address(0);\n    halfEdgeAddr5 = len > 5 ? node.halfEdgeAddrs[5] : address(0);\n  }\n}\n",
  "sourcePath": "/home/noah/Programs/Javascript/web3/interweave.network/solidity/contracts/interweave-free/InterweaveGraph.sol",
  "compiler": {
    "name": "solc",
    "version": "0.4.24+commit.e67f0147.Emscripten.clang"
  },
  "schemaVersion": "2.0.1",
  "updatedAt": "2018-10-21T15:24:13.359Z"
}