{
  "contractName": "InterweaveGraph",
  "abi": [
    {
      "anonymous": false,
      "inputs": [
        {
          "indexed": false,
          "name": "nodeAddr",
          "type": "address"
        }
      ],
      "name": "NodeCreated",
      "type": "event"
    },
    {
      "anonymous": false,
      "inputs": [
        {
          "indexed": false,
          "name": "nodeAddr",
          "type": "address"
        }
      ],
      "name": "NodeDeleted",
      "type": "event"
    },
    {
      "anonymous": false,
      "inputs": [
        {
          "indexed": false,
          "name": "halfEdgeAddr",
          "type": "address"
        }
      ],
      "name": "HalfEdgeCreated",
      "type": "event"
    },
    {
      "anonymous": false,
      "inputs": [
        {
          "indexed": false,
          "name": "halfEdgeAddr",
          "type": "address"
        }
      ],
      "name": "HalfEdgeDeleted",
      "type": "event"
    },
    {
      "constant": false,
      "inputs": [
        {
          "name": "_ipfs",
          "type": "bytes32[2]"
        },
        {
          "name": "_format",
          "type": "uint64"
        }
      ],
      "name": "createNode",
      "outputs": [
        {
          "name": "",
          "type": "address"
        }
      ],
      "payable": false,
      "stateMutability": "nonpayable",
      "type": "function"
    },
    {
      "constant": false,
      "inputs": [
        {
          "name": "_nodeAddr",
          "type": "address"
        }
      ],
      "name": "deleteNode",
      "outputs": [],
      "payable": false,
      "stateMutability": "nonpayable",
      "type": "function"
    },
    {
      "constant": true,
      "inputs": [],
      "name": "getSenderNodeCount",
      "outputs": [
        {
          "name": "",
          "type": "uint256"
        }
      ],
      "payable": false,
      "stateMutability": "view",
      "type": "function"
    },
    {
      "constant": true,
      "inputs": [
        {
          "name": "_index",
          "type": "uint256"
        }
      ],
      "name": "getSenderNodeAddrByIndex",
      "outputs": [
        {
          "name": "",
          "type": "address"
        }
      ],
      "payable": false,
      "stateMutability": "view",
      "type": "function"
    },
    {
      "constant": false,
      "inputs": [
        {
          "name": "_nodeAddr",
          "type": "address"
        },
        {
          "name": "_ipfs",
          "type": "bytes32[2]"
        }
      ],
      "name": "createHalfEdge",
      "outputs": [
        {
          "name": "",
          "type": "address"
        }
      ],
      "payable": false,
      "stateMutability": "nonpayable",
      "type": "function"
    },
    {
      "constant": false,
      "inputs": [
        {
          "name": "_halfEdgeAddr",
          "type": "address"
        }
      ],
      "name": "deleteHalfEdge",
      "outputs": [],
      "payable": false,
      "stateMutability": "nonpayable",
      "type": "function"
    },
    {
      "constant": true,
      "inputs": [
        {
          "name": "_nodeAddr",
          "type": "address"
        }
      ],
      "name": "getNode",
      "outputs": [
        {
          "name": "ipfs",
          "type": "bytes32[2]"
        },
        {
          "name": "format",
          "type": "uint64"
        },
        {
          "name": "senderIsOwner",
          "type": "bool"
        },
        {
          "name": "halfEdgeAddrs",
          "type": "address[6]"
        }
      ],
      "payable": false,
      "stateMutability": "view",
      "type": "function"
    },
    {
      "constant": true,
      "inputs": [
        {
          "name": "_halfEdgeAddr",
          "type": "address"
        }
      ],
      "name": "getEdge",
      "outputs": [
        {
          "name": "nodeAddr",
          "type": "address"
        },
        {
          "name": "ipfs",
          "type": "bytes32[2]"
        },
        {
          "name": "format",
          "type": "uint64"
        },
        {
          "name": "connected",
          "type": "bool"
        },
        {
          "name": "otherNodeAddr",
          "type": "address"
        },
        {
          "name": "otherIpfs",
          "type": "bytes32[2]"
        },
        {
          "name": "otherFormat",
          "type": "uint64"
        }
      ],
      "payable": false,
      "stateMutability": "view",
      "type": "function"
    }
  ],
  "bytecode": "0x608060405234801561001057600080fd5b50613011806100206000396000f30060806040526004361061008e576000357c0100000000000000000000000000000000000000000000000000000000900463ffffffff1680632d4ede93146100935780633a6b686b146100d6578063520097ca146101575780636b6e0558146101c457806380aaf005146102075780639d2090481461035c578063b987637814610430578063fbbe0bad146104bd575b600080fd5b34801561009f57600080fd5b506100d4600480360381019080803573ffffffffffffffffffffffffffffffffffffffff1690602001909291905050506104e8565b005b3480156100e257600080fd5b5061011560048036038101908080604001909192919290803567ffffffffffffffff169060200190929190505050610dcb565b604051808273ffffffffffffffffffffffffffffffffffffffff1673ffffffffffffffffffffffffffffffffffffffff16815260200191505060405180910390f35b34801561016357600080fd5b5061018260048036038101908080359060200190929190505050611274565b604051808273ffffffffffffffffffffffffffffffffffffffff1673ffffffffffffffffffffffffffffffffffffffff16815260200191505060405180910390f35b3480156101d057600080fd5b50610205600480360381019080803573ffffffffffffffffffffffffffffffffffffffff1690602001909291905050506113ff565b005b34801561021357600080fd5b50610248600480360381019080803573ffffffffffffffffffffffffffffffffffffffff169060200190929190505050611bc6565b604051808873ffffffffffffffffffffffffffffffffffffffff1673ffffffffffffffffffffffffffffffffffffffff16815260200187600260200280838360005b838110156102a557808201518184015260208101905061028a565b505050509050018667ffffffffffffffff1667ffffffffffffffff168152602001851515151581526020018473ffffffffffffffffffffffffffffffffffffffff1673ffffffffffffffffffffffffffffffffffffffff16815260200183600260200280838360005b8381101561032957808201518184015260208101905061030e565b505050509050018267ffffffffffffffff1667ffffffffffffffff16815260200197505050505050505060405180910390f35b34801561036857600080fd5b5061039d600480360381019080803573ffffffffffffffffffffffffffffffffffffffff16906020019092919050505061203b565b6040518085600260200280838360005b838110156103c85780820151818401526020810190506103ad565b505050509050018467ffffffffffffffff1667ffffffffffffffff1681526020018315151515815260200182600660200280838360005b8381101561041a5780820151818401526020810190506103ff565b5050505090500194505050505060405180910390f35b34801561043c57600080fd5b5061047b600480360381019080803573ffffffffffffffffffffffffffffffffffffffff16906020019092919080604001909192919290505050612445565b604051808273ffffffffffffffffffffffffffffffffffffffff1673ffffffffffffffffffffffffffffffffffffffff16815260200191505060405180910390f35b3480156104c957600080fd5b506104d2612ce2565b6040518082815260200191505060405180910390f35b6104f0612d2f565b6000806000806000808773ffffffffffffffffffffffffffffffffffffffff1673ffffffffffffffffffffffffffffffffffffffff1681526020019081526020016000206080604051908101604052908160008201600280602002604051908101604052809291908260028015610580576020028201915b81546000191681526020019060010190808311610568575b505050505081526020016002820160009054906101000a900467ffffffffffffffff1667ffffffffffffffff1667ffffffffffffffff1681526020016002820160089054906101000a900467ffffffffffffffff1667ffffffffffffffff1667ffffffffffffffff1681526020016003820180548060200260200160405190810160405280929190818152602001828054801561067257602002820191906000526020600020905b8160009054906101000a900473ffffffffffffffffffffffffffffffffffffffff1673ffffffffffffffffffffffffffffffffffffffff1681526020019060010190808311610628575b5050505050815250509450338560000151600060028110151561069157fe5b6020020151866000015160016002811015156106a957fe5b6020020151604051602001808473ffffffffffffffffffffffffffffffffffffffff1673ffffffffffffffffffffffffffffffffffffffff166c010000000000000000000000000281526014018360001916600019168152602001826000191660001916815260200193505050506040516020818303038152906040526040518082805190602001908083835b60208310151561075b5780518252602082019150602081019050602083039250610736565b6001836020036101000a03801982511681845116808217855250505050505090500191505060405180910390206001900473ffffffffffffffffffffffffffffffffffffffff168673ffffffffffffffffffffffffffffffffffffffff16141515610854576040517f08c379a000000000000000000000000000000000000000000000000000000000815260040180806020018281038252602f8152602001807f596f75206d757374206f776e2074686973204e6f646520746f2062652061626c81526020017f6520746f2064656c6574652069742e000000000000000000000000000000000081525060400191505060405180910390fd5b600093505b8460600151518460ff1610156109d05760006001600087606001518760ff1681518110151561088457fe5b9060200190602002015173ffffffffffffffffffffffffffffffffffffffff1673ffffffffffffffffffffffffffffffffffffffff16815260200190815260200160002060010160009054906101000a900473ffffffffffffffffffffffffffffffffffffffff1673ffffffffffffffffffffffffffffffffffffffff161415156109c3576040517f08c379a00000000000000000000000000000000000000000000000000000000081526004018080602001828103825260468152602001807f596f75206d75737420646973636f6e6e6563742074686973204e6f646520667281526020017f6f6d20616c6c206f74686572204e6f646573206265666f72652064656c65746981526020017f6e672069742e000000000000000000000000000000000000000000000000000081525060600191505060405180910390fd5b8380600101945050610859565b600093505b8460600151518460ff161015610ab0576001600086606001518660ff168151811015156109fe57fe5b9060200190602002015173ffffffffffffffffffffffffffffffffffffffff1673ffffffffffffffffffffffffffffffffffffffff168152602001908152602001600020600080820160006101000a81549073ffffffffffffffffffffffffffffffffffffffff02191690556001820160006101000a81549073ffffffffffffffffffffffffffffffffffffffff0219169055600282016000610aa19190612d72565b505083806001019450506109d5565b600260003373ffffffffffffffffffffffffffffffffffffffff1673ffffffffffffffffffffffffffffffffffffffff168152602001908152602001600020600001925084604001519150600183805490500390508067ffffffffffffffff168267ffffffffffffffff161015610c6f57828167ffffffffffffffff16815481101515610b3957fe5b9060005260206000200160009054906101000a900473ffffffffffffffffffffffffffffffffffffffff16838367ffffffffffffffff16815481101515610b7c57fe5b9060005260206000200160006101000a81548173ffffffffffffffffffffffffffffffffffffffff021916908373ffffffffffffffffffffffffffffffffffffffff16021790555081600080858567ffffffffffffffff16815481101515610be057fe5b9060005260206000200160009054906101000a900473ffffffffffffffffffffffffffffffffffffffff1673ffffffffffffffffffffffffffffffffffffffff1673ffffffffffffffffffffffffffffffffffffffff16815260200190815260200160002060020160086101000a81548167ffffffffffffffff021916908367ffffffffffffffff1602179055505b828167ffffffffffffffff16815481101515610c8757fe5b9060005260206000200160006101000a81549073ffffffffffffffffffffffffffffffffffffffff021916905582805480919060019003610cc89190612d80565b506000808773ffffffffffffffffffffffffffffffffffffffff1673ffffffffffffffffffffffffffffffffffffffff16815260200190815260200160002060008082016000610d189190612d72565b6002820160006101000a81549067ffffffffffffffff02191690556002820160086101000a81549067ffffffffffffffff0219169055600382016000610d5e9190612dac565b50507f1629bfc36423a1b4749d3fe1d6970b9d32d42bbee47dd5540670696ab6b9a4ad86604051808273ffffffffffffffffffffffffffffffffffffffff1673ffffffffffffffffffffffffffffffffffffffff16815260200191505060405180910390a1505050505050565b60008033846000600281101515610dde57fe5b602002013560001916856001600281101515610df657fe5b602002013560001916604051602001808473ffffffffffffffffffffffffffffffffffffffff1673ffffffffffffffffffffffffffffffffffffffff166c010000000000000000000000000281526014018360001916600019168152602001826000191660001916815260200193505050506040516020818303038152906040526040518082805190602001908083835b602083101515610eac5780518252602082019150602081019050602083039250610e87565b6001836020036101000a038019825116818451168082178552505050505050905001915050604051809103902060019004905060008060008373ffffffffffffffffffffffffffffffffffffffff1673ffffffffffffffffffffffffffffffffffffffff168152602001908152602001600020506002141515610fbd576040517f08c379a00000000000000000000000000000000000000000000000000000000081526004018080602001828103825260228152602001807f596f7520616c7265616479206f776e2061206e6f64652077697468205f69706681526020017f732100000000000000000000000000000000000000000000000000000000000081525060400191505060405180910390fd5b608060405190810160405280856002806020026040519081016040528092919082600260200280828437820191505050505081526020018467ffffffffffffffff168152602001600260003373ffffffffffffffffffffffffffffffffffffffff1673ffffffffffffffffffffffffffffffffffffffff1681526020019081526020016000206000018054905067ffffffffffffffff16815260200160006040519080825280602002602001820160405280156110895781602001602082028038833980820191505090505b508152506000808373ffffffffffffffffffffffffffffffffffffffff1673ffffffffffffffffffffffffffffffffffffffff1681526020019081526020016000206000820151816000019060026110e2929190612dcd565b5060208201518160020160006101000a81548167ffffffffffffffff021916908367ffffffffffffffff16021790555060408201518160020160086101000a81548167ffffffffffffffff021916908367ffffffffffffffff160217905550606082015181600301908051906020019061115d929190612e13565b50905050600260003373ffffffffffffffffffffffffffffffffffffffff1673ffffffffffffffffffffffffffffffffffffffff1681526020019081526020016000206000018190806001815401808255809150509060018203906000526020600020016000909192909190916101000a81548173ffffffffffffffffffffffffffffffffffffffff021916908373ffffffffffffffffffffffffffffffffffffffff160217905550507f55fdf3ae96916cdb0bf329ba2d19e0618b01d8f4d6cfe27ec8bbb79c62be779281604051808273ffffffffffffffffffffffffffffffffffffffff1673ffffffffffffffffffffffffffffffffffffffff16815260200191505060405180910390a18091505092915050565b6000600260003373ffffffffffffffffffffffffffffffffffffffff1673ffffffffffffffffffffffffffffffffffffffff168152602001908152602001600020600001805490508210151561137e576040517f08c379a00000000000000000000000000000000000000000000000000000000081526004018080602001828103825260498152602001807f54686520696e64657820737570706c69656420776173203e3d20746865206e7581526020017f6d626572206f6620746865204e6f6465732062656c6f6e67696e6720746f207481526020017f6865204f776e65722e000000000000000000000000000000000000000000000081525060600191505060405180910390fd5b600260003373ffffffffffffffffffffffffffffffffffffffff1673ffffffffffffffffffffffffffffffffffffffff168152602001908152602001600020600001828154811015156113cd57fe5b9060005260206000200160009054906101000a900473ffffffffffffffffffffffffffffffffffffffff169050919050565b611407612e9d565b6000806000806000600160008873ffffffffffffffffffffffffffffffffffffffff1673ffffffffffffffffffffffffffffffffffffffff168152602001908152602001600020606060405190810160405290816000820160009054906101000a900473ffffffffffffffffffffffffffffffffffffffff1673ffffffffffffffffffffffffffffffffffffffff1673ffffffffffffffffffffffffffffffffffffffff1681526020016001820160009054906101000a900473ffffffffffffffffffffffffffffffffffffffff1673ffffffffffffffffffffffffffffffffffffffff1673ffffffffffffffffffffffffffffffffffffffff16815260200160028201600280602002604051908101604052809291908260028015611546576020028201915b8154600019168152602001906001019080831161152e575b50505050508152505095506000866000015173ffffffffffffffffffffffffffffffffffffffff161415151561160a576040517f08c379a000000000000000000000000000000000000000000000000000000000815260040180806020018281038252602f8152602001807f5468652048616c6645646765206d75737420657869737420696e206f7264657281526020017f20746f2062652064656c657465642e000000000000000000000000000000000081525060400191505060405180910390fd5b338660400151600060028110151561161e57fe5b60200201518760400151600160028110151561163657fe5b6020020151604051602001808473ffffffffffffffffffffffffffffffffffffffff1673ffffffffffffffffffffffffffffffffffffffff166c010000000000000000000000000281526014018360001916600019168152602001826000191660001916815260200193505050506040516020818303038152906040526040518082805190602001908083835b6020831015156116e857805182526020820191506020810190506020830392506116c3565b6001836020036101000a03801982511681845116808217855250505050505090500191505060405180910390206001900473ffffffffffffffffffffffffffffffffffffffff168773ffffffffffffffffffffffffffffffffffffffff161415156117e1576040517f08c379a00000000000000000000000000000000000000000000000000000000081526004018080602001828103825260338152602001807f596f75206d757374206f776e20746869732048616c664564676520746f20626581526020017f2061626c6520746f2064656c6574652069742e0000000000000000000000000081525060400191505060405180910390fd5b6000866020015173ffffffffffffffffffffffffffffffffffffffff161415156118bf576040517f08c379a00000000000000000000000000000000000000000000000000000000081526004018080602001828103825260498152602001807f596f75206d75737420646973636f6e6e65637420746869732048616c6645646781526020017f652066726f6d20697473206f746865722068616c66206265666f72652064656c81526020017f6574696e672069742e000000000000000000000000000000000000000000000081525060600191505060405180910390fd5b600080876000015173ffffffffffffffffffffffffffffffffffffffff1673ffffffffffffffffffffffffffffffffffffffff1681526020019081526020016000209450846003019350600684805490501115151561191a57fe5b60009250600091505b83805490508260ff1610156119b9578673ffffffffffffffffffffffffffffffffffffffff16848360ff1681548110151561195a57fe5b9060005260206000200160009054906101000a900473ffffffffffffffffffffffffffffffffffffffff1673ffffffffffffffffffffffffffffffffffffffff1614156119ac57819250838054905091505b8180600101925050611923565b600184805490500390508060ff168360ff161015611a6757838160ff168154811015156119e257fe5b9060005260206000200160009054906101000a900473ffffffffffffffffffffffffffffffffffffffff16848460ff16815481101515611a1e57fe5b9060005260206000200160006101000a81548173ffffffffffffffffffffffffffffffffffffffff021916908373ffffffffffffffffffffffffffffffffffffffff1602179055505b838160ff16815481101515611a7857fe5b9060005260206000200160006101000a81549073ffffffffffffffffffffffffffffffffffffffff021916905583805480919060019003611ab99190612d80565b50600160008873ffffffffffffffffffffffffffffffffffffffff1673ffffffffffffffffffffffffffffffffffffffff168152602001908152602001600020600080820160006101000a81549073ffffffffffffffffffffffffffffffffffffffff02191690556001820160006101000a81549073ffffffffffffffffffffffffffffffffffffffff0219169055600282016000611b589190612d72565b50507f304ab5bddfb23ed728b357fb04df5540d0a48c52020d0bd163203d20a8acafb287604051808273ffffffffffffffffffffffffffffffffffffffff1673ffffffffffffffffffffffffffffffffffffffff16815260200191505060405180910390a150505050505050565b6000611bd0612ef1565b6000806000611bdd612ef1565b6000611be7612e9d565b611bef612e9d565b600160008b73ffffffffffffffffffffffffffffffffffffffff1673ffffffffffffffffffffffffffffffffffffffff168152602001908152602001600020606060405190810160405290816000820160009054906101000a900473ffffffffffffffffffffffffffffffffffffffff1673ffffffffffffffffffffffffffffffffffffffff1673ffffffffffffffffffffffffffffffffffffffff1681526020016001820160009054906101000a900473ffffffffffffffffffffffffffffffffffffffff1673ffffffffffffffffffffffffffffffffffffffff1673ffffffffffffffffffffffffffffffffffffffff16815260200160028201600280602002604051908101604052809291908260028015611d26576020028201915b81546000191681526020019060010190808311611d0e575b50505050508152505091506000826000015173ffffffffffffffffffffffffffffffffffffffff1614151515611dc4576040517f08c379a00000000000000000000000000000000000000000000000000000000081526004018080602001828103825260188152602001807f48616c664564676520646f6573206e6f742065786973742e000000000000000081525060200191505060405180910390fd5b8160000151985081604001519750600080836000015173ffffffffffffffffffffffffffffffffffffffff1673ffffffffffffffffffffffffffffffffffffffff16815260200190815260200160002060020160009054906101000a900467ffffffffffffffff1696506000826020015173ffffffffffffffffffffffffffffffffffffffff1614151561202e5760016000836020015173ffffffffffffffffffffffffffffffffffffffff1673ffffffffffffffffffffffffffffffffffffffff168152602001908152602001600020606060405190810160405290816000820160009054906101000a900473ffffffffffffffffffffffffffffffffffffffff1673ffffffffffffffffffffffffffffffffffffffff1673ffffffffffffffffffffffffffffffffffffffff1681526020016001820160009054906101000a900473ffffffffffffffffffffffffffffffffffffffff1673ffffffffffffffffffffffffffffffffffffffff1673ffffffffffffffffffffffffffffffffffffffff16815260200160028201600280602002604051908101604052809291908260028015611f8d576020028201915b81546000191681526020019060010190808311611f75575b50505050508152505090506000816000015173ffffffffffffffffffffffffffffffffffffffff1614151515611fbf57fe5b600195508060000151945080604001519350600080826000015173ffffffffffffffffffffffffffffffffffffffff1673ffffffffffffffffffffffffffffffffffffffff16815260200190815260200160002060020160009054906101000a900467ffffffffffffffff1692505b5050919395979092949650565b612043612ef1565b60008061204e612f13565b612056612d2f565b6000806000808973ffffffffffffffffffffffffffffffffffffffff1673ffffffffffffffffffffffffffffffffffffffff16815260200190815260200160002060806040519081016040529081600082016002806020026040519081016040528092919082600280156120e3576020028201915b815460001916815260200190600101908083116120cb575b505050505081526020016002820160009054906101000a900467ffffffffffffffff1667ffffffffffffffff1667ffffffffffffffff1681526020016002820160089054906101000a900467ffffffffffffffff1667ffffffffffffffff1667ffffffffffffffff168152602001600382018054806020026020016040519081016040528092919081815260200182805480156121d557602002820191906000526020600020905b8160009054906101000a900473ffffffffffffffffffffffffffffffffffffffff1673ffffffffffffffffffffffffffffffffffffffff168152602001906001019080831161218b575b50505050508152505092506002836000015150600214151561225f576040517f08c379a00000000000000000000000000000000000000000000000000000000081526004018080602001828103825260148152602001807f4e6f646520646f6573206e6f742065786973742e00000000000000000000000081525060200191505060405180910390fd5b82600001519650826020015195503387600060028110151561227d57fe5b602002015188600160028110151561229157fe5b6020020151604051602001808473ffffffffffffffffffffffffffffffffffffffff1673ffffffffffffffffffffffffffffffffffffffff166c010000000000000000000000000281526014018360001916600019168152602001826000191660001916815260200193505050506040516020818303038152906040526040518082805190602001908083835b602083101515612343578051825260208201915060208101905060208303925061231e565b6001836020036101000a03801982511681845116808217855250505050505090500191505060405180910390206001900473ffffffffffffffffffffffffffffffffffffffff168873ffffffffffffffffffffffffffffffffffffffff1614156123ac57600194505b8260600151519150600090505b8160ff168160ff16101561243b5782606001518160ff168151811015156123dc57fe5b90602001906020020151848260ff166006811015156123f757fe5b602002019073ffffffffffffffffffffffffffffffffffffffff16908173ffffffffffffffffffffffffffffffffffffffff168152505080806001019150506123b9565b5050509193509193565b600061244f612d2f565b60008060008673ffffffffffffffffffffffffffffffffffffffff1673ffffffffffffffffffffffffffffffffffffffff16815260200190815260200160002060806040519081016040529081600082016002806020026040519081016040528092919082600280156124db576020028201915b815460001916815260200190600101908083116124c3575b505050505081526020016002820160009054906101000a900467ffffffffffffffff1667ffffffffffffffff1667ffffffffffffffff1681526020016002820160089054906101000a900467ffffffffffffffff1667ffffffffffffffff1667ffffffffffffffff168152602001600382018054806020026020016040519081016040528092919081815260200182805480156125cd57602002820191906000526020600020905b8160009054906101000a900473ffffffffffffffffffffffffffffffffffffffff1673ffffffffffffffffffffffffffffffffffffffff1681526020019060010190808311612583575b505050505081525050915033826000015160006002811015156125ec57fe5b60200201518360000151600160028110151561260457fe5b6020020151604051602001808473ffffffffffffffffffffffffffffffffffffffff1673ffffffffffffffffffffffffffffffffffffffff166c010000000000000000000000000281526014018360001916600019168152602001826000191660001916815260200193505050506040516020818303038152906040526040518082805190602001908083835b6020831015156126b65780518252602082019150602081019050602083039250612691565b6001836020036101000a03801982511681845116808217855250505050505090500191505060405180910390206001900473ffffffffffffffffffffffffffffffffffffffff168573ffffffffffffffffffffffffffffffffffffffff161415156127af576040517f08c379a000000000000000000000000000000000000000000000000000000000815260040180806020018281038252603a8152602001807f596f75206d757374206f776e2074686973204e6f646520746f2062652061626c81526020017f6520746f2061646420612048616c664564676520746f2069742e00000000000081525060400191505060405180910390fd5b6006826060015151101515612852576040517f08c379a00000000000000000000000000000000000000000000000000000000081526004018080602001828103825260328152602001807f596f752063616e6e6f742068617665206d6f7265207468616e20362048616c6681526020017f4564676573206f6e206f6e65204e6f64652e000000000000000000000000000081525060400191505060405180910390fd5b3384600060028110151561286257fe5b60200201356000191685600160028110151561287a57fe5b602002013560001916604051602001808473ffffffffffffffffffffffffffffffffffffffff1673ffffffffffffffffffffffffffffffffffffffff166c010000000000000000000000000281526014018360001916600019168152602001826000191660001916815260200193505050506040516020818303038152906040526040518082805190602001908083835b602083101515612930578051825260208201915060208101905060208303925061290b565b6001836020036101000a03801982511681845116808217855250505050505090500191505060405180910390206001900490506000600160008373ffffffffffffffffffffffffffffffffffffffff1673ffffffffffffffffffffffffffffffffffffffff16815260200190815260200160002060000160009054906101000a900473ffffffffffffffffffffffffffffffffffffffff1673ffffffffffffffffffffffffffffffffffffffff16141515612a79576040517f08c379a00000000000000000000000000000000000000000000000000000000081526004018080602001828103825260268152602001807f596f7520616c7265616479206f776e20612048616c664564676520776974682081526020017f5f6970667321000000000000000000000000000000000000000000000000000081525060400191505060405180910390fd5b6060604051908101604052808673ffffffffffffffffffffffffffffffffffffffff168152602001600073ffffffffffffffffffffffffffffffffffffffff1681526020018560028060200260405190810160405280929190826002602002808284378201915050505050815250600160008373ffffffffffffffffffffffffffffffffffffffff1673ffffffffffffffffffffffffffffffffffffffff16815260200190815260200160002060008201518160000160006101000a81548173ffffffffffffffffffffffffffffffffffffffff021916908373ffffffffffffffffffffffffffffffffffffffff16021790555060208201518160010160006101000a81548173ffffffffffffffffffffffffffffffffffffffff021916908373ffffffffffffffffffffffffffffffffffffffff160217905550604082015181600201906002612bcb929190612dcd565b509050506000808673ffffffffffffffffffffffffffffffffffffffff1673ffffffffffffffffffffffffffffffffffffffff1681526020019081526020016000206003018190806001815401808255809150509060018203906000526020600020016000909192909190916101000a81548173ffffffffffffffffffffffffffffffffffffffff021916908373ffffffffffffffffffffffffffffffffffffffff160217905550507f734a706414a59355e7a65f23672e3997c0b71f2e61fbed74b6eb3a5cf7f37b2581604051808273ffffffffffffffffffffffffffffffffffffffff1673ffffffffffffffffffffffffffffffffffffffff16815260200191505060405180910390a1809250505092915050565b6000600260003373ffffffffffffffffffffffffffffffffffffffff1673ffffffffffffffffffffffffffffffffffffffff16815260200190815260200160002060000180549050905090565b60a060405190810160405280612d43612f36565b8152602001600067ffffffffffffffff168152602001600067ffffffffffffffff168152602001606081525090565b506000815560010160009055565b815481835581811115612da757818360005260206000209182019101612da69190612f58565b5b505050565b5080546000825590600052602060002090810190612dca9190612f58565b50565b8260028101928215612e02579160200282015b82811115612e01578251829060001916905591602001919060010190612de0565b5b509050612e0f9190612f7d565b5090565b828054828255906000526020600020908101928215612e8c579160200282015b82811115612e8b5782518260006101000a81548173ffffffffffffffffffffffffffffffffffffffff021916908373ffffffffffffffffffffffffffffffffffffffff16021790555091602001919060010190612e33565b5b509050612e999190612fa2565b5090565b608060405190810160405280600073ffffffffffffffffffffffffffffffffffffffff168152602001600073ffffffffffffffffffffffffffffffffffffffff168152602001612eeb612f36565b81525090565b6040805190810160405280600290602082028038833980820191505090505090565b60c060405190810160405280600690602082028038833980820191505090505090565b6040805190810160405280600290602082028038833980820191505090505090565b612f7a91905b80821115612f76576000816000905550600101612f5e565b5090565b90565b612f9f91905b80821115612f9b576000816000905550600101612f83565b5090565b90565b612fe291905b80821115612fde57600081816101000a81549073ffffffffffffffffffffffffffffffffffffffff021916905550600101612fa8565b5090565b905600a165627a7a72305820cdad0015908daa2b2ede57149826242ce3dff407e608ddc2eacd7f929f21d0af0029",
  "source": "pragma solidity ^0.4.24;\n\n/// @title The Interweave Network graph contract.\n/// @author interweaver\n/// @notice This is still a development version, but for now, is intended to represent a full graph.\ncontract InterweaveGraph {\n    \n  /// @notice Node struct represents a node in the graph (a place), with owner, representation with format, and connections to other Nodes.\n  struct Node {\n    bytes32[2] ipfs;\n    uint64 format;\n    uint64 ownerNodesIndex; // Supports efficient deleting of nodes.\n    address[] halfEdgeAddrs;\n  }\n  \n  /// @notice HalfEdge struct represents half of an edge in the graph, with the Node it belongs to, representation with implicit format, and connection to another HalfEdge.\n  struct HalfEdge {\n    address nodeAddr;\n    address otherHalfEdgeAddr;\n    bytes32[2] ipfs; // format = format of node\n  }\n  \n  /// @notice Owner struct represents the set of Nodes and EdgeProposals belonging to a particular Ethereum address.\n  struct Owner {\n    address[] nodeAddrs;\n    address[] edgeProposalAddrs;\n  }\n  \n  /// @notice A new Node was created on the graph.\n  /// @param nodeAddr The address of the created Node.\n  event NodeCreated(address nodeAddr);\n  \n  /// @notice A Node was deleted from the graph.\n  /// @param nodeAddr The address of the deleted Node.\n  event NodeDeleted(address nodeAddr);\n  \n  /// @notice A HalfEdge was created on the graph.\n  /// @param halfEdgeAddr The address of the created HalfEdge.\n  event HalfEdgeCreated(address halfEdgeAddr);\n  \n  /// @notice A HalfEdge was deleted from the graph.\n  /// @param halfEdgeAddr The address of the deleted HalfEdge.\n  event HalfEdgeDeleted(address halfEdgeAddr);\n  \n  /// @notice A Mapping allowing lookup of Nodes by their addresses.\n  /// @dev Node addresses = kekkac(owner, ipfs)\n  mapping (address => Node) internal nodeLookup;\n  \n  /// @notice A mapping allowing lookup of HalfEdges by their addresses.\n  /// @dev HalfEdge addresses = kekkac(owner, ipfs)\n  mapping (address => HalfEdge) internal halfEdgeLookup;\n  \n  /// @notice A mapping allowing lookup of Owners by their (Ethereum) addresses.\n  mapping (address => Owner) internal ownerLookup;\n  \n  /// @notice Create a new Node on the graph.\n  /// @param _ipfs The IPFS hash string of the Node's content file, in two bytes32. Must be unique for this address's Nodes in the graph.\n  /// @param _format The format identifier of the Node's content. Must match with the file at the given IPFS hash, or viewers won't be able to interpret the content.\n  /// @return The Address of the new Node.\n  function createNode(bytes32[2] _ipfs, uint64 _format) external returns (address) {\n    \n    // Generate Node's address from the msg.sender + the IPFS hash.\n    address newNodeAddress = address(keccak256(abi.encodePacked(\n      msg.sender,\n      _ipfs[0],\n      _ipfs[1]\n    )));\n    \n    // There must not already be a node at that address with the same owner.\n    // Your maze of twisty little passages must *not* be all alike.\n    require(\n        uint(nodeLookup[newNodeAddress].ipfs.length) == 0,\n        \"You already own a node with _ipfs!\"\n    );\n    \n    // Instantiate and save the new Node at its address.\n    nodeLookup[newNodeAddress] = Node({\n        ipfs: _ipfs,\n        format: _format,\n        ownerNodesIndex: uint64(ownerLookup[msg.sender].nodeAddrs.length), // We're gonna push it onto the end.\n        halfEdgeAddrs: new address[](0)\n    });\n    \n    // Also save the new Node's address in its Owner's list of nodes (don't need to create it)\n    ownerLookup[msg.sender].nodeAddrs.push(newNodeAddress);\n    \n    // Log the Node creation.\n    emit NodeCreated(newNodeAddress);\n    \n    // Finally, hand back the new Node's address to the caller.\n    return newNodeAddress;\n  }\n  \n  /// @notice Delete a Node from the graph.\n  /// @param _nodeAddr The address of the Node to delete from the graph.\n  function deleteNode(address _nodeAddr) external {\n    \n    // Get the Node being deleted.\n    Node memory node = nodeLookup[_nodeAddr];\n    \n    // Make sure the Node exists and belongs to msg.sender (can do both checks at once).\n    require(\n      _nodeAddr == address(keccak256(abi.encodePacked(msg.sender, node.ipfs[0], node.ipfs[1]))),\n      \"You must own this Node to be able to delete it.\"\n    );\n    \n    // Make sure the Node is not connected to any others.\n    for (uint8 i = 0; i < node.halfEdgeAddrs.length; i++) {\n      require(\n        uint(halfEdgeLookup[node.halfEdgeAddrs[i]].otherHalfEdgeAddr) == 0,\n        \"You must disconnect this Node from all other Nodes before deleting it.\"\n      );\n    }\n    \n    // Delete the Node's up-to-6 HalfEdges (which we just confirmed were not connected to anything) from the halfEdgeLookup mapping.\n    // The only other references to them should be in the about-to-be-deleted Node and any about-to-be-invalidated EdgeProposals.\n    for (i = 0; i < node.halfEdgeAddrs.length; i++) {\n      delete halfEdgeLookup[node.halfEdgeAddrs[i]];\n    }\n    \n    // Delete the Node from its Owner's nodeAddrs array:\n    // ...Get that array as storage because we'll be using it several times, modifying it, and want the changes to stick.\n    address[] storage nodeAddrs = ownerLookup[msg.sender].nodeAddrs;\n    \n    // ...If the Node is not the last element in the array, swap the last element over top of it.\n    uint64 index = node.ownerNodesIndex;\n    uint64 lastIndex = uint64(nodeAddrs.length - 1);\n    if (index < lastIndex) {\n      nodeAddrs[index] = nodeAddrs[lastIndex];\n      nodeLookup[nodeAddrs[index]].ownerNodesIndex = index; // Need to update that formerly-last Node's ownerNodesIndex too.\n    }\n    \n    // ...Either way, then delete the last element and shrink the array.\n    delete nodeAddrs[lastIndex];\n    nodeAddrs.length--;\n    \n    // Delete the Node from the nodeLookup mapping.\n    delete nodeLookup[_nodeAddr];\n    \n    // Log the Node deletion.\n    emit NodeDeleted(_nodeAddr);\n  }\n  \n  /// @notice Get how many Nodes are owned by the sender.\n  /// @return How many Nodes they own.\n  function getSenderNodeCount() public view returns (uint) {\n    return ownerLookup[msg.sender].nodeAddrs.length;\n  }\n  \n  /// @notice Get the address of the Node belonging to the sender at the given index in the sender's array of Nodes.\n  /// @param _index A uint containing the index of the Node to get (must be less than the number returned by getOwnerNodeCount).\n  /// @return The address of the sender's Node at the index.\n  function getSenderNodeAddrByIndex(uint _index) public view returns (address) {\n    \n    // Avoid index out of bounds exceptions.\n    require(\n      _index < ownerLookup[msg.sender].nodeAddrs.length,\n      \"The index supplied was >= the number of the Nodes belonging to the Owner.\"\n    );\n    \n    // Do the lookup and return.\n    return ownerLookup[msg.sender].nodeAddrs[_index];\n  }\n  \n  /// @notice Create a new HalfEdge on the graph.\n  /// @param _nodeAddr The address of the Node to which this HalfEdge will belong.\n  /// @param _ipfs A bytes32[2] containing the HalfEdge's IPFS hash. Must be unique for the Owner's HalfEdges in the graph. Content must have the same format as the Node.\n  /// @return The address of the new HalfEdge.\n  function createHalfEdge(address _nodeAddr, bytes32[2] _ipfs) external returns (address) {\n    \n    // Make sure msg.sender owns the Node.\n    Node memory node = nodeLookup[_nodeAddr];\n    require(\n      _nodeAddr == address(keccak256(abi.encodePacked(msg.sender, node.ipfs[0], node.ipfs[1]))),\n      \"You must own this Node to be able to add a HalfEdge to it.\"\n    );\n    \n    // Make sure the Node doesn't already have 6 HalfEdges.\n    require(\n      node.halfEdgeAddrs.length < 6,\n      \"You cannot have more than 6 HalfEdges on one Node.\"\n    );\n    \n    // Make sure _ipfs isn't already used for a HalfEdge by this Owner.\n    // Your paths connecting the maze of twisty little passages must *not* be all alike.\n    address newHalfEdgeAddr = address(keccak256(abi.encodePacked(\n      msg.sender,\n      _ipfs[0],\n      _ipfs[1]\n    )));\n    require(\n      uint(halfEdgeLookup[newHalfEdgeAddr].nodeAddr) == 0,\n      \"You already own a HalfEdge with _ipfs!\"\n    );\n    \n    // Instantiate and save the new HalfEdge at its address.\n    halfEdgeLookup[newHalfEdgeAddr] = HalfEdge({\n      nodeAddr: _nodeAddr,\n      ipfs: _ipfs,\n      otherHalfEdgeAddr: address(0)\n    });\n    \n    // Add newHalfEdgeAddr to its Node's halfEdgeAddrs. // Note: make sure this 'sticks'... used to be 'node.halfEdgeAddrs...' with 'node' as 'storage' above.\n    nodeLookup[_nodeAddr].halfEdgeAddrs.push(newHalfEdgeAddr);\n    \n    // Log the creation.\n    emit HalfEdgeCreated(newHalfEdgeAddr);\n    \n    // Finally, hand back the new HalfEdge's address to the caller.\n    return newHalfEdgeAddr;\n  }\n  \n  /// @notice Delete a HalfEdge from the graph.\n  /// @param _halfEdgeAddr The address of the HalfEdge to delete from the graph.\n  function deleteHalfEdge(address _halfEdgeAddr) external {\n    \n    // Get the HalfEdge being deleted. Aren't changing it, but need it a couple of times, so memory.\n    HalfEdge memory halfEdge = halfEdgeLookup[_halfEdgeAddr];\n    \n    // Make sure the HalfEdge exists.\n    require(\n      uint(halfEdge.nodeAddr) != 0,\n      \"The HalfEdge must exist in order to be deleted.\"\n    );\n    \n    \n    // Make sure the HalfEdge belongs to msg.sender.\n    require (\n      _halfEdgeAddr == address(keccak256(abi.encodePacked(msg.sender, halfEdge.ipfs[0], halfEdge.ipfs[1]))),\n      \"You must own this HalfEdge to be able to delete it.\"\n    );\n    \n    // Make sure the HalfEdge isn't connected to another.\n    require (\n      uint(halfEdge.otherHalfEdgeAddr) == 0,\n      \"You must disconnect this HalfEdge from its other half before deleting it.\"\n    );\n    \n    // Get the Node of the HalfEdge being deleted. Will be changing its halfEdgeAddrs array, so storage. (unless halfEdgeAddrs storage later makes this unneeded???)\n    Node storage node = nodeLookup[halfEdge.nodeAddr];\n    \n    // Delete the HalfEdge from its Node's halfEdgeAddrs array:\n    // ...Get that array as storage because we'll be using it several times, modifying it, and want the changes to stick.\n    address[] storage halfEdgeAddrs = node.halfEdgeAddrs;\n    \n    // ...Check invariant: Nodes always have <= 6 HalfEdges.\n    assert(halfEdgeAddrs.length <= 6);\n    \n    // ...Iterate (up to 6 times) to find index of _halfEdgeAddr in halfEdgeAddrs.\n    uint8 index = 0;\n    for (uint8 i = 0; i < halfEdgeAddrs.length; i++) {\n      if (halfEdgeAddrs[i] == _halfEdgeAddr) {\n        index = i;\n        i = uint8(halfEdgeAddrs.length); // cut out early\n      }\n    }\n    \n    // ...If the HalfEdge is not the last element in the array, swap the last element over top of it.\n    uint8 lastIndex = uint8(halfEdgeAddrs.length - 1);\n    if (index < lastIndex) {\n      halfEdgeAddrs[index] = halfEdgeAddrs[lastIndex];\n    }\n    \n    // ...Either way, then delete the last element and shrink the array.\n    delete halfEdgeAddrs[lastIndex];\n    halfEdgeAddrs.length--;\n    \n    // Delete the HalfEdge from the halfEdgeLookup mapping.\n    delete halfEdgeLookup[_halfEdgeAddr];\n    \n    // Log the deletion.\n    emit HalfEdgeDeleted(_halfEdgeAddr);\n  }\n  \n  /// @notice Get all the relevant data for the Node with the given address: ipfs, format, whether msg.sender owns the Node, and list of HalfEdge addresses, with 0x0 for empty HalfEdge slots.\n  /// @param _nodeAddr The address of the Node to get the HalfEdge addresses for.\n  /// @return ipfs A bytes32[2] containing the IPFS hash for the Node.\n  /// @return format A uint64 containing the Node's format.\n  /// @return senderIsOwner A bool indicating if the sender owns this Node.\n  /// @return halfEdgeAddrs The addresses of each of the HalfEdges, or 0x0 if that slot is currently empty.\n  /// @dev Callers are responsible for noticing empty HalfEdge addresses. Someday when dynamic return lengths are possible, this will just return the set of HalfEdge addresses without empty slots.\n  function getNode(address _nodeAddr) external view returns (\n    bytes32[2] ipfs,\n    uint64 format,\n    bool senderIsOwner,\n    address[6] halfEdgeAddrs\n  ) {\n    \n    // Look up the Node in question.\n    Node memory node = nodeLookup[_nodeAddr];\n    \n    // Make sure it exists.\n    require(\n      uint(node.ipfs.length) == 2,\n      \"Node does not exist.\"\n    );\n    \n    ipfs = node.ipfs;\n    format = node.format;\n    if (_nodeAddr == address(keccak256(abi.encodePacked(msg.sender, ipfs[0], ipfs[1])))) {\n      senderIsOwner = true;\n    }\n    \n    // Count how many halfEdgeAddrs it has.\n    uint8 len = uint8(node.halfEdgeAddrs.length);\n    \n    // Set our return values: the addresss of each of the up-to-six HalfEdges, leaving it at 0x0 if beyond the current number of HalfEdges.\n    for (uint8 i = 0; i < len; i++) {\n      halfEdgeAddrs[i] = node.halfEdgeAddrs[i];\n    }\n  }\n  \n  /// @notice Get the ipfs hash, format, and node address for the HalfEdge with this address, and for its otherHalfEdge if it exists, too.\n  /// @return nodeAddr The address of the HalfEdge's Node.\n  /// @return ipfs A bytes32[2] containing the HalfEdge's IPFS hash.\n  /// @return format A uint64 containing the HalfEdge's format (from its Node)\n  /// @return connected A bool indicating if the HalfEdge is connected to another one.\n  /// @return otherNodeAddr The address of the other HalfEdge's Node, if connected (or 0x0 if not).\n  /// @return otherIpfs A bytes32[2] containing the IPFS hash of the other HalfEdge, if connected (or an array of 0s if not).\n  /// @return otherFormat A uint64 containing the format of the other HalfEdge (from its Node), if connected (or 0 if not).\n  function getEdge(address _halfEdgeAddr) external view returns (\n    address nodeAddr,\n    bytes32[2] ipfs,\n    uint64 format,\n    bool connected,\n    address otherNodeAddr,\n    bytes32[2] otherIpfs,\n    uint64 otherFormat\n  ) {\n    \n    // Grab the HalfEdge.\n    HalfEdge memory halfEdge = halfEdgeLookup[_halfEdgeAddr];\n    \n    // Make sure it exists.\n    require(\n      uint(halfEdge.nodeAddr) != 0,\n      \"HalfEdge does not exist.\"\n    );\n    \n    // Get this HalfEdge's data.\n    nodeAddr = halfEdge.nodeAddr;\n    ipfs = halfEdge.ipfs;\n    format = nodeLookup[halfEdge.nodeAddr].format;\n    \n    // Check for and, if it exists, get, the otherHalfEdge's data.\n    if (uint(halfEdge.otherHalfEdgeAddr) != 0) {\n      HalfEdge memory otherHalfEdge = halfEdgeLookup[halfEdge.otherHalfEdgeAddr];\n      \n      // If otherHalfEdge doesn't exist, despite otherHalfEdgeAddr not being 0, we have an invariant failure which we may as well check for here.\n      assert(uint(otherHalfEdge.nodeAddr) != 0);\n      \n      connected = true;\n      otherNodeAddr = otherHalfEdge.nodeAddr;\n      otherIpfs = otherHalfEdge.ipfs;\n      otherFormat = nodeLookup[otherHalfEdge.nodeAddr].format;\n    }\n    // Else, just return the 0-initialized values.\n  }\n}\n",
  "sourcePath": "/home/noah/Programs/Javascript/web3/interweave.network/solidity/contracts/interweave-free/InterweaveGraph.sol",
  "compiler": {
    "name": "solc",
    "version": "0.4.24+commit.e67f0147.Emscripten.clang"
  },
  "schemaVersion": "2.0.1",
  "updatedAt": "2018-10-21T19:29:17.027Z"
}