{
  "contractName": "InterweaveGraph",
  "abi": [
    {
      "anonymous": false,
      "inputs": [
        {
          "indexed": false,
          "name": "nodeKey",
          "type": "uint256"
        },
        {
          "indexed": true,
          "name": "ownerAddr",
          "type": "address"
        }
      ],
      "name": "NodeCreated",
      "type": "event"
    },
    {
      "anonymous": false,
      "inputs": [
        {
          "indexed": false,
          "name": "nodeKey",
          "type": "uint256"
        },
        {
          "indexed": true,
          "name": "ownerAddr",
          "type": "address"
        }
      ],
      "name": "NodeDeleted",
      "type": "event"
    },
    {
      "constant": true,
      "inputs": [
        {
          "name": "_ipfs",
          "type": "bytes32[2]"
        }
      ],
      "name": "nodeKeyFromIpfs",
      "outputs": [
        {
          "name": "",
          "type": "uint256"
        }
      ],
      "payable": false,
      "stateMutability": "pure",
      "type": "function"
    },
    {
      "constant": false,
      "inputs": [
        {
          "name": "_ipfs",
          "type": "bytes32[2]"
        },
        {
          "name": "_format",
          "type": "uint64"
        }
      ],
      "name": "createNode",
      "outputs": [],
      "payable": false,
      "stateMutability": "nonpayable",
      "type": "function"
    },
    {
      "constant": false,
      "inputs": [
        {
          "name": "_nodeKey",
          "type": "uint256"
        }
      ],
      "name": "deleteNode",
      "outputs": [],
      "payable": false,
      "stateMutability": "nonpayable",
      "type": "function"
    },
    {
      "constant": true,
      "inputs": [
        {
          "name": "_nodeKey",
          "type": "uint256"
        }
      ],
      "name": "getNode",
      "outputs": [
        {
          "name": "ownerAddr",
          "type": "address"
        },
        {
          "name": "ipfs",
          "type": "bytes32[2]"
        },
        {
          "name": "format",
          "type": "uint64"
        },
        {
          "name": "edgeNodeCount",
          "type": "uint8"
        },
        {
          "name": "edgeNodeKeys",
          "type": "uint256[6]"
        }
      ],
      "payable": false,
      "stateMutability": "view",
      "type": "function"
    },
    {
      "constant": true,
      "inputs": [],
      "name": "getSenderNodeCount",
      "outputs": [
        {
          "name": "",
          "type": "uint256"
        }
      ],
      "payable": false,
      "stateMutability": "view",
      "type": "function"
    },
    {
      "constant": true,
      "inputs": [
        {
          "name": "_index",
          "type": "uint256"
        }
      ],
      "name": "getSenderNodeKeyByIndex",
      "outputs": [
        {
          "name": "",
          "type": "uint256"
        }
      ],
      "payable": false,
      "stateMutability": "view",
      "type": "function"
    }
  ],
  "bytecode": "0x608060405234801561001057600080fd5b5061139e806100206000396000f300608060405260043610610078576000357c0100000000000000000000000000000000000000000000000000000000900463ffffffff168063147249771461007d5780633a6b686b146100be57806341d2a256146100ff5780634f0f4aa91461012c5780638265cb261461021f578063fbbe0bad14610285575b600080fd5b34801561008957600080fd5b506100a8600480360381019080803590602001909291905050506102b0565b6040518082815260200191505060405180910390f35b3480156100ca57600080fd5b506100fd60048036038101908080604001909192919290803567ffffffffffffffff16906020019092919050505061041b565b005b34801561010b57600080fd5b5061012a60048036038101908080359060200190929190505050610845565b005b34801561013857600080fd5b5061015760048036038101908080359060200190929190505050610dbf565b604051808673ffffffffffffffffffffffffffffffffffffffff1673ffffffffffffffffffffffffffffffffffffffff16815260200185600260200280838360005b838110156101b4578082015181840152602081019050610199565b505050509050018467ffffffffffffffff1667ffffffffffffffff1681526020018360ff1660ff16815260200182600660200280838360005b838110156102085780820151818401526020810190506101ed565b505050509050019550505050505060405180910390f35b34801561022b57600080fd5b5061026f600480360381019080806040019060028060200260405190810160405280929190826002602002808284378201915050505050919291929050505061104a565b6040518082815260200191505060405180910390f35b34801561029157600080fd5b5061029a611117565b6040518082815260200191505060405180910390f35b6000600160003373ffffffffffffffffffffffffffffffffffffffff1673ffffffffffffffffffffffffffffffffffffffff16815260200190815260200160002060000180549050821015156103ba576040517f08c379a00000000000000000000000000000000000000000000000000000000081526004018080602001828103825260498152602001807f54686520696e64657820737570706c69656420776173203e3d20746865206e7581526020017f6d626572206f6620746865204e6f6465732062656c6f6e67696e6720746f207481526020017f6865204f776e65722e000000000000000000000000000000000000000000000081525060600191505060405180910390fd5b600160003373ffffffffffffffffffffffffffffffffffffffff1673ffffffffffffffffffffffffffffffffffffffff1681526020019081526020016000206000018281548110151561040957fe5b90600052602060002001549050919050565b6000610425611164565b600084600060028110151561043657fe5b60200201356000191660019004141515156104b9576040517f08c379a00000000000000000000000000000000000000000000000000000000081526004018080602001828103825260138152602001807f5f697066735b305d2077617320656d707479210000000000000000000000000081525060200191505060405180910390fd5b6104e7846002806020026040519081016040528092919082600260200280828437820191505050505061104a565b91506000806000848152602001908152602001600020600101600060028110151561050e57fe5b0154600190041415156105af576040517f08c379a00000000000000000000000000000000000000000000000000000000081526004018080602001828103825260218152602001807f41204e6f64652077697468205f6970667320616c72656164792065786973747381526020017f210000000000000000000000000000000000000000000000000000000000000081525060400191505060405180910390fd5b33816000019073ffffffffffffffffffffffffffffffffffffffff16908173ffffffffffffffffffffffffffffffffffffffff16815250508360028060200260405190810160405280929190826002602002808284378201915050505050816020018190525082816040019067ffffffffffffffff16908167ffffffffffffffff1681525050600160003373ffffffffffffffffffffffffffffffffffffffff1673ffffffffffffffffffffffffffffffffffffffff16815260200190815260200160002060000180549050816080019067ffffffffffffffff16908167ffffffffffffffff16815250508060008084815260200190815260200160002060008201518160000160006101000a81548173ffffffffffffffffffffffffffffffffffffffff021916908373ffffffffffffffffffffffffffffffffffffffff16021790555060208201518160010190600261070b9291906111cb565b5060408201518160030160006101000a81548167ffffffffffffffff021916908367ffffffffffffffff160217905550606082015181600401906006610752929190611211565b50608082015181600a0160006101000a81548167ffffffffffffffff021916908367ffffffffffffffff160217905550905050600160003373ffffffffffffffffffffffffffffffffffffffff1673ffffffffffffffffffffffffffffffffffffffff1681526020019081526020016000206000018290806001815401808255809150509060018203906000526020600020016000909192909190915055503373ffffffffffffffffffffffffffffffffffffffff167fef9a38875abd2c44e371e4af5d2f965da6c9dc85ca1ff15a58dd8ddb70089d7e836040518082815260200191505060405180910390a250505050565b61084d611164565b60008060008060008087815260200190815260200160002060a060405190810160405290816000820160009054906101000a900473ffffffffffffffffffffffffffffffffffffffff1673ffffffffffffffffffffffffffffffffffffffff1673ffffffffffffffffffffffffffffffffffffffff16815260200160018201600280602002604051908101604052809291908260028015610907576020028201915b815460001916815260200190600101908083116108ef575b505050505081526020016003820160009054906101000a900467ffffffffffffffff1667ffffffffffffffff1667ffffffffffffffff1681526020016004820160068060200260405190810160405280929190826006801561097e576020028201915b81548152602001906001019080831161096a575b50505050508152602001600a820160009054906101000a900467ffffffffffffffff1667ffffffffffffffff1667ffffffffffffffff16815250509450846000015173ffffffffffffffffffffffffffffffffffffffff163373ffffffffffffffffffffffffffffffffffffffff16141515610a88576040517f08c379a000000000000000000000000000000000000000000000000000000000815260040180806020018281038252602f8152602001807f596f75206d757374206f776e2074686973204e6f646520746f2062652061626c81526020017f6520746f2064656c6574652069742e000000000000000000000000000000000081525060400191505060405180910390fd5b600093505b60068460ff161015610b8357600085606001518560ff16600681101515610ab057fe5b6020020151141515610b76576040517f08c379a00000000000000000000000000000000000000000000000000000000081526004018080602001828103825260468152602001807f596f75206d75737420646973636f6e6e6563742074686973204e6f646520667281526020017f6f6d20616c6c206f74686572204e6f646573206265666f72652064656c65746981526020017f6e672069742e000000000000000000000000000000000000000000000000000081525060600191505060405180910390fd5b8380600101945050610a8d565b600160003373ffffffffffffffffffffffffffffffffffffffff1673ffffffffffffffffffffffffffffffffffffffff168152602001908152602001600020600001925084608001519150600183805490500390508067ffffffffffffffff168267ffffffffffffffff161015610c9c57828167ffffffffffffffff16815481101515610c0c57fe5b9060005260206000200154838367ffffffffffffffff16815481101515610c2f57fe5b906000526020600020018190555081600080858567ffffffffffffffff16815481101515610c5957fe5b90600052602060002001548152602001908152602001600020600a0160006101000a81548167ffffffffffffffff021916908367ffffffffffffffff1602179055505b828167ffffffffffffffff16815481101515610cb457fe5b906000526020600020016000905582805480919060019003610cd69190611251565b50600080878152602001908152602001600020600080820160006101000a81549073ffffffffffffffffffffffffffffffffffffffff0219169055600182016000610d21919061127d565b6003820160006101000a81549067ffffffffffffffff0219169055600482016000610d4c919061128b565b600a820160006101000a81549067ffffffffffffffff021916905550503373ffffffffffffffffffffffffffffffffffffffff167fabb39a19e31157f336be7f5ea824d929074835335c7c8e16966dd0c035def988876040518082815260200191505060405180910390a2505050505050565b6000610dc961129e565b600080610dd46112c0565b610ddc611164565b600080600089815260200190815260200160002060a060405190810160405290816000820160009054906101000a900473ffffffffffffffffffffffffffffffffffffffff1673ffffffffffffffffffffffffffffffffffffffff1673ffffffffffffffffffffffffffffffffffffffff16815260200160018201600280602002604051908101604052809291908260028015610e92576020028201915b81546000191681526020019060010190808311610e7a575b505050505081526020016003820160009054906101000a900467ffffffffffffffff1667ffffffffffffffff1667ffffffffffffffff16815260200160048201600680602002604051908101604052809291908260068015610f09576020028201915b815481526020019060010190808311610ef5575b50505050508152602001600a820160009054906101000a900467ffffffffffffffff1667ffffffffffffffff1667ffffffffffffffff168152505091506000826000015173ffffffffffffffffffffffffffffffffffffffff1614151515610fd9576040517f08c379a00000000000000000000000000000000000000000000000000000000081526004018080602001828103825260148152602001807f4e6f646520646f6573206e6f742065786973742e00000000000000000000000081525060200191505060405180910390fd5b8160000151965081602001519550816040015194508160600151925060009350600090505b60068160ff16101561103f576000838260ff1660068110151561101d57fe5b60200201511415156110325783806001019450505b8080600101915050610ffe565b505091939590929450565b600081600060028110151561105b57fe5b602002015182600160028110151561106f57fe5b60200201516040516020018083600019166000191681526020018260001916600019168152602001925050506040516020818303038152906040526040518082805190602001908083835b6020831015156110df57805182526020820191506020810190506020830392506110ba565b6001836020036101000a0380198251168184511680821785525050505050509050019150506040518091039020600190049050919050565b6000600160003373ffffffffffffffffffffffffffffffffffffffff1673ffffffffffffffffffffffffffffffffffffffff16815260200190815260200160002060000180549050905090565b61016060405190810160405280600073ffffffffffffffffffffffffffffffffffffffff1681526020016111966112e3565b8152602001600067ffffffffffffffff1681526020016111b4611305565b8152602001600067ffffffffffffffff1681525090565b8260028101928215611200579160200282015b828111156111ff5782518290600019169055916020019190600101906111de565b5b50905061120d9190611328565b5090565b8260068101928215611240579160200282015b8281111561123f578251825591602001919060010190611224565b5b50905061124d919061134d565b5090565b81548183558181111561127857818360005260206000209182019101611277919061134d565b5b505050565b506000815560010160009055565b50806006019061129b919061134d565b50565b6040805190810160405280600290602082028038833980820191505090505090565b60c060405190810160405280600690602082028038833980820191505090505090565b6040805190810160405280600290602082028038833980820191505090505090565b60c060405190810160405280600690602082028038833980820191505090505090565b61134a91905b8082111561134657600081600090555060010161132e565b5090565b90565b61136f91905b8082111561136b576000816000905550600101611353565b5090565b905600a165627a7a72305820e5a4f69d753af9f8cbf0d33a011d45f85b9b597bee6ade72eb944998db4342af0029",
  "source": "pragma solidity ^0.4.24;\n\n/// @title The Interweave Network graph contract.\n/// @author interweaver\n/// @notice This is still a development version, but for now, is intended to represent a full graph.\ncontract InterweaveGraph {\n    \n  /// @notice Node struct represents a node in the graph (a place), with owner, representation with format, and connections to other Nodes.\n  struct Node {\n    address ownerAddr;\n    bytes32[2] ipfs;\n    uint64 format;\n    uint256[6] edgeNodeKeys;\n    uint64 ownerNodesIndex; // Supports efficient deleting of nodes.\n  }\n  \n  /// @notice Owner struct represents the set of Nodes and EdgeProposals belonging to a particular Ethereum address.\n  struct Owner {\n    uint256[] nodeKeys;\n    uint256[] edgeProposalKeys;\n  }\n  \n  /// @notice A new Node was created on the graph.\n  /// @param nodeKey The key of the created Node.\n  /// @param ownerAddr The address of the new Node's Owner.\n  event NodeCreated(uint256 nodeKey, address indexed ownerAddr);\n  \n  /// @notice A Node was deleted from the graph.\n  /// @param nodeKey The key of the deleted Node.\n  /// @param ownerAddr The address of the old Node's Owner.\n  event NodeDeleted(uint256 nodeKey, address indexed ownerAddr);\n  \n  /// @notice A Mapping allowing lookup of Nodes by their keys.\n  /// @dev Node keys = uint256(kekkac(ipfs))\n  mapping (uint256 => Node) internal nodeLookup;\n  \n  /// @notice A mapping allowing lookup of Owners by their (Ethereum) addresses.\n  mapping (address => Owner) internal ownerLookup;\n  \n  /// @notice A function to generate a unique key for a Node from a given IPFS hash.\n  /// @param _ipfs A bytes32[2] to use to generate the new key.\n  /// @return A uint256 key.\n  function nodeKeyFromIpfs(bytes32[2] _ipfs) public pure returns (uint256) {\n    return uint256(\n      keccak256(\n        abi.encodePacked(\n          _ipfs[0],\n          _ipfs[1]\n        )\n      )\n    );\n  }\n  \n  /// @notice Create a new Node on the graph.\n  /// @param _ipfs The IPFS hash string of the Node's content file, in two bytes32. Must be unique across all Nodes in the graph.\n  /// @param _format The format identifier of the Node's content. Must match with the file at the given IPFS hash, or viewers won't be able to interpret the content.\n  /// @dev If the caller wants to know the key of their new Node, they can always call nodeKeyFromIpfs on their IPFS hash, before or after Node creation (assuming it doesn't fail.)\n  function createNode(bytes32[2] _ipfs, uint64 _format) external {\n    \n    // Make sure there's something other than 0 in the first chunk of the ipfs hash.\n    require(\n      uint(_ipfs[0]) != 0,\n      \"_ipfs[0] was empty!\"\n    );\n    \n    // Generate Node's key.\n    uint256 newNodeKey = nodeKeyFromIpfs(_ipfs);\n    \n    // There must not already be a Node at that key`.\n    // The maze of twisty little passages must *not* be all alike.\n    require(\n      uint(nodeLookup[newNodeKey].ipfs[0]) == 0,\n      \"A Node with _ipfs already exists!\"\n    );\n    \n    // Instantiate and save the new Node at its key.\n    Node memory newNode;\n    newNode.ownerAddr = msg.sender;\n    newNode.ipfs = _ipfs;\n    newNode.format = _format;\n    newNode.ownerNodesIndex = uint64(ownerLookup[msg.sender].nodeKeys.length);// We're gonna push it onto the end.\n    nodeLookup[newNodeKey] = newNode;\n    \n    // Also save the new Node's key in its Owner's list of Node keys (don't need to create the Owner).\n    ownerLookup[msg.sender].nodeKeys.push(newNodeKey);\n    \n    // Log the Node creation.\n    emit NodeCreated(newNodeKey, msg.sender);\n  }\n  \n  /// @notice Delete a Node from the graph.\n  /// @param _nodeKey The key of the Node to delete from the graph.\n  function deleteNode(uint256 _nodeKey) external {\n    \n    // Get the Node being deleted.\n    Node memory node = nodeLookup[_nodeKey];\n    \n    // Make sure the Node exists and belongs to msg.sender (can do both checks at once, since if node doesn't exist, node.owner = 0x0).\n    require(\n      msg.sender == node.ownerAddr,\n      \"You must own this Node to be able to delete it.\"\n    );\n    \n    // Make sure the Node is not connected to any others.\n    for (uint8 i = 0; i < 6; i++) {\n      require(\n        uint(node.edgeNodeKeys[i]) == 0,\n        \"You must disconnect this Node from all other Nodes before deleting it.\"\n      );\n    }\n    \n    // Delete the Node from its Owner's nodeKeys array:\n    // ...Get that array as storage because we'll be using it several times, modifying it, and want the changes to stick.\n    uint256[] storage nodeKeys = ownerLookup[msg.sender].nodeKeys;\n    \n    // ...If the Node is not the last element in the array, swap the last element over top of it.\n    uint64 index = node.ownerNodesIndex;\n    uint64 lastIndex = uint64(nodeKeys.length - 1);\n    if (index < lastIndex) {\n      nodeKeys[index] = nodeKeys[lastIndex];\n      nodeLookup[nodeKeys[index]].ownerNodesIndex = index; // Need to update that formerly-last Node's ownerNodesIndex too.\n    }\n    \n    // ...Either way, then delete the last element and shrink the array.\n    delete nodeKeys[lastIndex];\n    nodeKeys.length--;\n    \n    // Delete the Node's key from the nodeLookup mapping.\n    delete nodeLookup[_nodeKey];\n    \n    // Log the Node deletion.\n    emit NodeDeleted(_nodeKey, msg.sender);\n  }\n  \n  /// @notice Get all the relevant data for the Node with the given key: owner, ipfs, format, whether msg.sender owns the Node, and list of HalfEdge keys, with 0 for empty HalfEdge keys.\n  /// @param _nodeKey The uint256 key to look up the Node data for.\n  /// @return ownerAddr The address of the Node's owner.\n  /// @return ipfs A bytes32[2] containing the IPFS hash for the Node.\n  /// @return format A uint64 containing the Node's format.\n  /// #return edgeNodeCount A uint8 containing the number of edge Nodes.\n  /// @return edgeNodeKeys The keys of each of the edge Nodes, or 0 if that slot is currently empty.\n  /// @dev Callers are responsible for ignoring 0-valued edgeNodeKeys entries. Someday when dynamic return lengths are possible, this will just return the set of 0-6 HalfEdge keys without empty slots.\n  function getNode(uint256 _nodeKey) external view returns (\n    address ownerAddr,\n    bytes32[2] ipfs,\n    uint64 format,\n    uint8 edgeNodeCount,\n    uint256[6] edgeNodeKeys\n  ) {\n    \n    // Look up the Node in question.\n    Node memory node = nodeLookup[_nodeKey];\n    \n    // Make sure it exists.\n    require(\n      uint(node.ownerAddr) != 0,\n      \"Node does not exist.\"\n    );\n    \n    ownerAddr = node.ownerAddr;\n    ipfs = node.ipfs;\n    format = node.format;\n    edgeNodeKeys = node.edgeNodeKeys;\n    \n    // Quick count of number of connected Nodes.\n    edgeNodeCount = 0;\n    for (uint8 i = 0; i < 6; i++) {\n      if (edgeNodeKeys[i] != 0) {\n        edgeNodeCount++;\n      }\n    }\n  }\n  \n  /// @notice Get how many Nodes are owned by the sender.\n  /// @return A uint256 containing how many Nodes the sender owns.\n  function getSenderNodeCount() public view returns (uint256) {\n    return ownerLookup[msg.sender].nodeKeys.length;\n  }\n  \n  /// @notice Get the key of the Node belonging to the sender at the given index in the sender's array of Nodes.\n  /// @param _index A uint256 containing the index of the Node to get (must be less than the number returned by getOwnerNodeCount).\n  /// @return A uint256 of the sender's Node key at the index.\n  function getSenderNodeKeyByIndex(uint256 _index) public view returns (uint256) {\n    \n    // Avoid index out of bounds exceptions.\n    require(\n      _index < ownerLookup[msg.sender].nodeKeys.length,\n      \"The index supplied was >= the number of the Nodes belonging to the Owner.\"\n    );\n    \n    // Do the lookup and return.\n    return ownerLookup[msg.sender].nodeKeys[_index];\n  }\n}\n",
  "sourcePath": "/home/noah/Programs/Javascript/web3/interweave.network/solidity/contracts/interweave-free/InterweaveGraph.sol",
  "compiler": {
    "name": "solc",
    "version": "0.4.24+commit.e67f0147.Emscripten.clang"
  },
  "schemaVersion": "2.0.1",
  "updatedAt": "2018-10-25T02:06:39.638Z"
}