{
  "contractName": "InterweaveProposals",
  "abi": [
    {
      "constant": true,
      "inputs": [
        {
          "name": "_index",
          "type": "uint256"
        }
      ],
      "name": "getSenderNodeKeyByIndex",
      "outputs": [
        {
          "name": "",
          "type": "uint256"
        }
      ],
      "payable": false,
      "stateMutability": "view",
      "type": "function"
    },
    {
      "constant": false,
      "inputs": [
        {
          "name": "_nodeKey0",
          "type": "uint256"
        },
        {
          "name": "slot0",
          "type": "uint8"
        },
        {
          "name": "slot1",
          "type": "uint8"
        },
        {
          "name": "_nodeKey1",
          "type": "uint256"
        }
      ],
      "name": "toggleEdge",
      "outputs": [],
      "payable": false,
      "stateMutability": "nonpayable",
      "type": "function"
    },
    {
      "constant": false,
      "inputs": [
        {
          "name": "_ipfs",
          "type": "bytes32[2]"
        },
        {
          "name": "_format",
          "type": "uint64"
        }
      ],
      "name": "createNode",
      "outputs": [],
      "payable": false,
      "stateMutability": "nonpayable",
      "type": "function"
    },
    {
      "constant": false,
      "inputs": [
        {
          "name": "_nodeKey",
          "type": "uint256"
        }
      ],
      "name": "deleteNode",
      "outputs": [],
      "payable": false,
      "stateMutability": "nonpayable",
      "type": "function"
    },
    {
      "constant": true,
      "inputs": [
        {
          "name": "_nodeKey",
          "type": "uint256"
        }
      ],
      "name": "getNode",
      "outputs": [
        {
          "name": "owner",
          "type": "address"
        },
        {
          "name": "ipfs",
          "type": "bytes32[2]"
        },
        {
          "name": "format",
          "type": "uint64"
        },
        {
          "name": "nodeKeys",
          "type": "uint256[6]"
        }
      ],
      "payable": false,
      "stateMutability": "view",
      "type": "function"
    },
    {
      "constant": true,
      "inputs": [
        {
          "name": "_ipfs",
          "type": "bytes32[2]"
        }
      ],
      "name": "keyFromIpfs",
      "outputs": [
        {
          "name": "",
          "type": "uint256"
        }
      ],
      "payable": false,
      "stateMutability": "pure",
      "type": "function"
    },
    {
      "constant": true,
      "inputs": [],
      "name": "getSenderNodeCount",
      "outputs": [
        {
          "name": "",
          "type": "uint256"
        }
      ],
      "payable": false,
      "stateMutability": "view",
      "type": "function"
    },
    {
      "anonymous": false,
      "inputs": [
        {
          "indexed": false,
          "name": "edgeProposalKey",
          "type": "uint256"
        },
        {
          "indexed": false,
          "name": "proposerAddr",
          "type": "address"
        },
        {
          "indexed": true,
          "name": "proposedToKey",
          "type": "address"
        }
      ],
      "name": "EdgeProposalCreated",
      "type": "event"
    },
    {
      "anonymous": false,
      "inputs": [
        {
          "indexed": false,
          "name": "edgeProposalKey",
          "type": "uint256"
        },
        {
          "indexed": false,
          "name": "accepterAddr",
          "type": "address"
        },
        {
          "indexed": true,
          "name": "acceptedKey",
          "type": "address"
        }
      ],
      "name": "EdgeProposalAccepted",
      "type": "event"
    },
    {
      "anonymous": false,
      "inputs": [
        {
          "indexed": false,
          "name": "edgeProposalKey",
          "type": "uint256"
        },
        {
          "indexed": false,
          "name": "rejecterAddr",
          "type": "address"
        },
        {
          "indexed": true,
          "name": "rejectedKey",
          "type": "address"
        }
      ],
      "name": "EdgeProposalRejected",
      "type": "event"
    },
    {
      "anonymous": false,
      "inputs": [
        {
          "indexed": false,
          "name": "nodeKey",
          "type": "uint256"
        },
        {
          "indexed": true,
          "name": "ownerAddr",
          "type": "address"
        }
      ],
      "name": "NodeCreated",
      "type": "event"
    },
    {
      "anonymous": false,
      "inputs": [
        {
          "indexed": false,
          "name": "nodeKey",
          "type": "uint256"
        },
        {
          "indexed": true,
          "name": "ownerAddr",
          "type": "address"
        }
      ],
      "name": "NodeDeleted",
      "type": "event"
    },
    {
      "anonymous": false,
      "inputs": [
        {
          "indexed": false,
          "name": "nodeKey0",
          "type": "uint256"
        },
        {
          "indexed": false,
          "name": "nodeKey1",
          "type": "uint256"
        },
        {
          "indexed": true,
          "name": "ownerAddr0",
          "type": "address"
        },
        {
          "indexed": true,
          "name": "ownerAddr1",
          "type": "address"
        }
      ],
      "name": "EdgeCreated",
      "type": "event"
    },
    {
      "anonymous": false,
      "inputs": [
        {
          "indexed": false,
          "name": "nodeKey0",
          "type": "uint256"
        },
        {
          "indexed": false,
          "name": "nodeKey1",
          "type": "uint256"
        },
        {
          "indexed": true,
          "name": "ownerAddr0",
          "type": "address"
        },
        {
          "indexed": true,
          "name": "ownerAddr1",
          "type": "address"
        }
      ],
      "name": "EdgeDeleted",
      "type": "event"
    },
    {
      "constant": false,
      "inputs": [
        {
          "name": "_halfEdgeKey0",
          "type": "uint256"
        },
        {
          "name": "_halfEdgeKey1",
          "type": "uint256"
        }
      ],
      "name": "createEdgeProposal",
      "outputs": [],
      "payable": false,
      "stateMutability": "nonpayable",
      "type": "function"
    },
    {
      "constant": false,
      "inputs": [
        {
          "name": "_edgeProposalKey",
          "type": "uint256"
        }
      ],
      "name": "acceptEdgeProposal",
      "outputs": [],
      "payable": false,
      "stateMutability": "nonpayable",
      "type": "function"
    },
    {
      "constant": false,
      "inputs": [
        {
          "name": "_edgeProposalKey",
          "type": "uint256"
        }
      ],
      "name": "rejectEdgeProposal",
      "outputs": [],
      "payable": false,
      "stateMutability": "nonpayable",
      "type": "function"
    },
    {
      "constant": true,
      "inputs": [
        {
          "name": "_ownerAddr",
          "type": "address"
        }
      ],
      "name": "getOwnerEdgeProposalCount",
      "outputs": [
        {
          "name": "",
          "type": "uint256"
        }
      ],
      "payable": false,
      "stateMutability": "view",
      "type": "function"
    },
    {
      "constant": true,
      "inputs": [
        {
          "name": "_ownerAddr",
          "type": "address"
        },
        {
          "name": "_index",
          "type": "uint256"
        }
      ],
      "name": "getOwnerEdgeProposalKeyByIndex",
      "outputs": [
        {
          "name": "",
          "type": "uint256"
        }
      ],
      "payable": false,
      "stateMutability": "view",
      "type": "function"
    }
  ],
  "bytecode": "0x608060405234801561001057600080fd5b50611b9f806100206000396000f3006080604052600436106100ba576000357c0100000000000000000000000000000000000000000000000000000000900463ffffffff16806314724977146100bf5780632af2b7aa1461010057806339903ebf146101515780633a6b686b1461018857806341d2a256146101c957806348a01dfb146101f65780634f0f4aa9146102575780637240e8be1461033d57806385735a6a1461036a5780639ce77229146103d05780639dfb9c4f14610427578063fbbe0bad14610454575b600080fd5b3480156100cb57600080fd5b506100ea6004803603810190808035906020019092919050505061047f565b6040518082815260200191505060405180910390f35b34801561010c57600080fd5b5061014f60048036038101908080359060200190929190803560ff169060200190929190803560ff169060200190929190803590602001909291905050506105ea565b005b34801561015d57600080fd5b506101866004803603810190808035906020019092919080359060200190929190505050610aa7565b005b34801561019457600080fd5b506101c760048036038101908080604001909192919290803567ffffffffffffffff169060200190929190505050610aab565b005b3480156101d557600080fd5b506101f460048036038101908080359060200190929190505050610ed5565b005b34801561020257600080fd5b50610241600480360381019080803573ffffffffffffffffffffffffffffffffffffffff1690602001909291908035906020019092919050505061144f565b6040518082815260200191505060405180910390f35b34801561026357600080fd5b50610282600480360381019080803590602001909291905050506115bb565b604051808573ffffffffffffffffffffffffffffffffffffffff1673ffffffffffffffffffffffffffffffffffffffff16815260200184600260200280838360005b838110156102df5780820151818401526020810190506102c4565b505050509050018367ffffffffffffffff1667ffffffffffffffff16815260200182600660200280838360005b8381101561032757808201518184015260208101905061030c565b5050505090500194505050505060405180910390f35b34801561034957600080fd5b50610368600480360381019080803590602001909291905050506117f6565b005b34801561037657600080fd5b506103ba60048036038101908080604001906002806020026040519081016040528092919082600260200280828437820191505050505091929192905050506117f9565b6040518082815260200191505060405180910390f35b3480156103dc57600080fd5b50610411600480360381019080803573ffffffffffffffffffffffffffffffffffffffff1690602001909291905050506118c6565b6040518082815260200191505060405180910390f35b34801561043357600080fd5b5061045260048036038101908080359060200190929190505050611915565b005b34801561046057600080fd5b50610469611918565b6040518082815260200191505060405180910390f35b6000600160003373ffffffffffffffffffffffffffffffffffffffff1673ffffffffffffffffffffffffffffffffffffffff1681526020019081526020016000206000018054905082101515610589576040517f08c379a00000000000000000000000000000000000000000000000000000000081526004018080602001828103825260498152602001807f54686520696e64657820737570706c69656420776173203e3d20746865206e7581526020017f6d626572206f6620746865204e6f6465732062656c6f6e67696e6720746f207481526020017f6865204f776e65722e000000000000000000000000000000000000000000000081525060600191505060405180910390fd5b600160003373ffffffffffffffffffffffffffffffffffffffff1673ffffffffffffffffffffffffffffffffffffffff168152602001908152602001600020600001828154811015156105d857fe5b90600052602060002001549050919050565b60008060068560ff16108015610603575060068460ff16105b151561069d576040517f08c379a00000000000000000000000000000000000000000000000000000000081526004018080602001828103825260268152602001807f426f746820736c6f7473206d75737420626520696e207468652072616e67652081526020017f30202d20352e000000000000000000000000000000000000000000000000000081525060400191505060405180910390fd5b60008087815260200190815260200160002091503373ffffffffffffffffffffffffffffffffffffffff168260000160009054906101000a900473ffffffffffffffffffffffffffffffffffffffff1673ffffffffffffffffffffffffffffffffffffffff161415156107c4576040517f08c379a00000000000000000000000000000000000000000000000000000000081526004018080602001828103825260458152602001807f596f75206d757374206f776e20746865204e6f6465206174205f6e6f64654b6581526020017f793020696e206f7264657220746f20746f67676c652069747320636f6e6e656381526020017f74696f6e2e00000000000000000000000000000000000000000000000000000081525060600191505060405180910390fd5b60008084815260200190815260200160002090503373ffffffffffffffffffffffffffffffffffffffff168160000160009054906101000a900473ffffffffffffffffffffffffffffffffffffffff1673ffffffffffffffffffffffffffffffffffffffff161415156108eb576040517f08c379a00000000000000000000000000000000000000000000000000000000081526004018080602001828103825260458152602001807f596f75206d757374206f776e20746865204e6f6465206174205f6e6f64654b6581526020017f793120696e206f7264657220746f20746f67676c652069747320636f6e6e656381526020017f74696f6e2e00000000000000000000000000000000000000000000000000000081525060600191505060405180910390fd5b82826004018660ff1660068110151561090057fe5b0154148015610923575085816004018560ff1660068110151561091f57fe5b0154145b15610963576000826004018660ff1660068110151561093e57fe5b01819055506000816004018560ff1660068110151561095957fe5b0181905550610a9f565b6000826004018660ff1660068110151561097957fe5b015414801561099d57506000816004018560ff1660068110151561099957fe5b0154145b156109db5782826004018660ff166006811015156109b757fe5b018190555085816004018560ff166006811015156109d157fe5b0181905550610a9e565b60001515610a9d576040517f08c379a00000000000000000000000000000000000000000000000000000000081526004018080602001828103825260568152602001807f596f7572204e6f64657320617265206e65697468657220626f746820636f6e6e81526020017f656374656420746f2065616368206f74686572206e6f7220626f74682064697381526020017f636f6e6e656374656420746f20616e79204e6f64652e0000000000000000000081525060600191505060405180910390fd5b5b5b505050505050565b5050565b6000610ab5611965565b6000846000600281101515610ac657fe5b6020020135600019166001900414151515610b49576040517f08c379a00000000000000000000000000000000000000000000000000000000081526004018080602001828103825260138152602001807f5f697066735b305d2077617320656d707479210000000000000000000000000081525060200191505060405180910390fd5b610b7784600280602002604051908101604052809291908260026020028082843782019150505050506117f9565b915060008060008481526020019081526020016000206001016000600281101515610b9e57fe5b015460019004141515610c3f576040517f08c379a00000000000000000000000000000000000000000000000000000000081526004018080602001828103825260218152602001807f41204e6f64652077697468205f6970667320616c72656164792065786973747381526020017f210000000000000000000000000000000000000000000000000000000000000081525060400191505060405180910390fd5b33816000019073ffffffffffffffffffffffffffffffffffffffff16908173ffffffffffffffffffffffffffffffffffffffff16815250508360028060200260405190810160405280929190826002602002808284378201915050505050816020018190525082816040019067ffffffffffffffff16908167ffffffffffffffff1681525050600160003373ffffffffffffffffffffffffffffffffffffffff1673ffffffffffffffffffffffffffffffffffffffff16815260200190815260200160002060000180549050816080019067ffffffffffffffff16908167ffffffffffffffff16815250508060008084815260200190815260200160002060008201518160000160006101000a81548173ffffffffffffffffffffffffffffffffffffffff021916908373ffffffffffffffffffffffffffffffffffffffff160217905550602082015181600101906002610d9b9291906119cc565b5060408201518160030160006101000a81548167ffffffffffffffff021916908367ffffffffffffffff160217905550606082015181600401906006610de2929190611a12565b50608082015181600a0160006101000a81548167ffffffffffffffff021916908367ffffffffffffffff160217905550905050600160003373ffffffffffffffffffffffffffffffffffffffff1673ffffffffffffffffffffffffffffffffffffffff1681526020019081526020016000206000018290806001815401808255809150509060018203906000526020600020016000909192909190915055503373ffffffffffffffffffffffffffffffffffffffff167fef9a38875abd2c44e371e4af5d2f965da6c9dc85ca1ff15a58dd8ddb70089d7e836040518082815260200191505060405180910390a250505050565b610edd611965565b60008060008060008087815260200190815260200160002060a060405190810160405290816000820160009054906101000a900473ffffffffffffffffffffffffffffffffffffffff1673ffffffffffffffffffffffffffffffffffffffff1673ffffffffffffffffffffffffffffffffffffffff16815260200160018201600280602002604051908101604052809291908260028015610f97576020028201915b81546000191681526020019060010190808311610f7f575b505050505081526020016003820160009054906101000a900467ffffffffffffffff1667ffffffffffffffff1667ffffffffffffffff1681526020016004820160068060200260405190810160405280929190826006801561100e576020028201915b815481526020019060010190808311610ffa575b50505050508152602001600a820160009054906101000a900467ffffffffffffffff1667ffffffffffffffff1667ffffffffffffffff16815250509450846000015173ffffffffffffffffffffffffffffffffffffffff163373ffffffffffffffffffffffffffffffffffffffff16141515611118576040517f08c379a000000000000000000000000000000000000000000000000000000000815260040180806020018281038252602f8152602001807f596f75206d757374206f776e2074686973204e6f646520746f2062652061626c81526020017f6520746f2064656c6574652069742e000000000000000000000000000000000081525060400191505060405180910390fd5b600093505b60068460ff16101561121357600085606001518560ff1660068110151561114057fe5b6020020151141515611206576040517f08c379a00000000000000000000000000000000000000000000000000000000081526004018080602001828103825260468152602001807f596f75206d75737420646973636f6e6e6563742074686973204e6f646520667281526020017f6f6d20616c6c206f74686572204e6f646573206265666f72652064656c65746981526020017f6e672069742e000000000000000000000000000000000000000000000000000081525060600191505060405180910390fd5b838060010194505061111d565b600160003373ffffffffffffffffffffffffffffffffffffffff1673ffffffffffffffffffffffffffffffffffffffff168152602001908152602001600020600001925084608001519150600183805490500390508067ffffffffffffffff168267ffffffffffffffff16101561132c57828167ffffffffffffffff1681548110151561129c57fe5b9060005260206000200154838367ffffffffffffffff168154811015156112bf57fe5b906000526020600020018190555081600080858567ffffffffffffffff168154811015156112e957fe5b90600052602060002001548152602001908152602001600020600a0160006101000a81548167ffffffffffffffff021916908367ffffffffffffffff1602179055505b828167ffffffffffffffff1681548110151561134457fe5b9060005260206000200160009055828054809190600190036113669190611a52565b50600080878152602001908152602001600020600080820160006101000a81549073ffffffffffffffffffffffffffffffffffffffff02191690556001820160006113b19190611a7e565b6003820160006101000a81549067ffffffffffffffff02191690556004820160006113dc9190611a8c565b600a820160006101000a81549067ffffffffffffffff021916905550503373ffffffffffffffffffffffffffffffffffffffff167fabb39a19e31157f336be7f5ea824d929074835335c7c8e16966dd0c035def988876040518082815260200191505060405180910390a2505050505050565b6000600160008473ffffffffffffffffffffffffffffffffffffffff1673ffffffffffffffffffffffffffffffffffffffff1681526020019081526020016000206001018054905082101515611559576040517f08c379a000000000000000000000000000000000000000000000000000000000815260040180806020018281038252604d8152602001807f54686520696e64657820737570706c69656420776173203e3d20746865206e7581526020017f6d626572206f66204564676550726f706f73616c732062656c6f6e67696e672081526020017f746f20746865204f776e65722e0000000000000000000000000000000000000081525060600191505060405180910390fd5b600160008473ffffffffffffffffffffffffffffffffffffffff1673ffffffffffffffffffffffffffffffffffffffff168152602001908152602001600020600101828154811015156115a857fe5b9060005260206000200154905092915050565b60006115c5611a9f565b60006115cf611ac1565b6115d7611965565b60008087815260200190815260200160002060a060405190810160405290816000820160009054906101000a900473ffffffffffffffffffffffffffffffffffffffff1673ffffffffffffffffffffffffffffffffffffffff1673ffffffffffffffffffffffffffffffffffffffff1681526020016001820160028060200260405190810160405280929190826002801561168b576020028201915b81546000191681526020019060010190808311611673575b505050505081526020016003820160009054906101000a900467ffffffffffffffff1667ffffffffffffffff1667ffffffffffffffff16815260200160048201600680602002604051908101604052809291908260068015611702576020028201915b8154815260200190600101908083116116ee575b50505050508152602001600a820160009054906101000a900467ffffffffffffffff1667ffffffffffffffff1667ffffffffffffffff168152505090506000816000015173ffffffffffffffffffffffffffffffffffffffff16141515156117d2576040517f08c379a00000000000000000000000000000000000000000000000000000000081526004018080602001828103825260148152602001807f4e6f646520646f6573206e6f742065786973742e00000000000000000000000081525060200191505060405180910390fd5b80600001519450806020015193508060400151925080606001519150509193509193565b50565b600081600060028110151561180a57fe5b602002015182600160028110151561181e57fe5b60200201516040516020018083600019166000191681526020018260001916600019168152602001925050506040516020818303038152906040526040518082805190602001908083835b60208310151561188e5780518252602082019150602081019050602083039250611869565b6001836020036101000a0380198251168184511680821785525050505050509050019150506040518091039020600190049050919050565b6000600160008373ffffffffffffffffffffffffffffffffffffffff1673ffffffffffffffffffffffffffffffffffffffff168152602001908152602001600020600101805490509050919050565b50565b6000600160003373ffffffffffffffffffffffffffffffffffffffff1673ffffffffffffffffffffffffffffffffffffffff16815260200190815260200160002060000180549050905090565b61016060405190810160405280600073ffffffffffffffffffffffffffffffffffffffff168152602001611997611ae4565b8152602001600067ffffffffffffffff1681526020016119b5611b06565b8152602001600067ffffffffffffffff1681525090565b8260028101928215611a01579160200282015b82811115611a005782518290600019169055916020019190600101906119df565b5b509050611a0e9190611b29565b5090565b8260068101928215611a41579160200282015b82811115611a40578251825591602001919060010190611a25565b5b509050611a4e9190611b4e565b5090565b815481835581811115611a7957818360005260206000209182019101611a789190611b4e565b5b505050565b506000815560010160009055565b508060060190611a9c9190611b4e565b50565b6040805190810160405280600290602082028038833980820191505090505090565b60c060405190810160405280600690602082028038833980820191505090505090565b6040805190810160405280600290602082028038833980820191505090505090565b60c060405190810160405280600690602082028038833980820191505090505090565b611b4b91905b80821115611b47576000816000905550600101611b2f565b5090565b90565b611b7091905b80821115611b6c576000816000905550600101611b54565b5090565b905600a165627a7a72305820729cf84982755c98a9034511e320e1d7e46ad5ebe285bcc0f6e3ed86d10038e10029",
  "source": "pragma solidity ^0.4.24;\nimport \"./InterweaveGraph.sol\";\n\ncontract InterweaveProposals is InterweaveGraph {\n  \n  /// @notice EdgeProposal struct represents a proposal to connect or disconnect two Nodes via two HalfEdges belonging to them. halfEdgeKey0 belongs to the proposer.\n  struct EdgeProposal {\n    uint256 halfEdgeKey0;\n    uint256 halfEdgeKey1;\n  }\n  \n  /// @notice An EdgeProposal was created.\n  /// @param edgeProposalKey The uint256 key of the created EdgeProposal.\n  /// @param proposerAddr The Ethereum address of the Owner who created the EdgeProposal.\n  /// @param proposedToKey The Ethereum address of the Owner who is the counterparty on the EdgeProposal.\n  event EdgeProposalCreated(uint256 edgeProposalKey, address proposerAddr, address indexed proposedToKey);\n  \n  /// @notice An EdgeProposal was accepted, connecting or disconnecting two Nodes.\n  /// @param edgeProposalKey The uint256 key of the accepted EdgeProposal (which will have been deleted).\n  /// @param accepterAddr The Ethereum address of the Owner who accepted the EdgeProposal.\n  /// @param acceptedKey The Ethereum address of the Owner whose EdgeProposal was accepted.\n  event EdgeProposalAccepted(uint256 edgeProposalKey, address accepterAddr, address indexed acceptedKey);\n  \n  /// @notice An EdgeProposal was rejected.\n  /// @param edgeProposalKey The uint256 key of the rejected EdgeProposal (which will have been deleted).\n  /// @param rejecterAddr The Ethereum address of the Owner who rejected the EdgeProposal.\n  /// @param rejectedKey The Ethereum address of the Owner who was the counterparty on the EdgeProposal.\n  event EdgeProposalRejected(uint256 edgeProposalKey, address rejecterAddr, address indexed rejectedKey);\n  \n  /// @notice A mapping allowing lookup of EdgeProposals by their keys.\n  /// @dev EdgeProposal keys = uint256(kekkac(halfEdgeKey0, halfEdgeKey1))\n  mapping (uint256 => EdgeProposal) internal edgeProposalLookup;\n  \n  function createEdgeProposal(uint256 _halfEdgeKey0, uint256 _halfEdgeKey1) external {\n    /*\n    - require NodeLookup[HalfEdgeLookup[halfEdgeKey0].node].owner == msg.sender (you can't propose from someone else's node)\n    - require neither already connected, or are both already connected to each other (for a disconnection)\n    - make new Proposal {\n      halfEdgeKey0,\n      halfEdgeKey1\n    }\n    - Put it in OwnerEdgeProposals[yourKey] and OwnerEdgeProposals[theirKey]\n    */\n  }\n  \n  function acceptEdgeProposal(uint256 _edgeProposalKey) external {\n    /*\n    - require proposalLookup[proposalKey] !== 0\n    - require NodeLookup[HalfEdgeLookup[proposal.halfEdgeKey0].node].owner !== msg.sender (you can't accept your own proposal)\n    - Delete the Proposal from proposalLookup\n    - Delete proposalKey from, and compactify, the two OwnerLookup[msg.sender or otherNodeOwner].proposals (proposal's time is up, whatever happens next)\n    - If neither halfEdge slot contains the other:\n      - Connect them\n    - Else if both HalfEdge slots contain the other:\n      - Disconnect them\n    - Else:\n      - Situation where either or both halfEdges have already connected to other ones. Proposal is worthless, so do nothing; it's already deleted.\n    */\n  }\n  \n  function rejectEdgeProposal(uint256 _edgeProposalKey) external {\n    /*\n    - require proposalLookup[proposalKey] !== 0\n    - Delete proposalKey from, and compactify, the two OwnerLookup[msg.sender or otherNodeOwner].proposals\n    - Delete the Proposal from proposalLookup\n    */\n  }\n  \n  function getOwnerEdgeProposalCount(address _ownerAddr) public view returns (uint256) {\n    return ownerLookup[_ownerAddr].edgeProposalKeys.length;\n  }\n  \n  function getOwnerEdgeProposalKeyByIndex(address _ownerAddr, uint256 _index) public view returns (uint256) {\n    require(\n      _index < ownerLookup[_ownerAddr].edgeProposalKeys.length,\n      \"The index supplied was >= the number of EdgeProposals belonging to the Owner.\"\n    );\n    \n    return ownerLookup[_ownerAddr].edgeProposalKeys[_index];\n  }\n}\n",
  "sourcePath": "/home/noah/Programs/Javascript/web3/interweave.network/solidity/contracts/interweave-free/InterweaveProposals.sol",
  "compiler": {
    "name": "solc",
    "version": "0.4.24+commit.e67f0147.Emscripten.clang"
  },
  "schemaVersion": "2.0.1",
  "updatedAt": "2018-10-24T01:29:38.647Z"
}