{
  "contractName": "InterweaveGraph",
  "abi": [
    {
      "anonymous": false,
      "inputs": [
        {
          "indexed": false,
          "name": "nodeKey",
          "type": "uint256"
        },
        {
          "indexed": true,
          "name": "ownerAddr",
          "type": "address"
        }
      ],
      "name": "NodeCreated",
      "type": "event"
    },
    {
      "anonymous": false,
      "inputs": [
        {
          "indexed": false,
          "name": "nodeKey",
          "type": "uint256"
        },
        {
          "indexed": true,
          "name": "ownerAddr",
          "type": "address"
        }
      ],
      "name": "NodeDeleted",
      "type": "event"
    },
    {
      "anonymous": false,
      "inputs": [
        {
          "indexed": false,
          "name": "nodeKey0",
          "type": "uint256"
        },
        {
          "indexed": false,
          "name": "nodeKey1",
          "type": "uint256"
        },
        {
          "indexed": true,
          "name": "ownerAddr0",
          "type": "address"
        },
        {
          "indexed": true,
          "name": "ownerAddr1",
          "type": "address"
        }
      ],
      "name": "EdgeCreated",
      "type": "event"
    },
    {
      "anonymous": false,
      "inputs": [
        {
          "indexed": false,
          "name": "nodeKey0",
          "type": "uint256"
        },
        {
          "indexed": false,
          "name": "nodeKey1",
          "type": "uint256"
        },
        {
          "indexed": true,
          "name": "ownerAddr0",
          "type": "address"
        },
        {
          "indexed": true,
          "name": "ownerAddr1",
          "type": "address"
        }
      ],
      "name": "EdgeDeleted",
      "type": "event"
    },
    {
      "constant": true,
      "inputs": [
        {
          "name": "_ipfs",
          "type": "bytes32[2]"
        }
      ],
      "name": "keyFromIpfs",
      "outputs": [
        {
          "name": "",
          "type": "uint256"
        }
      ],
      "payable": false,
      "stateMutability": "pure",
      "type": "function"
    },
    {
      "constant": false,
      "inputs": [
        {
          "name": "_ipfs",
          "type": "bytes32[2]"
        },
        {
          "name": "_format",
          "type": "uint64"
        }
      ],
      "name": "createNode",
      "outputs": [],
      "payable": false,
      "stateMutability": "nonpayable",
      "type": "function"
    },
    {
      "constant": false,
      "inputs": [
        {
          "name": "_nodeKey",
          "type": "uint256"
        }
      ],
      "name": "deleteNode",
      "outputs": [],
      "payable": false,
      "stateMutability": "nonpayable",
      "type": "function"
    },
    {
      "constant": true,
      "inputs": [],
      "name": "getSenderNodeCount",
      "outputs": [
        {
          "name": "",
          "type": "uint256"
        }
      ],
      "payable": false,
      "stateMutability": "view",
      "type": "function"
    },
    {
      "constant": true,
      "inputs": [
        {
          "name": "_index",
          "type": "uint256"
        }
      ],
      "name": "getSenderNodeKeyByIndex",
      "outputs": [
        {
          "name": "",
          "type": "uint256"
        }
      ],
      "payable": false,
      "stateMutability": "view",
      "type": "function"
    },
    {
      "constant": true,
      "inputs": [
        {
          "name": "_nodeKey",
          "type": "uint256"
        }
      ],
      "name": "getNode",
      "outputs": [
        {
          "name": "owner",
          "type": "address"
        },
        {
          "name": "ipfs",
          "type": "bytes32[2]"
        },
        {
          "name": "format",
          "type": "uint64"
        },
        {
          "name": "nodeKeys",
          "type": "uint256[6]"
        }
      ],
      "payable": false,
      "stateMutability": "view",
      "type": "function"
    },
    {
      "constant": false,
      "inputs": [
        {
          "name": "_nodeKey0",
          "type": "uint256"
        },
        {
          "name": "slot0",
          "type": "uint8"
        },
        {
          "name": "slot1",
          "type": "uint8"
        },
        {
          "name": "_nodeKey1",
          "type": "uint256"
        }
      ],
      "name": "toggleEdge",
      "outputs": [],
      "payable": false,
      "stateMutability": "nonpayable",
      "type": "function"
    }
  ],
  "bytecode": "0x608060405234801561001057600080fd5b5061185a806100206000396000f300608060405260043610610083576000357c0100000000000000000000000000000000000000000000000000000000900463ffffffff16806314724977146100885780632af2b7aa146100c95780633a6b686b1461011a57806341d2a2561461015b5780634f0f4aa91461018857806385735a6a1461026e578063fbbe0bad146102d4575b600080fd5b34801561009457600080fd5b506100b3600480360381019080803590602001909291905050506102ff565b6040518082815260200191505060405180910390f35b3480156100d557600080fd5b5061011860048036038101908080359060200190929190803560ff169060200190929190803560ff1690602001909291908035906020019092919050505061046a565b005b34801561012657600080fd5b5061015960048036038101908080604001909192919290803567ffffffffffffffff169060200190929190505050610927565b005b34801561016757600080fd5b5061018660048036038101908080359060200190929190505050610d51565b005b34801561019457600080fd5b506101b3600480360381019080803590602001909291905050506112cb565b604051808573ffffffffffffffffffffffffffffffffffffffff1673ffffffffffffffffffffffffffffffffffffffff16815260200184600260200280838360005b838110156102105780820151818401526020810190506101f5565b505050509050018367ffffffffffffffff1667ffffffffffffffff16815260200182600660200280838360005b8381101561025857808201518184015260208101905061023d565b5050505090500194505050505060405180910390f35b34801561027a57600080fd5b506102be6004803603810190808060400190600280602002604051908101604052809291908260026020028082843782019150505050509192919290505050611506565b6040518082815260200191505060405180910390f35b3480156102e057600080fd5b506102e96115d3565b6040518082815260200191505060405180910390f35b6000600160003373ffffffffffffffffffffffffffffffffffffffff1673ffffffffffffffffffffffffffffffffffffffff1681526020019081526020016000206000018054905082101515610409576040517f08c379a00000000000000000000000000000000000000000000000000000000081526004018080602001828103825260498152602001807f54686520696e64657820737570706c69656420776173203e3d20746865206e7581526020017f6d626572206f6620746865204e6f6465732062656c6f6e67696e6720746f207481526020017f6865204f776e65722e000000000000000000000000000000000000000000000081525060600191505060405180910390fd5b600160003373ffffffffffffffffffffffffffffffffffffffff1673ffffffffffffffffffffffffffffffffffffffff1681526020019081526020016000206000018281548110151561045857fe5b90600052602060002001549050919050565b60008060068560ff16108015610483575060068460ff16105b151561051d576040517f08c379a00000000000000000000000000000000000000000000000000000000081526004018080602001828103825260268152602001807f426f746820736c6f7473206d75737420626520696e207468652072616e67652081526020017f30202d20352e000000000000000000000000000000000000000000000000000081525060400191505060405180910390fd5b60008087815260200190815260200160002091503373ffffffffffffffffffffffffffffffffffffffff168260000160009054906101000a900473ffffffffffffffffffffffffffffffffffffffff1673ffffffffffffffffffffffffffffffffffffffff16141515610644576040517f08c379a00000000000000000000000000000000000000000000000000000000081526004018080602001828103825260458152602001807f596f75206d757374206f776e20746865204e6f6465206174205f6e6f64654b6581526020017f793020696e206f7264657220746f20746f67676c652069747320636f6e6e656381526020017f74696f6e2e00000000000000000000000000000000000000000000000000000081525060600191505060405180910390fd5b60008084815260200190815260200160002090503373ffffffffffffffffffffffffffffffffffffffff168160000160009054906101000a900473ffffffffffffffffffffffffffffffffffffffff1673ffffffffffffffffffffffffffffffffffffffff1614151561076b576040517f08c379a00000000000000000000000000000000000000000000000000000000081526004018080602001828103825260458152602001807f596f75206d757374206f776e20746865204e6f6465206174205f6e6f64654b6581526020017f793120696e206f7264657220746f20746f67676c652069747320636f6e6e656381526020017f74696f6e2e00000000000000000000000000000000000000000000000000000081525060600191505060405180910390fd5b82826004018660ff1660068110151561078057fe5b01541480156107a3575085816004018560ff1660068110151561079f57fe5b0154145b156107e3576000826004018660ff166006811015156107be57fe5b01819055506000816004018560ff166006811015156107d957fe5b018190555061091f565b6000826004018660ff166006811015156107f957fe5b015414801561081d57506000816004018560ff1660068110151561081957fe5b0154145b1561085b5782826004018660ff1660068110151561083757fe5b018190555085816004018560ff1660068110151561085157fe5b018190555061091e565b6000151561091d576040517f08c379a00000000000000000000000000000000000000000000000000000000081526004018080602001828103825260568152602001807f596f7572204e6f64657320617265206e65697468657220626f746820636f6e6e81526020017f656374656420746f2065616368206f74686572206e6f7220626f74682064697381526020017f636f6e6e656374656420746f20616e79204e6f64652e0000000000000000000081525060600191505060405180910390fd5b5b5b505050505050565b6000610931611620565b600084600060028110151561094257fe5b60200201356000191660019004141515156109c5576040517f08c379a00000000000000000000000000000000000000000000000000000000081526004018080602001828103825260138152602001807f5f697066735b305d2077617320656d707479210000000000000000000000000081525060200191505060405180910390fd5b6109f38460028060200260405190810160405280929190826002602002808284378201915050505050611506565b915060008060008481526020019081526020016000206001016000600281101515610a1a57fe5b015460019004141515610abb576040517f08c379a00000000000000000000000000000000000000000000000000000000081526004018080602001828103825260218152602001807f41204e6f64652077697468205f6970667320616c72656164792065786973747381526020017f210000000000000000000000000000000000000000000000000000000000000081525060400191505060405180910390fd5b33816000019073ffffffffffffffffffffffffffffffffffffffff16908173ffffffffffffffffffffffffffffffffffffffff16815250508360028060200260405190810160405280929190826002602002808284378201915050505050816020018190525082816040019067ffffffffffffffff16908167ffffffffffffffff1681525050600160003373ffffffffffffffffffffffffffffffffffffffff1673ffffffffffffffffffffffffffffffffffffffff16815260200190815260200160002060000180549050816080019067ffffffffffffffff16908167ffffffffffffffff16815250508060008084815260200190815260200160002060008201518160000160006101000a81548173ffffffffffffffffffffffffffffffffffffffff021916908373ffffffffffffffffffffffffffffffffffffffff160217905550602082015181600101906002610c17929190611687565b5060408201518160030160006101000a81548167ffffffffffffffff021916908367ffffffffffffffff160217905550606082015181600401906006610c5e9291906116cd565b50608082015181600a0160006101000a81548167ffffffffffffffff021916908367ffffffffffffffff160217905550905050600160003373ffffffffffffffffffffffffffffffffffffffff1673ffffffffffffffffffffffffffffffffffffffff1681526020019081526020016000206000018290806001815401808255809150509060018203906000526020600020016000909192909190915055503373ffffffffffffffffffffffffffffffffffffffff167fef9a38875abd2c44e371e4af5d2f965da6c9dc85ca1ff15a58dd8ddb70089d7e836040518082815260200191505060405180910390a250505050565b610d59611620565b60008060008060008087815260200190815260200160002060a060405190810160405290816000820160009054906101000a900473ffffffffffffffffffffffffffffffffffffffff1673ffffffffffffffffffffffffffffffffffffffff1673ffffffffffffffffffffffffffffffffffffffff16815260200160018201600280602002604051908101604052809291908260028015610e13576020028201915b81546000191681526020019060010190808311610dfb575b505050505081526020016003820160009054906101000a900467ffffffffffffffff1667ffffffffffffffff1667ffffffffffffffff16815260200160048201600680602002604051908101604052809291908260068015610e8a576020028201915b815481526020019060010190808311610e76575b50505050508152602001600a820160009054906101000a900467ffffffffffffffff1667ffffffffffffffff1667ffffffffffffffff16815250509450846000015173ffffffffffffffffffffffffffffffffffffffff163373ffffffffffffffffffffffffffffffffffffffff16141515610f94576040517f08c379a000000000000000000000000000000000000000000000000000000000815260040180806020018281038252602f8152602001807f596f75206d757374206f776e2074686973204e6f646520746f2062652061626c81526020017f6520746f2064656c6574652069742e000000000000000000000000000000000081525060400191505060405180910390fd5b600093505b60068460ff16101561108f57600085606001518560ff16600681101515610fbc57fe5b6020020151141515611082576040517f08c379a00000000000000000000000000000000000000000000000000000000081526004018080602001828103825260468152602001807f596f75206d75737420646973636f6e6e6563742074686973204e6f646520667281526020017f6f6d20616c6c206f74686572204e6f646573206265666f72652064656c65746981526020017f6e672069742e000000000000000000000000000000000000000000000000000081525060600191505060405180910390fd5b8380600101945050610f99565b600160003373ffffffffffffffffffffffffffffffffffffffff1673ffffffffffffffffffffffffffffffffffffffff168152602001908152602001600020600001925084608001519150600183805490500390508067ffffffffffffffff168267ffffffffffffffff1610156111a857828167ffffffffffffffff1681548110151561111857fe5b9060005260206000200154838367ffffffffffffffff1681548110151561113b57fe5b906000526020600020018190555081600080858567ffffffffffffffff1681548110151561116557fe5b90600052602060002001548152602001908152602001600020600a0160006101000a81548167ffffffffffffffff021916908367ffffffffffffffff1602179055505b828167ffffffffffffffff168154811015156111c057fe5b9060005260206000200160009055828054809190600190036111e2919061170d565b50600080878152602001908152602001600020600080820160006101000a81549073ffffffffffffffffffffffffffffffffffffffff021916905560018201600061122d9190611739565b6003820160006101000a81549067ffffffffffffffff02191690556004820160006112589190611747565b600a820160006101000a81549067ffffffffffffffff021916905550503373ffffffffffffffffffffffffffffffffffffffff167fabb39a19e31157f336be7f5ea824d929074835335c7c8e16966dd0c035def988876040518082815260200191505060405180910390a2505050505050565b60006112d561175a565b60006112df61177c565b6112e7611620565b60008087815260200190815260200160002060a060405190810160405290816000820160009054906101000a900473ffffffffffffffffffffffffffffffffffffffff1673ffffffffffffffffffffffffffffffffffffffff1673ffffffffffffffffffffffffffffffffffffffff1681526020016001820160028060200260405190810160405280929190826002801561139b576020028201915b81546000191681526020019060010190808311611383575b505050505081526020016003820160009054906101000a900467ffffffffffffffff1667ffffffffffffffff1667ffffffffffffffff16815260200160048201600680602002604051908101604052809291908260068015611412576020028201915b8154815260200190600101908083116113fe575b50505050508152602001600a820160009054906101000a900467ffffffffffffffff1667ffffffffffffffff1667ffffffffffffffff168152505090506000816000015173ffffffffffffffffffffffffffffffffffffffff16141515156114e2576040517f08c379a00000000000000000000000000000000000000000000000000000000081526004018080602001828103825260148152602001807f4e6f646520646f6573206e6f742065786973742e00000000000000000000000081525060200191505060405180910390fd5b80600001519450806020015193508060400151925080606001519150509193509193565b600081600060028110151561151757fe5b602002015182600160028110151561152b57fe5b60200201516040516020018083600019166000191681526020018260001916600019168152602001925050506040516020818303038152906040526040518082805190602001908083835b60208310151561159b5780518252602082019150602081019050602083039250611576565b6001836020036101000a0380198251168184511680821785525050505050509050019150506040518091039020600190049050919050565b6000600160003373ffffffffffffffffffffffffffffffffffffffff1673ffffffffffffffffffffffffffffffffffffffff16815260200190815260200160002060000180549050905090565b61016060405190810160405280600073ffffffffffffffffffffffffffffffffffffffff16815260200161165261179f565b8152602001600067ffffffffffffffff1681526020016116706117c1565b8152602001600067ffffffffffffffff1681525090565b82600281019282156116bc579160200282015b828111156116bb57825182906000191690559160200191906001019061169a565b5b5090506116c991906117e4565b5090565b82600681019282156116fc579160200282015b828111156116fb5782518255916020019190600101906116e0565b5b5090506117099190611809565b5090565b815481835581811115611734578183600052602060002091820191016117339190611809565b5b505050565b506000815560010160009055565b5080600601906117579190611809565b50565b6040805190810160405280600290602082028038833980820191505090505090565b60c060405190810160405280600690602082028038833980820191505090505090565b6040805190810160405280600290602082028038833980820191505090505090565b60c060405190810160405280600690602082028038833980820191505090505090565b61180691905b808211156118025760008160009055506001016117ea565b5090565b90565b61182b91905b8082111561182757600081600090555060010161180f565b5090565b905600a165627a7a72305820b010aa06168e0b95f7621b3f1081ccd241bf928ecf1f5788c89d98bc5c2e66620029",
  "source": "pragma solidity ^0.4.24;\n\n/// @title The Interweave Network graph contract.\n/// @author interweaver\n/// @notice This is still a development version, but for now, is intended to represent a full graph.\ncontract InterweaveGraph {\n    \n  /// @notice Node struct represents a node in the graph (a place), with owner, representation with format, and connections to other Nodes.\n  struct Node {\n    address owner;\n    bytes32[2] ipfs;\n    uint64 format;\n    uint256[6] nodeKeys;\n    uint64 ownerNodesIndex; // Supports efficient deleting of nodes.\n  }\n  \n  /// @notice Owner struct represents the set of Nodes and EdgeProposals belonging to a particular Ethereum address.\n  struct Owner {\n    uint256[] nodeKeys;\n    uint256[] edgeProposalKeys;\n  }\n  \n  /// @notice A new Node was created on the graph.\n  /// @param nodeKey The key of the created Node.\n  /// @param ownerAddr The address of the new Node's Owner.\n  event NodeCreated(uint256 nodeKey, address indexed ownerAddr);\n  \n  /// @notice A Node was deleted from the graph.\n  /// @param nodeKey The key of the deleted Node.\n  /// @param ownerAddr The address of the old Node's Owner.\n  event NodeDeleted(uint256 nodeKey, address indexed ownerAddr);\n  \n  event EdgeCreated(uint256 nodeKey0, uint256 nodeKey1, address indexed ownerAddr0, address indexed ownerAddr1);\n  \n  event EdgeDeleted(uint256 nodeKey0, uint256 nodeKey1, address indexed ownerAddr0, address indexed ownerAddr1);\n  \n  /// @notice A Mapping allowing lookup of Nodes by their keys.\n  /// @dev Node keys = uint256(kekkac(ipfs))\n  mapping (uint256 => Node) internal nodeLookup;\n  \n  /// @notice A mapping allowing lookup of Owners by their (Ethereum) addresses.\n  mapping (address => Owner) internal ownerLookup;\n  \n  /// @notice A function to generate a unique key for a Node from a given IPFS hash.\n  /// @param _ipfs A bytes32[2] to use to generate the new key.\n  /// @return A uint256 key.\n  function keyFromIpfs(bytes32[2] _ipfs) public pure returns (uint256) {\n    return uint256(\n      keccak256(\n        abi.encodePacked(\n          _ipfs[0],\n          _ipfs[1]\n        )\n      )\n    );\n  }\n  \n  /// @notice Create a new Node on the graph.\n  /// @param _ipfs The IPFS hash string of the Node's content file, in two bytes32. Must be unique across all Nodes in the graph.\n  /// @param _format The format identifier of the Node's content. Must match with the file at the given IPFS hash, or viewers won't be able to interpret the content.\n  /// @dev If the caller wants to know the key of their new Node, they can always call keyFromIpfs on their IPFS hash, before or after Node creation (assuming it doesn't fail.)\n  function createNode(bytes32[2] _ipfs, uint64 _format) external {\n    \n    // Make sure there's something other than 0 in the first chunk of the ipfs hash.\n    require(\n      uint(_ipfs[0]) != 0,\n      \"_ipfs[0] was empty!\"\n    );\n    \n    // Generate Node's key.\n    uint256 newNodeKey = keyFromIpfs(_ipfs);\n    \n    // There must not already be a Node at that key`.\n    // The maze of twisty little passages must *not* be all alike.\n    require(\n      uint(nodeLookup[newNodeKey].ipfs[0]) == 0,\n      \"A Node with _ipfs already exists!\"\n    );\n    \n    // Instantiate and save the new Node at its key.\n    Node memory newNode;\n    newNode.owner = msg.sender;\n    newNode.ipfs = _ipfs;\n    newNode.format = _format;\n    newNode.ownerNodesIndex = uint64(ownerLookup[msg.sender].nodeKeys.length);// We're gonna push it onto the end.\n    nodeLookup[newNodeKey] = newNode;\n    \n    // Also save the new Node's key in its Owner's list of Node keys (don't need to create the Owner).\n    ownerLookup[msg.sender].nodeKeys.push(newNodeKey);\n    \n    // Log the Node creation.\n    emit NodeCreated(newNodeKey, msg.sender);\n  }\n  \n  /// @notice Delete a Node from the graph.\n  /// @param _nodeKey The key of the Node to delete from the graph.\n  function deleteNode(uint256 _nodeKey) external {\n    \n    // Get the Node being deleted.\n    Node memory node = nodeLookup[_nodeKey];\n    \n    // Make sure the Node exists and belongs to msg.sender (can do both checks at once, since if node doesn't exist, node.owner = 0x0).\n    require(\n      msg.sender == node.owner,\n      \"You must own this Node to be able to delete it.\"\n    );\n    \n    // Make sure the Node is not connected to any others.\n    for (uint8 i = 0; i < 6; i++) {\n      require(\n        uint(node.nodeKeys[i]) == 0,\n        \"You must disconnect this Node from all other Nodes before deleting it.\"\n      );\n    }\n    \n    // Delete the Node from its Owner's nodeKeys array:\n    // ...Get that array as storage because we'll be using it several times, modifying it, and want the changes to stick.\n    uint256[] storage nodeKeys = ownerLookup[msg.sender].nodeKeys; // TODO check storage\n    \n    // ...If the Node is not the last element in the array, swap the last element over top of it.\n    uint64 index = node.ownerNodesIndex;\n    uint64 lastIndex = uint64(nodeKeys.length - 1);\n    if (index < lastIndex) {\n      nodeKeys[index] = nodeKeys[lastIndex];\n      nodeLookup[nodeKeys[index]].ownerNodesIndex = index; // Need to update that formerly-last Node's ownerNodesIndex too.\n    }\n    \n    // ...Either way, then delete the last element and shrink the array.\n    delete nodeKeys[lastIndex];\n    nodeKeys.length--;\n    \n    // Delete the Node's key from the nodeLookup mapping.\n    delete nodeLookup[_nodeKey];\n    \n    // Log the Node deletion.\n    emit NodeDeleted(_nodeKey, msg.sender);\n  }\n  \n  /// @notice Get how many Nodes are owned by the sender.\n  /// @return A uint256 containing how many Nodes the sender owns.\n  function getSenderNodeCount() public view returns (uint256) {\n    return ownerLookup[msg.sender].nodeKeys.length;\n  }\n  \n  /// @notice Get the key of the Node belonging to the sender at the given index in the sender's array of Nodes.\n  /// @param _index A uint256 containing the index of the Node to get (must be less than the number returned by getOwnerNodeCount).\n  /// @return A uint256 of the sender's Node key at the index.\n  function getSenderNodeKeyByIndex(uint256 _index) public view returns (uint256) {\n    \n    // Avoid index out of bounds exceptions.\n    require(\n      _index < ownerLookup[msg.sender].nodeKeys.length,\n      \"The index supplied was >= the number of the Nodes belonging to the Owner.\"\n    );\n    \n    // Do the lookup and return.\n    return ownerLookup[msg.sender].nodeKeys[_index];\n  }\n  \n  /// @notice Get all the relevant data for the Node with the given key: owner, ipfs, format, whether msg.sender owns the Node, and list of HalfEdge keys, with 0 for empty HalfEdge keys.\n  /// @param _nodeKey The uint256 key to look up the Node data for.\n  /// @return owner The address of the Node's owner.\n  /// @return ipfs A bytes32[2] containing the IPFS hash for the Node.\n  /// @return format A uint64 containing the Node's format.\n  /// @return nodeKeys The keys of each of the HalfEdges, or 0 if that slot is currently empty.\n  /// @dev Callers are responsible for ignoring 0-valued nodeKeys entries. Someday when dynamic return lengths are possible, this will just return the set of 0-6 HalfEdge keys without empty slots.\n  function getNode(uint256 _nodeKey) external view returns (\n    address owner,\n    bytes32[2] ipfs,\n    uint64 format,\n    uint256[6] nodeKeys\n  ) {\n    \n    // Look up the Node in question.\n    Node memory node = nodeLookup[_nodeKey];\n    \n    // Make sure it exists.\n    require(\n      uint(node.owner) != 0,\n      \"Node does not exist.\"\n    );\n    \n    owner = node.owner;\n    ipfs = node.ipfs;\n    format = node.format;\n    nodeKeys = node.nodeKeys;\n  }\n  \n  /// @notice Toggle whether the pair of Nodes with the given keys, which must be owned by msg.sender, are connected to each other or not. Will error if they are neither connected nor disconnected.\n  /// @param _nodeKey0 The uint256 key of the first Node to connect to/disconnect from the second one.\n  /// @param _nodeKey1 The uint256 key of the second Node to connect to/disconnect from the first one.\n  function toggleEdge(uint256 _nodeKey0, uint8 slot0, uint8 slot1, uint256 _nodeKey1) external {\n    \n    // Make sure slots are in a valid range.\n    require(\n      slot0 < 6 && slot1 < 6,\n      \"Both slots must be in the range 0 - 5.\"\n    );\n    \n    Node storage node0 = nodeLookup[_nodeKey0]; // TODO check storage\n    \n    // Make sure Node 0 exists and is owned by msg.sender.\n    require(\n      node0.owner == msg.sender,\n      \"You must own the Node at _nodeKey0 in order to toggle its connection.\"\n    );\n    \n    Node storage node1 = nodeLookup[_nodeKey1];\n    \n    // Make sure Node 1 exists and is owned by msg.sender.\n    require(\n      node1.owner == msg.sender,\n      \"You must own the Node at _nodeKey1 in order to toggle its connection.\"\n    );\n    \n    if (node0.nodeKeys[slot0] == _nodeKey1 && node1.nodeKeys[slot1] == _nodeKey0) {\n      // Disconnect 'em.\n      node0.nodeKeys[slot0] = 0;\n      node1.nodeKeys[slot1] = 0;\n    }\n    else if (node0.nodeKeys[slot0] == 0 && node1.nodeKeys[slot1] == 0) {\n      // Connect 'em.\n      node0.nodeKeys[slot0] = _nodeKey1;\n      node1.nodeKeys[slot1] = _nodeKey0;\n    }\n    else {\n      // Throwing at this point is not required, but will provide useful feedback.\n      require(false, \"Your Nodes are neither both connected to each other nor both disconnected to any Node.\");\n    }\n  }\n}\n",
  "sourcePath": "/home/noah/Programs/Javascript/web3/interweave.network/solidity/contracts/interweave-free/InterweaveGraph.sol",
  "compiler": {
    "name": "solc",
    "version": "0.4.24+commit.e67f0147.Emscripten.clang"
  },
  "schemaVersion": "2.0.1",
  "updatedAt": "2018-10-24T01:29:38.651Z"
}