{
  "contractName": "InterweaveProposals",
  "abi": [
    {
      "constant": true,
      "inputs": [
        {
          "name": "_ownerAddr",
          "type": "address"
        },
        {
          "name": "_index",
          "type": "uint256"
        }
      ],
      "name": "getOwnerNodeAddrByIndex",
      "outputs": [
        {
          "name": "",
          "type": "address"
        }
      ],
      "payable": false,
      "stateMutability": "view",
      "type": "function"
    },
    {
      "constant": false,
      "inputs": [
        {
          "name": "_nodeAddr",
          "type": "address"
        }
      ],
      "name": "deleteNode",
      "outputs": [],
      "payable": false,
      "stateMutability": "nonpayable",
      "type": "function"
    },
    {
      "constant": false,
      "inputs": [
        {
          "name": "_nodeAddr",
          "type": "address"
        },
        {
          "name": "_ipfs",
          "type": "string"
        }
      ],
      "name": "createHalfEdge",
      "outputs": [
        {
          "name": "",
          "type": "address"
        }
      ],
      "payable": false,
      "stateMutability": "nonpayable",
      "type": "function"
    },
    {
      "constant": false,
      "inputs": [
        {
          "name": "_halfEdgeAddr",
          "type": "address"
        }
      ],
      "name": "deleteHalfEdge",
      "outputs": [],
      "payable": false,
      "stateMutability": "nonpayable",
      "type": "function"
    },
    {
      "constant": true,
      "inputs": [
        {
          "name": "",
          "type": "address"
        }
      ],
      "name": "nodeLookup",
      "outputs": [
        {
          "name": "ownerAddr",
          "type": "address"
        },
        {
          "name": "ipfs",
          "type": "string"
        },
        {
          "name": "format",
          "type": "uint32"
        },
        {
          "name": "ownerNodesIndex",
          "type": "uint32"
        }
      ],
      "payable": false,
      "stateMutability": "view",
      "type": "function"
    },
    {
      "constant": true,
      "inputs": [
        {
          "name": "",
          "type": "address"
        }
      ],
      "name": "edgeProposalLookup",
      "outputs": [
        {
          "name": "halfEdgeAddr0",
          "type": "address"
        },
        {
          "name": "halfEdgeAddr1",
          "type": "address"
        }
      ],
      "payable": false,
      "stateMutability": "view",
      "type": "function"
    },
    {
      "constant": true,
      "inputs": [
        {
          "name": "_ownerAddr",
          "type": "address"
        }
      ],
      "name": "getOwnerNodeCount",
      "outputs": [
        {
          "name": "",
          "type": "uint256"
        }
      ],
      "payable": false,
      "stateMutability": "view",
      "type": "function"
    },
    {
      "constant": true,
      "inputs": [
        {
          "name": "",
          "type": "address"
        }
      ],
      "name": "halfEdgeLookup",
      "outputs": [
        {
          "name": "nodeAddr",
          "type": "address"
        },
        {
          "name": "ipfs",
          "type": "string"
        },
        {
          "name": "otherHalfEdgeAddr",
          "type": "address"
        }
      ],
      "payable": false,
      "stateMutability": "view",
      "type": "function"
    },
    {
      "constant": false,
      "inputs": [
        {
          "name": "_ipfs",
          "type": "string"
        },
        {
          "name": "_format",
          "type": "uint32"
        }
      ],
      "name": "createNode",
      "outputs": [
        {
          "name": "",
          "type": "address"
        }
      ],
      "payable": false,
      "stateMutability": "nonpayable",
      "type": "function"
    },
    {
      "constant": true,
      "inputs": [
        {
          "name": "_nodeAddr",
          "type": "address"
        }
      ],
      "name": "getNodeHalfEdgeAddrs",
      "outputs": [
        {
          "name": "halfEdgeAddr0",
          "type": "address"
        },
        {
          "name": "halfEdgeAddr1",
          "type": "address"
        },
        {
          "name": "halfEdgeAddr2",
          "type": "address"
        },
        {
          "name": "halfEdgeAddr3",
          "type": "address"
        },
        {
          "name": "halfEdgeAddr4",
          "type": "address"
        },
        {
          "name": "halfEdgeAddr5",
          "type": "address"
        }
      ],
      "payable": false,
      "stateMutability": "view",
      "type": "function"
    },
    {
      "anonymous": false,
      "inputs": [
        {
          "indexed": false,
          "name": "edgeProposalAddr",
          "type": "address"
        },
        {
          "indexed": false,
          "name": "proposerAddr",
          "type": "address"
        },
        {
          "indexed": true,
          "name": "proposedToAddr",
          "type": "address"
        }
      ],
      "name": "EdgeProposalCreated",
      "type": "event"
    },
    {
      "anonymous": false,
      "inputs": [
        {
          "indexed": false,
          "name": "edgeProposalAddr",
          "type": "address"
        },
        {
          "indexed": false,
          "name": "accepterAddr",
          "type": "address"
        },
        {
          "indexed": true,
          "name": "acceptedAddr",
          "type": "address"
        }
      ],
      "name": "EdgeProposalAccepted",
      "type": "event"
    },
    {
      "anonymous": false,
      "inputs": [
        {
          "indexed": false,
          "name": "edgeProposalAddr",
          "type": "address"
        },
        {
          "indexed": false,
          "name": "rejecterAddr",
          "type": "address"
        },
        {
          "indexed": true,
          "name": "rejectedAddr",
          "type": "address"
        }
      ],
      "name": "EdgeProposalRejected",
      "type": "event"
    },
    {
      "anonymous": false,
      "inputs": [
        {
          "indexed": false,
          "name": "nodeAddr",
          "type": "address"
        },
        {
          "indexed": false,
          "name": "ownerAddr",
          "type": "address"
        }
      ],
      "name": "NodeCreated",
      "type": "event"
    },
    {
      "anonymous": false,
      "inputs": [
        {
          "indexed": false,
          "name": "nodeAddr",
          "type": "address"
        },
        {
          "indexed": false,
          "name": "ownerAddr",
          "type": "address"
        }
      ],
      "name": "NodeDeleted",
      "type": "event"
    },
    {
      "anonymous": false,
      "inputs": [
        {
          "indexed": false,
          "name": "halfEdgeAddr",
          "type": "address"
        },
        {
          "indexed": false,
          "name": "ownerAddr",
          "type": "address"
        }
      ],
      "name": "HalfEdgeCreated",
      "type": "event"
    },
    {
      "anonymous": false,
      "inputs": [
        {
          "indexed": false,
          "name": "halfEdgeAddr",
          "type": "address"
        },
        {
          "indexed": false,
          "name": "ownerAddr",
          "type": "address"
        }
      ],
      "name": "HalfEdgeDeleted",
      "type": "event"
    },
    {
      "constant": false,
      "inputs": [
        {
          "name": "_halfEdgeAddr0",
          "type": "address"
        },
        {
          "name": "_halfEdgeAddr1",
          "type": "address"
        }
      ],
      "name": "createEdgeProposal",
      "outputs": [
        {
          "name": "",
          "type": "address"
        }
      ],
      "payable": false,
      "stateMutability": "nonpayable",
      "type": "function"
    },
    {
      "constant": false,
      "inputs": [
        {
          "name": "_edgeProposalAddr",
          "type": "address"
        }
      ],
      "name": "acceptEdgeProposal",
      "outputs": [],
      "payable": false,
      "stateMutability": "nonpayable",
      "type": "function"
    },
    {
      "constant": false,
      "inputs": [
        {
          "name": "_edgeProposalAddr",
          "type": "address"
        }
      ],
      "name": "rejectEdgeProposal",
      "outputs": [],
      "payable": false,
      "stateMutability": "nonpayable",
      "type": "function"
    },
    {
      "constant": true,
      "inputs": [
        {
          "name": "_ownerAddr",
          "type": "address"
        }
      ],
      "name": "getOwnerEdgeProposalCount",
      "outputs": [
        {
          "name": "",
          "type": "uint256"
        }
      ],
      "payable": false,
      "stateMutability": "view",
      "type": "function"
    },
    {
      "constant": true,
      "inputs": [
        {
          "name": "_ownerAddr",
          "type": "address"
        },
        {
          "name": "_index",
          "type": "uint256"
        }
      ],
      "name": "getOwnerEdgeProposalAddrByIndex",
      "outputs": [
        {
          "name": "",
          "type": "address"
        }
      ],
      "payable": false,
      "stateMutability": "view",
      "type": "function"
    }
  ],
  "bytecode": "0x608060405234801561001057600080fd5b506132b4806100206000396000f3006080604052600436106100db576000357c0100000000000000000000000000000000000000000000000000000000900463ffffffff1680632be3fbe9146100e05780632d4ede931461016d57806331fee9f3146101b05780634164fb7f1461024b57806359a646231461028e5780636b6e05581461031b5780637539561a1461035e57806382eedd221461047357806383dc204b1461052957806387a5e7951461058057806393a5f26d146106a25780639ce77229146106e5578063d6134beb1461073c578063e5f6ce75146107df578063f6819b771461086a575b600080fd5b3480156100ec57600080fd5b5061012b600480360381019080803573ffffffffffffffffffffffffffffffffffffffff169060200190929190803590602001909291905050506109ec565b604051808273ffffffffffffffffffffffffffffffffffffffff1673ffffffffffffffffffffffffffffffffffffffff16815260200191505060405180910390f35b34801561017957600080fd5b506101ae600480360381019080803573ffffffffffffffffffffffffffffffffffffffff169060200190929190505050610b78565b005b3480156101bc57600080fd5b50610209600480360381019080803573ffffffffffffffffffffffffffffffffffffffff16906020019092919080359060200190820180359060200191909192939192939050505061141b565b604051808273ffffffffffffffffffffffffffffffffffffffff1673ffffffffffffffffffffffffffffffffffffffff16815260200191505060405180910390f35b34801561025757600080fd5b5061028c600480360381019080803573ffffffffffffffffffffffffffffffffffffffff169060200190929190505050611abe565b005b34801561029a57600080fd5b506102d9600480360381019080803573ffffffffffffffffffffffffffffffffffffffff16906020019092919080359060200190929190505050611ac1565b604051808273ffffffffffffffffffffffffffffffffffffffff1673ffffffffffffffffffffffffffffffffffffffff16815260200191505060405180910390f35b34801561032757600080fd5b5061035c600480360381019080803573ffffffffffffffffffffffffffffffffffffffff169060200190929190505050611c4d565b005b34801561036a57600080fd5b5061039f600480360381019080803573ffffffffffffffffffffffffffffffffffffffff169060200190929190505050612322565b604051808573ffffffffffffffffffffffffffffffffffffffff1673ffffffffffffffffffffffffffffffffffffffff168152602001806020018463ffffffff1663ffffffff1681526020018363ffffffff1663ffffffff168152602001828103825285818151815260200191508051906020019080838360005b8381101561043557808201518184015260208101905061041a565b50505050905090810190601f1680156104625780820380516001836020036101000a031916815260200191505b509550505050505060405180910390f35b34801561047f57600080fd5b506104b4600480360381019080803573ffffffffffffffffffffffffffffffffffffffff16906020019092919050505061242a565b604051808373ffffffffffffffffffffffffffffffffffffffff1673ffffffffffffffffffffffffffffffffffffffff1681526020018273ffffffffffffffffffffffffffffffffffffffff1673ffffffffffffffffffffffffffffffffffffffff1681526020019250505060405180910390f35b34801561053557600080fd5b5061056a600480360381019080803573ffffffffffffffffffffffffffffffffffffffff16906020019092919050505061248e565b6040518082815260200191505060405180910390f35b34801561058c57600080fd5b506105c1600480360381019080803573ffffffffffffffffffffffffffffffffffffffff1690602001909291905050506124dd565b604051808473ffffffffffffffffffffffffffffffffffffffff1673ffffffffffffffffffffffffffffffffffffffff168152602001806020018373ffffffffffffffffffffffffffffffffffffffff1673ffffffffffffffffffffffffffffffffffffffff168152602001828103825284818151815260200191508051906020019080838360005b8381101561066557808201518184015260208101905061064a565b50505050905090810190601f1680156106925780820380516001836020036101000a031916815260200191505b5094505050505060405180910390f35b3480156106ae57600080fd5b506106e3600480360381019080803573ffffffffffffffffffffffffffffffffffffffff1690602001909291905050506125df565b005b3480156106f157600080fd5b50610726600480360381019080803573ffffffffffffffffffffffffffffffffffffffff1690602001909291905050506125e2565b6040518082815260200191505060405180910390f35b34801561074857600080fd5b5061079d600480360381019080803573ffffffffffffffffffffffffffffffffffffffff169060200190929190803573ffffffffffffffffffffffffffffffffffffffff169060200190929190505050612631565b604051808273ffffffffffffffffffffffffffffffffffffffff1673ffffffffffffffffffffffffffffffffffffffff16815260200191505060405180910390f35b3480156107eb57600080fd5b50610828600480360381019080803590602001908201803590602001919091929391929390803563ffffffff169060200190929190505050612639565b604051808273ffffffffffffffffffffffffffffffffffffffff1673ffffffffffffffffffffffffffffffffffffffff16815260200191505060405180910390f35b34801561087657600080fd5b506108ab600480360381019080803573ffffffffffffffffffffffffffffffffffffffff169060200190929190505050612bde565b604051808773ffffffffffffffffffffffffffffffffffffffff1673ffffffffffffffffffffffffffffffffffffffff1681526020018673ffffffffffffffffffffffffffffffffffffffff1673ffffffffffffffffffffffffffffffffffffffff1681526020018573ffffffffffffffffffffffffffffffffffffffff1673ffffffffffffffffffffffffffffffffffffffff1681526020018473ffffffffffffffffffffffffffffffffffffffff1673ffffffffffffffffffffffffffffffffffffffff1681526020018373ffffffffffffffffffffffffffffffffffffffff1673ffffffffffffffffffffffffffffffffffffffff1681526020018273ffffffffffffffffffffffffffffffffffffffff1673ffffffffffffffffffffffffffffffffffffffff168152602001965050505050505060405180910390f35b6000600260008473ffffffffffffffffffffffffffffffffffffffff1673ffffffffffffffffffffffffffffffffffffffff1681526020019081526020016000206000018054905082101515610af6576040517f08c379a00000000000000000000000000000000000000000000000000000000081526004018080602001828103825260498152602001807f54686520696e64657820737570706c69656420776173203e3d20746865206e7581526020017f6d626572206f6620746865204e6f6465732062656c6f6e67696e6720746f207481526020017f6865204f776e65722e000000000000000000000000000000000000000000000081525060600191505060405180910390fd5b600260008473ffffffffffffffffffffffffffffffffffffffff1673ffffffffffffffffffffffffffffffffffffffff16815260200190815260200160002060000182815481101515610b4557fe5b9060005260206000200160009054906101000a900473ffffffffffffffffffffffffffffffffffffffff16905092915050565b610b80612fe1565b6000806000806000808773ffffffffffffffffffffffffffffffffffffffff1673ffffffffffffffffffffffffffffffffffffffff16815260200190815260200160002060a060405190810160405290816000820160009054906101000a900473ffffffffffffffffffffffffffffffffffffffff1673ffffffffffffffffffffffffffffffffffffffff1673ffffffffffffffffffffffffffffffffffffffff168152602001600182018054600181600116156101000203166002900480601f016020809104026020016040519081016040528092919081815260200182805460018160011615610100020316600290048015610cbf5780601f10610c9457610100808354040283529160200191610cbf565b820191906000526020600020905b815481529060010190602001808311610ca257829003601f168201915b505050505081526020016002820160009054906101000a900463ffffffff1663ffffffff1663ffffffff1681526020016002820160049054906101000a900463ffffffff1663ffffffff1663ffffffff16815260200160038201805480602002602001604051908101604052809291908181526020018280548015610d9957602002820191906000526020600020905b8160009054906101000a900473ffffffffffffffffffffffffffffffffffffffff1673ffffffffffffffffffffffffffffffffffffffff1681526020019060010190808311610d4f575b50505050508152505094503373ffffffffffffffffffffffffffffffffffffffff16856000015173ffffffffffffffffffffffffffffffffffffffff16141515610e71576040517f08c379a000000000000000000000000000000000000000000000000000000000815260040180806020018281038252602f8152602001807f596f75206d757374206f776e2074686973204e6f646520746f2062652061626c81526020017f6520746f2064656c6574652069742e000000000000000000000000000000000081525060400191505060405180910390fd5b600093505b8460800151518460ff161015610fed5760006001600087608001518760ff16815181101515610ea157fe5b9060200190602002015173ffffffffffffffffffffffffffffffffffffffff1673ffffffffffffffffffffffffffffffffffffffff16815260200190815260200160002060020160009054906101000a900473ffffffffffffffffffffffffffffffffffffffff1673ffffffffffffffffffffffffffffffffffffffff16141515610fe0576040517f08c379a00000000000000000000000000000000000000000000000000000000081526004018080602001828103825260468152602001807f596f75206d75737420646973636f6e6e6563742074686973204e6f646520667281526020017f6f6d20616c6c206f74686572204e6f646573206265666f72652064656c65746981526020017f6e672069742e000000000000000000000000000000000000000000000000000081525060600191505060405180910390fd5b8380600101945050610e76565b600093505b8460800151518460ff1610156110cd576001600086608001518660ff1681518110151561101b57fe5b9060200190602002015173ffffffffffffffffffffffffffffffffffffffff1673ffffffffffffffffffffffffffffffffffffffff168152602001908152602001600020600080820160006101000a81549073ffffffffffffffffffffffffffffffffffffffff02191690556001820160006110979190613033565b6002820160006101000a81549073ffffffffffffffffffffffffffffffffffffffff021916905550508380600101945050610ff2565b600260003373ffffffffffffffffffffffffffffffffffffffff1673ffffffffffffffffffffffffffffffffffffffff168152602001908152602001600020600001925084606001519150600183805490500390508063ffffffff168263ffffffff16101561127057828163ffffffff1681548110151561114a57fe5b9060005260206000200160009054906101000a900473ffffffffffffffffffffffffffffffffffffffff16838363ffffffff1681548110151561118957fe5b9060005260206000200160006101000a81548173ffffffffffffffffffffffffffffffffffffffff021916908373ffffffffffffffffffffffffffffffffffffffff16021790555081600080858563ffffffff168154811015156111e957fe5b9060005260206000200160009054906101000a900473ffffffffffffffffffffffffffffffffffffffff1673ffffffffffffffffffffffffffffffffffffffff1673ffffffffffffffffffffffffffffffffffffffff16815260200190815260200160002060020160046101000a81548163ffffffff021916908363ffffffff1602179055505b828163ffffffff1681548110151561128457fe5b9060005260206000200160006101000a81549073ffffffffffffffffffffffffffffffffffffffff0219169055828054809190600190036112c5919061307b565b506000808773ffffffffffffffffffffffffffffffffffffffff1673ffffffffffffffffffffffffffffffffffffffff168152602001908152602001600020600080820160006101000a81549073ffffffffffffffffffffffffffffffffffffffff021916905560018201600061133c9190613033565b6002820160006101000a81549063ffffffff02191690556002820160046101000a81549063ffffffff021916905560038201600061137a91906130a7565b50507ff5cb8d0b3620fe2e4999eb1a206651c4dc3d802e8e8629cb9f91d7a983cdbf2d8633604051808373ffffffffffffffffffffffffffffffffffffffff1673ffffffffffffffffffffffffffffffffffffffff1681526020018273ffffffffffffffffffffffffffffffffffffffff1673ffffffffffffffffffffffffffffffffffffffff1681526020019250505060405180910390a1505050505050565b6000806000806000808873ffffffffffffffffffffffffffffffffffffffff1673ffffffffffffffffffffffffffffffffffffffff16815260200190815260200160002092508260000160009054906101000a900473ffffffffffffffffffffffffffffffffffffffff1673ffffffffffffffffffffffffffffffffffffffff163373ffffffffffffffffffffffffffffffffffffffff1614151561154e576040517f08c379a000000000000000000000000000000000000000000000000000000000815260040180806020018281038252603a8152602001807f596f75206d757374206f776e2074686973204e6f646520746f2062652061626c81526020017f6520746f2061646420612048616c664564676520746f2069742e00000000000081525060400191505060405180910390fd5b600683600301805490501015156115f3576040517f08c379a00000000000000000000000000000000000000000000000000000000081526004018080602001828103825260328152602001807f596f752063616e6e6f742068617665206d6f7265207468616e20362048616c6681526020017f4564676573206f6e206f6e65204e6f64652e000000000000000000000000000081525060400191505060405180910390fd5b8585905091506020821015801561160b575060408211155b15156116a5576040517f08c379a00000000000000000000000000000000000000000000000000000000081526004018080602001828103825260308152602001807f5f69706673206d757374206265206265747765656e20333220616e642036342081526020017f63686172616374657273206c6f6e672e0000000000000000000000000000000081525060400191505060405180910390fd5b8585604051602001808383808284378201915050925050506040516020818303038152906040526040518082805190602001908083835b60208310151561170157805182526020820191506020810190506020830392506116dc565b6001836020036101000a03801982511681845116808217855250505050505090500191505060405180910390206001900490506000600160008373ffffffffffffffffffffffffffffffffffffffff1673ffffffffffffffffffffffffffffffffffffffff16815260200190815260200160002060000160009054906101000a900473ffffffffffffffffffffffffffffffffffffffff1673ffffffffffffffffffffffffffffffffffffffff1614151561184a576040517f08c379a00000000000000000000000000000000000000000000000000000000081526004018080602001828103825260258152602001807f412048616c66456467652077697468205f6970667320616c726561647920657881526020017f697374732100000000000000000000000000000000000000000000000000000081525060400191505060405180910390fd5b6060604051908101604052808873ffffffffffffffffffffffffffffffffffffffff16815260200187878080601f0160208091040260200160405190810160405280939291908181526020018383808284378201915050505050508152602001600073ffffffffffffffffffffffffffffffffffffffff16815250600160008373ffffffffffffffffffffffffffffffffffffffff1673ffffffffffffffffffffffffffffffffffffffff16815260200190815260200160002060008201518160000160006101000a81548173ffffffffffffffffffffffffffffffffffffffff021916908373ffffffffffffffffffffffffffffffffffffffff16021790555060208201518160010190805190602001906119679291906130c8565b5060408201518160020160006101000a81548173ffffffffffffffffffffffffffffffffffffffff021916908373ffffffffffffffffffffffffffffffffffffffff160217905550905050826003018190806001815401808255809150509060018203906000526020600020016000909192909190916101000a81548173ffffffffffffffffffffffffffffffffffffffff021916908373ffffffffffffffffffffffffffffffffffffffff160217905550507f5b1f84e5ff3f2a0bceff6bbb239cfc79426615d3e69bbf5f3dac8be12ba92bb98133604051808373ffffffffffffffffffffffffffffffffffffffff1673ffffffffffffffffffffffffffffffffffffffff1681526020018273ffffffffffffffffffffffffffffffffffffffff1673ffffffffffffffffffffffffffffffffffffffff1681526020019250505060405180910390a18093505050509392505050565b50565b6000600260008473ffffffffffffffffffffffffffffffffffffffff1673ffffffffffffffffffffffffffffffffffffffff1681526020019081526020016000206001018054905082101515611bcb576040517f08c379a000000000000000000000000000000000000000000000000000000000815260040180806020018281038252604d8152602001807f54686520696e64657820737570706c69656420776173203e3d20746865206e7581526020017f6d626572206f66204564676550726f706f73616c732062656c6f6e67696e672081526020017f746f20746865204f776e65722e0000000000000000000000000000000000000081525060600191505060405180910390fd5b600260008473ffffffffffffffffffffffffffffffffffffffff1673ffffffffffffffffffffffffffffffffffffffff16815260200190815260200160002060010182815481101515611c1a57fe5b9060005260206000200160009054906101000a900473ffffffffffffffffffffffffffffffffffffffff16905092915050565b611c55613148565b6000806000806000600160008873ffffffffffffffffffffffffffffffffffffffff1673ffffffffffffffffffffffffffffffffffffffff168152602001908152602001600020606060405190810160405290816000820160009054906101000a900473ffffffffffffffffffffffffffffffffffffffff1673ffffffffffffffffffffffffffffffffffffffff1673ffffffffffffffffffffffffffffffffffffffff168152602001600182018054600181600116156101000203166002900480601f016020809104026020016040519081016040528092919081815260200182805460018160011615610100020316600290048015611d975780601f10611d6c57610100808354040283529160200191611d97565b820191906000526020600020905b815481529060010190602001808311611d7a57829003601f168201915b505050505081526020016002820160009054906101000a900473ffffffffffffffffffffffffffffffffffffffff1673ffffffffffffffffffffffffffffffffffffffff1673ffffffffffffffffffffffffffffffffffffffff16815250509550600080876000015173ffffffffffffffffffffffffffffffffffffffff1673ffffffffffffffffffffffffffffffffffffffff16815260200190815260200160002094503373ffffffffffffffffffffffffffffffffffffffff168560000160009054906101000a900473ffffffffffffffffffffffffffffffffffffffff1673ffffffffffffffffffffffffffffffffffffffff16141515611f29576040517f08c379a00000000000000000000000000000000000000000000000000000000081526004018080602001828103825260338152602001807f596f75206d757374206f776e20746869732048616c664564676520746f20626581526020017f2061626c6520746f2064656c6574652069742e0000000000000000000000000081525060400191505060405180910390fd5b6000866040015173ffffffffffffffffffffffffffffffffffffffff16141515612007576040517f08c379a00000000000000000000000000000000000000000000000000000000081526004018080602001828103825260498152602001807f596f75206d75737420646973636f6e6e65637420746869732048616c6645646781526020017f652066726f6d20697473206f746865722068616c66206265666f72652064656c81526020017f6574696e672069742e000000000000000000000000000000000000000000000081525060600191505060405180910390fd5b846003019350600684805490501115151561201e57fe5b60009250600091505b83805490508260ff1610156120bd578673ffffffffffffffffffffffffffffffffffffffff16848360ff1681548110151561205e57fe5b9060005260206000200160009054906101000a900473ffffffffffffffffffffffffffffffffffffffff1673ffffffffffffffffffffffffffffffffffffffff1614156120b057819250838054905091505b8180600101925050612027565b600184805490500390508060ff168360ff16101561216b57838160ff168154811015156120e657fe5b9060005260206000200160009054906101000a900473ffffffffffffffffffffffffffffffffffffffff16848460ff1681548110151561212257fe5b9060005260206000200160006101000a81548173ffffffffffffffffffffffffffffffffffffffff021916908373ffffffffffffffffffffffffffffffffffffffff1602179055505b838160ff1681548110151561217c57fe5b9060005260206000200160006101000a81549073ffffffffffffffffffffffffffffffffffffffff0219169055838054809190600190036121bd919061307b565b50600160008873ffffffffffffffffffffffffffffffffffffffff1673ffffffffffffffffffffffffffffffffffffffff168152602001908152602001600020600080820160006101000a81549073ffffffffffffffffffffffffffffffffffffffff02191690556001820160006122359190613033565b6002820160006101000a81549073ffffffffffffffffffffffffffffffffffffffff021916905550507fc58194320671290e1e21766c436ef5a4d8d9a922b1ec5b962127431eee373344878660000160009054906101000a900473ffffffffffffffffffffffffffffffffffffffff16604051808373ffffffffffffffffffffffffffffffffffffffff1673ffffffffffffffffffffffffffffffffffffffff1681526020018273ffffffffffffffffffffffffffffffffffffffff1673ffffffffffffffffffffffffffffffffffffffff1681526020019250505060405180910390a150505050505050565b60006020528060005260406000206000915090508060000160009054906101000a900473ffffffffffffffffffffffffffffffffffffffff1690806001018054600181600116156101000203166002900480601f0160208091040260200160405190810160405280929190818152602001828054600181600116156101000203166002900480156123f45780601f106123c9576101008083540402835291602001916123f4565b820191906000526020600020905b8154815290600101906020018083116123d757829003601f168201915b5050505050908060020160009054906101000a900463ffffffff16908060020160049054906101000a900463ffffffff16905084565b60036020528060005260406000206000915090508060000160009054906101000a900473ffffffffffffffffffffffffffffffffffffffff16908060010160009054906101000a900473ffffffffffffffffffffffffffffffffffffffff16905082565b6000600260008373ffffffffffffffffffffffffffffffffffffffff1673ffffffffffffffffffffffffffffffffffffffff168152602001908152602001600020600001805490509050919050565b60016020528060005260406000206000915090508060000160009054906101000a900473ffffffffffffffffffffffffffffffffffffffff1690806001018054600181600116156101000203166002900480601f0160208091040260200160405190810160405280929190818152602001828054600181600116156101000203166002900480156125af5780601f10612584576101008083540402835291602001916125af565b820191906000526020600020905b81548152906001019060200180831161259257829003601f168201915b5050505050908060020160009054906101000a900473ffffffffffffffffffffffffffffffffffffffff16905083565b50565b6000600260008373ffffffffffffffffffffffffffffffffffffffff1673ffffffffffffffffffffffffffffffffffffffff168152602001908152602001600020600101805490509050919050565b600092915050565b600080600085859050915060208210158015612656575060408211155b15156126f0576040517f08c379a00000000000000000000000000000000000000000000000000000000081526004018080602001828103825260308152602001807f5f69706673206d757374206265206265747765656e20333220616e642036342081526020017f63686172616374657273206c6f6e672e0000000000000000000000000000000081525060400191505060405180910390fd5b8585604051602001808383808284378201915050925050506040516020818303038152906040526040518082805190602001908083835b60208310151561274c5780518252602082019150602081019050602083039250612727565b6001836020036101000a038019825116818451168082178552505050505050905001915050604051809103902060019004905060008060008373ffffffffffffffffffffffffffffffffffffffff1673ffffffffffffffffffffffffffffffffffffffff16815260200190815260200160002060000160009054906101000a900473ffffffffffffffffffffffffffffffffffffffff1673ffffffffffffffffffffffffffffffffffffffff16141515612894576040517f08c379a00000000000000000000000000000000000000000000000000000000081526004018080602001828103825260218152602001807f41206e6f64652077697468205f6970667320616c72656164792065786973747381526020017f210000000000000000000000000000000000000000000000000000000000000081525060400191505060405180910390fd5b60a0604051908101604052803373ffffffffffffffffffffffffffffffffffffffff16815260200187878080601f01602080910402602001604051908101604052809392919081815260200183838082843782019150505050505081526020018563ffffffff168152602001600260003373ffffffffffffffffffffffffffffffffffffffff1673ffffffffffffffffffffffffffffffffffffffff1681526020019081526020016000206000018054905063ffffffff16815260200160006040519080825280602002602001820160405280156129815781602001602082028038833980820191505090505b508152506000808373ffffffffffffffffffffffffffffffffffffffff1673ffffffffffffffffffffffffffffffffffffffff16815260200190815260200160002060008201518160000160006101000a81548173ffffffffffffffffffffffffffffffffffffffff021916908373ffffffffffffffffffffffffffffffffffffffff1602179055506020820151816001019080519060200190612a269291906130c8565b5060408201518160020160006101000a81548163ffffffff021916908363ffffffff16021790555060608201518160020160046101000a81548163ffffffff021916908363ffffffff1602179055506080820151816003019080519060200190612a91929190613196565b50905050600260003373ffffffffffffffffffffffffffffffffffffffff1673ffffffffffffffffffffffffffffffffffffffff1681526020019081526020016000206000018190806001815401808255809150509060018203906000526020600020016000909192909190916101000a81548173ffffffffffffffffffffffffffffffffffffffff021916908373ffffffffffffffffffffffffffffffffffffffff160217905550507fc503d6de4e943f746e1f7700e3c6faf7d93c049ded69b4b4796fed306f044cbc8133604051808373ffffffffffffffffffffffffffffffffffffffff1673ffffffffffffffffffffffffffffffffffffffff1681526020018273ffffffffffffffffffffffffffffffffffffffff1673ffffffffffffffffffffffffffffffffffffffff1681526020019250505060405180910390a180925050509392505050565b600080600080600080612bef612fe1565b60008060008a73ffffffffffffffffffffffffffffffffffffffff1673ffffffffffffffffffffffffffffffffffffffff16815260200190815260200160002060a060405190810160405290816000820160009054906101000a900473ffffffffffffffffffffffffffffffffffffffff1673ffffffffffffffffffffffffffffffffffffffff1673ffffffffffffffffffffffffffffffffffffffff168152602001600182018054600181600116156101000203166002900480601f016020809104026020016040519081016040528092919081815260200182805460018160011615610100020316600290048015612d2a5780601f10612cff57610100808354040283529160200191612d2a565b820191906000526020600020905b815481529060010190602001808311612d0d57829003601f168201915b505050505081526020016002820160009054906101000a900463ffffffff1663ffffffff1663ffffffff1681526020016002820160049054906101000a900463ffffffff1663ffffffff1663ffffffff16815260200160038201805480602002602001604051908101604052809291908181526020018280548015612e0457602002820191906000526020600020905b8160009054906101000a900473ffffffffffffffffffffffffffffffffffffffff1673ffffffffffffffffffffffffffffffffffffffff1681526020019060010190808311612dba575b50505050508152505091506000826000015173ffffffffffffffffffffffffffffffffffffffff1614151515612ea2576040517f08c379a00000000000000000000000000000000000000000000000000000000081526004018080602001828103825260148152602001807f4e6f646520646f6573206e6f742065786973742e00000000000000000000000081525060200191505060405180910390fd5b816080015151905060008160ff1611612ebc576000612eda565b81608001516000815181101515612ecf57fe5b906020019060200201515b975060018160ff1611612eee576000612f0c565b81608001516001815181101515612f0157fe5b906020019060200201515b965060028160ff1611612f20576000612f3e565b81608001516002815181101515612f3357fe5b906020019060200201515b955060038160ff1611612f52576000612f70565b81608001516003815181101515612f6557fe5b906020019060200201515b945060048160ff1611612f84576000612fa2565b81608001516004815181101515612f9757fe5b906020019060200201515b935060058160ff1611612fb6576000612fd4565b81608001516005815181101515612fc957fe5b906020019060200201515b9250505091939550919395565b60a060405190810160405280600073ffffffffffffffffffffffffffffffffffffffff16815260200160608152602001600063ffffffff168152602001600063ffffffff168152602001606081525090565b50805460018160011615610100020316600290046000825580601f106130595750613078565b601f0160209004906000526020600020908101906130779190613220565b5b50565b8154818355818111156130a2578183600052602060002091820191016130a19190613220565b5b505050565b50805460008255906000526020600020908101906130c59190613220565b50565b828054600181600116156101000203166002900490600052602060002090601f016020900481019282601f1061310957805160ff1916838001178555613137565b82800160010185558215613137579182015b8281111561313657825182559160200191906001019061311b565b5b5090506131449190613220565b5090565b606060405190810160405280600073ffffffffffffffffffffffffffffffffffffffff16815260200160608152602001600073ffffffffffffffffffffffffffffffffffffffff1681525090565b82805482825590600052602060002090810192821561320f579160200282015b8281111561320e5782518260006101000a81548173ffffffffffffffffffffffffffffffffffffffff021916908373ffffffffffffffffffffffffffffffffffffffff160217905550916020019190600101906131b6565b5b50905061321c9190613245565b5090565b61324291905b8082111561323e576000816000905550600101613226565b5090565b90565b61328591905b8082111561328157600081816101000a81549073ffffffffffffffffffffffffffffffffffffffff02191690555060010161324b565b5090565b905600a165627a7a723058200d81b4136adc065dd3d21c37d15016128dc18d1e7430fe36fd57cbd2245808890029",
  "source": "pragma solidity ^0.4.24;\nimport \"./InterweaveGraph.sol\";\n\ncontract InterweaveProposals is InterweaveGraph {\n  \n  /// @notice EdgeProposal struct represents a proposal to connect or disconnect two Nodes via two HalfEdges belonging to them. halfEdgeAddr0 belongs to the proposer.\n  struct EdgeProposal {\n    address halfEdgeAddr0;\n    address halfEdgeAddr1;\n  }\n  \n  /// @notice An EdgeProposal was created.\n  /// @param edgeProposalAddr The address of the created EdgeProposal.\n  /// @param proposerAddr The Ethereum address of the Owner who created the EdgeProposal.\n  /// @param proposedToAddr The Ethereum address of the Owner who is the counterparty on the EdgeProposal.\n  event EdgeProposalCreated(address edgeProposalAddr, address proposerAddr, address indexed proposedToAddr);\n  \n  /// @notice An EdgeProposal was accepted, connecting or disconnecting two Nodes.\n  /// @param edgeProposalAddr The address of the accepted EdgeProposal (which will have been deleted).\n  /// @param accepterAddr The Ethereum address of the Owner who accepted the EdgeProposal.\n  /// @param acceptedAddr The Ethereum address of the Owner whose EdgeProposal was accepted.\n  event EdgeProposalAccepted(address edgeProposalAddr, address accepterAddr, address indexed acceptedAddr);\n  \n  /// @notice An EdgeProposal was rejected.\n  /// @param edgeProposalAddr The address of the rejected EdgeProposal (which will have been deleted).\n  /// @param rejecterAddr The Ethereum address of the Owner who rejected the EdgeProposal.\n  /// @param rejectedAddr The Ethereum address of the Owner who was the counterparty on the EdgeProposal.\n  event EdgeProposalRejected(address edgeProposalAddr, address rejecterAddr, address indexed rejectedAddr);\n  \n  /// @notice A mapping allowing lookup of EdgeProposals by their addresses.\n  /// @dev EdgeProposal addresses = kekkac(halfEdgeAddr0, halfEdgeAddr1)\n  mapping (address => EdgeProposal) public edgeProposalLookup;\n  \n  function createEdgeProposal(address _halfEdgeAddr0, address _halfEdgeAddr1) external returns (address) {\n    /*\n    - require NodeLookup[HalfEdgeLookup[halfEdgeAddr0].node].owner == msg.sender (you can't propose from someone else's node)\n    - require neither already connected, or are both already connected to each other (for a disconnection)\n    - make new Proposal {\n      halfEdgeAddr0,\n      halfEdgeAddr1\n    }\n    - Put it in OwnerEdgeProposals[yourAddr] and OwnerEdgeProposals[theirAddr]\n    */\n  }\n  \n  function acceptEdgeProposal(address _edgeProposalAddr) external {\n    /*\n    - require proposalLookup[proposalAddr] !== 0\n    - require NodeLookup[HalfEdgeLookup[proposal.halfEdgeAddr0].node].owner !== msg.sender (you can't accept your own proposal)\n    - Delete the Proposal from proposalLookup\n    - Delete proposalAddr from, and compactify, the two OwnerLookup[msg.sender or otherNodeOwner].proposals (proposal's time is up, whatever happens next)\n    - If neither halfEdge slot contains the other:\n      - Connect them\n    - Else if both HalfEdge slots contain the other:\n      - Disconnect them\n    - Else:\n      - Situation where either or both halfEdges have already connected to other ones. Proposal is worthless, so do nothing; it's already deleted.\n    */\n  }\n  \n  function rejectEdgeProposal(address _edgeProposalAddr) external {\n    /*\n    - require proposalLookup[proposalAddr] !== 0\n    - Delete proposalAddr from, and compactify, the two OwnerLookup[msg.sender or otherNodeOwner].proposals\n    - Delete the Proposal from proposalLookup\n    */\n  }\n  \n  function getOwnerEdgeProposalCount(address _ownerAddr) public view returns (uint) {\n    return ownerLookup[_ownerAddr].edgeProposalAddrs.length;\n  }\n  \n  function getOwnerEdgeProposalAddrByIndex(address _ownerAddr, uint _index) public view returns (address) {\n    require(\n      _index < ownerLookup[_ownerAddr].edgeProposalAddrs.length,\n      \"The index supplied was >= the number of EdgeProposals belonging to the Owner.\"\n    );\n    \n    return ownerLookup[_ownerAddr].edgeProposalAddrs[_index];\n  }\n}\n",
  "sourcePath": "/home/noah/Programs/Javascript/web3/interweave.network/solidity/contracts/interweave-free/InterweaveProposals.sol",
  "compiler": {
    "name": "solc",
    "version": "0.4.24+commit.e67f0147.Emscripten.clang"
  },
  "schemaVersion": "2.0.1",
  "updatedAt": "2018-10-21T00:27:40.416Z"
}