{
  "contractName": "InterweaveGraph",
  "abi": [
    {
      "constant": true,
      "inputs": [
        {
          "name": "",
          "type": "address"
        }
      ],
      "name": "nodeLookup",
      "outputs": [
        {
          "name": "ownerAddr",
          "type": "address"
        },
        {
          "name": "ipfs",
          "type": "string"
        },
        {
          "name": "format",
          "type": "uint32"
        },
        {
          "name": "ownerNodesIndex",
          "type": "uint32"
        }
      ],
      "payable": false,
      "stateMutability": "view",
      "type": "function"
    },
    {
      "constant": true,
      "inputs": [
        {
          "name": "",
          "type": "address"
        }
      ],
      "name": "halfEdgeLookup",
      "outputs": [
        {
          "name": "nodeAddr",
          "type": "address"
        },
        {
          "name": "ipfs",
          "type": "string"
        },
        {
          "name": "otherHalfEdgeAddr",
          "type": "address"
        }
      ],
      "payable": false,
      "stateMutability": "view",
      "type": "function"
    },
    {
      "anonymous": false,
      "inputs": [
        {
          "indexed": false,
          "name": "nodeAddr",
          "type": "address"
        },
        {
          "indexed": false,
          "name": "ownerAddr",
          "type": "address"
        }
      ],
      "name": "NodeCreated",
      "type": "event"
    },
    {
      "anonymous": false,
      "inputs": [
        {
          "indexed": false,
          "name": "nodeAddr",
          "type": "address"
        },
        {
          "indexed": false,
          "name": "ownerAddr",
          "type": "address"
        }
      ],
      "name": "NodeDeleted",
      "type": "event"
    },
    {
      "anonymous": false,
      "inputs": [
        {
          "indexed": false,
          "name": "halfEdgeAddr",
          "type": "address"
        },
        {
          "indexed": false,
          "name": "ownerAddr",
          "type": "address"
        }
      ],
      "name": "HalfEdgeCreated",
      "type": "event"
    },
    {
      "anonymous": false,
      "inputs": [
        {
          "indexed": false,
          "name": "halfEdgeAddr",
          "type": "address"
        },
        {
          "indexed": false,
          "name": "ownerAddr",
          "type": "address"
        }
      ],
      "name": "HalfEdgeDeleted",
      "type": "event"
    },
    {
      "constant": false,
      "inputs": [
        {
          "name": "_ipfs",
          "type": "string"
        },
        {
          "name": "_format",
          "type": "uint32"
        }
      ],
      "name": "createNode",
      "outputs": [
        {
          "name": "",
          "type": "address"
        }
      ],
      "payable": false,
      "stateMutability": "nonpayable",
      "type": "function"
    },
    {
      "constant": false,
      "inputs": [
        {
          "name": "_nodeAddr",
          "type": "address"
        }
      ],
      "name": "deleteNode",
      "outputs": [],
      "payable": false,
      "stateMutability": "nonpayable",
      "type": "function"
    },
    {
      "constant": true,
      "inputs": [
        {
          "name": "_ownerAddr",
          "type": "address"
        }
      ],
      "name": "getOwnerNodeCount",
      "outputs": [
        {
          "name": "",
          "type": "uint256"
        }
      ],
      "payable": false,
      "stateMutability": "view",
      "type": "function"
    },
    {
      "constant": true,
      "inputs": [
        {
          "name": "_ownerAddr",
          "type": "address"
        },
        {
          "name": "_index",
          "type": "uint256"
        }
      ],
      "name": "getOwnerNodeAddrByIndex",
      "outputs": [
        {
          "name": "",
          "type": "address"
        }
      ],
      "payable": false,
      "stateMutability": "view",
      "type": "function"
    },
    {
      "constant": false,
      "inputs": [
        {
          "name": "_nodeAddr",
          "type": "address"
        },
        {
          "name": "_ipfs",
          "type": "string"
        }
      ],
      "name": "createHalfEdge",
      "outputs": [
        {
          "name": "",
          "type": "address"
        }
      ],
      "payable": false,
      "stateMutability": "nonpayable",
      "type": "function"
    },
    {
      "constant": false,
      "inputs": [
        {
          "name": "_halfEdgeAddr",
          "type": "address"
        }
      ],
      "name": "deleteHalfEdge",
      "outputs": [],
      "payable": false,
      "stateMutability": "nonpayable",
      "type": "function"
    },
    {
      "constant": true,
      "inputs": [
        {
          "name": "_nodeAddr",
          "type": "address"
        }
      ],
      "name": "getNodeHalfEdgeAddrs",
      "outputs": [
        {
          "name": "halfEdgeAddr0",
          "type": "address"
        },
        {
          "name": "halfEdgeAddr1",
          "type": "address"
        },
        {
          "name": "halfEdgeAddr2",
          "type": "address"
        },
        {
          "name": "halfEdgeAddr3",
          "type": "address"
        },
        {
          "name": "halfEdgeAddr4",
          "type": "address"
        },
        {
          "name": "halfEdgeAddr5",
          "type": "address"
        }
      ],
      "payable": false,
      "stateMutability": "view",
      "type": "function"
    }
  ],
  "bytecode": "0x608060405234801561001057600080fd5b50612d62806100206000396000f300608060405260043610610099576000357c0100000000000000000000000000000000000000000000000000000000900463ffffffff1680632be3fbe91461009e5780632d4ede931461012b57806331fee9f31461016e5780636b6e0558146102095780637539561a1461024c57806383dc204b1461036157806387a5e795146103b8578063e5f6ce75146104da578063f6819b7714610565575b600080fd5b3480156100aa57600080fd5b506100e9600480360381019080803573ffffffffffffffffffffffffffffffffffffffff169060200190929190803590602001909291905050506106e7565b604051808273ffffffffffffffffffffffffffffffffffffffff1673ffffffffffffffffffffffffffffffffffffffff16815260200191505060405180910390f35b34801561013757600080fd5b5061016c600480360381019080803573ffffffffffffffffffffffffffffffffffffffff169060200190929190505050610873565b005b34801561017a57600080fd5b506101c7600480360381019080803573ffffffffffffffffffffffffffffffffffffffff169060200190929190803590602001908201803590602001919091929391929390505050611116565b604051808273ffffffffffffffffffffffffffffffffffffffff1673ffffffffffffffffffffffffffffffffffffffff16815260200191505060405180910390f35b34801561021557600080fd5b5061024a600480360381019080803573ffffffffffffffffffffffffffffffffffffffff1690602001909291905050506117b9565b005b34801561025857600080fd5b5061028d600480360381019080803573ffffffffffffffffffffffffffffffffffffffff169060200190929190505050611e8e565b604051808573ffffffffffffffffffffffffffffffffffffffff1673ffffffffffffffffffffffffffffffffffffffff168152602001806020018463ffffffff1663ffffffff1681526020018363ffffffff1663ffffffff168152602001828103825285818151815260200191508051906020019080838360005b83811015610323578082015181840152602081019050610308565b50505050905090810190601f1680156103505780820380516001836020036101000a031916815260200191505b509550505050505060405180910390f35b34801561036d57600080fd5b506103a2600480360381019080803573ffffffffffffffffffffffffffffffffffffffff169060200190929190505050611f96565b6040518082815260200191505060405180910390f35b3480156103c457600080fd5b506103f9600480360381019080803573ffffffffffffffffffffffffffffffffffffffff169060200190929190505050611fe5565b604051808473ffffffffffffffffffffffffffffffffffffffff1673ffffffffffffffffffffffffffffffffffffffff168152602001806020018373ffffffffffffffffffffffffffffffffffffffff1673ffffffffffffffffffffffffffffffffffffffff168152602001828103825284818151815260200191508051906020019080838360005b8381101561049d578082015181840152602081019050610482565b50505050905090810190601f1680156104ca5780820380516001836020036101000a031916815260200191505b5094505050505060405180910390f35b3480156104e657600080fd5b50610523600480360381019080803590602001908201803590602001919091929391929390803563ffffffff1690602001909291905050506120e7565b604051808273ffffffffffffffffffffffffffffffffffffffff1673ffffffffffffffffffffffffffffffffffffffff16815260200191505060405180910390f35b34801561057157600080fd5b506105a6600480360381019080803573ffffffffffffffffffffffffffffffffffffffff16906020019092919050505061268c565b604051808773ffffffffffffffffffffffffffffffffffffffff1673ffffffffffffffffffffffffffffffffffffffff1681526020018673ffffffffffffffffffffffffffffffffffffffff1673ffffffffffffffffffffffffffffffffffffffff1681526020018573ffffffffffffffffffffffffffffffffffffffff1673ffffffffffffffffffffffffffffffffffffffff1681526020018473ffffffffffffffffffffffffffffffffffffffff1673ffffffffffffffffffffffffffffffffffffffff1681526020018373ffffffffffffffffffffffffffffffffffffffff1673ffffffffffffffffffffffffffffffffffffffff1681526020018273ffffffffffffffffffffffffffffffffffffffff1673ffffffffffffffffffffffffffffffffffffffff168152602001965050505050505060405180910390f35b6000600260008473ffffffffffffffffffffffffffffffffffffffff1673ffffffffffffffffffffffffffffffffffffffff16815260200190815260200160002060000180549050821015156107f1576040517f08c379a00000000000000000000000000000000000000000000000000000000081526004018080602001828103825260498152602001807f54686520696e64657820737570706c69656420776173203e3d20746865206e7581526020017f6d626572206f6620746865204e6f6465732062656c6f6e67696e6720746f207481526020017f6865204f776e65722e000000000000000000000000000000000000000000000081525060600191505060405180910390fd5b600260008473ffffffffffffffffffffffffffffffffffffffff1673ffffffffffffffffffffffffffffffffffffffff1681526020019081526020016000206000018281548110151561084057fe5b9060005260206000200160009054906101000a900473ffffffffffffffffffffffffffffffffffffffff16905092915050565b61087b612a8f565b6000806000806000808773ffffffffffffffffffffffffffffffffffffffff1673ffffffffffffffffffffffffffffffffffffffff16815260200190815260200160002060a060405190810160405290816000820160009054906101000a900473ffffffffffffffffffffffffffffffffffffffff1673ffffffffffffffffffffffffffffffffffffffff1673ffffffffffffffffffffffffffffffffffffffff168152602001600182018054600181600116156101000203166002900480601f0160208091040260200160405190810160405280929190818152602001828054600181600116156101000203166002900480156109ba5780601f1061098f576101008083540402835291602001916109ba565b820191906000526020600020905b81548152906001019060200180831161099d57829003601f168201915b505050505081526020016002820160009054906101000a900463ffffffff1663ffffffff1663ffffffff1681526020016002820160049054906101000a900463ffffffff1663ffffffff1663ffffffff16815260200160038201805480602002602001604051908101604052809291908181526020018280548015610a9457602002820191906000526020600020905b8160009054906101000a900473ffffffffffffffffffffffffffffffffffffffff1673ffffffffffffffffffffffffffffffffffffffff1681526020019060010190808311610a4a575b50505050508152505094503373ffffffffffffffffffffffffffffffffffffffff16856000015173ffffffffffffffffffffffffffffffffffffffff16141515610b6c576040517f08c379a000000000000000000000000000000000000000000000000000000000815260040180806020018281038252602f8152602001807f596f75206d757374206f776e2074686973204e6f646520746f2062652061626c81526020017f6520746f2064656c6574652069742e000000000000000000000000000000000081525060400191505060405180910390fd5b600093505b8460800151518460ff161015610ce85760006001600087608001518760ff16815181101515610b9c57fe5b9060200190602002015173ffffffffffffffffffffffffffffffffffffffff1673ffffffffffffffffffffffffffffffffffffffff16815260200190815260200160002060020160009054906101000a900473ffffffffffffffffffffffffffffffffffffffff1673ffffffffffffffffffffffffffffffffffffffff16141515610cdb576040517f08c379a00000000000000000000000000000000000000000000000000000000081526004018080602001828103825260468152602001807f596f75206d75737420646973636f6e6e6563742074686973204e6f646520667281526020017f6f6d20616c6c206f74686572204e6f646573206265666f72652064656c65746981526020017f6e672069742e000000000000000000000000000000000000000000000000000081525060600191505060405180910390fd5b8380600101945050610b71565b600093505b8460800151518460ff161015610dc8576001600086608001518660ff16815181101515610d1657fe5b9060200190602002015173ffffffffffffffffffffffffffffffffffffffff1673ffffffffffffffffffffffffffffffffffffffff168152602001908152602001600020600080820160006101000a81549073ffffffffffffffffffffffffffffffffffffffff0219169055600182016000610d929190612ae1565b6002820160006101000a81549073ffffffffffffffffffffffffffffffffffffffff021916905550508380600101945050610ced565b600260003373ffffffffffffffffffffffffffffffffffffffff1673ffffffffffffffffffffffffffffffffffffffff168152602001908152602001600020600001925084606001519150600183805490500390508063ffffffff168263ffffffff161015610f6b57828163ffffffff16815481101515610e4557fe5b9060005260206000200160009054906101000a900473ffffffffffffffffffffffffffffffffffffffff16838363ffffffff16815481101515610e8457fe5b9060005260206000200160006101000a81548173ffffffffffffffffffffffffffffffffffffffff021916908373ffffffffffffffffffffffffffffffffffffffff16021790555081600080858563ffffffff16815481101515610ee457fe5b9060005260206000200160009054906101000a900473ffffffffffffffffffffffffffffffffffffffff1673ffffffffffffffffffffffffffffffffffffffff1673ffffffffffffffffffffffffffffffffffffffff16815260200190815260200160002060020160046101000a81548163ffffffff021916908363ffffffff1602179055505b828163ffffffff16815481101515610f7f57fe5b9060005260206000200160006101000a81549073ffffffffffffffffffffffffffffffffffffffff021916905582805480919060019003610fc09190612b29565b506000808773ffffffffffffffffffffffffffffffffffffffff1673ffffffffffffffffffffffffffffffffffffffff168152602001908152602001600020600080820160006101000a81549073ffffffffffffffffffffffffffffffffffffffff02191690556001820160006110379190612ae1565b6002820160006101000a81549063ffffffff02191690556002820160046101000a81549063ffffffff02191690556003820160006110759190612b55565b50507ff5cb8d0b3620fe2e4999eb1a206651c4dc3d802e8e8629cb9f91d7a983cdbf2d8633604051808373ffffffffffffffffffffffffffffffffffffffff1673ffffffffffffffffffffffffffffffffffffffff1681526020018273ffffffffffffffffffffffffffffffffffffffff1673ffffffffffffffffffffffffffffffffffffffff1681526020019250505060405180910390a1505050505050565b6000806000806000808873ffffffffffffffffffffffffffffffffffffffff1673ffffffffffffffffffffffffffffffffffffffff16815260200190815260200160002092508260000160009054906101000a900473ffffffffffffffffffffffffffffffffffffffff1673ffffffffffffffffffffffffffffffffffffffff163373ffffffffffffffffffffffffffffffffffffffff16141515611249576040517f08c379a000000000000000000000000000000000000000000000000000000000815260040180806020018281038252603a8152602001807f596f75206d757374206f776e2074686973204e6f646520746f2062652061626c81526020017f6520746f2061646420612048616c664564676520746f2069742e00000000000081525060400191505060405180910390fd5b600683600301805490501015156112ee576040517f08c379a00000000000000000000000000000000000000000000000000000000081526004018080602001828103825260328152602001807f596f752063616e6e6f742068617665206d6f7265207468616e20362048616c6681526020017f4564676573206f6e206f6e65204e6f64652e000000000000000000000000000081525060400191505060405180910390fd5b85859050915060208210158015611306575060408211155b15156113a0576040517f08c379a00000000000000000000000000000000000000000000000000000000081526004018080602001828103825260308152602001807f5f69706673206d757374206265206265747765656e20333220616e642036342081526020017f63686172616374657273206c6f6e672e0000000000000000000000000000000081525060400191505060405180910390fd5b8585604051602001808383808284378201915050925050506040516020818303038152906040526040518082805190602001908083835b6020831015156113fc57805182526020820191506020810190506020830392506113d7565b6001836020036101000a03801982511681845116808217855250505050505090500191505060405180910390206001900490506000600160008373ffffffffffffffffffffffffffffffffffffffff1673ffffffffffffffffffffffffffffffffffffffff16815260200190815260200160002060000160009054906101000a900473ffffffffffffffffffffffffffffffffffffffff1673ffffffffffffffffffffffffffffffffffffffff16141515611545576040517f08c379a00000000000000000000000000000000000000000000000000000000081526004018080602001828103825260258152602001807f412048616c66456467652077697468205f6970667320616c726561647920657881526020017f697374732100000000000000000000000000000000000000000000000000000081525060400191505060405180910390fd5b6060604051908101604052808873ffffffffffffffffffffffffffffffffffffffff16815260200187878080601f0160208091040260200160405190810160405280939291908181526020018383808284378201915050505050508152602001600073ffffffffffffffffffffffffffffffffffffffff16815250600160008373ffffffffffffffffffffffffffffffffffffffff1673ffffffffffffffffffffffffffffffffffffffff16815260200190815260200160002060008201518160000160006101000a81548173ffffffffffffffffffffffffffffffffffffffff021916908373ffffffffffffffffffffffffffffffffffffffff1602179055506020820151816001019080519060200190611662929190612b76565b5060408201518160020160006101000a81548173ffffffffffffffffffffffffffffffffffffffff021916908373ffffffffffffffffffffffffffffffffffffffff160217905550905050826003018190806001815401808255809150509060018203906000526020600020016000909192909190916101000a81548173ffffffffffffffffffffffffffffffffffffffff021916908373ffffffffffffffffffffffffffffffffffffffff160217905550507f5b1f84e5ff3f2a0bceff6bbb239cfc79426615d3e69bbf5f3dac8be12ba92bb98133604051808373ffffffffffffffffffffffffffffffffffffffff1673ffffffffffffffffffffffffffffffffffffffff1681526020018273ffffffffffffffffffffffffffffffffffffffff1673ffffffffffffffffffffffffffffffffffffffff1681526020019250505060405180910390a18093505050509392505050565b6117c1612bf6565b6000806000806000600160008873ffffffffffffffffffffffffffffffffffffffff1673ffffffffffffffffffffffffffffffffffffffff168152602001908152602001600020606060405190810160405290816000820160009054906101000a900473ffffffffffffffffffffffffffffffffffffffff1673ffffffffffffffffffffffffffffffffffffffff1673ffffffffffffffffffffffffffffffffffffffff168152602001600182018054600181600116156101000203166002900480601f0160208091040260200160405190810160405280929190818152602001828054600181600116156101000203166002900480156119035780601f106118d857610100808354040283529160200191611903565b820191906000526020600020905b8154815290600101906020018083116118e657829003601f168201915b505050505081526020016002820160009054906101000a900473ffffffffffffffffffffffffffffffffffffffff1673ffffffffffffffffffffffffffffffffffffffff1673ffffffffffffffffffffffffffffffffffffffff16815250509550600080876000015173ffffffffffffffffffffffffffffffffffffffff1673ffffffffffffffffffffffffffffffffffffffff16815260200190815260200160002094503373ffffffffffffffffffffffffffffffffffffffff168560000160009054906101000a900473ffffffffffffffffffffffffffffffffffffffff1673ffffffffffffffffffffffffffffffffffffffff16141515611a95576040517f08c379a00000000000000000000000000000000000000000000000000000000081526004018080602001828103825260338152602001807f596f75206d757374206f776e20746869732048616c664564676520746f20626581526020017f2061626c6520746f2064656c6574652069742e0000000000000000000000000081525060400191505060405180910390fd5b6000866040015173ffffffffffffffffffffffffffffffffffffffff16141515611b73576040517f08c379a00000000000000000000000000000000000000000000000000000000081526004018080602001828103825260498152602001807f596f75206d75737420646973636f6e6e65637420746869732048616c6645646781526020017f652066726f6d20697473206f746865722068616c66206265666f72652064656c81526020017f6574696e672069742e000000000000000000000000000000000000000000000081525060600191505060405180910390fd5b8460030193506006848054905011151515611b8a57fe5b60009250600091505b83805490508260ff161015611c29578673ffffffffffffffffffffffffffffffffffffffff16848360ff16815481101515611bca57fe5b9060005260206000200160009054906101000a900473ffffffffffffffffffffffffffffffffffffffff1673ffffffffffffffffffffffffffffffffffffffff161415611c1c57819250838054905091505b8180600101925050611b93565b600184805490500390508060ff168360ff161015611cd757838160ff16815481101515611c5257fe5b9060005260206000200160009054906101000a900473ffffffffffffffffffffffffffffffffffffffff16848460ff16815481101515611c8e57fe5b9060005260206000200160006101000a81548173ffffffffffffffffffffffffffffffffffffffff021916908373ffffffffffffffffffffffffffffffffffffffff1602179055505b838160ff16815481101515611ce857fe5b9060005260206000200160006101000a81549073ffffffffffffffffffffffffffffffffffffffff021916905583805480919060019003611d299190612b29565b50600160008873ffffffffffffffffffffffffffffffffffffffff1673ffffffffffffffffffffffffffffffffffffffff168152602001908152602001600020600080820160006101000a81549073ffffffffffffffffffffffffffffffffffffffff0219169055600182016000611da19190612ae1565b6002820160006101000a81549073ffffffffffffffffffffffffffffffffffffffff021916905550507fc58194320671290e1e21766c436ef5a4d8d9a922b1ec5b962127431eee373344878660000160009054906101000a900473ffffffffffffffffffffffffffffffffffffffff16604051808373ffffffffffffffffffffffffffffffffffffffff1673ffffffffffffffffffffffffffffffffffffffff1681526020018273ffffffffffffffffffffffffffffffffffffffff1673ffffffffffffffffffffffffffffffffffffffff1681526020019250505060405180910390a150505050505050565b60006020528060005260406000206000915090508060000160009054906101000a900473ffffffffffffffffffffffffffffffffffffffff1690806001018054600181600116156101000203166002900480601f016020809104026020016040519081016040528092919081815260200182805460018160011615610100020316600290048015611f605780601f10611f3557610100808354040283529160200191611f60565b820191906000526020600020905b815481529060010190602001808311611f4357829003601f168201915b5050505050908060020160009054906101000a900463ffffffff16908060020160049054906101000a900463ffffffff16905084565b6000600260008373ffffffffffffffffffffffffffffffffffffffff1673ffffffffffffffffffffffffffffffffffffffff168152602001908152602001600020600001805490509050919050565b60016020528060005260406000206000915090508060000160009054906101000a900473ffffffffffffffffffffffffffffffffffffffff1690806001018054600181600116156101000203166002900480601f0160208091040260200160405190810160405280929190818152602001828054600181600116156101000203166002900480156120b75780601f1061208c576101008083540402835291602001916120b7565b820191906000526020600020905b81548152906001019060200180831161209a57829003601f168201915b5050505050908060020160009054906101000a900473ffffffffffffffffffffffffffffffffffffffff16905083565b600080600085859050915060208210158015612104575060408211155b151561219e576040517f08c379a00000000000000000000000000000000000000000000000000000000081526004018080602001828103825260308152602001807f5f69706673206d757374206265206265747765656e20333220616e642036342081526020017f63686172616374657273206c6f6e672e0000000000000000000000000000000081525060400191505060405180910390fd5b8585604051602001808383808284378201915050925050506040516020818303038152906040526040518082805190602001908083835b6020831015156121fa57805182526020820191506020810190506020830392506121d5565b6001836020036101000a038019825116818451168082178552505050505050905001915050604051809103902060019004905060008060008373ffffffffffffffffffffffffffffffffffffffff1673ffffffffffffffffffffffffffffffffffffffff16815260200190815260200160002060000160009054906101000a900473ffffffffffffffffffffffffffffffffffffffff1673ffffffffffffffffffffffffffffffffffffffff16141515612342576040517f08c379a00000000000000000000000000000000000000000000000000000000081526004018080602001828103825260218152602001807f41206e6f64652077697468205f6970667320616c72656164792065786973747381526020017f210000000000000000000000000000000000000000000000000000000000000081525060400191505060405180910390fd5b60a0604051908101604052803373ffffffffffffffffffffffffffffffffffffffff16815260200187878080601f01602080910402602001604051908101604052809392919081815260200183838082843782019150505050505081526020018563ffffffff168152602001600260003373ffffffffffffffffffffffffffffffffffffffff1673ffffffffffffffffffffffffffffffffffffffff1681526020019081526020016000206000018054905063ffffffff168152602001600060405190808252806020026020018201604052801561242f5781602001602082028038833980820191505090505b508152506000808373ffffffffffffffffffffffffffffffffffffffff1673ffffffffffffffffffffffffffffffffffffffff16815260200190815260200160002060008201518160000160006101000a81548173ffffffffffffffffffffffffffffffffffffffff021916908373ffffffffffffffffffffffffffffffffffffffff16021790555060208201518160010190805190602001906124d4929190612b76565b5060408201518160020160006101000a81548163ffffffff021916908363ffffffff16021790555060608201518160020160046101000a81548163ffffffff021916908363ffffffff160217905550608082015181600301908051906020019061253f929190612c44565b50905050600260003373ffffffffffffffffffffffffffffffffffffffff1673ffffffffffffffffffffffffffffffffffffffff1681526020019081526020016000206000018190806001815401808255809150509060018203906000526020600020016000909192909190916101000a81548173ffffffffffffffffffffffffffffffffffffffff021916908373ffffffffffffffffffffffffffffffffffffffff160217905550507fc503d6de4e943f746e1f7700e3c6faf7d93c049ded69b4b4796fed306f044cbc8133604051808373ffffffffffffffffffffffffffffffffffffffff1673ffffffffffffffffffffffffffffffffffffffff1681526020018273ffffffffffffffffffffffffffffffffffffffff1673ffffffffffffffffffffffffffffffffffffffff1681526020019250505060405180910390a180925050509392505050565b60008060008060008061269d612a8f565b60008060008a73ffffffffffffffffffffffffffffffffffffffff1673ffffffffffffffffffffffffffffffffffffffff16815260200190815260200160002060a060405190810160405290816000820160009054906101000a900473ffffffffffffffffffffffffffffffffffffffff1673ffffffffffffffffffffffffffffffffffffffff1673ffffffffffffffffffffffffffffffffffffffff168152602001600182018054600181600116156101000203166002900480601f0160208091040260200160405190810160405280929190818152602001828054600181600116156101000203166002900480156127d85780601f106127ad576101008083540402835291602001916127d8565b820191906000526020600020905b8154815290600101906020018083116127bb57829003601f168201915b505050505081526020016002820160009054906101000a900463ffffffff1663ffffffff1663ffffffff1681526020016002820160049054906101000a900463ffffffff1663ffffffff1663ffffffff168152602001600382018054806020026020016040519081016040528092919081815260200182805480156128b257602002820191906000526020600020905b8160009054906101000a900473ffffffffffffffffffffffffffffffffffffffff1673ffffffffffffffffffffffffffffffffffffffff1681526020019060010190808311612868575b50505050508152505091506000826000015173ffffffffffffffffffffffffffffffffffffffff1614151515612950576040517f08c379a00000000000000000000000000000000000000000000000000000000081526004018080602001828103825260148152602001807f4e6f646520646f6573206e6f742065786973742e00000000000000000000000081525060200191505060405180910390fd5b816080015151905060008160ff161161296a576000612988565b8160800151600081518110151561297d57fe5b906020019060200201515b975060018160ff161161299c5760006129ba565b816080015160018151811015156129af57fe5b906020019060200201515b965060028160ff16116129ce5760006129ec565b816080015160028151811015156129e157fe5b906020019060200201515b955060038160ff1611612a00576000612a1e565b81608001516003815181101515612a1357fe5b906020019060200201515b945060048160ff1611612a32576000612a50565b81608001516004815181101515612a4557fe5b906020019060200201515b935060058160ff1611612a64576000612a82565b81608001516005815181101515612a7757fe5b906020019060200201515b9250505091939550919395565b60a060405190810160405280600073ffffffffffffffffffffffffffffffffffffffff16815260200160608152602001600063ffffffff168152602001600063ffffffff168152602001606081525090565b50805460018160011615610100020316600290046000825580601f10612b075750612b26565b601f016020900490600052602060002090810190612b259190612cce565b5b50565b815481835581811115612b5057818360005260206000209182019101612b4f9190612cce565b5b505050565b5080546000825590600052602060002090810190612b739190612cce565b50565b828054600181600116156101000203166002900490600052602060002090601f016020900481019282601f10612bb757805160ff1916838001178555612be5565b82800160010185558215612be5579182015b82811115612be4578251825591602001919060010190612bc9565b5b509050612bf29190612cce565b5090565b606060405190810160405280600073ffffffffffffffffffffffffffffffffffffffff16815260200160608152602001600073ffffffffffffffffffffffffffffffffffffffff1681525090565b828054828255906000526020600020908101928215612cbd579160200282015b82811115612cbc5782518260006101000a81548173ffffffffffffffffffffffffffffffffffffffff021916908373ffffffffffffffffffffffffffffffffffffffff16021790555091602001919060010190612c64565b5b509050612cca9190612cf3565b5090565b612cf091905b80821115612cec576000816000905550600101612cd4565b5090565b90565b612d3391905b80821115612d2f57600081816101000a81549073ffffffffffffffffffffffffffffffffffffffff021916905550600101612cf9565b5090565b905600a165627a7a72305820ed0ce2d3067a9594c9ba1cfda48f4f502a2576a151eaa52880a1f4f270728a9a0029",
  "source": "pragma solidity ^0.4.24;\n\n/// @title The Interweave Network graph contract.\n/// @author interweaver\n/// @notice This is still a development version, but for now, is intended to represent a full graph.\ncontract InterweaveGraph {\n    \n  /// @notice Node struct represents a node in the graph (a place), with owner, representation with format, and connections to other Nodes.\n  struct Node {\n    address ownerAddr;\n    string ipfs;\n    uint32 format;\n    uint32 ownerNodesIndex; // Supports efficient deleting of nodes. Don't create more than 4 billion nodes, yo.\n    address[] halfEdgeAddrs;\n  }\n  \n  /// @notice HalfEdge struct represents half of an edge in the graph, with the Node it belongs to, representation with implicit format, and connection to another HalfEdge.\n  struct HalfEdge {\n    address nodeAddr;\n    string ipfs; // format = format of node\n    address otherHalfEdgeAddr;\n  }\n  \n  /// @notice Owner struct represents the set of Nodes and EdgeProposals belonging to a particular Ethereum address.\n  struct Owner {\n    address[] nodeAddrs;\n    address[] edgeProposalAddrs;\n  }\n  \n  /// @notice A new Node was created on the graph.\n  /// @param nodeAddr The address of the created Node.\n  /// @param ownerAddr The Ethereum address of the created Node's Owner.\n  event NodeCreated(address nodeAddr, address ownerAddr);\n  \n  /// @notice A Node was deleted from the graph.\n  /// @param nodeAddr The address of the deleted Node.\n  /// @param ownerAddr The Ethereum address of the deleted Node's Owner.\n  event NodeDeleted(address nodeAddr, address ownerAddr);\n  \n  /// @notice A HalfEdge was created on the graph.\n  /// @param halfEdgeAddr The address of the created HalfEdge.\n  /// @param ownerAddr The Ethereum address of the created HalfEdge's Owner.\n  event HalfEdgeCreated(address halfEdgeAddr, address ownerAddr);\n  \n  /// @notice A HalfEdge was deleted from the graph.\n  /// @param halfEdgeAddr The address of the deleted HalfEdge.\n  /// @param ownerAddr The Ethereum address of the deleted HalfEdge's Owner.\n  event HalfEdgeDeleted(address halfEdgeAddr, address ownerAddr);\n  \n  /// @notice A Mapping allowing lookup of Nodes by their addresses.\n  /// @dev Node addresses = kekkac(ipfsHash)\n  mapping (address => Node) public nodeLookup;\n  \n  /// @notice A mapping allowing lookup of HalfEdges by their addresses.\n  /// @dev HalfEdge addresses = kekkac(ipfsHash)\n  mapping (address => HalfEdge) public halfEdgeLookup;\n  \n  /// @notice A mapping allowing lookup of Owners by their (Ethereum) addresses.\n  mapping (address => Owner) internal ownerLookup;\n  \n  /// @notice Create a new Node on the graph.\n  /// @param _ipfs The IPFS hash string of the Node's content file. Must be unique for Nodes in the graph.\n  /// @param _format The format identifier of the Node's content. Must match with the file at the given IPFS hash, or viewers won't be able to interpret the content.\n  /// @return The Address of the new Node.\n  function createNode(string _ipfs, uint32 _format) external returns (address) {\n    \n    // Make sure _ipfs isn't too small or too huge. Arbitrary, but allows standard Qm+ 46-char hashes.\n    uint hashLength = bytes(_ipfs).length;\n    require(\n      hashLength >= 32 && hashLength <= 64,\n      \"_ipfs must be between 32 and 64 characters long.\"\n    );\n    \n    // Generate Node's address from the IPFS hash.\n    address newNodeAddress = address(keccak256(abi.encodePacked(_ipfs)));\n    \n    // There must not already be a node at that address.\n    // The maze of twisty little passages must *not* be all alike.\n    require(\n        uint(nodeLookup[newNodeAddress].ownerAddr) == 0,\n        \"A node with _ipfs already exists!\"\n    );\n    \n    // Instantiate and save the new Node at its address.\n    nodeLookup[newNodeAddress] = Node({\n        ownerAddr: msg.sender,\n        ipfs: _ipfs,\n        format: _format,\n        ownerNodesIndex: uint32(ownerLookup[msg.sender].nodeAddrs.length), // We're gonna push it onto the end.\n        halfEdgeAddrs: new address[](0)\n    });\n    \n    // Also save the new Node's address in its Owner's list of nodes (don't need to create it)\n    ownerLookup[msg.sender].nodeAddrs.push(newNodeAddress);\n    \n    // Log the Node creation.\n    emit NodeCreated(newNodeAddress, msg.sender);\n    \n    // Finally, hand back the new Node's address to the caller.\n    return newNodeAddress;\n  }\n  \n  /// @notice Delete a Node from the graph.\n  /// @param _nodeAddr The address of the Node to delete from the graph.\n  function deleteNode(address _nodeAddr) external {\n    \n    // Get the Node being deleted.\n    Node memory node = nodeLookup[_nodeAddr];\n    \n    // Make sure the Node exists and belongs to msg.sender (can do both checks at once).\n    require(\n      node.ownerAddr == msg.sender,\n      \"You must own this Node to be able to delete it.\"\n    );\n    \n    // Make sure the Node is not connected to any others.\n    for (uint8 i = 0; i < node.halfEdgeAddrs.length; i++) {\n      require(\n        uint(halfEdgeLookup[node.halfEdgeAddrs[i]].otherHalfEdgeAddr) == 0,\n        \"You must disconnect this Node from all other Nodes before deleting it.\"\n      );\n    }\n    \n    // Delete the Node's up-to-6 HalfEdges (which we just confirmed were not connected to anything) from the halfEdgeLookup mapping.\n    // The only other references to them should be in the about-to-be-deleted Node and any about-to-be-invalidated EdgeProposals.\n    for (i = 0; i < node.halfEdgeAddrs.length; i++) {\n      delete halfEdgeLookup[node.halfEdgeAddrs[i]];\n    }\n    \n    // Delete the Node from its Owner's nodeAddrs array:\n    // ...Get that array as storage because we'll be using it several times, modifying it, and want the changes to stick.\n    address[] storage nodeAddrs = ownerLookup[msg.sender].nodeAddrs;\n    \n    // ...If the Node is not the last element in the array, swap the last element over top of it.\n    uint32 index = node.ownerNodesIndex;\n    uint32 lastIndex = uint32(nodeAddrs.length - 1);\n    if (index < lastIndex) {\n      nodeAddrs[index] = nodeAddrs[lastIndex];\n      nodeLookup[nodeAddrs[index]].ownerNodesIndex = index; // Need to update that formerly-last Node's ownerNodesIndex too.\n    }\n    \n    // ...Either way, then delete the last element and shrink the array.\n    delete nodeAddrs[lastIndex];\n    nodeAddrs.length--;\n    \n    // Delete the Node from the nodeLookup mapping.\n    delete nodeLookup[_nodeAddr];\n    \n    // Log the Node deletion.\n    emit NodeDeleted(_nodeAddr, msg.sender);\n  }\n  \n  /// @notice Get how many Nodes are owned by the Owner with the given address.\n  /// @param _ownerAddr The address of the Owner.\n  /// @return How many Nodes they own.\n  function getOwnerNodeCount(address _ownerAddr) public view returns (uint) {\n    return ownerLookup[_ownerAddr].nodeAddrs.length;\n  }\n  \n  /// @notice Get the address of the Node belonging to the Owner with the given address at the given index in the Owner's array of Nodes.\n  /// @param _ownerAddr The address of the Owner.\n  /// @param _index The index of the Node to get (must be less than the number returned by getOwnerNodeCount).\n  /// @return The address of the Owner's Node at the index.\n  function getOwnerNodeAddrByIndex(address _ownerAddr, uint _index) public view returns (address) {\n    \n    // Avoid index out of bounds exceptions.\n    require(\n      _index < ownerLookup[_ownerAddr].nodeAddrs.length,\n      \"The index supplied was >= the number of the Nodes belonging to the Owner.\"\n    );\n    \n    // Do the lookup and return.\n    return ownerLookup[_ownerAddr].nodeAddrs[_index];\n  }\n  \n  /// @notice Create a new HalfEdge on the graph.\n  /// @param _nodeAddr The address of the Node to which this HalfEdge will belong.\n  /// @param _ipfs The IPFS hash string of the HalfEdge's content file. Must be unique for HalfEdges in the graph. Content must have the same format as the Node.\n  /// @return The address of the new HalfEdge.\n  function createHalfEdge(address _nodeAddr, string _ipfs) external returns (address) {\n    \n    // Make sure msg.sender owns the Node.\n    Node storage node = nodeLookup[_nodeAddr];\n    require(\n      msg.sender == node.ownerAddr,\n      \"You must own this Node to be able to add a HalfEdge to it.\"\n    );\n    \n    // Make sure the Node doesn't already have 6 HalfEdges.\n    require(\n      node.halfEdgeAddrs.length < 6,\n      \"You cannot have more than 6 HalfEdges on one Node.\"\n    );\n    \n    // Make sure _ipfs isn't too small or too huge. Arbitrary, but allows standard Qm+ 46-char hashes.\n    uint hashLength = bytes(_ipfs).length;\n    require(\n      hashLength >= 32 && hashLength <= 64,\n      \"_ipfs must be between 32 and 64 characters long.\"\n    );\n    \n    // Make sure _ipfs isn't already used for a HalfEdge.\n    // The paths connecting the maze of twisty little passages must *not* be all alike.\n    address newHalfEdgeAddr = address(keccak256(abi.encodePacked(_ipfs)));\n    require(\n      uint(halfEdgeLookup[newHalfEdgeAddr].nodeAddr) == 0,\n      \"A HalfEdge with _ipfs already exists!\"\n    );\n    \n    // Instantiate and save the new HalfEdge at its address.\n    halfEdgeLookup[newHalfEdgeAddr] = HalfEdge({\n      nodeAddr: _nodeAddr,\n      ipfs: _ipfs,\n      otherHalfEdgeAddr: address(0)\n    });\n    \n    // Add newHalfEdgeAddr to its Node's halfEdgeAddrs.\n    node.halfEdgeAddrs.push(newHalfEdgeAddr);\n    \n    // Log the creation.\n    emit HalfEdgeCreated(newHalfEdgeAddr, msg.sender);\n    \n    // Finally, hand back the new HalfEdge's address to the caller.\n    return newHalfEdgeAddr;\n  }\n  \n  /// @notice Delete a HalfEdge from the graph.\n  /// @param _halfEdgeAddr The address of the HalfEdge to delete from the graph.\n  function deleteHalfEdge(address _halfEdgeAddr) external {\n    \n    // Get the HalfEdge being deleted. Aren't changing it, but need it a couple of times, so memory.\n    HalfEdge memory halfEdge = halfEdgeLookup[_halfEdgeAddr];\n    \n    // Get the Node of the HalfEdge being deleted. Will be changing its halfEdgeAddrs array, so storage. (unless halfEdgeAddrs storage later makes this unneeded???)\n    Node storage node = nodeLookup[halfEdge.nodeAddr];\n    \n    // Make sure the HalfEdge exists and belongs to msg.sender (can do both checks at once).\n    // Side note: If the HalfEdge doesn't exist, nodeLookup[0x0] will only ever contain 0s unless someone discovers an IPFS hash that hashes to 0x0 :)\n    require (\n      node.ownerAddr == msg.sender,\n      \"You must own this HalfEdge to be able to delete it.\"\n    );\n    \n    // Make sure the HalfEdge isn't connected to another.\n    require (\n      uint(halfEdge.otherHalfEdgeAddr) == 0,\n      \"You must disconnect this HalfEdge from its other half before deleting it.\"\n    );\n    \n    // Delete the HalfEdge from its Node's halfEdgeAddrs array:\n    // ...Get that array as storage because we'll be using it several times, modifying it, and want the changes to stick.\n    address[] storage halfEdgeAddrs = node.halfEdgeAddrs;\n    \n    // ...Check invariant: Nodes always have <= 6 HalfEdges.\n    assert(halfEdgeAddrs.length <= 6);\n    \n    // ...Iterate (up to 6 times) to find index of _halfEdgeAddr in halfEdgeAddrs.\n    uint8 index = 0;\n    for (uint8 i = 0; i < halfEdgeAddrs.length; i++) {\n      if (halfEdgeAddrs[i] == _halfEdgeAddr) {\n        index = i;\n        i = uint8(halfEdgeAddrs.length); // cut out early\n      }\n    }\n    \n    // ...If the HalfEdge is not the last element in the array, swap the last element over top of it.\n    uint8 lastIndex = uint8(halfEdgeAddrs.length - 1);\n    if (index < lastIndex) {\n      halfEdgeAddrs[index] = halfEdgeAddrs[lastIndex];\n    }\n    \n    // ...Either way, then delete the last element and shrink the array.\n    delete halfEdgeAddrs[lastIndex];\n    halfEdgeAddrs.length--;\n    \n    // Delete the HalfEdge from the halfEdgeLookup mapping.\n    delete halfEdgeLookup[_halfEdgeAddr];\n    \n    // Log the deletion.\n    emit HalfEdgeDeleted(_halfEdgeAddr, node.ownerAddr);\n  }\n  \n  /// @notice Get all the addresses of the HalfEdge belonging to the Node with the given address. Returns 0x0 for empty HalfEdge slots.\n  /// @param _nodeAddr The address of the Node to get the HalfEdge addresses for.\n  /// @return halfEdgeAddr0 The address of the 0th HalfEdge, or 0x0 if < 1 HalfEdges.\n  /// @return halfEdgeAddr1 The address of the 1st HalfEdge, or 0x0 if < 2 HalfEdges.\n  /// @return halfEdgeAddr2 The address of the 2nd HalfEdge, or 0x0 if < 3 HalfEdges.\n  /// @return halfEdgeAddr3 The address of the 3rd HalfEdge, or 0x0 if < 4 HalfEdges.\n  /// @return halfEdgeAddr4 The address of the 4th HalfEdge, or 0x0 if < 5 HalfEdges.\n  /// @return halfEdgeAddr5 The address of the 5th HalfEdge, or 0x0 if < 6 HalfEdges.\n  /// @dev Callers are responsible for noticing empty HalfEdge addresses. Someday when dynamic return lengths are possible, this will just return the set of HalfEdge addresses without empty slots...\n  function getNodeHalfEdgeAddrs(address _nodeAddr) external view returns (\n    address halfEdgeAddr0,\n    address halfEdgeAddr1,\n    address halfEdgeAddr2,\n    address halfEdgeAddr3,\n    address halfEdgeAddr4,\n    address halfEdgeAddr5\n  ) {\n    \n    // Look up the Node in question.\n    Node memory node = nodeLookup[_nodeAddr];\n    \n    // Make sure it exists.\n    require(\n        uint(node.ownerAddr) != 0,\n        \"Node does not exist.\"\n    );\n    \n    // Count how many halfEdgeAddrs it has.\n    uint8 len = uint8(node.halfEdgeAddrs.length);\n    \n    // Set our return values: the addresss of each of the up-to-six HalfEdges, or 0x0 if that slot is empty.\n    halfEdgeAddr0 = len > 0 ? node.halfEdgeAddrs[0] : address(0);\n    halfEdgeAddr1 = len > 1 ? node.halfEdgeAddrs[1] : address(0);\n    halfEdgeAddr2 = len > 2 ? node.halfEdgeAddrs[2] : address(0);\n    halfEdgeAddr3 = len > 3 ? node.halfEdgeAddrs[3] : address(0);\n    halfEdgeAddr4 = len > 4 ? node.halfEdgeAddrs[4] : address(0);\n    halfEdgeAddr5 = len > 5 ? node.halfEdgeAddrs[5] : address(0);\n  }\n}\n",
  "sourcePath": "/home/noah/Programs/Javascript/web3/interweave.network/solidity/contracts/interweave-free/InterweaveGraph.sol",
  "compiler": {
    "name": "solc",
    "version": "0.4.24+commit.e67f0147.Emscripten.clang"
  },
  "schemaVersion": "2.0.1",
  "updatedAt": "2018-10-21T00:27:40.421Z"
}