{
  "contractName": "InterweaveProposals",
  "abi": [
    {
      "constant": true,
      "inputs": [
        {
          "name": "_index",
          "type": "uint256"
        }
      ],
      "name": "getSenderNodeKeyByIndex",
      "outputs": [
        {
          "name": "",
          "type": "uint256"
        }
      ],
      "payable": false,
      "stateMutability": "view",
      "type": "function"
    },
    {
      "constant": false,
      "inputs": [
        {
          "name": "_nodeKey",
          "type": "uint256"
        },
        {
          "name": "_ipfs",
          "type": "bytes32[2]"
        }
      ],
      "name": "createHalfEdge",
      "outputs": [],
      "payable": false,
      "stateMutability": "nonpayable",
      "type": "function"
    },
    {
      "constant": false,
      "inputs": [
        {
          "name": "_ipfs",
          "type": "bytes32[2]"
        },
        {
          "name": "_format",
          "type": "uint64"
        }
      ],
      "name": "createNode",
      "outputs": [],
      "payable": false,
      "stateMutability": "nonpayable",
      "type": "function"
    },
    {
      "constant": false,
      "inputs": [
        {
          "name": "_nodeKey",
          "type": "uint256"
        }
      ],
      "name": "deleteNode",
      "outputs": [],
      "payable": false,
      "stateMutability": "nonpayable",
      "type": "function"
    },
    {
      "constant": true,
      "inputs": [
        {
          "name": "_nodeKey",
          "type": "uint256"
        }
      ],
      "name": "getNode",
      "outputs": [
        {
          "name": "owner",
          "type": "address"
        },
        {
          "name": "ipfs",
          "type": "bytes32[2]"
        },
        {
          "name": "format",
          "type": "uint64"
        },
        {
          "name": "halfEdgeKeys",
          "type": "uint256[6]"
        }
      ],
      "payable": false,
      "stateMutability": "view",
      "type": "function"
    },
    {
      "constant": true,
      "inputs": [
        {
          "name": "_ipfs",
          "type": "bytes32[2]"
        }
      ],
      "name": "keyFromIpfs",
      "outputs": [
        {
          "name": "",
          "type": "uint256"
        }
      ],
      "payable": false,
      "stateMutability": "pure",
      "type": "function"
    },
    {
      "constant": true,
      "inputs": [
        {
          "name": "_halfEdgeKey",
          "type": "uint256"
        }
      ],
      "name": "getEdge",
      "outputs": [
        {
          "name": "nodeKey",
          "type": "uint256"
        },
        {
          "name": "ipfs",
          "type": "bytes32[2]"
        },
        {
          "name": "format",
          "type": "uint64"
        },
        {
          "name": "connected",
          "type": "bool"
        },
        {
          "name": "othernodeKey",
          "type": "uint256"
        },
        {
          "name": "otherIpfs",
          "type": "bytes32[2]"
        },
        {
          "name": "otherFormat",
          "type": "uint64"
        }
      ],
      "payable": false,
      "stateMutability": "view",
      "type": "function"
    },
    {
      "constant": false,
      "inputs": [
        {
          "name": "_halfEdgeKey",
          "type": "uint256"
        }
      ],
      "name": "deleteHalfEdge",
      "outputs": [],
      "payable": false,
      "stateMutability": "nonpayable",
      "type": "function"
    },
    {
      "constant": true,
      "inputs": [],
      "name": "getSenderNodeCount",
      "outputs": [
        {
          "name": "",
          "type": "uint256"
        }
      ],
      "payable": false,
      "stateMutability": "view",
      "type": "function"
    },
    {
      "anonymous": false,
      "inputs": [
        {
          "indexed": false,
          "name": "edgeProposalKey",
          "type": "uint256"
        },
        {
          "indexed": false,
          "name": "proposerAddr",
          "type": "address"
        },
        {
          "indexed": true,
          "name": "proposedToKey",
          "type": "address"
        }
      ],
      "name": "EdgeProposalCreated",
      "type": "event"
    },
    {
      "anonymous": false,
      "inputs": [
        {
          "indexed": false,
          "name": "edgeProposalKey",
          "type": "uint256"
        },
        {
          "indexed": false,
          "name": "accepterAddr",
          "type": "address"
        },
        {
          "indexed": true,
          "name": "acceptedKey",
          "type": "address"
        }
      ],
      "name": "EdgeProposalAccepted",
      "type": "event"
    },
    {
      "anonymous": false,
      "inputs": [
        {
          "indexed": false,
          "name": "edgeProposalKey",
          "type": "uint256"
        },
        {
          "indexed": false,
          "name": "rejecterAddr",
          "type": "address"
        },
        {
          "indexed": true,
          "name": "rejectedKey",
          "type": "address"
        }
      ],
      "name": "EdgeProposalRejected",
      "type": "event"
    },
    {
      "anonymous": false,
      "inputs": [
        {
          "indexed": false,
          "name": "nodeKey",
          "type": "uint256"
        },
        {
          "indexed": true,
          "name": "ownerAddr",
          "type": "address"
        }
      ],
      "name": "NodeCreated",
      "type": "event"
    },
    {
      "anonymous": false,
      "inputs": [
        {
          "indexed": false,
          "name": "nodeKey",
          "type": "uint256"
        },
        {
          "indexed": true,
          "name": "ownerAddr",
          "type": "address"
        }
      ],
      "name": "NodeDeleted",
      "type": "event"
    },
    {
      "anonymous": false,
      "inputs": [
        {
          "indexed": false,
          "name": "halfEdgeKey",
          "type": "uint256"
        },
        {
          "indexed": true,
          "name": "ownerAddr",
          "type": "address"
        }
      ],
      "name": "HalfEdgeCreated",
      "type": "event"
    },
    {
      "anonymous": false,
      "inputs": [
        {
          "indexed": false,
          "name": "halfEdgeKey",
          "type": "uint256"
        },
        {
          "indexed": true,
          "name": "ownerAddr",
          "type": "address"
        }
      ],
      "name": "HalfEdgeDeleted",
      "type": "event"
    },
    {
      "constant": false,
      "inputs": [
        {
          "name": "_halfEdgeKey0",
          "type": "uint256"
        },
        {
          "name": "_halfEdgeKey1",
          "type": "uint256"
        }
      ],
      "name": "createEdgeProposal",
      "outputs": [],
      "payable": false,
      "stateMutability": "nonpayable",
      "type": "function"
    },
    {
      "constant": false,
      "inputs": [
        {
          "name": "_edgeProposalKey",
          "type": "uint256"
        }
      ],
      "name": "acceptEdgeProposal",
      "outputs": [],
      "payable": false,
      "stateMutability": "nonpayable",
      "type": "function"
    },
    {
      "constant": false,
      "inputs": [
        {
          "name": "_edgeProposalKey",
          "type": "uint256"
        }
      ],
      "name": "rejectEdgeProposal",
      "outputs": [],
      "payable": false,
      "stateMutability": "nonpayable",
      "type": "function"
    },
    {
      "constant": true,
      "inputs": [
        {
          "name": "_ownerAddr",
          "type": "address"
        }
      ],
      "name": "getOwnerEdgeProposalCount",
      "outputs": [
        {
          "name": "",
          "type": "uint256"
        }
      ],
      "payable": false,
      "stateMutability": "view",
      "type": "function"
    },
    {
      "constant": true,
      "inputs": [
        {
          "name": "_ownerAddr",
          "type": "address"
        },
        {
          "name": "_index",
          "type": "uint256"
        }
      ],
      "name": "getOwnerEdgeProposalKeyByIndex",
      "outputs": [
        {
          "name": "",
          "type": "uint256"
        }
      ],
      "payable": false,
      "stateMutability": "view",
      "type": "function"
    }
  ],
  "bytecode": "0x608060405234801561001057600080fd5b506124e0806100206000396000f3006080604052600436106100d0576000357c0100000000000000000000000000000000000000000000000000000000900463ffffffff16806314724977146100d55780633837c0791461011657806339903ebf1461014d5780633a6b686b1461018457806341d2a256146101c557806348a01dfb146101f25780634f0f4aa9146102535780637240e8be1461033957806385735a6a146103665780639a914c44146103cc5780639ce77229146104b35780639dfb9c4f1461050a578063f55b6e0214610537578063fbbe0bad14610564575b600080fd5b3480156100e157600080fd5b506101006004803603810190808035906020019092919050505061058f565b6040518082815260200191505060405180910390f35b34801561012257600080fd5b5061014b60048036038101908080359060200190929190806040019091929192905050506106fa565b005b34801561015957600080fd5b506101826004803603810190808035906020019092919080359060200190929190505050610bea565b005b34801561019057600080fd5b506101c360048036038101908080604001909192919290803567ffffffffffffffff169060200190929190505050610bee565b005b3480156101d157600080fd5b506101f060048036038101908080359060200190929190505050611013565b005b3480156101fe57600080fd5b5061023d600480360381019080803573ffffffffffffffffffffffffffffffffffffffff16906020019092919080359060200190929190505050611635565b6040518082815260200191505060405180910390f35b34801561025f57600080fd5b5061027e600480360381019080803590602001909291905050506117a1565b604051808573ffffffffffffffffffffffffffffffffffffffff1673ffffffffffffffffffffffffffffffffffffffff16815260200184600260200280838360005b838110156102db5780820151818401526020810190506102c0565b505050509050018367ffffffffffffffff1667ffffffffffffffff16815260200182600660200280838360005b83811015610323578082015181840152602081019050610308565b5050505090500194505050505060405180910390f35b34801561034557600080fd5b5061036460048036038101908080359060200190929190505050611a4e565b005b34801561037257600080fd5b506103b66004803603810190808060400190600280602002604051908101604052809291908260026020028082843782019150505050509192919290505050611a51565b6040518082815260200191505060405180910390f35b3480156103d857600080fd5b506103f760048036038101908080359060200190929190505050611b1e565b6040518088815260200187600260200280838360005b8381101561042857808201518184015260208101905061040d565b505050509050018667ffffffffffffffff1667ffffffffffffffff1681526020018515151515815260200184815260200183600260200280838360005b83811015610480578082015181840152602081019050610465565b505050509050018267ffffffffffffffff1667ffffffffffffffff16815260200197505050505050505060405180910390f35b3480156104bf57600080fd5b506104f4600480360381019080803573ffffffffffffffffffffffffffffffffffffffff169060200190929190505050611d71565b6040518082815260200191505060405180910390f35b34801561051657600080fd5b5061053560048036038101908080359060200190929190505050611dc0565b005b34801561054357600080fd5b5061056260048036038101908080359060200190929190505050611dc3565b005b34801561057057600080fd5b50610579612240565b6040518082815260200191505060405180910390f35b6000600260003373ffffffffffffffffffffffffffffffffffffffff1673ffffffffffffffffffffffffffffffffffffffff1681526020019081526020016000206000018054905082101515610699576040517f08c379a00000000000000000000000000000000000000000000000000000000081526004018080602001828103825260498152602001807f54686520696e64657820737570706c69656420776173203e3d20746865206e7581526020017f6d626572206f6620746865204e6f6465732062656c6f6e67696e6720746f207481526020017f6865204f776e65722e000000000000000000000000000000000000000000000081525060600191505060405180910390fd5b600260003373ffffffffffffffffffffffffffffffffffffffff1673ffffffffffffffffffffffffffffffffffffffff168152602001908152602001600020600001828154811015156106e857fe5b90600052602060002001549050919050565b61070261228d565b600080600085815260200190815260200160002060a060405190810160405290816000820160009054906101000a900473ffffffffffffffffffffffffffffffffffffffff1673ffffffffffffffffffffffffffffffffffffffff1673ffffffffffffffffffffffffffffffffffffffff168152602001600182016002806020026040519081016040528092919082600280156107b8576020028201915b815460001916815260200190600101908083116107a0575b505050505081526020016003820160009054906101000a900467ffffffffffffffff1667ffffffffffffffff1667ffffffffffffffff1681526020016003820160089054906101000a900467ffffffffffffffff1667ffffffffffffffff1667ffffffffffffffff1681526020016004820180548060200260200160405190810160405280929190818152602001828054801561087457602002820191906000526020600020905b815481526020019060010190808311610860575b5050505050815250509150816000015173ffffffffffffffffffffffffffffffffffffffff163373ffffffffffffffffffffffffffffffffffffffff1614151561094c576040517f08c379a000000000000000000000000000000000000000000000000000000000815260040180806020018281038252603a8152602001807f596f75206d757374206f776e2074686973204e6f646520746f2062652061626c81526020017f6520746f2061646420612048616c664564676520746f2069742e00000000000081525060400191505060405180910390fd5b60068260800151511015156109ef576040517f08c379a00000000000000000000000000000000000000000000000000000000081526004018080602001828103825260328152602001807f596f752063616e6e6f742068617665206d6f7265207468616e20362048616c6681526020017f4564676573206f6e206f6e65204e6f64652e000000000000000000000000000081525060400191505060405180910390fd5b610a1d8360028060200260405190810160405280929190826002602002808284378201915050505050611a51565b905060006001600083815260200190815260200160002060000154141515610ad3576040517f08c379a00000000000000000000000000000000000000000000000000000000081526004018080602001828103825260258152602001807f412048616c66456467652077697468205f6970667320616c726561647920657881526020017f697374732100000000000000000000000000000000000000000000000000000081525060400191505060405180910390fd5b606060405190810160405280858152602001600081526020018460028060200260405190810160405280929190826002602002808284378201915050505050815250600160008381526020019081526020016000206000820151816000015560208201518160010155604082015181600201906002610b539291906122ed565b509050506000808581526020019081526020016000206004018190806001815401808255809150509060018203906000526020600020016000909192909190915055503373ffffffffffffffffffffffffffffffffffffffff167f457c78b8b8083478e86e8cad75cd847db8650e3ac3367ac3504f5f7c4e4facdf826040518082815260200191505060405180910390a250505050565b5050565b600080836000600281101515610c0057fe5b6020020135600019166001900414151515610c83576040517f08c379a00000000000000000000000000000000000000000000000000000000081526004018080602001828103825260138152602001807f5f697066735b305d2077617320656d707479210000000000000000000000000081525060200191505060405180910390fd5b610cb18360028060200260405190810160405280929190826002602002808284378201915050505050611a51565b905060008060008381526020019081526020016000206001016000600281101515610cd857fe5b015460019004141515610d79576040517f08c379a00000000000000000000000000000000000000000000000000000000081526004018080602001828103825260218152602001807f41204e6f64652077697468205f6970667320616c72656164792065786973747381526020017f210000000000000000000000000000000000000000000000000000000000000081525060400191505060405180910390fd5b60a0604051908101604052803373ffffffffffffffffffffffffffffffffffffffff168152602001846002806020026040519081016040528092919082600260200280828437820191505050505081526020018367ffffffffffffffff168152602001600260003373ffffffffffffffffffffffffffffffffffffffff1673ffffffffffffffffffffffffffffffffffffffff1681526020019081526020016000206000018054905067ffffffffffffffff1681526020016000604051908082528060200260200182016040528015610e615781602001602082028038833980820191505090505b5081525060008083815260200190815260200160002060008201518160000160006101000a81548173ffffffffffffffffffffffffffffffffffffffff021916908373ffffffffffffffffffffffffffffffffffffffff160217905550602082015181600101906002610ed59291906122ed565b5060408201518160030160006101000a81548167ffffffffffffffff021916908367ffffffffffffffff16021790555060608201518160030160086101000a81548167ffffffffffffffff021916908367ffffffffffffffff1602179055506080820151816004019080519060200190610f50929190612333565b50905050600260003373ffffffffffffffffffffffffffffffffffffffff1673ffffffffffffffffffffffffffffffffffffffff1681526020019081526020016000206000018190806001815401808255809150509060018203906000526020600020016000909192909190915055503373ffffffffffffffffffffffffffffffffffffffff167fef9a38875abd2c44e371e4af5d2f965da6c9dc85ca1ff15a58dd8ddb70089d7e826040518082815260200191505060405180910390a2505050565b61101b61228d565b60008060008060008087815260200190815260200160002060a060405190810160405290816000820160009054906101000a900473ffffffffffffffffffffffffffffffffffffffff1673ffffffffffffffffffffffffffffffffffffffff1673ffffffffffffffffffffffffffffffffffffffff168152602001600182016002806020026040519081016040528092919082600280156110d5576020028201915b815460001916815260200190600101908083116110bd575b505050505081526020016003820160009054906101000a900467ffffffffffffffff1667ffffffffffffffff1667ffffffffffffffff1681526020016003820160089054906101000a900467ffffffffffffffff1667ffffffffffffffff1667ffffffffffffffff1681526020016004820180548060200260200160405190810160405280929190818152602001828054801561119157602002820191906000526020600020905b81548152602001906001019080831161117d575b5050505050815250509450846000015173ffffffffffffffffffffffffffffffffffffffff163373ffffffffffffffffffffffffffffffffffffffff16141515611269576040517f08c379a000000000000000000000000000000000000000000000000000000000815260040180806020018281038252602f8152602001807f596f75206d757374206f776e2074686973204e6f646520746f2062652061626c81526020017f6520746f2064656c6574652069742e000000000000000000000000000000000081525060400191505060405180910390fd5b600093505b8460800151518460ff1610156113835760006001600087608001518760ff1681518110151561129957fe5b90602001906020020151815260200190815260200160002060010154141515611376576040517f08c379a00000000000000000000000000000000000000000000000000000000081526004018080602001828103825260468152602001807f596f75206d75737420646973636f6e6e6563742074686973204e6f646520667281526020017f6f6d20616c6c206f74686572204e6f646573206265666f72652064656c65746981526020017f6e672069742e000000000000000000000000000000000000000000000000000081525060600191505060405180910390fd5b838060010194505061126e565b600093505b8460800151518460ff1610156113f9576001600086608001518660ff168151811015156113b157fe5b90602001906020020151815260200190815260200160002060008082016000905560018201600090556002820160006113ea9190612380565b50508380600101945050611388565b600260003373ffffffffffffffffffffffffffffffffffffffff1673ffffffffffffffffffffffffffffffffffffffff168152602001908152602001600020600001925084606001519150600183805490500390508067ffffffffffffffff168267ffffffffffffffff16101561151257828167ffffffffffffffff1681548110151561148257fe5b9060005260206000200154838367ffffffffffffffff168154811015156114a557fe5b906000526020600020018190555081600080858567ffffffffffffffff168154811015156114cf57fe5b9060005260206000200154815260200190815260200160002060030160086101000a81548167ffffffffffffffff021916908367ffffffffffffffff1602179055505b828167ffffffffffffffff1681548110151561152a57fe5b90600052602060002001600090558280548091906001900361154c919061238e565b50600080878152602001908152602001600020600080820160006101000a81549073ffffffffffffffffffffffffffffffffffffffff02191690556001820160006115979190612380565b6003820160006101000a81549067ffffffffffffffff02191690556003820160086101000a81549067ffffffffffffffff02191690556004820160006115dd91906123ba565b50503373ffffffffffffffffffffffffffffffffffffffff167fabb39a19e31157f336be7f5ea824d929074835335c7c8e16966dd0c035def988876040518082815260200191505060405180910390a2505050505050565b6000600260008473ffffffffffffffffffffffffffffffffffffffff1673ffffffffffffffffffffffffffffffffffffffff168152602001908152602001600020600101805490508210151561173f576040517f08c379a000000000000000000000000000000000000000000000000000000000815260040180806020018281038252604d8152602001807f54686520696e64657820737570706c69656420776173203e3d20746865206e7581526020017f6d626572206f66204564676550726f706f73616c732062656c6f6e67696e672081526020017f746f20746865204f776e65722e0000000000000000000000000000000000000081525060600191505060405180910390fd5b600260008473ffffffffffffffffffffffffffffffffffffffff1673ffffffffffffffffffffffffffffffffffffffff1681526020019081526020016000206001018281548110151561178e57fe5b9060005260206000200154905092915050565b60006117ab6123db565b60006117b56123fd565b6117bd61228d565b60008060008089815260200190815260200160002060a060405190810160405290816000820160009054906101000a900473ffffffffffffffffffffffffffffffffffffffff1673ffffffffffffffffffffffffffffffffffffffff1673ffffffffffffffffffffffffffffffffffffffff16815260200160018201600280602002604051908101604052809291908260028015611874576020028201915b8154600019168152602001906001019080831161185c575b505050505081526020016003820160009054906101000a900467ffffffffffffffff1667ffffffffffffffff1667ffffffffffffffff1681526020016003820160089054906101000a900467ffffffffffffffff1667ffffffffffffffff1667ffffffffffffffff1681526020016004820180548060200260200160405190810160405280929190818152602001828054801561193057602002820191906000526020600020905b81548152602001906001019080831161191c575b50505050508152505092506000836000015173ffffffffffffffffffffffffffffffffffffffff16141515156119ce576040517f08c379a00000000000000000000000000000000000000000000000000000000081526004018080602001828103825260148152602001807f4e6f646520646f6573206e6f742065786973742e00000000000000000000000081525060200191505060405180910390fd5b8260000151965082602001519550826040015194508260800151519150600090505b8160ff168160ff161015611a445782608001518160ff16815181101515611a1357fe5b90602001906020020151848260ff16600681101515611a2e57fe5b60200201818152505080806001019150506119f0565b5050509193509193565b50565b6000816000600281101515611a6257fe5b6020020151826001600281101515611a7657fe5b60200201516040516020018083600019166000191681526020018260001916600019168152602001925050506040516020818303038152906040526040518082805190602001908083835b602083101515611ae65780518252602082019150602081019050602083039250611ac1565b6001836020036101000a0380198251168184511680821785525050505050509050019150506040518091039020600190049050919050565b6000611b286123db565b6000806000611b356123db565b6000611b3f612420565b611b47612420565b600160008b815260200190815260200160002060606040519081016040529081600082015481526020016001820154815260200160028201600280602002604051908101604052809291908260028015611bba576020028201915b81546000191681526020019060010190808311611ba2575b50505050508152505091506000826000015114151515611c42576040517f08c379a00000000000000000000000000000000000000000000000000000000081526004018080602001828103825260188152602001807f48616c664564676520646f6573206e6f742065786973742e000000000000000081525060200191505060405180910390fd5b81600001519850816040015197506000808360000151815260200190815260200160002060030160009054906101000a900467ffffffffffffffff16965060008260200151141515611d6457600160008360200151815260200190815260200160002060606040519081016040529081600082015481526020016001820154815260200160028201600280602002604051908101604052809291908260028015611d05576020028201915b81546000191681526020019060010190808311611ced575b50505050508152505090506000816000015114151515611d2157fe5b6001955080600001519450806040015193506000808260000151815260200190815260200160002060030160009054906101000a900467ffffffffffffffff1692505b5050919395979092949650565b6000600260008373ffffffffffffffffffffffffffffffffffffffff1673ffffffffffffffffffffffffffffffffffffffff168152602001908152602001600020600101805490509050919050565b50565b611dcb612420565b60008060008060006001600088815260200190815260200160002060606040519081016040529081600082015481526020016001820154815260200160028201600280602002604051908101604052809291908260028015611e46576020028201915b81546000191681526020019060010190808311611e2e575b50505050508152505095506000866000015114151515611ef4576040517f08c379a000000000000000000000000000000000000000000000000000000000815260040180806020018281038252602f8152602001807f5468652048616c6645646765206d75737420657869737420696e206f7264657281526020017f20746f2062652064656c657465642e000000000000000000000000000000000081525060400191505060405180910390fd5b60008660200151141515611fbc576040517f08c379a00000000000000000000000000000000000000000000000000000000081526004018080602001828103825260498152602001807f596f75206d75737420646973636f6e6e65637420746869732048616c6645646781526020017f652066726f6d20697473206f746865722068616c66206265666f72652064656c81526020017f6574696e672069742e000000000000000000000000000000000000000000000081525060600191505060405180910390fd5b6000808760000151815260200190815260200160002094508460000160009054906101000a900473ffffffffffffffffffffffffffffffffffffffff1673ffffffffffffffffffffffffffffffffffffffff163373ffffffffffffffffffffffffffffffffffffffff161415156120c1576040517f08c379a00000000000000000000000000000000000000000000000000000000081526004018080602001828103825260338152602001807f596f75206d757374206f776e20746869732048616c664564676520746f20626581526020017f2061626c6520746f2064656c6574652069742e0000000000000000000000000081525060400191505060405180910390fd5b84600401935060068480549050111515156120d857fe5b60009250600091505b83805490508260ff16101561212b5786848360ff1681548110151561210257fe5b9060005260206000200154141561211e57819250838054905091505b81806001019250506120e1565b600184805490500390508060ff168360ff16101561217f57838160ff1681548110151561215457fe5b9060005260206000200154848460ff1681548110151561217057fe5b90600052602060002001819055505b838160ff1681548110151561219057fe5b9060005260206000200160009055838054809190600190036121b2919061238e565b506001600088815260200190815260200160002060008082016000905560018201600090556002820160006121e79190612380565b50503373ffffffffffffffffffffffffffffffffffffffff167f3bfdab3de844a3c8438353ebea62178a346333e14981a2486c6e244591e3eebb886040518082815260200191505060405180910390a250505050505050565b6000600260003373ffffffffffffffffffffffffffffffffffffffff1673ffffffffffffffffffffffffffffffffffffffff16815260200190815260200160002060000180549050905090565b60c060405190810160405280600073ffffffffffffffffffffffffffffffffffffffff1681526020016122be612448565b8152602001600067ffffffffffffffff168152602001600067ffffffffffffffff168152602001606081525090565b8260028101928215612322579160200282015b82811115612321578251829060001916905591602001919060010190612300565b5b50905061232f919061246a565b5090565b82805482825590600052602060002090810192821561236f579160200282015b8281111561236e578251825591602001919060010190612353565b5b50905061237c919061248f565b5090565b506000815560010160009055565b8154818355818111156123b5578183600052602060002091820191016123b4919061248f565b5b505050565b50805460008255906000526020600020908101906123d8919061248f565b50565b6040805190810160405280600290602082028038833980820191505090505090565b60c060405190810160405280600690602082028038833980820191505090505090565b6080604051908101604052806000815260200160008152602001612442612448565b81525090565b6040805190810160405280600290602082028038833980820191505090505090565b61248c91905b80821115612488576000816000905550600101612470565b5090565b90565b6124b191905b808211156124ad576000816000905550600101612495565b5090565b905600a165627a7a723058204fde3015b57835b69f640903f8c1af855e68170b58bb8f349750a8cbf197e5270029",
  "source": "pragma solidity ^0.4.24;\nimport \"./InterweaveGraph.sol\";\n\ncontract InterweaveProposals is InterweaveGraph {\n  \n  /// @notice EdgeProposal struct represents a proposal to connect or disconnect two Nodes via two HalfEdges belonging to them. halfEdgeKey0 belongs to the proposer.\n  struct EdgeProposal {\n    uint256 halfEdgeKey0;\n    uint256 halfEdgeKey1;\n  }\n  \n  /// @notice An EdgeProposal was created.\n  /// @param edgeProposalKey The uint256 key of the created EdgeProposal.\n  /// @param proposerAddr The Ethereum address of the Owner who created the EdgeProposal.\n  /// @param proposedToKey The Ethereum address of the Owner who is the counterparty on the EdgeProposal.\n  event EdgeProposalCreated(uint256 edgeProposalKey, address proposerAddr, address indexed proposedToKey);\n  \n  /// @notice An EdgeProposal was accepted, connecting or disconnecting two Nodes.\n  /// @param edgeProposalKey The uint256 key of the accepted EdgeProposal (which will have been deleted).\n  /// @param accepterAddr The Ethereum address of the Owner who accepted the EdgeProposal.\n  /// @param acceptedKey The Ethereum address of the Owner whose EdgeProposal was accepted.\n  event EdgeProposalAccepted(uint256 edgeProposalKey, address accepterAddr, address indexed acceptedKey);\n  \n  /// @notice An EdgeProposal was rejected.\n  /// @param edgeProposalKey The uint256 key of the rejected EdgeProposal (which will have been deleted).\n  /// @param rejecterAddr The Ethereum address of the Owner who rejected the EdgeProposal.\n  /// @param rejectedKey The Ethereum address of the Owner who was the counterparty on the EdgeProposal.\n  event EdgeProposalRejected(uint256 edgeProposalKey, address rejecterAddr, address indexed rejectedKey);\n  \n  /// @notice A mapping allowing lookup of EdgeProposals by their keys.\n  /// @dev EdgeProposal keys = uint256(kekkac(halfEdgeKey0, halfEdgeKey1))\n  mapping (uint256 => EdgeProposal) internal edgeProposalLookup;\n  \n  function createEdgeProposal(uint256 _halfEdgeKey0, uint256 _halfEdgeKey1) external {\n    /*\n    - require NodeLookup[HalfEdgeLookup[halfEdgeKey0].node].owner == msg.sender (you can't propose from someone else's node)\n    - require neither already connected, or are both already connected to each other (for a disconnection)\n    - make new Proposal {\n      halfEdgeKey0,\n      halfEdgeKey1\n    }\n    - Put it in OwnerEdgeProposals[yourKey] and OwnerEdgeProposals[theirKey]\n    */\n  }\n  \n  function acceptEdgeProposal(uint256 _edgeProposalKey) external {\n    /*\n    - require proposalLookup[proposalKey] !== 0\n    - require NodeLookup[HalfEdgeLookup[proposal.halfEdgeKey0].node].owner !== msg.sender (you can't accept your own proposal)\n    - Delete the Proposal from proposalLookup\n    - Delete proposalKey from, and compactify, the two OwnerLookup[msg.sender or otherNodeOwner].proposals (proposal's time is up, whatever happens next)\n    - If neither halfEdge slot contains the other:\n      - Connect them\n    - Else if both HalfEdge slots contain the other:\n      - Disconnect them\n    - Else:\n      - Situation where either or both halfEdges have already connected to other ones. Proposal is worthless, so do nothing; it's already deleted.\n    */\n  }\n  \n  function rejectEdgeProposal(uint256 _edgeProposalKey) external {\n    /*\n    - require proposalLookup[proposalKey] !== 0\n    - Delete proposalKey from, and compactify, the two OwnerLookup[msg.sender or otherNodeOwner].proposals\n    - Delete the Proposal from proposalLookup\n    */\n  }\n  \n  function getOwnerEdgeProposalCount(address _ownerAddr) public view returns (uint256) {\n    return ownerLookup[_ownerAddr].edgeProposalKeys.length;\n  }\n  \n  function getOwnerEdgeProposalKeyByIndex(address _ownerAddr, uint256 _index) public view returns (uint256) {\n    require(\n      _index < ownerLookup[_ownerAddr].edgeProposalKeys.length,\n      \"The index supplied was >= the number of EdgeProposals belonging to the Owner.\"\n    );\n    \n    return ownerLookup[_ownerAddr].edgeProposalKeys[_index];\n  }\n}\n",
  "sourcePath": "/home/noah/Programs/Javascript/web3/interweave.network/solidity/contracts/interweave-free/InterweaveProposals.sol",
  "compiler": {
    "name": "solc",
    "version": "0.4.24+commit.e67f0147.Emscripten.clang"
  },
  "schemaVersion": "2.0.1",
  "updatedAt": "2018-10-22T02:23:29.623Z"
}