{
  "contractName": "InterweaveProposals",
  "abi": [
    {
      "constant": false,
      "inputs": [
        {
          "name": "_nodeAddr",
          "type": "address"
        }
      ],
      "name": "deleteNode",
      "outputs": [],
      "payable": false,
      "stateMutability": "nonpayable",
      "type": "function"
    },
    {
      "constant": false,
      "inputs": [
        {
          "name": "_ipfs",
          "type": "bytes32[2]"
        },
        {
          "name": "_format",
          "type": "uint64"
        }
      ],
      "name": "createNode",
      "outputs": [
        {
          "name": "",
          "type": "address"
        }
      ],
      "payable": false,
      "stateMutability": "nonpayable",
      "type": "function"
    },
    {
      "constant": true,
      "inputs": [
        {
          "name": "_index",
          "type": "uint256"
        }
      ],
      "name": "getSenderNodeAddrByIndex",
      "outputs": [
        {
          "name": "",
          "type": "address"
        }
      ],
      "payable": false,
      "stateMutability": "view",
      "type": "function"
    },
    {
      "constant": false,
      "inputs": [
        {
          "name": "_halfEdgeAddr",
          "type": "address"
        }
      ],
      "name": "deleteHalfEdge",
      "outputs": [],
      "payable": false,
      "stateMutability": "nonpayable",
      "type": "function"
    },
    {
      "constant": true,
      "inputs": [
        {
          "name": "_halfEdgeAddr",
          "type": "address"
        }
      ],
      "name": "getEdge",
      "outputs": [
        {
          "name": "nodeAddr",
          "type": "address"
        },
        {
          "name": "ipfs",
          "type": "bytes32[2]"
        },
        {
          "name": "format",
          "type": "uint64"
        },
        {
          "name": "connected",
          "type": "bool"
        },
        {
          "name": "otherNodeAddr",
          "type": "address"
        },
        {
          "name": "otherIpfs",
          "type": "bytes32[2]"
        },
        {
          "name": "otherFormat",
          "type": "uint64"
        }
      ],
      "payable": false,
      "stateMutability": "view",
      "type": "function"
    },
    {
      "constant": true,
      "inputs": [
        {
          "name": "",
          "type": "address"
        }
      ],
      "name": "edgeProposalLookup",
      "outputs": [
        {
          "name": "halfEdgeAddr0",
          "type": "address"
        },
        {
          "name": "halfEdgeAddr1",
          "type": "address"
        }
      ],
      "payable": false,
      "stateMutability": "view",
      "type": "function"
    },
    {
      "constant": true,
      "inputs": [
        {
          "name": "_nodeAddr",
          "type": "address"
        }
      ],
      "name": "getNode",
      "outputs": [
        {
          "name": "owner",
          "type": "address"
        },
        {
          "name": "ipfs",
          "type": "bytes32[2]"
        },
        {
          "name": "format",
          "type": "uint64"
        },
        {
          "name": "halfEdgeAddrs",
          "type": "address[6]"
        }
      ],
      "payable": false,
      "stateMutability": "view",
      "type": "function"
    },
    {
      "constant": true,
      "inputs": [
        {
          "name": "_ipfs",
          "type": "bytes32[2]"
        }
      ],
      "name": "addressFromIpfs",
      "outputs": [
        {
          "name": "",
          "type": "address"
        }
      ],
      "payable": false,
      "stateMutability": "pure",
      "type": "function"
    },
    {
      "constant": false,
      "inputs": [
        {
          "name": "_nodeAddr",
          "type": "address"
        },
        {
          "name": "_ipfs",
          "type": "bytes32[2]"
        }
      ],
      "name": "createHalfEdge",
      "outputs": [
        {
          "name": "",
          "type": "address"
        }
      ],
      "payable": false,
      "stateMutability": "nonpayable",
      "type": "function"
    },
    {
      "constant": true,
      "inputs": [],
      "name": "getSenderNodeCount",
      "outputs": [
        {
          "name": "",
          "type": "uint256"
        }
      ],
      "payable": false,
      "stateMutability": "view",
      "type": "function"
    },
    {
      "anonymous": false,
      "inputs": [
        {
          "indexed": false,
          "name": "edgeProposalAddr",
          "type": "address"
        },
        {
          "indexed": false,
          "name": "proposerAddr",
          "type": "address"
        },
        {
          "indexed": true,
          "name": "proposedToAddr",
          "type": "address"
        }
      ],
      "name": "EdgeProposalCreated",
      "type": "event"
    },
    {
      "anonymous": false,
      "inputs": [
        {
          "indexed": false,
          "name": "edgeProposalAddr",
          "type": "address"
        },
        {
          "indexed": false,
          "name": "accepterAddr",
          "type": "address"
        },
        {
          "indexed": true,
          "name": "acceptedAddr",
          "type": "address"
        }
      ],
      "name": "EdgeProposalAccepted",
      "type": "event"
    },
    {
      "anonymous": false,
      "inputs": [
        {
          "indexed": false,
          "name": "edgeProposalAddr",
          "type": "address"
        },
        {
          "indexed": false,
          "name": "rejecterAddr",
          "type": "address"
        },
        {
          "indexed": true,
          "name": "rejectedAddr",
          "type": "address"
        }
      ],
      "name": "EdgeProposalRejected",
      "type": "event"
    },
    {
      "anonymous": false,
      "inputs": [
        {
          "indexed": false,
          "name": "nodeAddr",
          "type": "address"
        },
        {
          "indexed": true,
          "name": "ownerAddr",
          "type": "address"
        }
      ],
      "name": "NodeCreated",
      "type": "event"
    },
    {
      "anonymous": false,
      "inputs": [
        {
          "indexed": false,
          "name": "nodeAddr",
          "type": "address"
        },
        {
          "indexed": true,
          "name": "ownerAddr",
          "type": "address"
        }
      ],
      "name": "NodeDeleted",
      "type": "event"
    },
    {
      "anonymous": false,
      "inputs": [
        {
          "indexed": false,
          "name": "halfEdgeAddr",
          "type": "address"
        },
        {
          "indexed": true,
          "name": "ownerAddr",
          "type": "address"
        }
      ],
      "name": "HalfEdgeCreated",
      "type": "event"
    },
    {
      "anonymous": false,
      "inputs": [
        {
          "indexed": false,
          "name": "halfEdgeAddr",
          "type": "address"
        },
        {
          "indexed": true,
          "name": "ownerAddr",
          "type": "address"
        }
      ],
      "name": "HalfEdgeDeleted",
      "type": "event"
    },
    {
      "constant": false,
      "inputs": [
        {
          "name": "_halfEdgeAddr0",
          "type": "address"
        },
        {
          "name": "_halfEdgeAddr1",
          "type": "address"
        }
      ],
      "name": "createEdgeProposal",
      "outputs": [
        {
          "name": "",
          "type": "address"
        }
      ],
      "payable": false,
      "stateMutability": "nonpayable",
      "type": "function"
    },
    {
      "constant": false,
      "inputs": [
        {
          "name": "_edgeProposalAddr",
          "type": "address"
        }
      ],
      "name": "acceptEdgeProposal",
      "outputs": [],
      "payable": false,
      "stateMutability": "nonpayable",
      "type": "function"
    },
    {
      "constant": false,
      "inputs": [
        {
          "name": "_edgeProposalAddr",
          "type": "address"
        }
      ],
      "name": "rejectEdgeProposal",
      "outputs": [],
      "payable": false,
      "stateMutability": "nonpayable",
      "type": "function"
    },
    {
      "constant": true,
      "inputs": [
        {
          "name": "_ownerAddr",
          "type": "address"
        }
      ],
      "name": "getOwnerEdgeProposalCount",
      "outputs": [
        {
          "name": "",
          "type": "uint256"
        }
      ],
      "payable": false,
      "stateMutability": "view",
      "type": "function"
    },
    {
      "constant": true,
      "inputs": [
        {
          "name": "_ownerAddr",
          "type": "address"
        },
        {
          "name": "_index",
          "type": "uint256"
        }
      ],
      "name": "getOwnerEdgeProposalAddrByIndex",
      "outputs": [
        {
          "name": "",
          "type": "address"
        }
      ],
      "payable": false,
      "stateMutability": "view",
      "type": "function"
    }
  ],
  "bytecode": "0x608060405234801561001057600080fd5b506133bf806100206000396000f3006080604052600436106100db576000357c0100000000000000000000000000000000000000000000000000000000900463ffffffff1680632d4ede93146100e05780633a6b686b146101235780634164fb7f146101a4578063520097ca146101e757806359a64623146102545780636b6e0558146102e157806380aaf0051461032457806382eedd221461047957806393a5f26d1461052f5780639ce77229146105725780639d209048146105c95780639d40d9c5146106c5578063b987637814610757578063d6134beb146107e4578063fbbe0bad14610887575b600080fd5b3480156100ec57600080fd5b50610121600480360381019080803573ffffffffffffffffffffffffffffffffffffffff1690602001909291905050506108b2565b005b34801561012f57600080fd5b5061016260048036038101908080604001909192919290803567ffffffffffffffff16906020019092919050505061111f565b604051808273ffffffffffffffffffffffffffffffffffffffff1673ffffffffffffffffffffffffffffffffffffffff16815260200191505060405180910390f35b3480156101b057600080fd5b506101e5600480360381019080803573ffffffffffffffffffffffffffffffffffffffff169060200190929190505050611609565b005b3480156101f357600080fd5b506102126004803603810190808035906020019092919050505061160c565b604051808273ffffffffffffffffffffffffffffffffffffffff1673ffffffffffffffffffffffffffffffffffffffff16815260200191505060405180910390f35b34801561026057600080fd5b5061029f600480360381019080803573ffffffffffffffffffffffffffffffffffffffff16906020019092919080359060200190929190505050611797565b604051808273ffffffffffffffffffffffffffffffffffffffff1673ffffffffffffffffffffffffffffffffffffffff16815260200191505060405180910390f35b3480156102ed57600080fd5b50610322600480360381019080803573ffffffffffffffffffffffffffffffffffffffff169060200190929190505050611923565b005b34801561033057600080fd5b50610365600480360381019080803573ffffffffffffffffffffffffffffffffffffffff169060200190929190505050612017565b604051808873ffffffffffffffffffffffffffffffffffffffff1673ffffffffffffffffffffffffffffffffffffffff16815260200187600260200280838360005b838110156103c25780820151818401526020810190506103a7565b505050509050018667ffffffffffffffff1667ffffffffffffffff168152602001851515151581526020018473ffffffffffffffffffffffffffffffffffffffff1673ffffffffffffffffffffffffffffffffffffffff16815260200183600260200280838360005b8381101561044657808201518184015260208101905061042b565b505050509050018267ffffffffffffffff1667ffffffffffffffff16815260200197505050505050505060405180910390f35b34801561048557600080fd5b506104ba600480360381019080803573ffffffffffffffffffffffffffffffffffffffff16906020019092919050505061248c565b604051808373ffffffffffffffffffffffffffffffffffffffff1673ffffffffffffffffffffffffffffffffffffffff1681526020018273ffffffffffffffffffffffffffffffffffffffff1673ffffffffffffffffffffffffffffffffffffffff1681526020019250505060405180910390f35b34801561053b57600080fd5b50610570600480360381019080803573ffffffffffffffffffffffffffffffffffffffff1690602001909291905050506124f0565b005b34801561057e57600080fd5b506105b3600480360381019080803573ffffffffffffffffffffffffffffffffffffffff1690602001909291905050506124f3565b6040518082815260200191505060405180910390f35b3480156105d557600080fd5b5061060a600480360381019080803573ffffffffffffffffffffffffffffffffffffffff169060200190929190505050612542565b604051808573ffffffffffffffffffffffffffffffffffffffff1673ffffffffffffffffffffffffffffffffffffffff16815260200184600260200280838360005b8381101561066757808201518184015260208101905061064c565b505050509050018367ffffffffffffffff1667ffffffffffffffff16815260200182600660200280838360005b838110156106af578082015181840152602081019050610694565b5050505090500194505050505060405180910390f35b3480156106d157600080fd5b50610715600480360381019080806040019060028060200260405190810160405280929190826002602002808284378201915050505050919291929050505061287f565b604051808273ffffffffffffffffffffffffffffffffffffffff1673ffffffffffffffffffffffffffffffffffffffff16815260200191505060405180910390f35b34801561076357600080fd5b506107a2600480360381019080803573ffffffffffffffffffffffffffffffffffffffff1690602001909291908060400190919291929050505061294c565b604051808273ffffffffffffffffffffffffffffffffffffffff1673ffffffffffffffffffffffffffffffffffffffff16815260200191505060405180910390f35b3480156107f057600080fd5b50610845600480360381019080803573ffffffffffffffffffffffffffffffffffffffff169060200190929190803573ffffffffffffffffffffffffffffffffffffffff16906020019092919050505061306b565b604051808273ffffffffffffffffffffffffffffffffffffffff1673ffffffffffffffffffffffffffffffffffffffff16815260200191505060405180910390f35b34801561089357600080fd5b5061089c613073565b6040518082815260200191505060405180910390f35b6108ba6130c0565b6000806000806000808773ffffffffffffffffffffffffffffffffffffffff1673ffffffffffffffffffffffffffffffffffffffff16815260200190815260200160002060a060405190810160405290816000820160009054906101000a900473ffffffffffffffffffffffffffffffffffffffff1673ffffffffffffffffffffffffffffffffffffffff1673ffffffffffffffffffffffffffffffffffffffff168152602001600182016002806020026040519081016040528092919082600280156109a0576020028201915b81546000191681526020019060010190808311610988575b505050505081526020016003820160009054906101000a900467ffffffffffffffff1667ffffffffffffffff1667ffffffffffffffff1681526020016003820160089054906101000a900467ffffffffffffffff1667ffffffffffffffff1667ffffffffffffffff16815260200160048201805480602002602001604051908101604052809291908181526020018280548015610a9257602002820191906000526020600020905b8160009054906101000a900473ffffffffffffffffffffffffffffffffffffffff1673ffffffffffffffffffffffffffffffffffffffff1681526020019060010190808311610a48575b5050505050815250509450846000015173ffffffffffffffffffffffffffffffffffffffff163373ffffffffffffffffffffffffffffffffffffffff16141515610b6a576040517f08c379a000000000000000000000000000000000000000000000000000000000815260040180806020018281038252602f8152602001807f596f75206d757374206f776e2074686973204e6f646520746f2062652061626c81526020017f6520746f2064656c6574652069742e000000000000000000000000000000000081525060400191505060405180910390fd5b600093505b8460800151518460ff161015610ce65760006001600087608001518760ff16815181101515610b9a57fe5b9060200190602002015173ffffffffffffffffffffffffffffffffffffffff1673ffffffffffffffffffffffffffffffffffffffff16815260200190815260200160002060010160009054906101000a900473ffffffffffffffffffffffffffffffffffffffff1673ffffffffffffffffffffffffffffffffffffffff16141515610cd9576040517f08c379a00000000000000000000000000000000000000000000000000000000081526004018080602001828103825260468152602001807f596f75206d75737420646973636f6e6e6563742074686973204e6f646520667281526020017f6f6d20616c6c206f74686572204e6f646573206265666f72652064656c65746981526020017f6e672069742e000000000000000000000000000000000000000000000000000081525060600191505060405180910390fd5b8380600101945050610b6f565b600093505b8460800151518460ff161015610dc6576001600086608001518660ff16815181101515610d1457fe5b9060200190602002015173ffffffffffffffffffffffffffffffffffffffff1673ffffffffffffffffffffffffffffffffffffffff168152602001908152602001600020600080820160006101000a81549073ffffffffffffffffffffffffffffffffffffffff02191690556001820160006101000a81549073ffffffffffffffffffffffffffffffffffffffff0219169055600282016000610db79190613120565b50508380600101945050610ceb565b600260003373ffffffffffffffffffffffffffffffffffffffff1673ffffffffffffffffffffffffffffffffffffffff168152602001908152602001600020600001925084606001519150600183805490500390508067ffffffffffffffff168267ffffffffffffffff161015610f8557828167ffffffffffffffff16815481101515610e4f57fe5b9060005260206000200160009054906101000a900473ffffffffffffffffffffffffffffffffffffffff16838367ffffffffffffffff16815481101515610e9257fe5b9060005260206000200160006101000a81548173ffffffffffffffffffffffffffffffffffffffff021916908373ffffffffffffffffffffffffffffffffffffffff16021790555081600080858567ffffffffffffffff16815481101515610ef657fe5b9060005260206000200160009054906101000a900473ffffffffffffffffffffffffffffffffffffffff1673ffffffffffffffffffffffffffffffffffffffff1673ffffffffffffffffffffffffffffffffffffffff16815260200190815260200160002060030160086101000a81548167ffffffffffffffff021916908367ffffffffffffffff1602179055505b828167ffffffffffffffff16815481101515610f9d57fe5b9060005260206000200160006101000a81549073ffffffffffffffffffffffffffffffffffffffff021916905582805480919060019003610fde919061312e565b506000808773ffffffffffffffffffffffffffffffffffffffff1673ffffffffffffffffffffffffffffffffffffffff168152602001908152602001600020600080820160006101000a81549073ffffffffffffffffffffffffffffffffffffffff02191690556001820160006110559190613120565b6003820160006101000a81549067ffffffffffffffff02191690556003820160086101000a81549067ffffffffffffffff021916905560048201600061109b919061315a565b50503373ffffffffffffffffffffffffffffffffffffffff167ff5cb8d0b3620fe2e4999eb1a206651c4dc3d802e8e8629cb9f91d7a983cdbf2d87604051808273ffffffffffffffffffffffffffffffffffffffff1673ffffffffffffffffffffffffffffffffffffffff16815260200191505060405180910390a2505050505050565b600080600084600060028110151561113357fe5b60200201356000191660019004141515156111b6576040517f08c379a00000000000000000000000000000000000000000000000000000000081526004018080602001828103825260138152602001807f5f697066735b305d2077617320656d707479210000000000000000000000000081525060200191505060405180910390fd5b6111e4846002806020026040519081016040528092919082600260200280828437820191505050505061287f565b905060008060008373ffffffffffffffffffffffffffffffffffffffff1673ffffffffffffffffffffffffffffffffffffffff168152602001908152602001600020600101600060028110151561123757fe5b0154600190041415156112d8576040517f08c379a00000000000000000000000000000000000000000000000000000000081526004018080602001828103825260218152602001807f41204e6f64652077697468205f6970667320616c72656164792065786973747381526020017f210000000000000000000000000000000000000000000000000000000000000081525060400191505060405180910390fd5b60a0604051908101604052803373ffffffffffffffffffffffffffffffffffffffff168152602001856002806020026040519081016040528092919082600260200280828437820191505050505081526020018467ffffffffffffffff168152602001600260003373ffffffffffffffffffffffffffffffffffffffff1673ffffffffffffffffffffffffffffffffffffffff1681526020019081526020016000206000018054905067ffffffffffffffff16815260200160006040519080825280602002602001820160405280156113c05781602001602082028038833980820191505090505b508152506000808373ffffffffffffffffffffffffffffffffffffffff1673ffffffffffffffffffffffffffffffffffffffff16815260200190815260200160002060008201518160000160006101000a81548173ffffffffffffffffffffffffffffffffffffffff021916908373ffffffffffffffffffffffffffffffffffffffff16021790555060208201518160010190600261146092919061317b565b5060408201518160030160006101000a81548167ffffffffffffffff021916908367ffffffffffffffff16021790555060608201518160030160086101000a81548167ffffffffffffffff021916908367ffffffffffffffff16021790555060808201518160040190805190602001906114db9291906131c1565b50905050600260003373ffffffffffffffffffffffffffffffffffffffff1673ffffffffffffffffffffffffffffffffffffffff1681526020019081526020016000206000018190806001815401808255809150509060018203906000526020600020016000909192909190916101000a81548173ffffffffffffffffffffffffffffffffffffffff021916908373ffffffffffffffffffffffffffffffffffffffff160217905550503373ffffffffffffffffffffffffffffffffffffffff167fc503d6de4e943f746e1f7700e3c6faf7d93c049ded69b4b4796fed306f044cbc82604051808273ffffffffffffffffffffffffffffffffffffffff1673ffffffffffffffffffffffffffffffffffffffff16815260200191505060405180910390a28091505092915050565b50565b6000600260003373ffffffffffffffffffffffffffffffffffffffff1673ffffffffffffffffffffffffffffffffffffffff1681526020019081526020016000206000018054905082101515611716576040517f08c379a00000000000000000000000000000000000000000000000000000000081526004018080602001828103825260498152602001807f54686520696e64657820737570706c69656420776173203e3d20746865206e7581526020017f6d626572206f6620746865204e6f6465732062656c6f6e67696e6720746f207481526020017f6865204f776e65722e000000000000000000000000000000000000000000000081525060600191505060405180910390fd5b600260003373ffffffffffffffffffffffffffffffffffffffff1673ffffffffffffffffffffffffffffffffffffffff1681526020019081526020016000206000018281548110151561176557fe5b9060005260206000200160009054906101000a900473ffffffffffffffffffffffffffffffffffffffff169050919050565b6000600260008473ffffffffffffffffffffffffffffffffffffffff1673ffffffffffffffffffffffffffffffffffffffff16815260200190815260200160002060010180549050821015156118a1576040517f08c379a000000000000000000000000000000000000000000000000000000000815260040180806020018281038252604d8152602001807f54686520696e64657820737570706c69656420776173203e3d20746865206e7581526020017f6d626572206f66204564676550726f706f73616c732062656c6f6e67696e672081526020017f746f20746865204f776e65722e0000000000000000000000000000000000000081525060600191505060405180910390fd5b600260008473ffffffffffffffffffffffffffffffffffffffff1673ffffffffffffffffffffffffffffffffffffffff168152602001908152602001600020600101828154811015156118f057fe5b9060005260206000200160009054906101000a900473ffffffffffffffffffffffffffffffffffffffff16905092915050565b61192b61324b565b6000806000806000600160008873ffffffffffffffffffffffffffffffffffffffff1673ffffffffffffffffffffffffffffffffffffffff168152602001908152602001600020606060405190810160405290816000820160009054906101000a900473ffffffffffffffffffffffffffffffffffffffff1673ffffffffffffffffffffffffffffffffffffffff1673ffffffffffffffffffffffffffffffffffffffff1681526020016001820160009054906101000a900473ffffffffffffffffffffffffffffffffffffffff1673ffffffffffffffffffffffffffffffffffffffff1673ffffffffffffffffffffffffffffffffffffffff16815260200160028201600280602002604051908101604052809291908260028015611a6a576020028201915b81546000191681526020019060010190808311611a52575b50505050508152505095506000866000015173ffffffffffffffffffffffffffffffffffffffff1614151515611b2e576040517f08c379a000000000000000000000000000000000000000000000000000000000815260040180806020018281038252602f8152602001807f5468652048616c6645646765206d75737420657869737420696e206f7264657281526020017f20746f2062652064656c657465642e000000000000000000000000000000000081525060400191505060405180910390fd5b6000866020015173ffffffffffffffffffffffffffffffffffffffff16141515611c0c576040517f08c379a00000000000000000000000000000000000000000000000000000000081526004018080602001828103825260498152602001807f596f75206d75737420646973636f6e6e65637420746869732048616c6645646781526020017f652066726f6d20697473206f746865722068616c66206265666f72652064656c81526020017f6574696e672069742e000000000000000000000000000000000000000000000081525060600191505060405180910390fd5b600080876000015173ffffffffffffffffffffffffffffffffffffffff1673ffffffffffffffffffffffffffffffffffffffff16815260200190815260200160002094508460000160009054906101000a900473ffffffffffffffffffffffffffffffffffffffff1673ffffffffffffffffffffffffffffffffffffffff163373ffffffffffffffffffffffffffffffffffffffff16141515611d3d576040517f08c379a00000000000000000000000000000000000000000000000000000000081526004018080602001828103825260338152602001807f596f75206d757374206f776e20746869732048616c664564676520746f20626581526020017f2061626c6520746f2064656c6574652069742e0000000000000000000000000081525060400191505060405180910390fd5b8460040193506006848054905011151515611d5457fe5b60009250600091505b83805490508260ff161015611df3578673ffffffffffffffffffffffffffffffffffffffff16848360ff16815481101515611d9457fe5b9060005260206000200160009054906101000a900473ffffffffffffffffffffffffffffffffffffffff1673ffffffffffffffffffffffffffffffffffffffff161415611de657819250838054905091505b8180600101925050611d5d565b600184805490500390508060ff168360ff161015611ea157838160ff16815481101515611e1c57fe5b9060005260206000200160009054906101000a900473ffffffffffffffffffffffffffffffffffffffff16848460ff16815481101515611e5857fe5b9060005260206000200160006101000a81548173ffffffffffffffffffffffffffffffffffffffff021916908373ffffffffffffffffffffffffffffffffffffffff1602179055505b838160ff16815481101515611eb257fe5b9060005260206000200160006101000a81549073ffffffffffffffffffffffffffffffffffffffff021916905583805480919060019003611ef3919061312e565b50600160008873ffffffffffffffffffffffffffffffffffffffff1673ffffffffffffffffffffffffffffffffffffffff168152602001908152602001600020600080820160006101000a81549073ffffffffffffffffffffffffffffffffffffffff02191690556001820160006101000a81549073ffffffffffffffffffffffffffffffffffffffff0219169055600282016000611f929190613120565b50503373ffffffffffffffffffffffffffffffffffffffff167fc58194320671290e1e21766c436ef5a4d8d9a922b1ec5b962127431eee37334488604051808273ffffffffffffffffffffffffffffffffffffffff1673ffffffffffffffffffffffffffffffffffffffff16815260200191505060405180910390a250505050505050565b600061202161329f565b600080600061202e61329f565b600061203861324b565b61204061324b565b600160008b73ffffffffffffffffffffffffffffffffffffffff1673ffffffffffffffffffffffffffffffffffffffff168152602001908152602001600020606060405190810160405290816000820160009054906101000a900473ffffffffffffffffffffffffffffffffffffffff1673ffffffffffffffffffffffffffffffffffffffff1673ffffffffffffffffffffffffffffffffffffffff1681526020016001820160009054906101000a900473ffffffffffffffffffffffffffffffffffffffff1673ffffffffffffffffffffffffffffffffffffffff1673ffffffffffffffffffffffffffffffffffffffff16815260200160028201600280602002604051908101604052809291908260028015612177576020028201915b8154600019168152602001906001019080831161215f575b50505050508152505091506000826000015173ffffffffffffffffffffffffffffffffffffffff1614151515612215576040517f08c379a00000000000000000000000000000000000000000000000000000000081526004018080602001828103825260188152602001807f48616c664564676520646f6573206e6f742065786973742e000000000000000081525060200191505060405180910390fd5b8160000151985081604001519750600080836000015173ffffffffffffffffffffffffffffffffffffffff1673ffffffffffffffffffffffffffffffffffffffff16815260200190815260200160002060030160009054906101000a900467ffffffffffffffff1696506000826020015173ffffffffffffffffffffffffffffffffffffffff1614151561247f5760016000836020015173ffffffffffffffffffffffffffffffffffffffff1673ffffffffffffffffffffffffffffffffffffffff168152602001908152602001600020606060405190810160405290816000820160009054906101000a900473ffffffffffffffffffffffffffffffffffffffff1673ffffffffffffffffffffffffffffffffffffffff1673ffffffffffffffffffffffffffffffffffffffff1681526020016001820160009054906101000a900473ffffffffffffffffffffffffffffffffffffffff1673ffffffffffffffffffffffffffffffffffffffff1673ffffffffffffffffffffffffffffffffffffffff168152602001600282016002806020026040519081016040528092919082600280156123de576020028201915b815460001916815260200190600101908083116123c6575b50505050508152505090506000816000015173ffffffffffffffffffffffffffffffffffffffff161415151561241057fe5b600195508060000151945080604001519350600080826000015173ffffffffffffffffffffffffffffffffffffffff1673ffffffffffffffffffffffffffffffffffffffff16815260200190815260200160002060030160009054906101000a900467ffffffffffffffff1692505b5050919395979092949650565b60036020528060005260406000206000915090508060000160009054906101000a900473ffffffffffffffffffffffffffffffffffffffff16908060010160009054906101000a900473ffffffffffffffffffffffffffffffffffffffff16905082565b50565b6000600260008373ffffffffffffffffffffffffffffffffffffffff1673ffffffffffffffffffffffffffffffffffffffff168152602001908152602001600020600101805490509050919050565b600061254c61329f565b60006125566132c1565b61255e6130c0565b6000806000808973ffffffffffffffffffffffffffffffffffffffff1673ffffffffffffffffffffffffffffffffffffffff16815260200190815260200160002060a060405190810160405290816000820160009054906101000a900473ffffffffffffffffffffffffffffffffffffffff1673ffffffffffffffffffffffffffffffffffffffff1673ffffffffffffffffffffffffffffffffffffffff16815260200160018201600280602002604051908101604052809291908260028015612641576020028201915b81546000191681526020019060010190808311612629575b505050505081526020016003820160009054906101000a900467ffffffffffffffff1667ffffffffffffffff1667ffffffffffffffff1681526020016003820160089054906101000a900467ffffffffffffffff1667ffffffffffffffff1667ffffffffffffffff1681526020016004820180548060200260200160405190810160405280929190818152602001828054801561273357602002820191906000526020600020905b8160009054906101000a900473ffffffffffffffffffffffffffffffffffffffff1673ffffffffffffffffffffffffffffffffffffffff16815260200190600101908083116126e9575b50505050508152505092506000836000015173ffffffffffffffffffffffffffffffffffffffff16141515156127d1576040517f08c379a00000000000000000000000000000000000000000000000000000000081526004018080602001828103825260148152602001807f4e6f646520646f6573206e6f742065786973742e00000000000000000000000081525060200191505060405180910390fd5b8260000151965082602001519550826040015194508260800151519150600090505b8160ff168160ff1610156128755782608001518160ff1681518110151561281657fe5b90602001906020020151848260ff1660068110151561283157fe5b602002019073ffffffffffffffffffffffffffffffffffffffff16908173ffffffffffffffffffffffffffffffffffffffff168152505080806001019150506127f3565b5050509193509193565b600081600060028110151561289057fe5b60200201518260016002811015156128a457fe5b60200201516040516020018083600019166000191681526020018260001916600019168152602001925050506040516020818303038152906040526040518082805190602001908083835b60208310151561291457805182526020820191506020810190506020830392506128ef565b6001836020036101000a0380198251168184511680821785525050505050509050019150506040518091039020600190049050919050565b60006129566130c0565b60008060008673ffffffffffffffffffffffffffffffffffffffff1673ffffffffffffffffffffffffffffffffffffffff16815260200190815260200160002060a060405190810160405290816000820160009054906101000a900473ffffffffffffffffffffffffffffffffffffffff1673ffffffffffffffffffffffffffffffffffffffff1673ffffffffffffffffffffffffffffffffffffffff16815260200160018201600280602002604051908101604052809291908260028015612a38576020028201915b81546000191681526020019060010190808311612a20575b505050505081526020016003820160009054906101000a900467ffffffffffffffff1667ffffffffffffffff1667ffffffffffffffff1681526020016003820160089054906101000a900467ffffffffffffffff1667ffffffffffffffff1667ffffffffffffffff16815260200160048201805480602002602001604051908101604052809291908181526020018280548015612b2a57602002820191906000526020600020905b8160009054906101000a900473ffffffffffffffffffffffffffffffffffffffff1673ffffffffffffffffffffffffffffffffffffffff1681526020019060010190808311612ae0575b5050505050815250509150816000015173ffffffffffffffffffffffffffffffffffffffff163373ffffffffffffffffffffffffffffffffffffffff16141515612c02576040517f08c379a000000000000000000000000000000000000000000000000000000000815260040180806020018281038252603a8152602001807f596f75206d757374206f776e2074686973204e6f646520746f2062652061626c81526020017f6520746f2061646420612048616c664564676520746f2069742e00000000000081525060400191505060405180910390fd5b6006826080015151101515612ca5576040517f08c379a00000000000000000000000000000000000000000000000000000000081526004018080602001828103825260328152602001807f596f752063616e6e6f742068617665206d6f7265207468616e20362048616c6681526020017f4564676573206f6e206f6e65204e6f64652e000000000000000000000000000081525060400191505060405180910390fd5b612cd3846002806020026040519081016040528092919082600260200280828437820191505050505061287f565b90506000600160008373ffffffffffffffffffffffffffffffffffffffff1673ffffffffffffffffffffffffffffffffffffffff16815260200190815260200160002060000160009054906101000a900473ffffffffffffffffffffffffffffffffffffffff1673ffffffffffffffffffffffffffffffffffffffff16141515612deb576040517f08c379a00000000000000000000000000000000000000000000000000000000081526004018080602001828103825260258152602001807f412048616c66456467652077697468205f6970667320616c726561647920657881526020017f697374732100000000000000000000000000000000000000000000000000000081525060400191505060405180910390fd5b6060604051908101604052808673ffffffffffffffffffffffffffffffffffffffff168152602001600073ffffffffffffffffffffffffffffffffffffffff1681526020018560028060200260405190810160405280929190826002602002808284378201915050505050815250600160008373ffffffffffffffffffffffffffffffffffffffff1673ffffffffffffffffffffffffffffffffffffffff16815260200190815260200160002060008201518160000160006101000a81548173ffffffffffffffffffffffffffffffffffffffff021916908373ffffffffffffffffffffffffffffffffffffffff16021790555060208201518160010160006101000a81548173ffffffffffffffffffffffffffffffffffffffff021916908373ffffffffffffffffffffffffffffffffffffffff160217905550604082015181600201906002612f3d92919061317b565b509050506000808673ffffffffffffffffffffffffffffffffffffffff1673ffffffffffffffffffffffffffffffffffffffff1681526020019081526020016000206004018190806001815401808255809150509060018203906000526020600020016000909192909190916101000a81548173ffffffffffffffffffffffffffffffffffffffff021916908373ffffffffffffffffffffffffffffffffffffffff160217905550503373ffffffffffffffffffffffffffffffffffffffff167f5b1f84e5ff3f2a0bceff6bbb239cfc79426615d3e69bbf5f3dac8be12ba92bb982604051808273ffffffffffffffffffffffffffffffffffffffff1673ffffffffffffffffffffffffffffffffffffffff16815260200191505060405180910390a2809250505092915050565b600092915050565b6000600260003373ffffffffffffffffffffffffffffffffffffffff1673ffffffffffffffffffffffffffffffffffffffff16815260200190815260200160002060000180549050905090565b60c060405190810160405280600073ffffffffffffffffffffffffffffffffffffffff1681526020016130f16132e4565b8152602001600067ffffffffffffffff168152602001600067ffffffffffffffff168152602001606081525090565b506000815560010160009055565b815481835581811115613155578183600052602060002091820191016131549190613306565b5b505050565b50805460008255906000526020600020908101906131789190613306565b50565b82600281019282156131b0579160200282015b828111156131af57825182906000191690559160200191906001019061318e565b5b5090506131bd919061332b565b5090565b82805482825590600052602060002090810192821561323a579160200282015b828111156132395782518260006101000a81548173ffffffffffffffffffffffffffffffffffffffff021916908373ffffffffffffffffffffffffffffffffffffffff160217905550916020019190600101906131e1565b5b5090506132479190613350565b5090565b608060405190810160405280600073ffffffffffffffffffffffffffffffffffffffff168152602001600073ffffffffffffffffffffffffffffffffffffffff1681526020016132996132e4565b81525090565b6040805190810160405280600290602082028038833980820191505090505090565b60c060405190810160405280600690602082028038833980820191505090505090565b6040805190810160405280600290602082028038833980820191505090505090565b61332891905b8082111561332457600081600090555060010161330c565b5090565b90565b61334d91905b80821115613349576000816000905550600101613331565b5090565b90565b61339091905b8082111561338c57600081816101000a81549073ffffffffffffffffffffffffffffffffffffffff021916905550600101613356565b5090565b905600a165627a7a72305820ebb94686f481192d5dbfb56d8641d1477c2d2d5e45144e40a260a62fd208df7c0029",
  "source": "pragma solidity ^0.4.24;\nimport \"./InterweaveGraph.sol\";\n\ncontract InterweaveProposals is InterweaveGraph {\n  \n  /// @notice EdgeProposal struct represents a proposal to connect or disconnect two Nodes via two HalfEdges belonging to them. halfEdgeAddr0 belongs to the proposer.\n  struct EdgeProposal {\n    address halfEdgeAddr0;\n    address halfEdgeAddr1;\n  }\n  \n  /// @notice An EdgeProposal was created.\n  /// @param edgeProposalAddr The address of the created EdgeProposal.\n  /// @param proposerAddr The Ethereum address of the Owner who created the EdgeProposal.\n  /// @param proposedToAddr The Ethereum address of the Owner who is the counterparty on the EdgeProposal.\n  event EdgeProposalCreated(address edgeProposalAddr, address proposerAddr, address indexed proposedToAddr);\n  \n  /// @notice An EdgeProposal was accepted, connecting or disconnecting two Nodes.\n  /// @param edgeProposalAddr The address of the accepted EdgeProposal (which will have been deleted).\n  /// @param accepterAddr The Ethereum address of the Owner who accepted the EdgeProposal.\n  /// @param acceptedAddr The Ethereum address of the Owner whose EdgeProposal was accepted.\n  event EdgeProposalAccepted(address edgeProposalAddr, address accepterAddr, address indexed acceptedAddr);\n  \n  /// @notice An EdgeProposal was rejected.\n  /// @param edgeProposalAddr The address of the rejected EdgeProposal (which will have been deleted).\n  /// @param rejecterAddr The Ethereum address of the Owner who rejected the EdgeProposal.\n  /// @param rejectedAddr The Ethereum address of the Owner who was the counterparty on the EdgeProposal.\n  event EdgeProposalRejected(address edgeProposalAddr, address rejecterAddr, address indexed rejectedAddr);\n  \n  /// @notice A mapping allowing lookup of EdgeProposals by their addresses.\n  /// @dev EdgeProposal addresses = kekkac(halfEdgeAddr0, halfEdgeAddr1)\n  mapping (address => EdgeProposal) public edgeProposalLookup;\n  \n  function createEdgeProposal(address _halfEdgeAddr0, address _halfEdgeAddr1) external returns (address) {\n    /*\n    - require NodeLookup[HalfEdgeLookup[halfEdgeAddr0].node].owner == msg.sender (you can't propose from someone else's node)\n    - require neither already connected, or are both already connected to each other (for a disconnection)\n    - make new Proposal {\n      halfEdgeAddr0,\n      halfEdgeAddr1\n    }\n    - Put it in OwnerEdgeProposals[yourAddr] and OwnerEdgeProposals[theirAddr]\n    */\n  }\n  \n  function acceptEdgeProposal(address _edgeProposalAddr) external {\n    /*\n    - require proposalLookup[proposalAddr] !== 0\n    - require NodeLookup[HalfEdgeLookup[proposal.halfEdgeAddr0].node].owner !== msg.sender (you can't accept your own proposal)\n    - Delete the Proposal from proposalLookup\n    - Delete proposalAddr from, and compactify, the two OwnerLookup[msg.sender or otherNodeOwner].proposals (proposal's time is up, whatever happens next)\n    - If neither halfEdge slot contains the other:\n      - Connect them\n    - Else if both HalfEdge slots contain the other:\n      - Disconnect them\n    - Else:\n      - Situation where either or both halfEdges have already connected to other ones. Proposal is worthless, so do nothing; it's already deleted.\n    */\n  }\n  \n  function rejectEdgeProposal(address _edgeProposalAddr) external {\n    /*\n    - require proposalLookup[proposalAddr] !== 0\n    - Delete proposalAddr from, and compactify, the two OwnerLookup[msg.sender or otherNodeOwner].proposals\n    - Delete the Proposal from proposalLookup\n    */\n  }\n  \n  function getOwnerEdgeProposalCount(address _ownerAddr) public view returns (uint) {\n    return ownerLookup[_ownerAddr].edgeProposalAddrs.length;\n  }\n  \n  function getOwnerEdgeProposalAddrByIndex(address _ownerAddr, uint _index) public view returns (address) {\n    require(\n      _index < ownerLookup[_ownerAddr].edgeProposalAddrs.length,\n      \"The index supplied was >= the number of EdgeProposals belonging to the Owner.\"\n    );\n    \n    return ownerLookup[_ownerAddr].edgeProposalAddrs[_index];\n  }\n}\n",
  "sourcePath": "/home/noah/Programs/Javascript/web3/interweave.network/solidity/contracts/interweave-free/InterweaveProposals.sol",
  "compiler": {
    "name": "solc",
    "version": "0.4.24+commit.e67f0147.Emscripten.clang"
  },
  "schemaVersion": "2.0.1",
  "updatedAt": "2018-10-21T22:48:03.916Z"
}