{
  "contractName": "InterweaveGraph",
  "abi": [
    {
      "anonymous": false,
      "inputs": [
        {
          "indexed": false,
          "name": "nodeKey",
          "type": "uint256"
        },
        {
          "indexed": true,
          "name": "ownerAddr",
          "type": "address"
        }
      ],
      "name": "NodeCreated",
      "type": "event"
    },
    {
      "anonymous": false,
      "inputs": [
        {
          "indexed": false,
          "name": "nodeKey",
          "type": "uint256"
        },
        {
          "indexed": true,
          "name": "ownerAddr",
          "type": "address"
        }
      ],
      "name": "NodeDeleted",
      "type": "event"
    },
    {
      "anonymous": false,
      "inputs": [
        {
          "indexed": false,
          "name": "halfEdgeKey",
          "type": "uint256"
        },
        {
          "indexed": true,
          "name": "ownerAddr",
          "type": "address"
        }
      ],
      "name": "HalfEdgeCreated",
      "type": "event"
    },
    {
      "anonymous": false,
      "inputs": [
        {
          "indexed": false,
          "name": "halfEdgeKey",
          "type": "uint256"
        },
        {
          "indexed": true,
          "name": "ownerAddr",
          "type": "address"
        }
      ],
      "name": "HalfEdgeDeleted",
      "type": "event"
    },
    {
      "constant": true,
      "inputs": [
        {
          "name": "_ipfs",
          "type": "bytes32[2]"
        }
      ],
      "name": "keyFromIpfs",
      "outputs": [
        {
          "name": "",
          "type": "uint256"
        }
      ],
      "payable": false,
      "stateMutability": "pure",
      "type": "function"
    },
    {
      "constant": false,
      "inputs": [
        {
          "name": "_ipfs",
          "type": "bytes32[2]"
        },
        {
          "name": "_format",
          "type": "uint64"
        }
      ],
      "name": "createNode",
      "outputs": [],
      "payable": false,
      "stateMutability": "nonpayable",
      "type": "function"
    },
    {
      "constant": false,
      "inputs": [
        {
          "name": "_nodeKey",
          "type": "uint256"
        }
      ],
      "name": "deleteNode",
      "outputs": [],
      "payable": false,
      "stateMutability": "nonpayable",
      "type": "function"
    },
    {
      "constant": true,
      "inputs": [],
      "name": "getSenderNodeCount",
      "outputs": [
        {
          "name": "",
          "type": "uint256"
        }
      ],
      "payable": false,
      "stateMutability": "view",
      "type": "function"
    },
    {
      "constant": true,
      "inputs": [
        {
          "name": "_index",
          "type": "uint256"
        }
      ],
      "name": "getSenderNodeKeyByIndex",
      "outputs": [
        {
          "name": "",
          "type": "uint256"
        }
      ],
      "payable": false,
      "stateMutability": "view",
      "type": "function"
    },
    {
      "constant": true,
      "inputs": [
        {
          "name": "_nodeKey",
          "type": "uint256"
        }
      ],
      "name": "getNode",
      "outputs": [
        {
          "name": "owner",
          "type": "address"
        },
        {
          "name": "ipfs",
          "type": "bytes32[2]"
        },
        {
          "name": "format",
          "type": "uint64"
        },
        {
          "name": "halfEdgeKeys",
          "type": "uint256[6]"
        }
      ],
      "payable": false,
      "stateMutability": "view",
      "type": "function"
    },
    {
      "constant": false,
      "inputs": [
        {
          "name": "_nodeKey",
          "type": "uint256"
        },
        {
          "name": "_ipfs",
          "type": "bytes32[2]"
        }
      ],
      "name": "createHalfEdge",
      "outputs": [],
      "payable": false,
      "stateMutability": "nonpayable",
      "type": "function"
    },
    {
      "constant": false,
      "inputs": [
        {
          "name": "_halfEdgeKey",
          "type": "uint256"
        }
      ],
      "name": "deleteHalfEdge",
      "outputs": [],
      "payable": false,
      "stateMutability": "nonpayable",
      "type": "function"
    },
    {
      "constant": true,
      "inputs": [
        {
          "name": "_halfEdgeKey",
          "type": "uint256"
        }
      ],
      "name": "getEdge",
      "outputs": [
        {
          "name": "nodeKey",
          "type": "uint256"
        },
        {
          "name": "ipfs",
          "type": "bytes32[2]"
        },
        {
          "name": "format",
          "type": "uint64"
        },
        {
          "name": "connected",
          "type": "bool"
        },
        {
          "name": "othernodeKey",
          "type": "uint256"
        },
        {
          "name": "otherIpfs",
          "type": "bytes32[2]"
        },
        {
          "name": "otherFormat",
          "type": "uint64"
        }
      ],
      "payable": false,
      "stateMutability": "view",
      "type": "function"
    }
  ],
  "bytecode": "0x608060405234801561001057600080fd5b5061219b806100206000396000f300608060405260043610610099576000357c0100000000000000000000000000000000000000000000000000000000900463ffffffff168063147249771461009e5780633837c079146100df5780633a6b686b1461011657806341d2a256146101575780634f0f4aa91461018457806385735a6a1461026a5780639a914c44146102d0578063f55b6e02146103b7578063fbbe0bad146103e4575b600080fd5b3480156100aa57600080fd5b506100c96004803603810190808035906020019092919050505061040f565b6040518082815260200191505060405180910390f35b3480156100eb57600080fd5b50610114600480360381019080803590602001909291908060400190919291929050505061057a565b005b34801561012257600080fd5b5061015560048036038101908080604001909192919290803567ffffffffffffffff169060200190929190505050610a6a565b005b34801561016357600080fd5b5061018260048036038101908080359060200190929190505050610e8f565b005b34801561019057600080fd5b506101af600480360381019080803590602001909291905050506114b1565b604051808573ffffffffffffffffffffffffffffffffffffffff1673ffffffffffffffffffffffffffffffffffffffff16815260200184600260200280838360005b8381101561020c5780820151818401526020810190506101f1565b505050509050018367ffffffffffffffff1667ffffffffffffffff16815260200182600660200280838360005b83811015610254578082015181840152602081019050610239565b5050505090500194505050505060405180910390f35b34801561027657600080fd5b506102ba600480360381019080806040019060028060200260405190810160405280929190826002602002808284378201915050505050919291929050505061175e565b6040518082815260200191505060405180910390f35b3480156102dc57600080fd5b506102fb6004803603810190808035906020019092919050505061182b565b6040518088815260200187600260200280838360005b8381101561032c578082015181840152602081019050610311565b505050509050018667ffffffffffffffff1667ffffffffffffffff1681526020018515151515815260200184815260200183600260200280838360005b83811015610384578082015181840152602081019050610369565b505050509050018267ffffffffffffffff1667ffffffffffffffff16815260200197505050505050505060405180910390f35b3480156103c357600080fd5b506103e260048036038101908080359060200190929190505050611a7e565b005b3480156103f057600080fd5b506103f9611efb565b6040518082815260200191505060405180910390f35b6000600260003373ffffffffffffffffffffffffffffffffffffffff1673ffffffffffffffffffffffffffffffffffffffff1681526020019081526020016000206000018054905082101515610519576040517f08c379a00000000000000000000000000000000000000000000000000000000081526004018080602001828103825260498152602001807f54686520696e64657820737570706c69656420776173203e3d20746865206e7581526020017f6d626572206f6620746865204e6f6465732062656c6f6e67696e6720746f207481526020017f6865204f776e65722e000000000000000000000000000000000000000000000081525060600191505060405180910390fd5b600260003373ffffffffffffffffffffffffffffffffffffffff1673ffffffffffffffffffffffffffffffffffffffff1681526020019081526020016000206000018281548110151561056857fe5b90600052602060002001549050919050565b610582611f48565b600080600085815260200190815260200160002060a060405190810160405290816000820160009054906101000a900473ffffffffffffffffffffffffffffffffffffffff1673ffffffffffffffffffffffffffffffffffffffff1673ffffffffffffffffffffffffffffffffffffffff16815260200160018201600280602002604051908101604052809291908260028015610638576020028201915b81546000191681526020019060010190808311610620575b505050505081526020016003820160009054906101000a900467ffffffffffffffff1667ffffffffffffffff1667ffffffffffffffff1681526020016003820160089054906101000a900467ffffffffffffffff1667ffffffffffffffff1667ffffffffffffffff168152602001600482018054806020026020016040519081016040528092919081815260200182805480156106f457602002820191906000526020600020905b8154815260200190600101908083116106e0575b5050505050815250509150816000015173ffffffffffffffffffffffffffffffffffffffff163373ffffffffffffffffffffffffffffffffffffffff161415156107cc576040517f08c379a000000000000000000000000000000000000000000000000000000000815260040180806020018281038252603a8152602001807f596f75206d757374206f776e2074686973204e6f646520746f2062652061626c81526020017f6520746f2061646420612048616c664564676520746f2069742e00000000000081525060400191505060405180910390fd5b600682608001515110151561086f576040517f08c379a00000000000000000000000000000000000000000000000000000000081526004018080602001828103825260328152602001807f596f752063616e6e6f742068617665206d6f7265207468616e20362048616c6681526020017f4564676573206f6e206f6e65204e6f64652e000000000000000000000000000081525060400191505060405180910390fd5b61089d836002806020026040519081016040528092919082600260200280828437820191505050505061175e565b905060006001600083815260200190815260200160002060000154141515610953576040517f08c379a00000000000000000000000000000000000000000000000000000000081526004018080602001828103825260258152602001807f412048616c66456467652077697468205f6970667320616c726561647920657881526020017f697374732100000000000000000000000000000000000000000000000000000081525060400191505060405180910390fd5b6060604051908101604052808581526020016000815260200184600280602002604051908101604052809291908260026020028082843782019150505050508152506001600083815260200190815260200160002060008201518160000155602082015181600101556040820151816002019060026109d3929190611fa8565b509050506000808581526020019081526020016000206004018190806001815401808255809150509060018203906000526020600020016000909192909190915055503373ffffffffffffffffffffffffffffffffffffffff167f457c78b8b8083478e86e8cad75cd847db8650e3ac3367ac3504f5f7c4e4facdf826040518082815260200191505060405180910390a250505050565b600080836000600281101515610a7c57fe5b6020020135600019166001900414151515610aff576040517f08c379a00000000000000000000000000000000000000000000000000000000081526004018080602001828103825260138152602001807f5f697066735b305d2077617320656d707479210000000000000000000000000081525060200191505060405180910390fd5b610b2d836002806020026040519081016040528092919082600260200280828437820191505050505061175e565b905060008060008381526020019081526020016000206001016000600281101515610b5457fe5b015460019004141515610bf5576040517f08c379a00000000000000000000000000000000000000000000000000000000081526004018080602001828103825260218152602001807f41204e6f64652077697468205f6970667320616c72656164792065786973747381526020017f210000000000000000000000000000000000000000000000000000000000000081525060400191505060405180910390fd5b60a0604051908101604052803373ffffffffffffffffffffffffffffffffffffffff168152602001846002806020026040519081016040528092919082600260200280828437820191505050505081526020018367ffffffffffffffff168152602001600260003373ffffffffffffffffffffffffffffffffffffffff1673ffffffffffffffffffffffffffffffffffffffff1681526020019081526020016000206000018054905067ffffffffffffffff1681526020016000604051908082528060200260200182016040528015610cdd5781602001602082028038833980820191505090505b5081525060008083815260200190815260200160002060008201518160000160006101000a81548173ffffffffffffffffffffffffffffffffffffffff021916908373ffffffffffffffffffffffffffffffffffffffff160217905550602082015181600101906002610d51929190611fa8565b5060408201518160030160006101000a81548167ffffffffffffffff021916908367ffffffffffffffff16021790555060608201518160030160086101000a81548167ffffffffffffffff021916908367ffffffffffffffff1602179055506080820151816004019080519060200190610dcc929190611fee565b50905050600260003373ffffffffffffffffffffffffffffffffffffffff1673ffffffffffffffffffffffffffffffffffffffff1681526020019081526020016000206000018190806001815401808255809150509060018203906000526020600020016000909192909190915055503373ffffffffffffffffffffffffffffffffffffffff167fef9a38875abd2c44e371e4af5d2f965da6c9dc85ca1ff15a58dd8ddb70089d7e826040518082815260200191505060405180910390a2505050565b610e97611f48565b60008060008060008087815260200190815260200160002060a060405190810160405290816000820160009054906101000a900473ffffffffffffffffffffffffffffffffffffffff1673ffffffffffffffffffffffffffffffffffffffff1673ffffffffffffffffffffffffffffffffffffffff16815260200160018201600280602002604051908101604052809291908260028015610f51576020028201915b81546000191681526020019060010190808311610f39575b505050505081526020016003820160009054906101000a900467ffffffffffffffff1667ffffffffffffffff1667ffffffffffffffff1681526020016003820160089054906101000a900467ffffffffffffffff1667ffffffffffffffff1667ffffffffffffffff1681526020016004820180548060200260200160405190810160405280929190818152602001828054801561100d57602002820191906000526020600020905b815481526020019060010190808311610ff9575b5050505050815250509450846000015173ffffffffffffffffffffffffffffffffffffffff163373ffffffffffffffffffffffffffffffffffffffff161415156110e5576040517f08c379a000000000000000000000000000000000000000000000000000000000815260040180806020018281038252602f8152602001807f596f75206d757374206f776e2074686973204e6f646520746f2062652061626c81526020017f6520746f2064656c6574652069742e000000000000000000000000000000000081525060400191505060405180910390fd5b600093505b8460800151518460ff1610156111ff5760006001600087608001518760ff1681518110151561111557fe5b906020019060200201518152602001908152602001600020600101541415156111f2576040517f08c379a00000000000000000000000000000000000000000000000000000000081526004018080602001828103825260468152602001807f596f75206d75737420646973636f6e6e6563742074686973204e6f646520667281526020017f6f6d20616c6c206f74686572204e6f646573206265666f72652064656c65746981526020017f6e672069742e000000000000000000000000000000000000000000000000000081525060600191505060405180910390fd5b83806001019450506110ea565b600093505b8460800151518460ff161015611275576001600086608001518660ff1681518110151561122d57fe5b9060200190602002015181526020019081526020016000206000808201600090556001820160009055600282016000611266919061203b565b50508380600101945050611204565b600260003373ffffffffffffffffffffffffffffffffffffffff1673ffffffffffffffffffffffffffffffffffffffff168152602001908152602001600020600001925084606001519150600183805490500390508067ffffffffffffffff168267ffffffffffffffff16101561138e57828167ffffffffffffffff168154811015156112fe57fe5b9060005260206000200154838367ffffffffffffffff1681548110151561132157fe5b906000526020600020018190555081600080858567ffffffffffffffff1681548110151561134b57fe5b9060005260206000200154815260200190815260200160002060030160086101000a81548167ffffffffffffffff021916908367ffffffffffffffff1602179055505b828167ffffffffffffffff168154811015156113a657fe5b9060005260206000200160009055828054809190600190036113c89190612049565b50600080878152602001908152602001600020600080820160006101000a81549073ffffffffffffffffffffffffffffffffffffffff0219169055600182016000611413919061203b565b6003820160006101000a81549067ffffffffffffffff02191690556003820160086101000a81549067ffffffffffffffff02191690556004820160006114599190612075565b50503373ffffffffffffffffffffffffffffffffffffffff167fabb39a19e31157f336be7f5ea824d929074835335c7c8e16966dd0c035def988876040518082815260200191505060405180910390a2505050505050565b60006114bb612096565b60006114c56120b8565b6114cd611f48565b60008060008089815260200190815260200160002060a060405190810160405290816000820160009054906101000a900473ffffffffffffffffffffffffffffffffffffffff1673ffffffffffffffffffffffffffffffffffffffff1673ffffffffffffffffffffffffffffffffffffffff16815260200160018201600280602002604051908101604052809291908260028015611584576020028201915b8154600019168152602001906001019080831161156c575b505050505081526020016003820160009054906101000a900467ffffffffffffffff1667ffffffffffffffff1667ffffffffffffffff1681526020016003820160089054906101000a900467ffffffffffffffff1667ffffffffffffffff1667ffffffffffffffff1681526020016004820180548060200260200160405190810160405280929190818152602001828054801561164057602002820191906000526020600020905b81548152602001906001019080831161162c575b50505050508152505092506000836000015173ffffffffffffffffffffffffffffffffffffffff16141515156116de576040517f08c379a00000000000000000000000000000000000000000000000000000000081526004018080602001828103825260148152602001807f4e6f646520646f6573206e6f742065786973742e00000000000000000000000081525060200191505060405180910390fd5b8260000151965082602001519550826040015194508260800151519150600090505b8160ff168160ff1610156117545782608001518160ff1681518110151561172357fe5b90602001906020020151848260ff1660068110151561173e57fe5b6020020181815250508080600101915050611700565b5050509193509193565b600081600060028110151561176f57fe5b602002015182600160028110151561178357fe5b60200201516040516020018083600019166000191681526020018260001916600019168152602001925050506040516020818303038152906040526040518082805190602001908083835b6020831015156117f357805182526020820191506020810190506020830392506117ce565b6001836020036101000a0380198251168184511680821785525050505050509050019150506040518091039020600190049050919050565b6000611835612096565b6000806000611842612096565b600061184c6120db565b6118546120db565b600160008b8152602001908152602001600020606060405190810160405290816000820154815260200160018201548152602001600282016002806020026040519081016040528092919082600280156118c7576020028201915b815460001916815260200190600101908083116118af575b5050505050815250509150600082600001511415151561194f576040517f08c379a00000000000000000000000000000000000000000000000000000000081526004018080602001828103825260188152602001807f48616c664564676520646f6573206e6f742065786973742e000000000000000081525060200191505060405180910390fd5b81600001519850816040015197506000808360000151815260200190815260200160002060030160009054906101000a900467ffffffffffffffff16965060008260200151141515611a7157600160008360200151815260200190815260200160002060606040519081016040529081600082015481526020016001820154815260200160028201600280602002604051908101604052809291908260028015611a12576020028201915b815460001916815260200190600101908083116119fa575b50505050508152505090506000816000015114151515611a2e57fe5b6001955080600001519450806040015193506000808260000151815260200190815260200160002060030160009054906101000a900467ffffffffffffffff1692505b5050919395979092949650565b611a866120db565b60008060008060006001600088815260200190815260200160002060606040519081016040529081600082015481526020016001820154815260200160028201600280602002604051908101604052809291908260028015611b01576020028201915b81546000191681526020019060010190808311611ae9575b50505050508152505095506000866000015114151515611baf576040517f08c379a000000000000000000000000000000000000000000000000000000000815260040180806020018281038252602f8152602001807f5468652048616c6645646765206d75737420657869737420696e206f7264657281526020017f20746f2062652064656c657465642e000000000000000000000000000000000081525060400191505060405180910390fd5b60008660200151141515611c77576040517f08c379a00000000000000000000000000000000000000000000000000000000081526004018080602001828103825260498152602001807f596f75206d75737420646973636f6e6e65637420746869732048616c6645646781526020017f652066726f6d20697473206f746865722068616c66206265666f72652064656c81526020017f6574696e672069742e000000000000000000000000000000000000000000000081525060600191505060405180910390fd5b6000808760000151815260200190815260200160002094508460000160009054906101000a900473ffffffffffffffffffffffffffffffffffffffff1673ffffffffffffffffffffffffffffffffffffffff163373ffffffffffffffffffffffffffffffffffffffff16141515611d7c576040517f08c379a00000000000000000000000000000000000000000000000000000000081526004018080602001828103825260338152602001807f596f75206d757374206f776e20746869732048616c664564676520746f20626581526020017f2061626c6520746f2064656c6574652069742e0000000000000000000000000081525060400191505060405180910390fd5b8460040193506006848054905011151515611d9357fe5b60009250600091505b83805490508260ff161015611de65786848360ff16815481101515611dbd57fe5b90600052602060002001541415611dd957819250838054905091505b8180600101925050611d9c565b600184805490500390508060ff168360ff161015611e3a57838160ff16815481101515611e0f57fe5b9060005260206000200154848460ff16815481101515611e2b57fe5b90600052602060002001819055505b838160ff16815481101515611e4b57fe5b906000526020600020016000905583805480919060019003611e6d9190612049565b50600160008881526020019081526020016000206000808201600090556001820160009055600282016000611ea2919061203b565b50503373ffffffffffffffffffffffffffffffffffffffff167f3bfdab3de844a3c8438353ebea62178a346333e14981a2486c6e244591e3eebb886040518082815260200191505060405180910390a250505050505050565b6000600260003373ffffffffffffffffffffffffffffffffffffffff1673ffffffffffffffffffffffffffffffffffffffff16815260200190815260200160002060000180549050905090565b60c060405190810160405280600073ffffffffffffffffffffffffffffffffffffffff168152602001611f79612103565b8152602001600067ffffffffffffffff168152602001600067ffffffffffffffff168152602001606081525090565b8260028101928215611fdd579160200282015b82811115611fdc578251829060001916905591602001919060010190611fbb565b5b509050611fea9190612125565b5090565b82805482825590600052602060002090810192821561202a579160200282015b8281111561202957825182559160200191906001019061200e565b5b509050612037919061214a565b5090565b506000815560010160009055565b8154818355818111156120705781836000526020600020918201910161206f919061214a565b5b505050565b5080546000825590600052602060002090810190612093919061214a565b50565b6040805190810160405280600290602082028038833980820191505090505090565b60c060405190810160405280600690602082028038833980820191505090505090565b60806040519081016040528060008152602001600081526020016120fd612103565b81525090565b6040805190810160405280600290602082028038833980820191505090505090565b61214791905b8082111561214357600081600090555060010161212b565b5090565b90565b61216c91905b80821115612168576000816000905550600101612150565b5090565b905600a165627a7a7230582009b9db2a94771d646a4ee80b4a45d5a9241a2a3a3cd48ea6627d8ea019883bed0029",
  "source": "pragma solidity ^0.4.24;\n\n/// @title The Interweave Network graph contract.\n/// @author interweaver\n/// @notice This is still a development version, but for now, is intended to represent a full graph.\ncontract InterweaveGraph {\n    \n  /// @notice Node struct represents a node in the graph (a place), with owner, representation with format, and connections to other Nodes.\n  struct Node {\n    address owner;\n    bytes32[2] ipfs;\n    uint64 format;\n    uint64 ownerNodesIndex; // Supports efficient deleting of nodes.\n    uint256[] halfEdgeKeys;\n  }\n  \n  /// @notice HalfEdge struct represents half of an edge in the graph, with the Node it belongs to, representation with implicit format, and connection to another HalfEdge.\n  struct HalfEdge {\n    uint256 nodeKey;\n    uint256 otherHalfEdgeKey;\n    bytes32[2] ipfs; // format = format of node\n  }\n  \n  /// @notice Owner struct represents the set of Nodes and EdgeProposals belonging to a particular Ethereum address.\n  struct Owner {\n    uint256[] nodeKeys;\n    uint256[] edgeProposalKeys;\n  }\n  \n  /// @notice A new Node was created on the graph.\n  /// @param nodeKey The key of the created Node.\n  /// @param ownerAddr The address of the new Node's Owner.\n  event NodeCreated(uint256 nodeKey, address indexed ownerAddr);\n  \n  /// @notice A Node was deleted from the graph.\n  /// @param nodeKey The key of the deleted Node.\n  /// @param ownerAddr The address of the old Node's Owner.\n  event NodeDeleted(uint256 nodeKey, address indexed ownerAddr);\n  \n  /// @notice A HalfEdge was created on the graph.\n  /// @param halfEdgeKey The key of the created HalfEdge.\n  /// @param ownerAddr The address of the new HalfEdge's Owner.\n  event HalfEdgeCreated(uint256 halfEdgeKey, address indexed ownerAddr);\n  \n  /// @notice A HalfEdge was deleted from the graph.\n  /// @param halfEdgeKey The key of the deleted HalfEdge.\n  /// @param ownerAddr The address of the deleted HalfEdge's Owner.\n  event HalfEdgeDeleted(uint256 halfEdgeKey, address indexed ownerAddr);\n  \n  /// @notice A Mapping allowing lookup of Nodes by their keys.\n  /// @dev Node keys = uint256(kekkac(ipfs))\n  mapping (uint256 => Node) internal nodeLookup;\n  \n  /// @notice A mapping allowing lookup of HalfEdges by their keys.\n  /// @dev HalfEdge keys = uint256(kekkac(ipfs))\n  mapping (uint256 => HalfEdge) internal halfEdgeLookup;\n  \n  /// @notice A mapping allowing lookup of Owners by their (Ethereum) addresses.\n  mapping (address => Owner) internal ownerLookup;\n  \n  /// @notice A function to generate a unique key for a Node or HalfEdge from a given IPFS hash.\n  /// @param _ipfs A bytes32[2] to use to generate the new key.\n  /// @return A uint256 key.\n  function keyFromIpfs(bytes32[2] _ipfs) public pure returns (uint256) {\n    return uint256(\n      keccak256(\n        abi.encodePacked(\n          _ipfs[0],\n          _ipfs[1]\n        )\n      )\n    );\n  }\n  \n  /// @notice Create a new Node on the graph.\n  /// @param _ipfs The IPFS hash string of the Node's content file, in two bytes32. Must be unique across all Nodes in the graph.\n  /// @param _format The format identifier of the Node's content. Must match with the file at the given IPFS hash, or viewers won't be able to interpret the content.\n  /// @dev If the caller wants to know the key of their new Node, they can always call keyFromIpfs on their IPFS hash, before or after Node creation (assuming it doesn't fail.)\n  function createNode(bytes32[2] _ipfs, uint64 _format) external {\n    \n    // Make sure there's something other than 0 in the first chunk of the ipfs hash.\n    require(\n      uint(_ipfs[0]) != 0,\n      \"_ipfs[0] was empty!\"\n    );\n    \n    // Generate Node's key.\n    uint256 newNodeKey = keyFromIpfs(_ipfs);\n    \n    // There must not already be a Node at that key`.\n    // The maze of twisty little passages must *not* be all alike.\n    require(\n      uint(nodeLookup[newNodeKey].ipfs[0]) == 0,\n      \"A Node with _ipfs already exists!\"\n    );\n    \n    // Instantiate and save the new Node at its key.\n    nodeLookup[newNodeKey] = Node({\n      owner: msg.sender,\n      ipfs: _ipfs,\n      format: _format,\n      ownerNodesIndex: uint64(ownerLookup[msg.sender].nodeKeys.length), // We're gonna push it onto the end.\n      halfEdgeKeys: new uint256[](0)\n    });\n    \n    // Also save the new Node's key in its Owner's list of Node keys (don't need to create the Owner).\n    ownerLookup[msg.sender].nodeKeys.push(newNodeKey);\n    \n    // Log the Node creation.\n    emit NodeCreated(newNodeKey, msg.sender);\n  }\n  \n  /// @notice Delete a Node from the graph.\n  /// @param _nodeKey The key of the Node to delete from the graph.\n  function deleteNode(uint256 _nodeKey) external {\n    \n    // Get the Node being deleted.\n    Node memory node = nodeLookup[_nodeKey];\n    \n    // Make sure the Node exists and belongs to msg.sender (can do both checks at once, since if node doesn't exist, node.owner = 0x0).\n    require(\n      msg.sender == node.owner,\n      \"You must own this Node to be able to delete it.\"\n    );\n    \n    // Make sure the Node is not connected to any others.\n    for (uint8 i = 0; i < node.halfEdgeKeys.length; i++) {\n      require(\n        uint(halfEdgeLookup[node.halfEdgeKeys[i]].otherHalfEdgeKey) == 0,\n        \"You must disconnect this Node from all other Nodes before deleting it.\"\n      );\n    }\n    \n    // Delete the Node's up-to-6 HalfEdges (which we just confirmed were not connected to anything) from the halfEdgeLookup mapping.\n    // The only other references to them should be in the about-to-be-deleted Node and any about-to-be-invalidated EdgeProposals.\n    for (i = 0; i < node.halfEdgeKeys.length; i++) {\n      delete halfEdgeLookup[node.halfEdgeKeys[i]];\n    }\n    \n    // Delete the Node from its Owner's nodeKeys array:\n    // ...Get that array as storage because we'll be using it several times, modifying it, and want the changes to stick.\n    uint256[] storage nodeKeys = ownerLookup[msg.sender].nodeKeys;\n    \n    // ...If the Node is not the last element in the array, swap the last element over top of it.\n    uint64 index = node.ownerNodesIndex;\n    uint64 lastIndex = uint64(nodeKeys.length - 1);\n    if (index < lastIndex) {\n      nodeKeys[index] = nodeKeys[lastIndex];\n      nodeLookup[nodeKeys[index]].ownerNodesIndex = index; // Need to update that formerly-last Node's ownerNodesIndex too.\n    }\n    \n    // ...Either way, then delete the last element and shrink the array.\n    delete nodeKeys[lastIndex];\n    nodeKeys.length--;\n    \n    // Delete the Node's key from the nodeLookup mapping.\n    delete nodeLookup[_nodeKey];\n    \n    // Log the Node deletion.\n    emit NodeDeleted(_nodeKey, msg.sender);\n  }\n  \n  /// @notice Get how many Nodes are owned by the sender.\n  /// @return A uint256 containing how many Nodes the sender owns.\n  function getSenderNodeCount() public view returns (uint256) {\n    return ownerLookup[msg.sender].nodeKeys.length;\n  }\n  \n  /// @notice Get the key of the Node belonging to the sender at the given index in the sender's array of Nodes.\n  /// @param _index A uint256 containing the index of the Node to get (must be less than the number returned by getOwnerNodeCount).\n  /// @return A uint256 of the sender's Node key at the index.\n  function getSenderNodeKeyByIndex(uint256 _index) public view returns (uint256) {\n    \n    // Avoid index out of bounds exceptions.\n    require(\n      _index < ownerLookup[msg.sender].nodeKeys.length,\n      \"The index supplied was >= the number of the Nodes belonging to the Owner.\"\n    );\n    \n    // Do the lookup and return.\n    return ownerLookup[msg.sender].nodeKeys[_index];\n  }\n  \n  /// @notice Get all the relevant data for the Node with the given key: owner, ipfs, format, whether msg.sender owns the Node, and list of HalfEdge keys, with 0 for empty HalfEdge keys.\n  /// @param _nodeKey The uint256 key to look up the Node data for.\n  /// @return owner The address of the Node's owner.\n  /// @return ipfs A bytes32[2] containing the IPFS hash for the Node.\n  /// @return format A uint64 containing the Node's format.\n  /// @return halfEdgeKeys The keys of each of the HalfEdges, or 0 if that slot is currently empty.\n  /// @dev Callers are responsible for noticing 0-valued HalfEdge keys. Someday when dynamic return lengths are possible, this will just return the set of 0-6 HalfEdge keys without empty slots.\n  function getNode(uint256 _nodeKey) external view returns (\n    address owner,\n    bytes32[2] ipfs,\n    uint64 format,\n    uint256[6] halfEdgeKeys\n  ) {\n    \n    // Look up the Node in question.\n    Node memory node = nodeLookup[_nodeKey];\n    \n    // Make sure it exists.\n    require(\n      uint(node.owner) != 0,\n      \"Node does not exist.\"\n    );\n    \n    owner = node.owner;\n    ipfs = node.ipfs;\n    format = node.format;\n    \n    // Count how many halfEdgeKeys it has.\n    uint8 len = uint8(node.halfEdgeKeys.length);\n    \n    // Set our return values: the keys of each of the up-to-six HalfEdges, leaving it at 0 if beyond the current number of HalfEdges.\n    for (uint8 i = 0; i < len; i++) {\n      halfEdgeKeys[i] = node.halfEdgeKeys[i];\n    }\n  }\n  \n  /// @notice Create a new HalfEdge on the graph.\n  /// @param _nodeKey The uint256 key of the Node to which this HalfEdge will belong.\n  /// @param _ipfs A bytes32[2] containing the HalfEdge's IPFS hash. Must be unique among all HalfEdges in the graph. Content must have the same format as the Node.\n  function createHalfEdge(uint256 _nodeKey, bytes32[2] _ipfs) external {\n    \n    Node memory node = nodeLookup[_nodeKey];\n    \n    // Make sure msg.sender owns the Node.\n    require(\n      msg.sender == node.owner,\n      \"You must own this Node to be able to add a HalfEdge to it.\"\n    );\n    \n    // Make sure the Node doesn't already have 6 HalfEdges.\n    require(\n      node.halfEdgeKeys.length < 6,\n      \"You cannot have more than 6 HalfEdges on one Node.\"\n    );\n    \n    // Make sure _ipfs isn't already used for a HalfEdge.\n    // The paths connecting the maze of twisty little passages must *not* be all alike.\n    uint256 newHalfEdgeKey = keyFromIpfs(_ipfs);\n    require(\n      halfEdgeLookup[newHalfEdgeKey].nodeKey == 0,\n      \"A HalfEdge with _ipfs already exists!\"\n    );\n    \n    // Instantiate and save the new HalfEdge at its key.\n    halfEdgeLookup[newHalfEdgeKey] = HalfEdge({\n      nodeKey: _nodeKey,\n      ipfs: _ipfs,\n      otherHalfEdgeKey: 0\n    });\n    \n    // Add newHalfEdgeKey to its Node's halfEdgeKeys. // Note: make sure this 'sticks'... used to be 'node.halfEdgeKeys...' with 'node' as 'storage' above.\n    nodeLookup[_nodeKey].halfEdgeKeys.push(newHalfEdgeKey);\n    \n    // Log the creation.\n    emit HalfEdgeCreated(newHalfEdgeKey, msg.sender);\n  }\n  \n  /// @notice Delete a HalfEdge from the graph.\n  /// @param _halfEdgeKey The key of the HalfEdge to delete from the graph.\n  function deleteHalfEdge(uint256 _halfEdgeKey) external {\n    \n    // Get the HalfEdge being deleted. Aren't changing it, but need its data a couple of times, so memory.\n    HalfEdge memory halfEdge = halfEdgeLookup[_halfEdgeKey];\n    \n    // Make sure the HalfEdge exists by checking its nodeKey isn't 0, which it can never be,\n    // because the msg.sender at the time the HalfEdge was created needed to own the Node,\n    // and no one owns the Node with key 0 unless they know the preimage of keccak256 => 0 (if you do, please tell me :D).\n    require(\n      halfEdge.nodeKey != 0,\n      \"The HalfEdge must exist in order to be deleted.\"\n    );\n    \n    // Make sure the HalfEdge isn't connected to another.\n    require (\n      halfEdge.otherHalfEdgeKey == 0,\n      \"You must disconnect this HalfEdge from its other half before deleting it.\"\n    );\n    \n    // Get the Node of the HalfEdge being deleted. Will be changing its halfEdgeKeys array, so storage. (unless halfEdgeKeys storage later makes this unneeded???)\n    Node storage node = nodeLookup[halfEdge.nodeKey];\n    \n    // Make sure the HalfEdge belongs to msg.sender.\n    require (\n      msg.sender == node.owner,\n      \"You must own this HalfEdge to be able to delete it.\"\n    );\n    \n    // Delete the HalfEdge from its Node's halfEdgeKeys array:\n    // ...Get that array as storage because we'll be using it several times, modifying it, and want the changes to stick.\n    uint256[] storage halfEdgeKeys = node.halfEdgeKeys;\n    \n    // ...Check invariant: Nodes always have <= 6 HalfEdges.\n    assert(halfEdgeKeys.length <= 6);\n    \n    // ...Iterate (up to 6 times) to find index of _halfEdgeKey in halfEdgeKeys.\n    uint8 index = 0;\n    for (uint8 i = 0; i < halfEdgeKeys.length; i++) {\n      if (halfEdgeKeys[i] == _halfEdgeKey) {\n        index = i;\n        i = uint8(halfEdgeKeys.length); // cut out early\n      }\n    }\n    \n    // ...If the HalfEdge is not the last element in the array, swap the last element over top of it.\n    uint8 lastIndex = uint8(halfEdgeKeys.length - 1);\n    if (index < lastIndex) {\n      halfEdgeKeys[index] = halfEdgeKeys[lastIndex];\n    }\n    \n    // ...Either way, then delete the last element and shrink the array.\n    delete halfEdgeKeys[lastIndex];\n    halfEdgeKeys.length--;\n    \n    // Delete the HalfEdge from the halfEdgeLookup mapping.\n    delete halfEdgeLookup[_halfEdgeKey];\n    \n    // Log the deletion.\n    emit HalfEdgeDeleted(_halfEdgeKey, msg.sender);\n  }\n  \n  /// @notice Get the ipfs hash, format, and node key for the HalfEdge with this key, and for its otherHalfEdge if it exists, too.\n  /// @return nodeKey The uint256 key of the HalfEdge's Node.\n  /// @return ipfs A bytes32[2] containing the HalfEdge's IPFS hash.\n  /// @return format A uint64 containing the HalfEdge's format (from its Node)\n  /// @return connected A bool indicating if the HalfEdge is connected to another one.\n  /// @return othernodeKey The uint256 key of the other HalfEdge's Node, if connected (or 0 if not).\n  /// @return otherIpfs A bytes32[2] containing the IPFS hash of the other HalfEdge, if connected (or an array of two 0x0s if not).\n  /// @return otherFormat A uint64 containing the format of the other HalfEdge (from its Node), if connected (or 0 if not).\n  function getEdge(uint256 _halfEdgeKey) external view returns (\n    uint256 nodeKey,\n    bytes32[2] ipfs,\n    uint64 format,\n    bool connected,\n    uint256 othernodeKey,\n    bytes32[2] otherIpfs,\n    uint64 otherFormat\n  ) {\n    \n    // Grab the HalfEdge.\n    HalfEdge memory halfEdge = halfEdgeLookup[_halfEdgeKey];\n    \n    // Make sure it exists.\n    require(\n      halfEdge.nodeKey != 0,\n      \"HalfEdge does not exist.\"\n    );\n    \n    // Get this HalfEdge's data.\n    nodeKey = halfEdge.nodeKey;\n    ipfs = halfEdge.ipfs;\n    format = nodeLookup[halfEdge.nodeKey].format;\n    \n    // Check for and, if it exists, get, the otherHalfEdge's data.\n    if (halfEdge.otherHalfEdgeKey != 0) {\n      HalfEdge memory otherHalfEdge = halfEdgeLookup[halfEdge.otherHalfEdgeKey];\n      \n      // If otherHalfEdge doesn't exist, despite otherHalfEdgeKey not being 0, we have an invariant failure which we may as well check for here.\n      assert(otherHalfEdge.nodeKey != 0);\n      \n      connected = true;\n      othernodeKey = otherHalfEdge.nodeKey;\n      otherIpfs = otherHalfEdge.ipfs;\n      otherFormat = nodeLookup[otherHalfEdge.nodeKey].format;\n    }\n    // Else, just return the 0-initialized values.\n  }\n}\n",
  "sourcePath": "/home/noah/Programs/Javascript/web3/interweave.network/solidity/contracts/interweave-free/InterweaveGraph.sol",
  "compiler": {
    "name": "solc",
    "version": "0.4.24+commit.e67f0147.Emscripten.clang"
  },
  "schemaVersion": "2.0.1",
  "updatedAt": "2018-10-22T02:23:29.628Z"
}