{
  "contractName": "InterweaveFreeGraph",
  "abi": [
    {
      "anonymous": false,
      "inputs": [
        {
          "indexed": false,
          "name": "nodeKey",
          "type": "uint256"
        },
        {
          "indexed": true,
          "name": "ownerAddr",
          "type": "address"
        }
      ],
      "name": "NodeCreated",
      "type": "event"
    },
    {
      "anonymous": false,
      "inputs": [
        {
          "indexed": false,
          "name": "nodeKey",
          "type": "uint256"
        },
        {
          "indexed": true,
          "name": "ownerAddr",
          "type": "address"
        }
      ],
      "name": "NodeDeleted",
      "type": "event"
    },
    {
      "constant": true,
      "inputs": [
        {
          "name": "_ipfs",
          "type": "bytes32[2]"
        }
      ],
      "name": "nodeKeyFromIpfs",
      "outputs": [
        {
          "name": "",
          "type": "uint256"
        }
      ],
      "payable": false,
      "stateMutability": "pure",
      "type": "function"
    },
    {
      "constant": false,
      "inputs": [
        {
          "name": "_ipfs",
          "type": "bytes32[2]"
        }
      ],
      "name": "createNode",
      "outputs": [],
      "payable": false,
      "stateMutability": "nonpayable",
      "type": "function"
    },
    {
      "constant": false,
      "inputs": [
        {
          "name": "_nodeKey",
          "type": "uint256"
        }
      ],
      "name": "deleteNode",
      "outputs": [],
      "payable": false,
      "stateMutability": "nonpayable",
      "type": "function"
    },
    {
      "constant": true,
      "inputs": [
        {
          "name": "_nodeKey",
          "type": "uint256"
        }
      ],
      "name": "getNode",
      "outputs": [
        {
          "name": "ownerAddr",
          "type": "address"
        },
        {
          "name": "ipfs",
          "type": "bytes32[2]"
        },
        {
          "name": "edgeNodeKeys",
          "type": "uint256[6]"
        }
      ],
      "payable": false,
      "stateMutability": "view",
      "type": "function"
    }
  ],
  "bytecode": "0x608060405234801561001057600080fd5b50610cfa806100206000396000f300608060405260043610610062576000357c0100000000000000000000000000000000000000000000000000000000900463ffffffff16806341d2a256146100675780634f0f4aa91461009457806350ef21431461015f5780638265cb261461018c575b600080fd5b34801561007357600080fd5b50610092600480360381019080803590602001909291905050506101f2565b005b3480156100a057600080fd5b506100bf60048036038101908080359060200190929190505050610588565b604051808473ffffffffffffffffffffffffffffffffffffffff1673ffffffffffffffffffffffffffffffffffffffff16815260200183600260200280838360005b8381101561011c578082015181840152602081019050610101565b5050505090500182600660200280838360005b8381101561014a57808201518184015260208101905061012f565b50505050905001935050505060405180910390f35b34801561016b57600080fd5b5061018a60048036038101908080604001909192919290505050610756565b005b34801561019857600080fd5b506101dc6004803603810190808060400190600280602002604051908101604052809291908260026020028082843782019150505050509192919290505050610a41565b6040518082815260200191505060405180910390f35b6101fa610b0e565b6000602460003690501015151561020d57fe5b600080848152602001908152602001600020606060405190810160405290816000820160009054906101000a900473ffffffffffffffffffffffffffffffffffffffff1673ffffffffffffffffffffffffffffffffffffffff1673ffffffffffffffffffffffffffffffffffffffff168152602001600182016002806020026040519081016040528092919082600280156102c1576020028201915b815460001916815260200190600101908083116102a9575b5050505050815260200160038201600680602002604051908101604052809291908260068015610306576020028201915b8154815260200190600101908083116102f2575b5050505050815250509150816000015173ffffffffffffffffffffffffffffffffffffffff163373ffffffffffffffffffffffffffffffffffffffff161415156103de576040517f08c379a000000000000000000000000000000000000000000000000000000000815260040180806020018281038252602f8152602001807f596f75206d757374206f776e2074686973204e6f646520746f2062652061626c81526020017f6520746f2064656c6574652069742e000000000000000000000000000000000081525060400191505060405180910390fd5b600090505b60068160ff1610156104d957600082604001518260ff1660068110151561040657fe5b60200201511415156104cc576040517f08c379a00000000000000000000000000000000000000000000000000000000081526004018080602001828103825260468152602001807f596f75206d75737420646973636f6e6e6563742074686973204e6f646520667281526020017f6f6d20616c6c206f74686572204e6f646573206265666f72652064656c65746981526020017f6e672069742e000000000000000000000000000000000000000000000000000081525060600191505060405180910390fd5b80806001019150506103e3565b600080848152602001908152602001600020600080820160006101000a81549073ffffffffffffffffffffffffffffffffffffffff02191690556001820160006105239190610b53565b6003820160006105339190610b61565b50503373ffffffffffffffffffffffffffffffffffffffff167fabb39a19e31157f336be7f5ea824d929074835335c7c8e16966dd0c035def988846040518082815260200191505060405180910390a2505050565b6000610592610b74565b61059a610b96565b6105a2610b0e565b600080868152602001908152602001600020606060405190810160405290816000820160009054906101000a900473ffffffffffffffffffffffffffffffffffffffff1673ffffffffffffffffffffffffffffffffffffffff1673ffffffffffffffffffffffffffffffffffffffff16815260200160018201600280602002604051908101604052809291908260028015610656576020028201915b8154600019168152602001906001019080831161063e575b505050505081526020016003820160068060200260405190810160405280929190826006801561069b576020028201915b815481526020019060010190808311610687575b50505050508152505090506000816000015173ffffffffffffffffffffffffffffffffffffffff1614151515610739576040517f08c379a00000000000000000000000000000000000000000000000000000000081526004018080602001828103825260148152602001807f4e6f646520646f6573206e6f742065786973742e00000000000000000000000081525060200191505060405180910390fd5b806000015193508060200151925080604001519150509193909250565b6000610760610b0e565b604460003690501015151561077157fe5b600083600060028110151561078257fe5b6020020135600019166001900414151515610805576040517f08c379a00000000000000000000000000000000000000000000000000000000081526004018080602001828103825260138152602001807f5f697066735b305d2077617320656d707479210000000000000000000000000081525060200191505060405180910390fd5b6108338360028060200260405190810160405280929190826002602002808284378201915050505050610a41565b91506000806000848152602001908152602001600020600101600060028110151561085a57fe5b0154600190041415156108fb576040517f08c379a00000000000000000000000000000000000000000000000000000000081526004018080602001828103825260218152602001807f41204e6f64652077697468205f6970667320616c72656164792065786973747381526020017f210000000000000000000000000000000000000000000000000000000000000081525060400191505060405180910390fd5b33816000019073ffffffffffffffffffffffffffffffffffffffff16908173ffffffffffffffffffffffffffffffffffffffff1681525050826002806020026040519081016040528092919082600260200280828437820191505050505081602001819052508060008084815260200190815260200160002060008201518160000160006101000a81548173ffffffffffffffffffffffffffffffffffffffff021916908373ffffffffffffffffffffffffffffffffffffffff1602179055506020820151816001019060026109d2929190610bb9565b506040820151816003019060066109ea929190610bff565b509050503373ffffffffffffffffffffffffffffffffffffffff167fef9a38875abd2c44e371e4af5d2f965da6c9dc85ca1ff15a58dd8ddb70089d7e836040518082815260200191505060405180910390a2505050565b6000816000600281101515610a5257fe5b6020020151826001600281101515610a6657fe5b60200201516040516020018083600019166000191681526020018260001916600019168152602001925050506040516020818303038152906040526040518082805190602001908083835b602083101515610ad65780518252602082019150602081019050602083039250610ab1565b6001836020036101000a0380198251168184511680821785525050505050509050019150506040518091039020600190049050919050565b61012060405190810160405280600073ffffffffffffffffffffffffffffffffffffffff168152602001610b40610c3f565b8152602001610b4d610c61565b81525090565b506000815560010160009055565b508060060190610b719190610c84565b50565b6040805190810160405280600290602082028038833980820191505090505090565b60c060405190810160405280600690602082028038833980820191505090505090565b8260028101928215610bee579160200282015b82811115610bed578251829060001916905591602001919060010190610bcc565b5b509050610bfb9190610ca9565b5090565b8260068101928215610c2e579160200282015b82811115610c2d578251825591602001919060010190610c12565b5b509050610c3b9190610c84565b5090565b6040805190810160405280600290602082028038833980820191505090505090565b60c060405190810160405280600690602082028038833980820191505090505090565b610ca691905b80821115610ca2576000816000905550600101610c8a565b5090565b90565b610ccb91905b80821115610cc7576000816000905550600101610caf565b5090565b905600a165627a7a72305820396fbccaf04f8220075fe2ce8629eda35a40f28cc52d66a933a1684ada5410420029",
  "source": "pragma solidity ^0.4.24;\n\n/// @title The Interweave Free graph contract.\n/// @author interweaver\n/// @notice This is still a development version, but for now, is intended to represent a full graph.\ncontract InterweaveFreeGraph {\n    \n  /// @notice Node struct represents a node in the graph (a place), with owner, representation with format, and connections to other Nodes.\n  struct Node {\n    address ownerAddr;\n    bytes32[2] ipfs;\n    uint256[6] edgeNodeKeys;\n  }\n  \n  /// @notice A new Node was created on the graph.\n  /// @param nodeKey The key of the created Node.\n  /// @param ownerAddr The address of the new Node's Owner.\n  event NodeCreated(uint256 nodeKey, address indexed ownerAddr);\n  \n  /// @notice A Node was deleted from the graph.\n  /// @param nodeKey The key of the deleted Node.\n  /// @param ownerAddr The address of the old Node's Owner.\n  event NodeDeleted(uint256 nodeKey, address indexed ownerAddr);\n  \n  /// @notice A Mapping allowing lookup of Nodes by their keys.\n  /// @dev Node keys = uint256(kekkac(ipfs))\n  mapping (uint256 => Node) internal nodeLookup;\n  \n  /// @notice A function to generate a unique key for a Node from a given IPFS hash.\n  /// @param _ipfs A bytes32[2] to use to generate the new key.\n  /// @return A uint256 key.\n  function nodeKeyFromIpfs(bytes32[2] _ipfs) public pure returns (uint256) {\n    return uint256(\n      keccak256(\n        abi.encodePacked(\n          _ipfs[0],\n          _ipfs[1]\n        )\n      )\n    );\n  }\n  \n  /// @notice Create a new Node on the graph.\n  /// @param _ipfs The IPFS hash string of the Node's content file, in two bytes32. Must be unique across all Nodes in the graph.\n  /// @dev If the caller wants to know the key of their new Node, they can always call nodeKeyFromIpfs on their IPFS hash, before or after Node creation (assuming it doesn't fail.)\n  function createNode(bytes32[2] _ipfs) external {\n    assert(msg.data.length >= 68); // 32 bytes per bytes32 (duh) * 2 bytes32 + 4 = 68\n    \n    // Make sure there's something other than 0 in the first chunk of the ipfs hash.\n    require(\n      uint(_ipfs[0]) != 0,\n      \"_ipfs[0] was empty!\"\n    );\n    \n    // Generate Node's key.\n    uint256 newNodeKey = nodeKeyFromIpfs(_ipfs);\n    \n    // There must not already be a Node at that key`.\n    // The maze of twisty little passages must *not* be all alike.\n    require(\n      uint(nodeLookup[newNodeKey].ipfs[0]) == 0,\n      \"A Node with _ipfs already exists!\"\n    );\n    \n    // Instantiate and save the new Node at its key.\n    Node memory newNode;\n    newNode.ownerAddr = msg.sender;\n    newNode.ipfs = _ipfs;\n    \n    nodeLookup[newNodeKey] = newNode; // Set 3 slots of storage: 60k gas\n    \n    // Log the Node creation.\n    emit NodeCreated(newNodeKey, msg.sender);\n  }\n  \n  /// @notice Delete a Node from the graph.\n  /// @param _nodeKey The key of the Node to delete from the graph.\n  function deleteNode(uint256 _nodeKey) external {\n    assert(msg.data.length >= 36); // 32 bytes per uint256 + 4 = 36\n    \n    // Get the Node being deleted.\n    Node memory node = nodeLookup[_nodeKey];\n    \n    // Make sure the Node exists and belongs to msg.sender (can do both checks at once, since if node doesn't exist, node.owner = 0x0).\n    require(\n      msg.sender == node.ownerAddr,\n      \"You must own this Node to be able to delete it.\"\n    );\n    \n    // Make sure the Node is not connected to any others.\n    for (uint8 i = 0; i < 6; i++) {\n      require(\n        uint(node.edgeNodeKeys[i]) == 0,\n        \"You must disconnect this Node from all other Nodes before deleting it.\"\n      );\n    }\n    \n    // Delete the Node's key from the nodeLookup mapping.\n    delete nodeLookup[_nodeKey];\n    \n    // Log the Node deletion.\n    emit NodeDeleted(_nodeKey, msg.sender);\n  }\n  \n  /// @notice Get all the relevant data for the Node with the given key: owner, ipfs, and list of edge Node keys, with 0 for empty keys.\n  /// @param _nodeKey The uint256 key to look up the Node data for.\n  /// @return ownerAddr The address of the Node's owner.\n  /// @return ipfs A bytes32[2] containing the IPFS hash for the Node.\n  /// @return edgeNodeKeys The keys of each of the edge Nodes, or 0 if that slot is currently empty.\n  /// @dev Callers are responsible for ignoring 0-valued edgeNodeKeys entries. Someday when dynamic return lengths are possible, this will just return the set of 0-6 HalfEdge keys without empty slots.\n  function getNode(uint256 _nodeKey) external view returns (\n    address ownerAddr,\n    bytes32[2] ipfs,\n    uint256[6] edgeNodeKeys\n  ) {\n    \n    // Look up the Node in question.\n    Node memory node = nodeLookup[_nodeKey];\n    \n    // Make sure it exists.\n    require(\n      uint(node.ownerAddr) != 0,\n      \"Node does not exist.\"\n    );\n    \n    ownerAddr = node.ownerAddr;\n    ipfs = node.ipfs;\n    edgeNodeKeys = node.edgeNodeKeys;\n  }\n}\n",
  "sourcePath": "/home/noah/Programs/Javascript/web3/interweave.network/solidity/contracts/interweave-free/InterweaveFreeGraph.sol",
  "compiler": {
    "name": "solc",
    "version": "0.4.24+commit.e67f0147.Emscripten.clang"
  },
  "schemaVersion": "2.0.1",
  "updatedAt": "2018-10-28T21:52:39.901Z"
}