{
  "contractName": "InterweaveProposals",
  "abi": [
    {
      "constant": false,
      "inputs": [
        {
          "name": "_nodeKey",
          "type": "uint256"
        }
      ],
      "name": "deleteNode",
      "outputs": [],
      "payable": false,
      "stateMutability": "nonpayable",
      "type": "function"
    },
    {
      "constant": true,
      "inputs": [
        {
          "name": "_nodeKey",
          "type": "uint256"
        }
      ],
      "name": "getNode",
      "outputs": [
        {
          "name": "ownerAddr",
          "type": "address"
        },
        {
          "name": "ipfs",
          "type": "bytes32[2]"
        },
        {
          "name": "edgeNodeKeys",
          "type": "uint256[6]"
        }
      ],
      "payable": false,
      "stateMutability": "view",
      "type": "function"
    },
    {
      "constant": false,
      "inputs": [
        {
          "name": "_ipfs",
          "type": "bytes32[2]"
        }
      ],
      "name": "createNode",
      "outputs": [],
      "payable": false,
      "stateMutability": "nonpayable",
      "type": "function"
    },
    {
      "constant": true,
      "inputs": [
        {
          "name": "_ipfs",
          "type": "bytes32[2]"
        }
      ],
      "name": "nodeKeyFromIpfs",
      "outputs": [
        {
          "name": "",
          "type": "uint256"
        }
      ],
      "payable": false,
      "stateMutability": "pure",
      "type": "function"
    },
    {
      "anonymous": false,
      "inputs": [
        {
          "indexed": false,
          "name": "edgeProposalKey",
          "type": "uint256"
        },
        {
          "indexed": true,
          "name": "proposerAddr",
          "type": "address"
        },
        {
          "indexed": true,
          "name": "proposedToAddr",
          "type": "address"
        }
      ],
      "name": "EdgeProposalCreated",
      "type": "event"
    },
    {
      "anonymous": false,
      "inputs": [
        {
          "indexed": false,
          "name": "edgeProposalKey",
          "type": "uint256"
        },
        {
          "indexed": true,
          "name": "accepterAddr",
          "type": "address"
        },
        {
          "indexed": true,
          "name": "acceptedAddr",
          "type": "address"
        }
      ],
      "name": "EdgeProposalAccepted",
      "type": "event"
    },
    {
      "anonymous": false,
      "inputs": [
        {
          "indexed": false,
          "name": "edgeProposalKey",
          "type": "uint256"
        },
        {
          "indexed": true,
          "name": "rejecterAddr",
          "type": "address"
        },
        {
          "indexed": true,
          "name": "rejectedAddr",
          "type": "address"
        }
      ],
      "name": "EdgeProposalRejected",
      "type": "event"
    },
    {
      "anonymous": false,
      "inputs": [
        {
          "indexed": false,
          "name": "nodeKey0",
          "type": "uint256"
        },
        {
          "indexed": false,
          "name": "nodeKey1",
          "type": "uint256"
        },
        {
          "indexed": false,
          "name": "slot0",
          "type": "uint8"
        },
        {
          "indexed": false,
          "name": "slot1",
          "type": "uint8"
        },
        {
          "indexed": true,
          "name": "ownerAddr0",
          "type": "address"
        },
        {
          "indexed": true,
          "name": "ownerAddr1",
          "type": "address"
        }
      ],
      "name": "EdgeCreated",
      "type": "event"
    },
    {
      "anonymous": false,
      "inputs": [
        {
          "indexed": false,
          "name": "nodeKey0",
          "type": "uint256"
        },
        {
          "indexed": false,
          "name": "nodeKey1",
          "type": "uint256"
        },
        {
          "indexed": false,
          "name": "slot0",
          "type": "uint8"
        },
        {
          "indexed": false,
          "name": "slot1",
          "type": "uint8"
        },
        {
          "indexed": true,
          "name": "ownerAddr0",
          "type": "address"
        },
        {
          "indexed": true,
          "name": "ownerAddr1",
          "type": "address"
        }
      ],
      "name": "EdgeDeleted",
      "type": "event"
    },
    {
      "anonymous": false,
      "inputs": [
        {
          "indexed": false,
          "name": "nodeKey",
          "type": "uint256"
        },
        {
          "indexed": true,
          "name": "ownerAddr",
          "type": "address"
        }
      ],
      "name": "NodeCreated",
      "type": "event"
    },
    {
      "anonymous": false,
      "inputs": [
        {
          "indexed": false,
          "name": "nodeKey",
          "type": "uint256"
        },
        {
          "indexed": true,
          "name": "ownerAddr",
          "type": "address"
        }
      ],
      "name": "NodeDeleted",
      "type": "event"
    },
    {
      "constant": true,
      "inputs": [
        {
          "name": "_nodeKey0",
          "type": "uint256"
        },
        {
          "name": "_nodeKey1",
          "type": "uint256"
        },
        {
          "name": "_slot0",
          "type": "uint8"
        },
        {
          "name": "_slot1",
          "type": "uint8"
        }
      ],
      "name": "edgeProposalKeyFromNodesAndSlots",
      "outputs": [
        {
          "name": "",
          "type": "uint256"
        }
      ],
      "payable": false,
      "stateMutability": "pure",
      "type": "function"
    },
    {
      "constant": false,
      "inputs": [
        {
          "name": "_nodeKey0",
          "type": "uint256"
        },
        {
          "name": "_nodeKey1",
          "type": "uint256"
        },
        {
          "name": "_slot0",
          "type": "uint8"
        },
        {
          "name": "_slot1",
          "type": "uint8"
        },
        {
          "name": "_message",
          "type": "bytes30"
        }
      ],
      "name": "createEdgeProposal",
      "outputs": [],
      "payable": false,
      "stateMutability": "nonpayable",
      "type": "function"
    },
    {
      "constant": false,
      "inputs": [
        {
          "name": "_edgeProposalKey",
          "type": "uint256"
        }
      ],
      "name": "acceptEdgeProposal",
      "outputs": [],
      "payable": false,
      "stateMutability": "nonpayable",
      "type": "function"
    },
    {
      "constant": false,
      "inputs": [
        {
          "name": "_edgeProposalKey",
          "type": "uint256"
        }
      ],
      "name": "rejectEdgeProposal",
      "outputs": [],
      "payable": false,
      "stateMutability": "nonpayable",
      "type": "function"
    },
    {
      "constant": true,
      "inputs": [
        {
          "name": "_edgeProposalKey",
          "type": "uint256"
        }
      ],
      "name": "getEdgeProposal",
      "outputs": [
        {
          "name": "nodeKey0",
          "type": "uint256"
        },
        {
          "name": "nodeKey1",
          "type": "uint256"
        },
        {
          "name": "message",
          "type": "bytes30"
        },
        {
          "name": "slot0",
          "type": "uint8"
        },
        {
          "name": "slot1",
          "type": "uint8"
        },
        {
          "name": "valid",
          "type": "bool"
        },
        {
          "name": "connect",
          "type": "bool"
        }
      ],
      "payable": false,
      "stateMutability": "view",
      "type": "function"
    }
  ],
  "bytecode": "0x608060405234801561001057600080fd5b50612707806100206000396000f300608060405260043610610099576000357c0100000000000000000000000000000000000000000000000000000000900463ffffffff1680633c67756e1461009e57806341d2a256146100fe5780634f0f4aa91461012b57806350ef2143146101f65780637240e8be146102235780638265cb26146102505780639dfb9c4f146102b6578063b7fe4d8a146102e3578063c33f39811461036c575b600080fd5b3480156100aa57600080fd5b506100fc6004803603810190808035906020019092919080359060200190929190803560ff169060200190929190803560ff169060200190929190803561ffff191690602001909291905050506103d1565b005b34801561010a57600080fd5b5061012960048036038101908080359060200190929190505050610d13565b005b34801561013757600080fd5b50610156600480360381019080803590602001909291905050506110a9565b604051808473ffffffffffffffffffffffffffffffffffffffff1673ffffffffffffffffffffffffffffffffffffffff16815260200183600260200280838360005b838110156101b3578082015181840152602081019050610198565b5050505090500182600660200280838360005b838110156101e15780820151818401526020810190506101c6565b50505050905001935050505060405180910390f35b34801561020257600080fd5b5061022160048036038101908080604001909192919290505050611277565b005b34801561022f57600080fd5b5061024e60048036038101908080359060200190929190505050611562565b005b34801561025c57600080fd5b506102a06004803603810190808060400190600280602002604051908101604052809291908260026020028082843782019150505050509192919290505050611ba0565b6040518082815260200191505060405180910390f35b3480156102c257600080fd5b506102e160048036038101908080359060200190929190505050611c6d565b005b3480156102ef57600080fd5b5061030e60048036038101908080359060200190929190505050612023565b604051808881526020018781526020018661ffff191661ffff191681526020018560ff1660ff1681526020018460ff1660ff168152602001831515151581526020018215151515815260200197505050505050505060405180910390f35b34801561037857600080fd5b506103bb6004803603810190808035906020019092919080359060200190929190803560ff169060200190929190803560ff169060200190929190505050612352565b6040518082815260200191505060405180910390f35b600080600080600060646000369050101515156103ea57fe5b60068860ff16108015610400575060068760ff16105b151561049a576040517f08c379a00000000000000000000000000000000000000000000000000000000081526004018080602001828103825260248152602001807f426f746820736c6f7473206d75737420626520696e207468652072616e67652081526020017f302d352e0000000000000000000000000000000000000000000000000000000081525060400191505060405180910390fd5b6000808b815260200190815260200160002094503373ffffffffffffffffffffffffffffffffffffffff168560000160009054906101000a900473ffffffffffffffffffffffffffffffffffffffff1673ffffffffffffffffffffffffffffffffffffffff161415156105e7576040517f08c379a00000000000000000000000000000000000000000000000000000000081526004018080602001828103825260618152602001807f596f75206d757374206f776e20746865204e6f6465206174205f6e6f64654b6581526020017f793020696e206f7264657220746f206d616e616765206974732065646765204e81526020017f6f6465732c206f72206974206d69676874206e6f74206576656e20657869737481526020017f2e0000000000000000000000000000000000000000000000000000000000000081525060800191505060405180910390fd5b6000808a8152602001908152602001600020935060008460000160009054906101000a900473ffffffffffffffffffffffffffffffffffffffff1673ffffffffffffffffffffffffffffffffffffffff16141515156106d4576040517f08c379a00000000000000000000000000000000000000000000000000000000081526004018080602001828103825260218152602001807f546865204e6f6465206174205f6e6f64654b657931206d75737420657869737481526020017f2e0000000000000000000000000000000000000000000000000000000000000081525060400191505060405180910390fd5b88856003018960ff166006811015156106e957fe5b015414801561070c575089846003018860ff1660068110151561070857fe5b0154145b8061074d57506000856003018960ff1660068110151561072857fe5b015414801561074c57506000846003018860ff1660068110151561074857fe5b0154145b5b15156107a4576040517f08c379a00000000000000000000000000000000000000000000000000000000081526004018080602001828103825260888152602001806126546088913960a00191505060405180910390fd5b3373ffffffffffffffffffffffffffffffffffffffff168460000160009054906101000a900473ffffffffffffffffffffffffffffffffffffffff1673ffffffffffffffffffffffffffffffffffffffff1614156109a1576000856003018960ff1660068110151561081257fe5b015414156108dc5788856003018960ff1660068110151561082f57fe5b018190555089846003018860ff1660068110151561084957fe5b01819055503373ffffffffffffffffffffffffffffffffffffffff163373ffffffffffffffffffffffffffffffffffffffff167fd7162c4b7f6660ae48c28fe9860a7b3e74aade1b9943852324b8d66a190942918c8c8c8c604051808581526020018481526020018360ff1660ff1681526020018260ff1660ff16815260200194505050505060405180910390a361099c565b6000856003018960ff166006811015156108f257fe5b01819055506000846003018860ff1660068110151561090d57fe5b01819055503373ffffffffffffffffffffffffffffffffffffffff163373ffffffffffffffffffffffffffffffffffffffff167fa3737c032bca6f4fb41302249d8e3c9bfaf3e370e588fe3ad5a6184c44a7e87a8c8c8c8c604051808581526020018481526020018360ff1660ff1681526020018260ff1660ff16815260200194505050505060405180910390a35b610d07565b6109ad8a8a8a8a612352565b925060006001600085815260200190815260200160002060000154141515610a89576040517f08c379a00000000000000000000000000000000000000000000000000000000081526004018080602001828103825260468152602001807f54686973206578616374204564676550726f706f73616c20616c72656164792081526020017f6578697374732e20596f752063616e2072656a65637420697420696620796f7581526020017f2077616e742e000000000000000000000000000000000000000000000000000081525060600191505060405180910390fd5b610a95898b898b612352565b915060006001600084815260200190815260200160002060000154141515610b71576040517f08c379a00000000000000000000000000000000000000000000000000000000081526004018080602001828103825260548152602001807f5468652072657665727365206f662074686973204564676550726f706f73616c81526020017f20616c7265616479206578697374732e20596f752063616e206569746865722081526020017f72656a656374206f72206163636570742069742e00000000000000000000000081525060600191505060405180910390fd5b8561ffff1916905060f0887f0100000000000000000000000000000000000000000000000000000000000000027effffffffffffffffffffffffffffffffffffffffffffffffffffffffffffff1916600019169060020a90048117905060f8877f0100000000000000000000000000000000000000000000000000000000000000027effffffffffffffffffffffffffffffffffffffffffffffffffffffffffffff1916600019169060020a9004811790506060604051908101604052808b81526020018a81526020018260001916815250600160008581526020019081526020016000206000820151816000015560208201518160010155604082015181600201906000191690559050508360000160009054906101000a900473ffffffffffffffffffffffffffffffffffffffff1673ffffffffffffffffffffffffffffffffffffffff163373ffffffffffffffffffffffffffffffffffffffff167f10d8d0812bf060fa8b8427a2b5c1874d62be37075619e34c1b7d0cf5d4a15b12856040518082815260200191505060405180910390a35b50505050505050505050565b610d1b61244c565b60006024600036905010151515610d2e57fe5b600080848152602001908152602001600020606060405190810160405290816000820160009054906101000a900473ffffffffffffffffffffffffffffffffffffffff1673ffffffffffffffffffffffffffffffffffffffff1673ffffffffffffffffffffffffffffffffffffffff16815260200160018201600280602002604051908101604052809291908260028015610de2576020028201915b81546000191681526020019060010190808311610dca575b5050505050815260200160038201600680602002604051908101604052809291908260068015610e27576020028201915b815481526020019060010190808311610e13575b5050505050815250509150816000015173ffffffffffffffffffffffffffffffffffffffff163373ffffffffffffffffffffffffffffffffffffffff16141515610eff576040517f08c379a000000000000000000000000000000000000000000000000000000000815260040180806020018281038252602f8152602001807f596f75206d757374206f776e2074686973204e6f646520746f2062652061626c81526020017f6520746f2064656c6574652069742e000000000000000000000000000000000081525060400191505060405180910390fd5b600090505b60068160ff161015610ffa57600082604001518260ff16600681101515610f2757fe5b6020020151141515610fed576040517f08c379a00000000000000000000000000000000000000000000000000000000081526004018080602001828103825260468152602001807f596f75206d75737420646973636f6e6e6563742074686973204e6f646520667281526020017f6f6d20616c6c206f74686572204e6f646573206265666f72652064656c65746981526020017f6e672069742e000000000000000000000000000000000000000000000000000081525060600191505060405180910390fd5b8080600101915050610f04565b600080848152602001908152602001600020600080820160006101000a81549073ffffffffffffffffffffffffffffffffffffffff02191690556001820160006110449190612491565b600382016000611054919061249f565b50503373ffffffffffffffffffffffffffffffffffffffff167fabb39a19e31157f336be7f5ea824d929074835335c7c8e16966dd0c035def988846040518082815260200191505060405180910390a2505050565b60006110b36124b2565b6110bb6124d4565b6110c361244c565b600080868152602001908152602001600020606060405190810160405290816000820160009054906101000a900473ffffffffffffffffffffffffffffffffffffffff1673ffffffffffffffffffffffffffffffffffffffff1673ffffffffffffffffffffffffffffffffffffffff16815260200160018201600280602002604051908101604052809291908260028015611177576020028201915b8154600019168152602001906001019080831161115f575b50505050508152602001600382016006806020026040519081016040528092919082600680156111bc576020028201915b8154815260200190600101908083116111a8575b50505050508152505090506000816000015173ffffffffffffffffffffffffffffffffffffffff161415151561125a576040517f08c379a00000000000000000000000000000000000000000000000000000000081526004018080602001828103825260148152602001807f4e6f646520646f6573206e6f742065786973742e00000000000000000000000081525060200191505060405180910390fd5b806000015193508060200151925080604001519150509193909250565b600061128161244c565b604460003690501015151561129257fe5b60008360006002811015156112a357fe5b6020020135600019166001900414151515611326576040517f08c379a00000000000000000000000000000000000000000000000000000000081526004018080602001828103825260138152602001807f5f697066735b305d2077617320656d707479210000000000000000000000000081525060200191505060405180910390fd5b6113548360028060200260405190810160405280929190826002602002808284378201915050505050611ba0565b91506000806000848152602001908152602001600020600101600060028110151561137b57fe5b01546001900414151561141c576040517f08c379a00000000000000000000000000000000000000000000000000000000081526004018080602001828103825260218152602001807f41204e6f64652077697468205f6970667320616c72656164792065786973747381526020017f210000000000000000000000000000000000000000000000000000000000000081525060400191505060405180910390fd5b33816000019073ffffffffffffffffffffffffffffffffffffffff16908173ffffffffffffffffffffffffffffffffffffffff1681525050826002806020026040519081016040528092919082600260200280828437820191505050505081602001819052508060008084815260200190815260200160002060008201518160000160006101000a81548173ffffffffffffffffffffffffffffffffffffffff021916908373ffffffffffffffffffffffffffffffffffffffff1602179055506020820151816001019060026114f39291906124f7565b5060408201518160030190600661150b92919061253d565b509050503373ffffffffffffffffffffffffffffffffffffffff167fef9a38875abd2c44e371e4af5d2f965da6c9dc85ca1ff15a58dd8ddb70089d7e836040518082815260200191505060405180910390a2505050565b61156a61257d565b600080600080602460003690501015151561158157fe5b60016000878152602001908152602001600020606060405190810160405290816000820154815260200160018201548152602001600282015460001916600019168152505094508460400151601e6020811015156115db57fe5b1a7f0100000000000000000000000000000000000000000000000000000000000000027f0100000000000000000000000000000000000000000000000000000000000000900493508460400151601f60208110151561163657fe5b1a7f0100000000000000000000000000000000000000000000000000000000000000027f0100000000000000000000000000000000000000000000000000000000000000900492506000808660200151815260200190815260200160002091503373ffffffffffffffffffffffffffffffffffffffff168260000160009054906101000a900473ffffffffffffffffffffffffffffffffffffffff1673ffffffffffffffffffffffffffffffffffffffff161415156117a9576040517f08c379a00000000000000000000000000000000000000000000000000000000081526004018080602001828103825260568152602001807f596f75206d757374206f776e20746865204564676550726f706f73616c206e6f81526020017f64654b657931204e6f64652c206f7220746865204564676550726f706f73616c81526020017f206d69676874206e6f74206576656e2065786973742e0000000000000000000081525060600191505060405180910390fd5b6000808660000151815260200190815260200160002090508460200151816003018560ff166006811015156117da57fe5b015414801561180157508460000151826003018460ff166006811015156117fd57fe5b0154145b8061184257506000816003018560ff1660068110151561181d57fe5b015414801561184157506000826003018460ff1660068110151561183d57fe5b0154145b5b1515611899576040517f08c379a00000000000000000000000000000000000000000000000000000000081526004018080602001828103825260888152602001806126546088913960a00191505060405180910390fd5b600160008781526020019081526020016000206000808201600090556001820160009055600282016000905550506000816003018560ff166006811015156118dd57fe5b015414156119ff578460200151816003018560ff166006811015156118fe57fe5b01819055508460000151826003018460ff1660068110151561191c57fe5b01819055508160000160009054906101000a900473ffffffffffffffffffffffffffffffffffffffff1673ffffffffffffffffffffffffffffffffffffffff168160000160009054906101000a900473ffffffffffffffffffffffffffffffffffffffff1673ffffffffffffffffffffffffffffffffffffffff167fd7162c4b7f6660ae48c28fe9860a7b3e74aade1b9943852324b8d66a19094291876000015188602001518888604051808581526020018481526020018360ff1660ff1681526020018260ff1660ff16815260200194505050505060405180910390a3611b0f565b6000816003018560ff16600681101515611a1557fe5b01819055506000826003018460ff16600681101515611a3057fe5b01819055508160000160009054906101000a900473ffffffffffffffffffffffffffffffffffffffff1673ffffffffffffffffffffffffffffffffffffffff168160000160009054906101000a900473ffffffffffffffffffffffffffffffffffffffff1673ffffffffffffffffffffffffffffffffffffffff167fa3737c032bca6f4fb41302249d8e3c9bfaf3e370e588fe3ad5a6184c44a7e87a876000015188602001518888604051808581526020018481526020018360ff1660ff1681526020018260ff1660ff16815260200194505050505060405180910390a35b8060000160009054906101000a900473ffffffffffffffffffffffffffffffffffffffff1673ffffffffffffffffffffffffffffffffffffffff163373ffffffffffffffffffffffffffffffffffffffff167f33bdeda20509e2320ed4a46ac328ce49d915867a212b7cd7334a00f764fab065886040518082815260200191505060405180910390a3505050505050565b6000816000600281101515611bb157fe5b6020020151826001600281101515611bc557fe5b60200201516040516020018083600019166000191681526020018260001916600019168152602001925050506040516020818303038152906040526040518082805190602001908083835b602083101515611c355780518252602082019150602081019050602083039250611c10565b6001836020036101000a0380198251168184511680821785525050505050509050019150506040518091039020600190049050919050565b611c7561257d565b611c7d6125a2565b6024600036905010151515611c8e57fe5b600160008481526020019081526020016000206060604051908101604052908160008201548152602001600182015481526020016002820154600019166000191681525050915060408051908101604052806000808560000151815260200190815260200160002060000160009054906101000a900473ffffffffffffffffffffffffffffffffffffffff1673ffffffffffffffffffffffffffffffffffffffff1673ffffffffffffffffffffffffffffffffffffffff1681526020016000808560200151815260200190815260200160002060000160009054906101000a900473ffffffffffffffffffffffffffffffffffffffff1673ffffffffffffffffffffffffffffffffffffffff1673ffffffffffffffffffffffffffffffffffffffff1681525090503373ffffffffffffffffffffffffffffffffffffffff16816000600281101515611ddc57fe5b602002015173ffffffffffffffffffffffffffffffffffffffff161480611e4157503373ffffffffffffffffffffffffffffffffffffffff16816001600281101515611e2457fe5b602002015173ffffffffffffffffffffffffffffffffffffffff16145b1515611f27576040517f08c379a000000000000000000000000000000000000000000000000000000000815260040180806020018281038252606a8152602001807f596f75206d75737420626520656974686572207468652070726f706f7365722081526020017f6f72207468652070726f706f736564546f20746f2072656a656374207468697381526020017f204564676550726f706f73616c2c206f72206974206d69676874206e6f74206581526020017f76656e2065786973742e0000000000000000000000000000000000000000000081525060800191505060405180910390fd5b60016000848152602001908152602001600020600080820160009055600182016000905560028201600090555050803373ffffffffffffffffffffffffffffffffffffffff16826000600281101515611f7c57fe5b602002015173ffffffffffffffffffffffffffffffffffffffff1614611fa3576000611fa6565b60015b60ff16600281101515611fb557fe5b602002015173ffffffffffffffffffffffffffffffffffffffff163373ffffffffffffffffffffffffffffffffffffffff167ff9b73c038e1aee520744cbbb4c257f3ee450509e6eea8a41f8291670a642e5eb856040518082815260200191505060405180910390a3505050565b600080600080600080600061203661257d565b600080600160008c8152602001908152602001600020606060405190810160405290816000820154815260200160018201548152602001600282015460001916600019168152505092506000836000015114151515612123576040517f08c379a00000000000000000000000000000000000000000000000000000000081526004018080602001828103825260308152602001807f546865204564676550726f706f73616c206174205f6564676550726f706f736181526020017f6c4b6579206d7573742065786973742e0000000000000000000000000000000081525060400191505060405180910390fd5b8260000151995082602001519850826040015197508260400151601e60208110151561214b57fe5b1a7f0100000000000000000000000000000000000000000000000000000000000000027f0100000000000000000000000000000000000000000000000000000000000000900496508260400151601f6020811015156121a657fe5b1a7f0100000000000000000000000000000000000000000000000000000000000000027f01000000000000000000000000000000000000000000000000000000000000009004955060008060008c815260200190815260200160002060000160009054906101000a900473ffffffffffffffffffffffffffffffffffffffff1673ffffffffffffffffffffffffffffffffffffffff161480612293575060008060008b815260200190815260200160002060000160009054906101000a900473ffffffffffffffffffffffffffffffffffffffff1673ffffffffffffffffffffffffffffffffffffffff16145b156122a5576000945060009350612344565b6000808b81526020019081526020016000206003018760ff166006811015156122ca57fe5b015491506000808a81526020019081526020016000206003018660ff166006811015156122f357fe5b01549050888214801561230557508981145b15612317576001945060009350612343565b6000821480156123275750600081145b15612339576001945060019350612342565b60009450600093505b5b5b505050919395979092949650565b600084848484604051602001808581526020018481526020018360ff1660ff167f01000000000000000000000000000000000000000000000000000000000000000281526001018260ff1660ff167f01000000000000000000000000000000000000000000000000000000000000000281526001019450505050506040516020818303038152906040526040518082805190602001908083835b60208310151561241157805182526020820191506020810190506020830392506123ec565b6001836020036101000a0380198251168184511680821785525050505050509050019150506040518091039020600190049050949350505050565b61012060405190810160405280600073ffffffffffffffffffffffffffffffffffffffff16815260200161247e6125c4565b815260200161248b6125e6565b81525090565b506000815560010160009055565b5080600601906124af9190612609565b50565b6040805190810160405280600290602082028038833980820191505090505090565b60c060405190810160405280600690602082028038833980820191505090505090565b826002810192821561252c579160200282015b8281111561252b57825182906000191690559160200191906001019061250a565b5b509050612539919061262e565b5090565b826006810192821561256c579160200282015b8281111561256b578251825591602001919060010190612550565b5b5090506125799190612609565b5090565b6060604051908101604052806000815260200160008152602001600080191681525090565b6040805190810160405280600290602082028038833980820191505090505090565b6040805190810160405280600290602082028038833980820191505090505090565b60c060405190810160405280600690602082028038833980820191505090505090565b61262b91905b8082111561262757600081600090555060010161260f565b5090565b90565b61265091905b8082111561264c576000816000905550600101612634565b5090565b905600546865204e6f64657320736c6f7473206174205f6e6f64654b657930205f736c6f743020616e64205f6e6f64654b657931205f736c6f7431206d7573742062652065697468657220626f746820636f6e6e656374656420746f2065616368206f74686572206f7220626f746820646973636f6e6e65637465642066726f6d20616e79204e6f64652ea165627a7a72305820dfcd53c45e41efef67e2b89b957ec9c6bdb7044f67bb3afd190158b63e928a0d0029",
  "source": "pragma solidity ^0.4.24;\nimport \"./InterweaveGraph.sol\";\n\ncontract InterweaveProposals is InterweaveGraph {\n  \n  /// @notice EdgeProposal struct represents a proposal to connect or disconnect two Nodes via specific slots. The Node at nodeKey0 belongs to the proposer.\n  struct EdgeProposal {\n    uint256 nodeKey0;\n    uint256 nodeKey1;\n    bytes32 messageAndSlots; // byte 30 is slot0 and byte 31 is slot1\n  }\n  \n  /// @notice An EdgeProposal was created.\n  /// @param edgeProposalKey The uint256 key of the created EdgeProposal.\n  /// @param proposerAddr The Ethereum address of the Owner who created the EdgeProposal.\n  /// @param proposedToAddr The Ethereum address of the Owner who is the counterparty on the EdgeProposal.\n  event EdgeProposalCreated(uint256 edgeProposalKey, address indexed proposerAddr, address indexed proposedToAddr);\n  \n  /// @notice An EdgeProposal was accepted, connecting or disconnecting two Nodes.\n  /// @param edgeProposalKey The uint256 key of the accepted EdgeProposal (which will have been deleted).\n  /// @param accepterAddr The Ethereum address of the Owner who accepted the EdgeProposal.\n  /// @param acceptedAddr The Ethereum address of the Owner whose EdgeProposal was accepted.\n  event EdgeProposalAccepted(uint256 edgeProposalKey, address indexed accepterAddr, address indexed acceptedAddr);\n  \n  /// @notice An EdgeProposal was rejected.\n  /// @param edgeProposalKey The uint256 key of the rejected EdgeProposal (which will have been deleted).\n  /// @param rejecterAddr The Ethereum address of the Owner who rejected the EdgeProposal.\n  /// @param rejectedAddr The Ethereum address of the Owner who was the counterparty on the EdgeProposal.\n  event EdgeProposalRejected(uint256 edgeProposalKey, address indexed rejecterAddr, address indexed rejectedAddr);\n  \n  /// @notice An edge between Nodes was created.\n  /// @param nodeKey0 The uint256 key of Node 0.\n  /// @param nodeKey1 The uint256 key of Node 1.\n  /// @param slot0 The uint8 slot belonging to Node 0 that was connected.\n  /// @param slot1 The uint8 slot belonging to Node 1 that was connected.\n  /// @param ownerAddr0 The address of the owner of Node 0.\n  /// @param ownerAddr1 The address of the owner of Node 1.\n  event EdgeCreated(uint256 nodeKey0, uint256 nodeKey1, uint8 slot0, uint8 slot1, address indexed ownerAddr0, address indexed ownerAddr1);\n  \n  /// @notice An edge between Nodes was deleted.\n  /// @param nodeKey0 The uint256 key of Node 0.\n  /// @param nodeKey1 The uint256 key of Node 1.\n  /// @param slot0 The uint8 slot belonging to Node 0 that was disconnected.\n  /// @param slot1 The uint8 slot belonging to Node 1 that was disconnected.\n  /// @param ownerAddr0 The address of the owner of Node 0.\n  /// @param ownerAddr1 The address of the owner of Node 1.\n  event EdgeDeleted(uint256 nodeKey0, uint256 nodeKey1, uint8 slot0, uint8 slot1, address indexed ownerAddr0, address indexed ownerAddr1);\n  \n  /// @notice A mapping allowing lookup of EdgeProposals by their keys.\n  /// @dev EdgeProposal keys = uint256(kekkac(halfEdgeKey0, halfEdgeKey1))\n  mapping (uint256 => EdgeProposal) internal edgeProposalLookup;\n  \n  /// @notice A function to generate a unique key for an EdgeProposal from given Nodes and their slots.\n  /// @param _nodeKey0 The uint256 key of the first Node.\n  /// @param _nodeKey1 The uint256 key of the second Node.\n  /// @param _slot0 The uint8 slot of the first Node.\n  /// @param _slot1 The uint8 slot of the second Node.\n  /// @return A uint256 key.\n  function edgeProposalKeyFromNodesAndSlots(uint256 _nodeKey0, uint256 _nodeKey1, uint8 _slot0, uint8 _slot1) public pure returns (uint256) {\n    return uint256(\n      keccak256(\n        abi.encodePacked(\n          _nodeKey0,\n          _nodeKey1,\n          _slot0,\n          _slot1\n        )\n      )\n    );\n  }\n  \n  /// @notice Create an EdgeProposal, between the Nodes with the given keys, via their given slots. Simply immediately toggle an edge if both are owned by msg.sender. Will error if they are neither connected nor disconnected.\n  /// @param _nodeKey0 The uint256 key of the first Node to connect to/disconnect from the second one.\n  /// @param _nodeKey1 The uint256 key of the second Node to connect to/disconnect from the first one.\n  /// @param _slot0 The uint8 slot of the first Node to connect/disconnect through.\n  /// @param _slot1 The uint8 slot of the second Node to connect/disconnect through.\n  /// @param _message The bytes30 arbitrary message from the proposer to the proposee: a human-readable form of the EdgeProposal, aka the \"epmess\".\n  function createEdgeProposal(uint256 _nodeKey0, uint256 _nodeKey1, uint8 _slot0, uint8 _slot1, bytes30 _message) external {\n    assert(msg.data.length >= 100); // 32 bytes per uint256 * 2 uint256 + 1 byte per uint8 * 2 uint8 + 30 bytes per bytes30 (duh) + 4 = 100\n    \n    // Make sure slots are in a valid range.\n    require(\n      _slot0 < 6 && _slot1 < 6,\n      \"Both slots must be in the range 0-5.\"\n    );\n    \n    Node storage node0 = nodeLookup[_nodeKey0]; // TODO check if storage is needed.\n    \n    // Make sure Node 0 exists and is owned by msg.sender.\n    require(\n      node0.ownerAddr == msg.sender,\n      \"You must own the Node at _nodeKey0 in order to manage its edge Nodes, or it might not even exist.\"\n    );\n    \n    Node storage node1 = nodeLookup[_nodeKey1]; // TODO check if storage is needed.\n    \n    // Make sure Node 1 exists.\n    require(\n      node1.ownerAddr != 0,\n      \"The Node at _nodeKey1 must exist.\"\n    );\n    \n    // Make sure Nodes and their slots are in valid connect or disconnect configuration.\n    require(\n      (node0.edgeNodeKeys[_slot0] == _nodeKey1 && node1.edgeNodeKeys[_slot1] == _nodeKey0)\n      || (node0.edgeNodeKeys[_slot0] == 0 && node1.edgeNodeKeys[_slot1] == 0),\n      \"The Nodes slots at _nodeKey0 _slot0 and _nodeKey1 _slot1 must be either both connected to each other or both disconnected from any Node.\"\n    );\n    \n    // If Node 1 is owned by msg.sender, don't create a proposal at all: just connect/disconnect the nodes!\n    if (node1.ownerAddr == msg.sender) {\n      // Since we already confirmed they are in valid configuration, a simple check if one slot is 0 or not is enough to let us know what to do.\n      if (node0.edgeNodeKeys[_slot0] == 0) {\n        // Connect 'em.\n        node0.edgeNodeKeys[_slot0] = _nodeKey1;\n        node1.edgeNodeKeys[_slot1] = _nodeKey0;\n        \n        // Log the edge creation.\n        emit EdgeCreated(_nodeKey0, _nodeKey1, _slot0, _slot1, msg.sender, msg.sender);\n      }\n      else {\n        // Disconnect 'em.\n        node0.edgeNodeKeys[_slot0] = 0;\n        node1.edgeNodeKeys[_slot1] = 0;\n        \n        // Log the edge deletion.\n        emit EdgeDeleted(_nodeKey0, _nodeKey1, _slot0, _slot1, msg.sender, msg.sender);\n      }\n      return; // Done, in either case.\n    }\n    \n    // Node 1 is not owned by msg.sender, so continue with an actual EdgeProposal.\n    uint256 newEdgeProposalKey = edgeProposalKeyFromNodesAndSlots(_nodeKey0, _nodeKey1,  _slot0, _slot1);\n    require(\n      edgeProposalLookup[newEdgeProposalKey].nodeKey0 == 0,\n      \"This exact EdgeProposal already exists. You can reject it if you want.\"\n    );\n    \n    uint256 reverseEdgeProposalKey = edgeProposalKeyFromNodesAndSlots(_nodeKey1, _nodeKey0, _slot1, _slot0);\n    require(\n      edgeProposalLookup[reverseEdgeProposalKey].nodeKey0 == 0,\n      \"The reverse of this EdgeProposal already exists. You can either reject or accept it.\"\n    );\n    \n    // Combine the epmess and the slots into one bytes32.\n    bytes32 messageAndSlots = bytes32(_message);\n    messageAndSlots |= bytes32(byte(_slot0)) >> 240; // byte 30\n    messageAndSlots |= bytes32(byte(_slot1)) >> 248; // byte 31\n    \n    // Okay, we're clear to actually create the EdgeProposal. Set 3 storage slots: 60k of gas right there!\n    edgeProposalLookup[newEdgeProposalKey] = EdgeProposal({\n      nodeKey0: _nodeKey0,\n      nodeKey1: _nodeKey1,\n      messageAndSlots: messageAndSlots\n    });\n    \n    // Log the EdgeProposal creation.\n    emit EdgeProposalCreated(newEdgeProposalKey, msg.sender, node1.ownerAddr);\n  }\n  \n  /// @notice Accept an EdgeProposal, if you are the proposedTo party.\n  /// @param _edgeProposalKey The uint256 key of the EdgeProposal that you would like to accept. The Node at its nodeKey1 must belong to msg.sender.\n  function acceptEdgeProposal(uint256 _edgeProposalKey) external {\n    assert(msg.data.length >= 36); // 32 bytes per uint256 + 4 = 36\n    \n    EdgeProposal memory edgeProposal = edgeProposalLookup[_edgeProposalKey];\n    uint8 slot0 = uint8(edgeProposal.messageAndSlots[30]);\n    uint8 slot1 = uint8(edgeProposal.messageAndSlots[31]);\n    \n    // The EdgeProposal must exist, and you must own the nodeKey1 Node\n    Node storage node1 = nodeLookup[edgeProposal.nodeKey1];\n    require(\n      node1.ownerAddr == msg.sender,\n      \"You must own the EdgeProposal nodeKey1 Node, or the EdgeProposal might not even exist.\"\n    );\n    \n    // Note: node0 could well belong to msg.sender depending on Node transactions after the EdgeProposal was created. That's fine.\n    Node storage node0 = nodeLookup[edgeProposal.nodeKey0];\n    \n    require(\n      (node0.edgeNodeKeys[slot0] == edgeProposal.nodeKey1 && node1.edgeNodeKeys[slot1] == edgeProposal.nodeKey0)\n      || (node0.edgeNodeKeys[slot0] == 0 && node1.edgeNodeKeys[slot1] == 0),\n      \"The Nodes slots at _nodeKey0 _slot0 and _nodeKey1 _slot1 must be either both connected to each other or both disconnected from any Node.\"\n    );\n    \n    // Okay, everything checks out - let's do this!\n    \n    // Delete the EdgeProposal from the lookup.\n    delete edgeProposalLookup[_edgeProposalKey];\n    \n    // Since we already confirmed they are in valid configuration, a simple check if one slot is 0 or not is enough to let us know what to do.\n    if (node0.edgeNodeKeys[slot0] == 0) {\n      // Connect 'em.\n      node0.edgeNodeKeys[slot0] = edgeProposal.nodeKey1;\n      node1.edgeNodeKeys[slot1] = edgeProposal.nodeKey0;\n      \n      // Log the edge creation.\n      emit EdgeCreated(edgeProposal.nodeKey0, edgeProposal.nodeKey1, slot0, slot1, node0.ownerAddr, node1.ownerAddr);\n    }\n    else {\n      // Disconnect 'em.\n      node0.edgeNodeKeys[slot0] = 0;\n      node1.edgeNodeKeys[slot1] = 0;\n      \n      // Log the edge deletion.\n      emit EdgeDeleted(edgeProposal.nodeKey0, edgeProposal.nodeKey1, slot0, slot1, node0.ownerAddr, node1.ownerAddr);\n    }\n    \n    // Log the EdgeProposal acceptance.\n    emit EdgeProposalAccepted(_edgeProposalKey, msg.sender, node0.ownerAddr);\n  }\n  \n  /// @notice Reject an EdgeProposal, if you are either of the parties involved.\n  /// @param _edgeProposalKey The uint256 key of the EdgeProposal that you would like to reject. The Node at at least one of its nodeKey0 or nodeKey1 must belong to msg.sender.\n  function rejectEdgeProposal(uint256 _edgeProposalKey) external {\n    assert(msg.data.length >= 36); // 32 bytes per uint256 + 4 = 36\n    \n    EdgeProposal memory edgeProposal = edgeProposalLookup[_edgeProposalKey];\n    \n    // Make sure the EdgeProposal exists and msg.sender is on either end of it.\n    address[2] memory nodeOwnerAddrs = [\n      nodeLookup[edgeProposal.nodeKey0].ownerAddr,\n      nodeLookup[edgeProposal.nodeKey1].ownerAddr\n    ];\n    require(\n      nodeOwnerAddrs[0] == msg.sender || nodeOwnerAddrs[1] == msg.sender,\n      \"You must be either the proposer or the proposedTo to reject this EdgeProposal, or it might not even exist.\"\n    );\n    \n    // Delete it from the lookup.\n    delete edgeProposalLookup[_edgeProposalKey]; // Free up storage\n    \n    // Log the EdgeProposal rejection.\n    emit EdgeProposalRejected(_edgeProposalKey, msg.sender, nodeOwnerAddrs[nodeOwnerAddrs[0] == msg.sender ? 1 : 0]);\n  }\n  \n  /// @notice Get the EdgeProposal at the given key.\n  /// @param _edgeProposalKey The uint256 key of the desired EdgeProposal.\n  /// @return nodeKey0 The uint256 key of the proposer's Node.\n  /// @return nodeKey1 The uint256 key of the proposee's Node.\n  /// @return slot0 The uint8 slot in the proposer's Node that would be connected/disconnected.\n  /// @return slot1 The uint8 slot in the proposee's Node that would be connected/disconnected.\n  /// @return valid A bool indicating whether this EdgeProposal is still valid.\n  /// @return connect A bool indicating whether this edgeProposal would connect (true) or disconnect the proposed Nodes. false if EdgeProposal is invalid.\n  function getEdgeProposal(uint256 _edgeProposalKey) external view returns (\n    uint256 nodeKey0,\n    uint256 nodeKey1,\n    bytes30 message,\n    uint8 slot0,\n    uint8 slot1,\n    bool valid,\n    bool connect\n  ) {\n    EdgeProposal memory edgeProposal = edgeProposalLookup[_edgeProposalKey];\n    \n    // Make sure it's real.\n    require(\n      edgeProposal.nodeKey0 != 0,\n      \"The EdgeProposal at _edgeProposalKey must exist.\"\n    );\n    \n    // Return its set values.\n    nodeKey0 = edgeProposal.nodeKey0;\n    nodeKey1 = edgeProposal.nodeKey1;\n    message = bytes30(edgeProposal.messageAndSlots);\n    slot0 = uint8(edgeProposal.messageAndSlots[30]);\n    slot1 = uint8(edgeProposal.messageAndSlots[31]);\n    \n    // Also check validity and, if valid, whether the EdgeProposal would connect or disconnect the Nodes.\n    if (uint(nodeLookup[nodeKey0].ownerAddr) == 0 || uint(nodeLookup[nodeKey1].ownerAddr) == 0) {\n      // One or both of the Nodes were since deleted.\n      valid = false;\n      connect = false;\n    }\n    else {\n      // Nodes are valid - check the nodeKeys in their slots.\n      uint256 slotKey0 = nodeLookup[nodeKey0].edgeNodeKeys[slot0];\n      uint256 slotKey1 = nodeLookup[nodeKey1].edgeNodeKeys[slot1];\n      \n      if (slotKey0 == nodeKey1 && slotKey1 == nodeKey0) {\n        valid = true;\n        connect = false;\n      }\n      else if (slotKey0 == 0 && slotKey1 == 0) {\n        valid = true;\n        connect = true;\n      }\n      else {\n        // One or both of the slots were since\n        valid = false;\n        connect = false;\n      }\n    }\n  }\n}\n",
  "sourcePath": "/home/noah/Programs/Javascript/web3/interweave.network/solidity/contracts/interweave-free/InterweaveProposals.sol",
  "compiler": {
    "name": "solc",
    "version": "0.4.24+commit.e67f0147.Emscripten.clang"
  },
  "schemaVersion": "2.0.1",
  "updatedAt": "2018-10-28T00:39:57.058Z"
}