{
  "contractName": "SetHash",
  "abi": [
    {
      "anonymous": false,
      "inputs": [
        {
          "indexed": true,
          "name": "owner",
          "type": "address"
        },
        {
          "indexed": false,
          "name": "newHash",
          "type": "string"
        }
      ],
      "name": "HashChanged",
      "type": "event"
    },
    {
      "constant": false,
      "inputs": [
        {
          "name": "_hash",
          "type": "string"
        }
      ],
      "name": "setHash",
      "outputs": [],
      "payable": false,
      "stateMutability": "nonpayable",
      "type": "function"
    },
    {
      "constant": true,
      "inputs": [
        {
          "name": "_owner",
          "type": "address"
        }
      ],
      "name": "getHash",
      "outputs": [
        {
          "name": "",
          "type": "string"
        }
      ],
      "payable": false,
      "stateMutability": "view",
      "type": "function"
    }
  ],
  "bytecode": "0x608060405234801561001057600080fd5b506104cf806100206000396000f30060806040526004361061004c576000357c0100000000000000000000000000000000000000000000000000000000900463ffffffff1680631da0b8fc146100515780631ed83fd41461010d575b600080fd5b34801561005d57600080fd5b50610092600480360381019080803573ffffffffffffffffffffffffffffffffffffffff169060200190929190505050610176565b6040518080602001828103825283818151815260200191508051906020019080838360005b838110156100d25780820151818401526020810190506100b7565b50505050905090810190601f1680156100ff5780820380516001836020036101000a031916815260200191505b509250505060405180910390f35b34801561011957600080fd5b50610174600480360381019080803590602001908201803590602001908080601f0160208091040260200160405190810160405280939291908181526020018383808284378201915050505050509192919290505050610256565b005b60606000808373ffffffffffffffffffffffffffffffffffffffff1673ffffffffffffffffffffffffffffffffffffffff1681526020019081526020016000208054600181600116156101000203166002900480601f01602080910402602001604051908101604052809291908181526020018280546001816001161561010002031660029004801561024a5780601f1061021f5761010080835404028352916020019161024a565b820191906000526020600020905b81548152906001019060200180831161022d57829003601f168201915b50505050509050919050565b602e81511415156102f5576040517f08c379a00000000000000000000000000000000000000000000000000000000081526004018080602001828103825260278152602001807f4950465320686173686573206d7573742062652034362063686172616374657281526020017f73206c6f6e672e0000000000000000000000000000000000000000000000000081525060400191505060405180910390fd5b806000803373ffffffffffffffffffffffffffffffffffffffff1673ffffffffffffffffffffffffffffffffffffffff16815260200190815260200160002090805190602001906103479291906103fe565b503373ffffffffffffffffffffffffffffffffffffffff167fc1c4c22379d740e57c949a3e6c6b0213e00c68a6982f5f70ffd4f15ff427754b826040518080602001828103825283818151815260200191508051906020019080838360005b838110156103c15780820151818401526020810190506103a6565b50505050905090810190601f1680156103ee5780820380516001836020036101000a031916815260200191505b509250505060405180910390a250565b828054600181600116156101000203166002900490600052602060002090601f016020900481019282601f1061043f57805160ff191683800117855561046d565b8280016001018555821561046d579182015b8281111561046c578251825591602001919060010190610451565b5b50905061047a919061047e565b5090565b6104a091905b8082111561049c576000816000905550600101610484565b5090565b905600a165627a7a723058209420d4fc0efe2eb08fae753cad3a7a425878b18b18cc4159ed3b87a42970701b0029",
  "source": "pragma solidity ^0.4.24;\n\n/// @title A very simple contract that can set one ipfs hash (a string) for each Eth address.\n/// @author interweaver\ncontract SetHash {\n    \n    /// @notice The mapping that goes from addresses to hashes (strings).\n    mapping(address => string) private hashOf;\n    \n    /// @notice An event that fires when a hash is changed.\n    /// @param owner The address whose hash changed. Indexable.\n    /// @param newHash The new value of the hash (there may or may not have been an old one.)\n    event HashChanged(address indexed owner, string newHash);\n    \n    /// @notice A function that allows a user to set the ipfs hash associated with their address.\n    /// @param _hash The new value of the hash. Must be 46 characters long.\n    function setHash(string _hash) public {\n        \n        // Enforce byte-length to be 46\n        require(bytes(_hash).length == 46, \"IPFS hashes must be 46 characters long.\");\n        \n        // Save the hash.\n        hashOf[msg.sender] = _hash;\n        \n        // Notify any watchers.\n        emit HashChanged(msg.sender, _hash);\n    }\n    \n    /// @notice A function that allows anyone to look up the hash for any address.\n    /// @param _owner The address to look up.\n    /// @return The hash (a string), or the empty string if it was never set.\n    function getHash(address _owner) public view returns (string) {\n        return hashOf[_owner];\n    }\n}\n",
  "sourcePath": "/home/noah/Programs/Javascript/web3/interweave.network/solidity/contracts/sethash/sethash.sol",
  "compiler": {
    "name": "solc",
    "version": "0.4.24+commit.e67f0147.Emscripten.clang"
  },
  "schemaVersion": "2.0.1",
  "updatedAt": "2018-10-21T00:10:00.677Z"
}